:020000040100F9
:1000000060950021D15D00016FF70101BD5D000128
:10001000BD5D0001BD5D0001BD5D0001000000008F
:10002000000000000000000000000000955E0001DC
:10003000BD5D000100000000355E0001BD5D0001F6
:10004000FD5F0001FD5F0001FD5F0001FD5F00013C
:10005000FD5F0001FD5F0001FD5F0001FD5F00012C
:100060000D720101FD5F0001FD5F0001FD5F0001F8
:10007000FD5F0001FD5F0001FD5F0001FD5F00010C
:10008000FD5F0001FD5F0001FD5F0001FD5F0001FC
:10009000FD5F0001FD5F0001FD5F0001FD5F0001EC
:1000A000FD5F0001FD5F0001FD5F0001FD5F0001DC
:0800B000FD5F0001FD5F00018E
:1000B80053B94AB9002908BF00281CBF4FF0FF31C7
:1000C8004FF0FF3000F00CB8ADF1080C6DE904CE2C
:1000D80000F008F8DDF804E0DDE9022304B0704719
:1000E800704700BF2DE9F04786468C460846089EB3
:1000F800154674461946002B40F0C1808542B2FA75
:1001080082F245D94AB1C2F1200300FA02FC9540B7
:1001180094402EFA03F343EA0C0C4FEA154EA8B2AA
:10012800230CBCFBFEF80EFB18CC08FB00F943EAD5
:100138000C43994528D9EB1808F1FF3704D29945A3
:1001480002D9A8F102072B44A3EB0903A4B2B3FB1D
:10015800FEFC0EFB1C330CFB00F044EA0344A042F7
:1001680014D92C190CF1FF3304D2A04202D9ACF1F6
:1001780002032C44241A43EA07401EB1D44000234A
:1001880034607360BDE8F0874746DDE76346F1E712
:1001980092BB431B01214FEA154EAFB2200CB3FBB3
:1001A800FEFC0EFB1C330CFB07F840EA03439845A2
:1001B80061D9EB180CF1FF3004D2984502D9ACF1A3
:1001C80002002B44A3EB0803A4B2B3FBFEFC0EFB16
:1001D8001C330CFB07F744EA0344A7424DD92C19FA
:1001E8000CF1FF3304D2A74202D9ACF102032C442C
:1001F800E41B43EA0040C0E7C2F120039540944065
:1002080020FA03F12EFA03F34FEA154E9040AFB2ED
:100218000343B1FBFEFC0EFB1C10190C0CFB07F88A
:1002280041EA0041884522D969180CF1FF3004D20F
:10023800884502D9ACF102002944A1EB08019BB220
:10024800B1FBFEFC0EFB1C110CFB07F743EA014354
:100258009F420ED9EB180CF1FF3104D29F4202D90C
:10026800ACF102012B44DB1B41EA004193E76046F5
:10027800E3E76146F7E76046A4E76346B8E78342E9
:1002880006D916B9002108467CE7C6E900E0F9E777
:10029800B3FA83F78FB9834201D3724508D8BEEB0E
:1002A800020460EB030301209C461EB9002169E7A4
:1002B8003846FAE7C6E9004CF8E7C7F1200CBB401E
:1002C8000EFA07F522FA0CF42EFA0CF1BA401C4388
:1002D80020FA0CF3B8404FEA144901431FFA84FE90
:1002E800B3FBF9F809FB18300B0C08FB0EFA43EACC
:1002F80000439A4540D9E31808F1FF3004D29A45E3
:1003080002D9A8F102002344A3EB0A0389B2B3FB84
:10031800F9F809FB183308FB0EFE41EA03418E4544
:100328002CD9611808F1FF3304D28E4502D9A8F1FF
:100338000203214443EA0040A1EB0E01A0FB02980E
:100348004145CE46434602D306D14D4504D2013835
:10035800B9EB020E68EB0403002EA7D0B5EB0E0232
:1003680061EB030101FA0CFC22FA07F3F9404CEAAD
:100378000303C6E9003199E74046C5E74346D9E794
:100388002DE9F8430F46D0E90718856901EB080401
:100398002F34A542164619D81BA3D3E90023DFF84A
:1003A8007080A1FB0801FFF783FE0346601BA0FBDA
:1003B800080123F07F4414A3D3E90023FFF778FE54
:1003C80020F07F403C603060BDE8F883DFF8409063
:1003D8000DA3D3E90023A5FB0901FFF769FE0AA3D2
:1003E800D3E900230A2104460A4824F07F44E8FBA5
:1003F8000901FFF75DFE20F07F403C603060BDE8FA
:10040800F88300BFAFF300808D49FD1A0700000094
:1004180000CA9A3B00166BF12DE9F04F8DB0179C7E
:100428000546A76B0E4610469A469DF858C04FB130
:10043800B4F878301BB1B4F876209A4278D2E16FDC
:10044800002978D14FF6FF739A4521D023780133DC
:10045800DBB22370002B79D00022594904F1100730
:100468008B7AC1E900506CF300038B72554BA1F8ED
:1004780008A09960CF600120114606F0D1FB002842
:1004880066D1A36BC4F8905013B120460EF04AFD14
:10049800257E15F001054BD14B4A4C4B11781B7842
:1004A8008B4257D04FF6FF739A4508BF4FF0000AAA
:1004B800D4F87C8014BF0AF101075746B4F8769047
:1004C80018BFBFB2B8F1000F2FD0B9F1000F2CD070
:1004D80040F271214FF0070BA26E0AF1010A1FFAD0
:1004E8008AF301FB02FA3A4A0AFB03F3A6FB02016C
:1004F80009930BFB061130A3D3E90023FFF7D8FDBE
:10050800099B334A1E18A5FB02012BA3D3E900233C
:100518000BFB0511FFF7CCFD50443044804586BFE6
:10052800A8EB0606E667C4F87CA04F44A4F87670EA
:100538000DB0BDE8F08F40F27123A26EA2FB032339
:100548008A4273F10003FFF47DAFF1E700DE83E731
:1005580000DE96E7013304210BA8137017F0BEF8EC
:100568002846CDE90355CDE90155009540F24715D8
:100578000B9B18490694A1FB03215F1A164A01EB4D
:100588005701090A05FB1133A21A14499208A1FB65
:10059800021213499208023201330591D2B20121A5
:1005A8000B9308F00DF810F0FD0F01D10B9D79E7C2
:1005B80000DEFBE7AFF3008000CA9A3B00000000B2
:1005C80030550021C40000219D8000219C8000211D
:1005D8008D49FD1A21F1D4905C55002115F9AC1B09
:1005E800EDD6000100000000002900F0B9812DE9D6
:1005F800F04F8FB0002840F0B5818C4C164694F827
:1006080080201D4612F0010740F0B481FF23607E70
:10061800E37600F0030016F03DFA94F880004307F3
:1006280000F1F48094F82920637F04EB8202D76AF2
:1006380004EB8303D3F82080002F00F0CF803946E5
:1006480040460DF0B5FE002840F0878198F800304C
:1006580013F00E0F40F0F0806369002B40F07C81AE
:1006680008F064FF8146002800F0AF8108F06AFFB7
:100678000A90002800F0A68110F014F9834600289B
:1006880000F09D814FF6FF728284C06E0BF110035B
:100698000B93002800F016820BF160020BF15C014D
:1006A80006F038FA00219BF87220CBF86C1022F083
:1006B80007028BF87220ABF8701098F8002002F04F
:1006C8000F02072A00F0F08101229BF8581021F050
:1006D800770141F011018BF8581011464FF07F0C4B
:1006E800D20042EA012E5249ABF8B6C0D1F8012037
:1006F80011F801CB4FF0000A89889BF88001ABF80C
:100708008511ABF88B114FF4C021CBF87211BBF8EF
:1007180058100CF0010C21F4E1614EEA0101ABF82C
:1007280058109BF837106CF3861001F03F0161F008
:100738007F018BF837109BF83C106CF3C71021F041
:100748000F01CBF88121CBF887218BF83C108BF86F
:100758008001CBE912AA58468BF839A0ABF82AA039
:10076800CBF82EA0CBF850A0ABF840A1ABF878A1FD
:10077800ABF86EA112F0A2FA8BF844A1CBF848911D
:1007880010F0FAFB9BF8801160F302018BF88011DE
:1007980010F0F8FB9BF8801160F3C5018BF880110D
:1007A8009BF842110BF1C4006AF341018BF8421126
:1007B80012F08EF80A9BC4F8609063660BF1100380
:1007C8006361CBE902AA8BF800A0CBF810B017F050
:1007D8000BFAB0B30DF02AF80320BEE098F8003009
:1007E80003F00F03072B00F0B780124817F056FBF1
:1007F800C0B2002840F0E98094F8293004EB830364
:10080800DF6A04233B7006237B7018E73A46C0F37F
:10081800C00004F1810116F0CFFAFF28E0763FF41A
:1008280001AF384616F07CF9FCE600BF5C550021A4
:100838008B1902018455002103F00F03072B00F0E8
:100848004681B34B1B78022B00F04781002363637A
:1008580000252E46A4F878500025637E227EE667A0
:10086800C3F38206A37EC2F3420201210DF13300D5
:100878008DF8332003F00109A4F8765006F0EAFA5F
:100888000246002864D0334639464046CDF80090E9
:100898000CF018FE9F49A04BA0FB0101C01841F1C4
:1008A800070199A3D3E90023C4E902552570FFF78E
:1008B800FFFBB4F86860606007F0AEFF00F118074E
:1008C80046B998F8005005F00F05A5F10105B5FAED
:1008D80085F56D09237E65F300032376DB076568DC
:1008E80000F12481D4F83880B8F1000F6FD14FF6A9
:1008F800FF7391214FF0020903938848884B0495B0
:1009080005F247150694CDF808801D600993A6FBEB
:10091800000301FB0631834B0DAD0793824BCDF8E5
:100928003490059378A3D3E900230895FFF7C0FB1B
:1009380001463B4601914A4603214046CDF80080D6
:1009480007F0E6FD294608F07FFE002800F09C80AD
:1009580063690BB10CF06AFF0C200FB0BDE8F08F93
:100968000CF08EBF6A4B1B78022BF5D000200FB01D
:10097800BDE8F08F664B1B78022BF7D194F829203D
:10098800637F04EB820204EB8303D16A186A0DF0DB
:100998000FFD0028E1D1636B002BDDD01A7902F03E
:1009A800FF0142B942F2107206FB02F2A4F8761077
:1009B800A4F87850E2671B79002BD7D0CCE70A98C7
:1009C80008F0C6FD484608F0B7FD0720C5E7D8F887
:1009D8000080AB1C3B440DA940460D9300F06CF918
:1009E80040F27121A36E94F874208146A3FB013173
:1009F800002A40F0D28042F6DC32981841F100011A
:100A080040F2E2420023FFF753FB80B2A8F834001B
:100A18004A4640460D9900F093F98146002897D13F
:100A28000DAB08934FF6FF739121049505F2471219
:100A38000225029003933948394B06941A600993AA
:100A4800A6FB000301FB0631364B0D950793364B89
:100A580005932DA3D3E90023FFF72AFB01463B4664
:100A680001912A4603214846CDF8009007F050FD31
:100A78000DA908F0E9FD00287FF46AAF98F8463020
:100A880043F0010388F8463094F88030002043F0A2
:100A9800010384F880300FF02DFC00287FF466AF46
:100AA800012015F0D9FF61E7617E9BF858204909BC
:100AB80061F3020261F306128BF85820A27E02F05D
:100AC80001020BE60BF16400CBF86C00E4E598F842
:100AD800023059067FF5B5AEBEE508F027FD814620
:100AE800002867D008F02EFD00286AD00023C0F83F
:100AF80000900371237E6063DA073FF5A9AE42F2E6
:100B0800107303FB06F6A5E68D49FD1A07000000E1
:100B18009B80002100CA9A3B8C49FD1A002AE78471
:100B280050550021E9890001210400010020022616
:100B3800274A04950992019506941060254A264D86
:100B480005920DAA032108923B463246CDE90200E0
:100B5800009007950D9607F0DBFC0DA908F074FDD1
:100B680000287FF4F5AE07954AF2D8350DAA089209
:100B78001A4A032105923B460122CDE90300CDE93B
:100B88000100069400950D9607F08AFC0DA908F05F
:100B98005BFD00283FF478AFDAE602FB0111013271
:100BA800A2FB030340F2E24219440023FFF780FA54
:100BB80080B22BE76369002B3FF407AF0CF036FED9
:100BC80003E76369002B3FF4FDAE0CF02FFEF9E656
:100BD8005055002121040001E98900018DD500014B
:100BE8002DE9F04104460D460121237E8AB094F890
:100BF8001A80C3F342030DF12300164608EA0108E0
:100C0800677E8DF8233006F025F9C7F38207024680
:100C18003B4631462846CDF800800CF053FC23A310
:100C2800D3E900231C491D4DA0FB01C11CEB0500A5
:100C380041F10701FFF73CFA63680546984223D261
:100C48000022191A029102210192154A154BA21A83
:100C5800CA40A3FB02320023CA400A440991124940
:100C680009AE059118460321CDE903330696D2B2A1
:100C7800009307F0A5FC314608F0E6FC40B9656032
:100C880000200AB0BDE8F081FAD90021EA1AD9E7B4
:100C98000C200AB0BDE8F08100CA9A3B8C49FD1AC5
:100CA8005C55002115F9AC1BE98900018D49FD1A35
:100CB80007000000000000002DE9F04107251E4E46
:100CC80082B0044688460DF01BFD19A3D3E9002322
:100CD800B4462946194FE0FB07C16046FFF7E8F91B
:100CE8000146FF2394F8252021F07F4104EB82027E
:100CF8006160916A20461A460DF09CFC0CA3D3E96A
:100D080000232946E0FB07613046FFF7D1F901A926
:100D180020F07F4015F0DAF818B9019B0233C8F8C3
:100D28000030002002B0BDE8F08100BFAFF30080C2
:100D38008D49FD1A070000008C49FD1A00CA9A3B2C
:100D48002DE9F04300268DB088461746C0E90266B3
:100D5800482221490670044605F0BCFE40F2E243F1
:100D680002220546A08E1D4903FB00F00B92A0FB52
:100D7800010117A3D3E90023FFF79AF90DF12C0914
:100D88000694CDF82090616804460F441449104633
:100D9800079114494FF47A72059119460023CDE959
:100DA8000367FFF785F901460335EDB243462A4646
:100DB8000291304603210194009607F071FB4946E1
:100DC80008F042FC0DB0BDE8F08300BFAFF300802F
:100DD8008D49FD1A070000003456002100CA9A3BCD
:100DE800E989000145E7000170B51E46C37815463C
:100DF800DC074CBF00F10A04041D9A074FF00702F4
:100E0800174848BF06341B07A1FB000302FB01314A
:100E180011A3D3E9002348BF0234FFF749F9AD1BFA
:100E280010492844A1FB00310D09490C04D00121C7
:100E38000D4BA3FB00304509A278207822F01F0251
:100E4800C5F3042361F3C710134320706570A370C2
:100E5800204670BDAFF3008000CA9A3B0000000036
:100E68008D49FD1A89888888B5814E1B00000000CD
:100E78002DE9F04F0024012393B0D0F83880109466
:100E88000A93D8F8003048220B90914918460993E4
:100E980005F020FEFF220B9BC51CD3F890A0EDB2F5
:100EA800CDF83CA0CDF82C804FF0020BA8460DF1F0
:100EB8004409554610AF9A460EAE0E948DF8372069
:100EC8000BE0119B53BB0F9BAB422BD19DF83730E6
:100ED800FF2B32D0984535D00F9D7E4B0221CDE9AE
:100EE80004430020CDE90244CDE90067CDF818900D
:100EF8000FAB0DF13702CDF844B007F035FC0228EE
:100F0800DFD1119B022BDCD10221002007F072FCFB
:100F1800119B022BF8D0119B002BD4D000DE0F9B25
:100F2800AB42D3D00A9A531EDBB2002A00F0C3802A
:100F38000A939DF83730FF2BCCD100DE9DF837306F
:100F48009845C9D1109D6449A5F57422A2F510727F
:100F58008A425346DDF82C800E9E07D905F1E875C4
:100F6800013E05F5D4350E9605F5A5755B4AC8F81A
:100F78000C60A2FB0525AD0CC8F81050197F587FEE
:100F880010958142CAB204D00132D2B2022A08BFF7
:100F98000022597E03EB8202D2F820A0C1F382011D
:100FA8000329B8F808909AF8012079D99B7ED400D3
:100FB80003F001035B002B3401339C4004F5BC743F
:100FC800A4B24FF0070B3EA3D3E90023444FA6FB7E
:100FD80007010BFB0611FFF76BF804F5967399B23E
:100FE800404B2844A3FB002323F00F02A2EB13136A
:100FF800B1EB430F21D940F2E242099B09F1010903
:101008009B8E1FFA89F902FB03052FA3D3E900235E
:101018003548A5FB0001FFF74BF829A3D3E90023C6
:1010280020F07F46A6FB0701C8F80C600BFB0611F1
:10103800FFF73EF82D1AC8F810502A46314600230B
:101048005046FFF7D1FED8F80C3009990133C8F89B
:101058000C3091F8452091F844300446934218BF6B
:1010680081F84420099902EB420201EB420393F80C
:101078003D3001EB42023832C98E03F03F03484647
:1010880014F0CEFF237860F30503237007F0C4FB48
:101098000F9907F0C3FB302809D813B0BDE8F08FCB
:1010A8008C180934E4004910CC40A4B289E700DE6A
:1010B80013B0BDE8F08F00DEFF230A9306E700BFF8
:1010C80000CA9A3B000000008D49FD1A0700000085
:1010D8003456002141E70001BFBDF07F83DE1B438A
:1010E8008D49FD1A8988888800CA9A3B000000004B
:1010F8002DE9F04F40F20127A5B02E9C8F430C94A8
:101108002F9C0D460D941E4604460F9200F0028255
:10111800637F05F4007B04EB8303D3F820A09AF8DF
:10112800007007F00F07072F10D0BBF1000F04D194
:101138000C27384625B0BDE8F08F2046D6F80120A8
:10114800317825B0BDE8F04F0DF08EB99AF802302D
:1011580013F03F0218BF9AF803208DF880200AF197
:1011680004020A92BBF1000F02D07F2B00F28581A6
:101178000C9904F11C0016F02FFF81464FF000086F
:1011880003789AF8001023F03F0301F00F010B4396
:1011980000F8023B9AF8023099F802109B0963F3B1
:1011A800871189F802101390A06B04F110028DF8D2
:1011B8007C80002800F0E482437D00EB83039A6979
:1011C80003680B921493D3780232129203F001024F
:1011D8008DF8883011920D991430099316F0FCFEA1
:1011E8008046012299F800C000780CF00F0C20F01E
:1011F8003F000B9B40EA0C0088F80000187898F82C
:1012080000C0C0F3801060F3861C88F800C018780E
:101218005FFA8CFCC00960F3C71C88F800C099F815
:10122800020098F802C08DF8842080099DF880207B
:1012380015F0010360F3871C0E9302F00101099B6E
:1012480088F802C040F00781002900F04B819AF825
:10125800001098F800C0C1F3801161F3861C88F86B
:1012680000C099F800100E9860F3861189F80010F4
:101278000AF10A010A911199002940F047810B9956
:101288000431099103F002011D91910740F1068193
:101298000A999DF8840006310A91414640F00200FF
:1012A8008DF884009AF8000098F800C0C00960F32F
:1012B800C71C01F810CB99F800006FF3C71089F824
:1012C800000003F0020010B109980630099012F0EE
:1012D8000800189002D00A9802300A909DF87C0005
:1012E80040F008008DF87C00881C0E9015F008006E
:1012F80000F0D28002203070D6F80100C6F8011044
:10130800179005369DF8840040F008008DF8840099
:1013180013F00800199002D009980230099012F0D1
:1013280010001A9002D00A9803300A909DF87C00A9
:1013380040F010008DF87C0009F10900109003F0CE
:1013480010001B90E80640F19A80881CC6F801003E
:10135800032030709DF88400053640F010008DF8A9
:10136800840003F01000002800F0928000201690FE
:101378000998033009909DF88400C00644BF0531E0
:101388000E91520611D50A9A01320A92627E02F033
:101398001C02102A00F013829DF87C2042F04002C3
:1013A8008DF87C2009F10A0210925B0608D5099B8A
:1013B800013309939DF8843043F040038DF884305D
:1013C8009DF88430159313F040031C9302D00E9BB4
:1013D80001330E93109B139A981AC0B2022803D8AF
:1013E800012009F103031093099B129A9B1ADBB29F
:1013F800022B03D801230B9A033209920B9A5278D5
:101408009A42C0F0AD800E9908F1020CA1EB0C0CC9
:101418005FFA8CFCBCF1020F04D84FF0010C08F104
:1014280003010E91BBF1000F76D096F800B0D51AE3
:10143800099BEDB2D6F801103570C6F801300536B3
:10144800BBF1000F40F09880002940F085815A4692
:101458005B4609996BE016F801EB98F800C06EF34B
:10146800861C88F800C099F800C06FF3861C89F8BC
:1014780000C000293FF4FFAEFAE6122759E60F989C
:10148800C0063FF56EAF03F01000002840F08280E0
:1014980003F0100016906EE7179033E70E9808F1E6
:1014A8000A0100287FF407AF03F00200002869D082
:1014B80041469DF884C00B984CF0020C8DF884C00E
:1014C80090F800C098F800E04FEADC1C6CF3C71EE7
:1014D80001F810EB99F800C00E9860F3C71C89F862
:1014E80000C0F1E6119900293AD00B9998F800C08C
:1014F80009780E98C1F3801161F3861C88F800C042
:1015080099F8001060F3861189F800100B990A31D8
:101518000991B7E600DEFBE56D0523D40F9989052F
:1015280000F11A81D31ADDB25A465B46099905EBD8
:10153800020EBEF1FB0F3FF7FCAD0CEB050717449D
:10154800FF2F30DD0CF101035B442B44CA45337097
:1015580000F0A5810B9B984500F09C814527E8E5A4
:101568001F27E6E596F800B0D51A0999D6F8013094
:101578005A46EDB20536DAE75D464FF0000B5A469B
:101588005B46D4E799F800C00E9860F3C71C89F849
:1015980000C09CE69DF8840040F010008DF884009F
:1015A80009981690E4E699F8022089F801000138B4
:1015B80060F3050289F8022098F802200CF1FF3048
:1015C80060F305020E9E88F802200BEB05026244C8
:1015D80088F8012030462A460C931FF0A2F90C9B8C
:1015E80023B15A46194670191FF08EF998F802303F
:1015F8009A0600F0AF809DF87C305B0640F1F680DB
:101608000A9A109912F8013C01F8013C531E0A93FA
:101618004B1E10931A9B13B10A9B033B0A93109E0F
:10162800657E16F8033C6D096FF3050306F8033C65
:1016380016F03AFB002195FAA5F232288CBF00205B
:1016480001208D42B2FA82F208BF4FF0FF3216F83D
:10165800033C520160F386136FF3C71306F8033C8B
:101668001B9B06F8021C06F8012C13B1099B033BCF
:101678000993159BDF0602D50E9B033B0E93169B21
:1016880023B1032219460E981FF04BF9189B13B18A
:101698000A9B023B0A93199B13B1099B023B0993CE
:1016A800179B002B00F0E980179A537812781B02D9
:1016B80003F470631A431098D1B200F8051C94F82B
:1016C8007230C3F303031B0103EB122300F8043C3D
:1016D8000E9800F8021C94F87230C3F303031B0140
:1016E80003EB122300F8013C159B9E076ED40238C9
:1016F800159BDD0709D5119B002B00F0D480099BB1
:10170800991F062206381FF00CF999F802300B9839
:10171800990618BF9DF87C30414618BF89F80330F8
:1017280098F802309A0618BF9DF88430169A18BFA8
:1017380088F803304FF496730193A57E637E05F015
:1017480001055B0900950DF001FC149B93F84630E8
:10175800DB075AD40027ECE499F8023089F8010035
:10176800013860F3050389F8023098F8023088F8E8
:1017780001C00CF1FF3C6CF3050388F8023035E733
:1017880010460DF069FB1490002800F0988014981A
:10179800012290F82530CDF8448000EB8303996A44
:1017A80010308C461CF8023B0B9103F03F030B7082
:1017B800CDF848C043464A7081F803800BE59DF890
:1017C800842042F040028DF88420EEE51D9B002B1A
:1017D8006CD0099B063B09931A680E9941F8082CAE
:1017E8009B88A1F1080021F8043C81E71C9B002B91
:1017F8003FF410AF099A0E9912F8013C01F8013C28
:10180800531E09934B1E0E9304E7149C20460CF0BC
:1018180077FF07212E4A2F4BE0FB023118462AA3F7
:10182800D3E90023FEF744FC636820F07F449C4220
:1018380040D200261F1B0223DDF85080482226498B
:101848004046239305F046F903210023234A23AD9C
:1018580005924218CDE9033318460297069501967A
:10186800D2B2009306F0ACFE294607F0EDFE002840
:101878007FF45EACC8F804406CE794F872301849FD
:1018880003F00F0331F81320501C21F81300C2F3A2
:101898000B0210E70D9AA36B12785A755EE60C9B43
:1018A8001B78637756E60A9B991F2AE70A9B063B33
:1018B8000A9391E77FF64EAF0027E61ABBE7CA45C1
:1018C8007FF437AC00DE34E48D49FD1A07000000D0
:1018D80000CA9A3B8C49FD1A34560021E989000157
:1018E8001056002100000000F8B5294C9DF818E0BA
:1018F80094F8625015F0020540D107074FEA5006E8
:1019080004D594F8C670BF0738D4643471B39127EE
:101918004FEA401C1F48A4F84C10A2FB00014FEAF4
:10192800CE0E07FB021194F844200EF0180E0CF0AE
:10193800200C66F302024CEA0E0C94F838E084F8A6
:10194800442094F862202EF0380E4CEA0E0C63F313
:10195800830284F8622084F838C00BA3D3E90023FB
:10196800FEF7A6FB2065A0652846F8BD94F844302C
:10197800284661F3020384F84430F8BD0C25284654
:10198800F8BD00BFAFF300808D49FD1A07000000C5
:10199800BC560021002AE78470B504469126124DF2
:1019A80082874FEA411CA3FB05019DF810E006FB66
:1019B80003114FEACE0E94F828300EF0180E0CF0F2
:1019C800200C4CEA0E0C23F038034CEA030C84F884
:1019D80028C003A3D3E90023FEF76AFB206470BD87
:1019E8008D49FD1A07000000002AE7840000000066
:1019F8002DE9F04F044690F862308DB06FF3000384
:101A0800C3F3800084F8623094F8383004F146015A
:101A180060F3861384F8383006F0A6FF4FF000080C
:101A2800912194F83820B4F84C30854802F07902B6
:101A380084F83820A3FB0002C4E9028801FB0321D3
:101A48007DA3D3E9002384F800802461FEF730FBEE
:101A58007C4E7D4BA51BA3FB0535A36DC5F3471530
:101A68002365183398429CBF0346C4F85080DFF8BA
:101A7800DC8105EB45028CBF63606060074648F86F
:101A880022304FEA450A002D5BD196F8A83003F0C2
:101A98000703032B75D84FF0000B06F0BDFE6369F2
:101AA80000F11806002B00F088800DF12C09912117
:101AB800AA4408EB8A034FF000084FF0020A099382
:101AC800CDF820900694B4F84C3062685C480492D3
:101AD800A3FB000201FB03215D4BCDF82CA007936B
:101AE8005C4BCDF80C80059353A3D3E90023FEF794
:101AF800DFFA104619464FF47A720023FEF7D8FA37
:101B0800014605355E44EDB20291334603212A466B
:101B180040460197CDF8008006F0FAFC494607F0E8
:101B280093FD002845D194F8623043EA0A0384F80B
:101B380062300CF01BFB00285AD000200DB0BDE825
:101B4800F08F012DA7D196F84430DB07A3D5D4F840
:101B58005090B9F1000F9ED09121B6F84C3038481A
:101B68004FF0000BA3FB000201FB032132A3D3E9D2
:101B78000023FEF79DFA87424AD00023C8F80C30AC
:101B88008BE7D4F85090B9F1000F84D09121B6F8C2
:101B9800B0302B48A3FB000201FB032126A3D3E9A5
:101BA8000023FEF785FA874226D00023C8F80030C4
:101BB80071E70C200DB0BDE8F08F0DF12C09CDE9CF
:101BC8000A3303204B4661680AAA01F05DFD00282C
:101BD8007FF46DAF18A3D3E900230B991E48A1FB2E
:101BE8000001FEF765FA0A9B20F07F461E445EE777
:101BF800504614F031FFA0E7D6F8B4304B449F426A
:101C0800D3D302339F429CBFA9F119036360CCE789
:101C1800336D4B449F42B0D302339F42ADD8A9F1F4
:101C280019036360336DC4F850B0C6F850B003F1BF
:101C3800020BA2E7AFF300808D49FD1A07000000F0
:101C4800002AE784BC5600211F85EB51A4560021C9
:101C5800E9890001C5FC000100CA9A3B00000000A8
:101C68002DE9F04F0B790C46082B074693B009D0A5
:101C7800092B00F07B81062B00F0D38100DE13B026
:101C8800BDE8F08FD1F80890D9F82C30002B40F03F
:101C98004382D9F8008040460EF0F8FA4FF0040C61
:101CA8000530C3B20B930026A27E94F8213066F368
:101CB80086122760A276E660002B00F04D8135463B
:101CC800B64604F1220A94F82220900600F04081DA
:101CD80094F82300C2F30502C1074CBF04F12A019E
:101CE80004F1240110F0020F18BF063110F0040FA0
:101CF80018BF013110F0080F18BF023110F0100B97
:101D08001CBF8B46033110F0200F18BF123140065C
:101D180048BF0131A1EB0A010132D2B2C9B28A42ED
:101D280038BF0A469A4236BF9A1A4FF0000A5FFA3D
:101D380082FABBF1000F00F097819BF802109BF824
:101D480001000A0202F4F852024300F08D81BEF14C
:101D5800000F40F0B38148095F290C9000F2E08140
:101D68009BF8001001F03F0EBEF1240F00F2D8815D
:101D780011F0800F14BF4FF496701E201CF0040F52
:101D880000FB02F20D9000F0E2814FEAC30CA37E43
:101D98000CF12B0CC3F380035B0001330CFA03F343
:101DA80003F5BC730D9803F5967E02EB000CF44521
:101DB800C0F0978149064CBF32214FF4FA7102FBFB
:101DC80001F1DFF8DCC2CDE90F32ACFB01C1890CAF
:101DD8000E9101210C9B01FA03F3D8B2119315F06F
:101DE8006DFD6169109A0F9B2F390A44D31A0E9A18
:101DF8001B1AAC499B1A0F90A3FB0101A6A3D3E9B8
:101E08000023FEF755F994F91A3020F07F42002B91
:101E18000C9280F25B81002D00F0A681AB8D5344BB
:101E28009BB21E2BAB8504D994F91A30002B80F293
:101E3800D880AB6A002B00F0AD81DC6040F23F73C4
:101E4800AA8DAC62A2839BF80020119902F03F0290
:101E580042EA01221340B28822F4E76222F0070224
:101E68001343B38094F91A30002BC0F29581B8F16E
:101E7800000F00F09F8198F8623013F0010340F0E2
:101E88003681D9F82C20B24208BFC9F82C307379B2
:101E980003F00703032B00F2648103F10902D20067
:101EA8005B10DA4007210F9B7E4803F20533134489
:101EB8007D4AE3FB0021104677A3D3E90023FEF710
:101EC800F7F807460E9B0D9A2F3302EB430327F0D2
:101ED8007F4700226F6002210120B36004F06CFE8E
:101EE8000B9AFF2A0DD0002023690C99493B0B441B
:101EF800CDE90000012106F07FFB10F0FD0F40F056
:101F0800708130226949284604F0E4FD0026684BB8
:101F18000121CDE90735674BCDE905356A682369A5
:101F280004920C9ACDE902660092C21D493B3046E4
:101F3800D2B2019606F0B4FA10F0FD0F40F04F81CE
:101F480001220221104613B0BDE8F04F04F034BE60
:101F5800013BDBB2002D3FD1A3832146384607F071
:101F6800FDFA13B0BDE8F04F07F004BB8E684F4B85
:101F780035689D4266D1D5F82090B9F1000F00F080
:101F8800D6804A493022084604F0A4FD0730C3B27F
:101F98000B93D9F800000EF093F996F805C0804627
:101FA8000CF0070CBCF1020F72D0BCF1040F6DD01D
:101FB800BCF1010F7FF462AE062394F81AE0002109
:101FC8007246237194F8213061F386122760E1602C
:101FD800A276002B40F0FE80AA8D13449BB2AB85FD
:101FE800A383B8F1000F00F0808098F86230AA6AE5
:101FF800DB077CD4D4602B6AAC62002B7BD02B6AC5
:10200800002B7AD02B7803F0FF023BB3012A7FD153
:10201800AB68002B7ED1284BC5E9023513B0BDE86B
:10202800F08FD1F80890D9F82C30002B76D1D9F858
:10203800008040460EF02AF90530C3B24FF0010C7B
:102048000B9330E6CB68002B7CD01D682A6A964239
:1020580072D1B1461E46FF230B939AE7284613B068
:10206800BDE8F04F0EF0C2B9002D48D0AB8D5344F7
:102078009BB2AB85A383BEF1000FB2D0AB6A002B35
:1020880043D0DC60AC6213B0BDE8F08F082394E75E
:10209800072392E7AFF300808D49FD1A070000007F
:1020A80083DE1B4300CA9A3B8C49FD1AB0570021B6
:1020B80055040101AD03010145040101002D38D08B
:1020C800AB8D53449BB2AB85A383D7E706F0A4FB43
:1020D80023690C9A383B991806F0A0FB02023FF5D9
:1020E8009AAE002D7FF47DAF37E700DE7DE7AB6A5F
:1020F800A342C6D1C3E500DE81E700DE82E7A4F88B
:102108001CA0BEF1000F3FF428AF00DEAB6AB8E7B1
:1021180000DE7DE700DE7EE700DEBAE500DE86E76A
:1021280095B1AB8D53449BB2AB85A38359E700DED1
:1021380027E7A4F81CA0E8E700DEB1461E46FF2307
:102148000B9326E700DE80E7A4F81CA005E70CF057
:10215800030E73440933DB00CCF3400C23FA0CF371
:1021680020E64FF434729DE61F4804F087FC0546CC
:1021780010B30023027DC0E9023363F3C712037072
:10218800A0F82CA0006100F110060275436283627A
:10219800C0F820906C6251E6D9F82C30B3B9C9F870
:1021A8002C60A37E43F04003A37633796FF3861344
:1021B800337164E500DE5EE694F91A30002BBFF651
:1021C800CCAEA37E43F04003A376C6E6B342E6D086
:1021D80000DEE4E7CEF3C00E04F1220A73E500DE68
:1021E800AEE600DE8DE600BFAC570021000000001F
:1021F8002DE9F04F05468BB08B4601200221994608
:10220800144619F025FD002202218246012004F01F
:10221800D3FC4FF4C8723049284604F05BFC0646EC
:102228002E4B0836F6B2009301214B460020324669
:10223800019506F05BFA10F0FD0F47D1284BA4FB7F
:10224800034823A3D3E9002320464146FDF730FF86
:102258000722244B20F07F47A7FB033102FB07111D
:10226800E01A68EB01014FF47A720023FDF720FFB2
:10227800CDE900B7029008950695696895F9374049
:102288001948049119494B4631EA240128BF0146EF
:102298004FF6FE7405911649324607910020012138
:1022A800039406F0FDF810F0FD0F0DD1BAF1000F00
:1022B80002D10BB0BDE8F08F0122022110460BB00D
:1022C800BDE8F04F04F078BC00DEEFE700DEB5E7CC
:1022D8008D49FD1A0700000008050021810701014A
:1022E80000CA9A3B8D49FD1AFD580101755A010132
:1022F80069070101000000004FF6FF732DE9F04166
:1023080084688CB0A28C9A4245D00546204610F0CD
:10231800A3FF2B7D012B00F03581022B00F02781D4
:10232800002B00F0068194F84471002F40F02381BF
:102338002B8ACDE90A77B4F82E8094F937206BB34D
:10234800002AC0F27F810023A4F87431AB7CA68DEB
:1023580003F003030136012BB6B23AD0B4F8783152
:10236800002B00F01881B34240F2818100229B1BB0
:102378009BB2062BA4F87831E28540F2098194F9E2
:1023880037309342C0F27881002325E020469DF83B
:1023980027100EF015FF0CB0BDE8F081002AB8BF79
:1023A80084F8B970AB7CA68D03F003030136012BCA
:1023B800B6B20ED0B4F87431002BCFD0B34240F28D
:1023C80067819B1BA4F87431B4F87831002BCAD10B
:1023D80002E00023A4F8783194F83C20314663F3F6
:1023E800820284F83C2020460DF1270210F0A2FC5E
:1023F8007430CBD0B4F872312BB1B34240F21281B1
:102408009B1BA4F87231B4F86E312BB1B34240F281
:1024180000819B1BA4F86E31E58D17B9A84500F023
:10242800EF800135ADB294F8B53013F0010123D136
:10243800DDE90A030246002B40F0F280002800F094
:10244800E18019461E46A28C24690090B0480832E3
:102458000191059001210020CDE9035702960694C9
:10246800D2B206F0ADF810F0FD0F94D007F016F9CF
:10247800844290D000DE8EE794F937206FF3000392
:10248800002A84F8B530C0F2A18094F85800C0F34F
:10249800C00100F0070015F00FFA94F8583003F067
:1024A8000703032B00F2A08003F12806F6005B1057
:1024B800DE4094F85930B6F5A07F03F0070338BF23
:1024C8004FF4A076032B00F2988003F12802D20083
:1024D8005B10DA40B2F5A07F38BF4FF4A072072135
:1024E800E38B03F2093303443344134489488A4A8B
:1024F800E3FB0021104684A3D3E90023FDF7D8FDB0
:10250800666820F07F40864234BF811B361A6060BF
:1025180038BF0026DDE90A0328BF00210246002B48
:1025280091D150EA010C8ED1002E6BD01846194675
:1025380089E794F8723003F01803182B7FF4F3AE90
:10254800218DB4F870218B1D9A42D2BF1346931F78
:102558005B1AB4F86C11C8BF9BB2994200F0B48002
:10256800A4F86C31A4F86E31A4F87221DBE63D239F
:102578001F4684F84431394620460CB0BDE8F04186
:102588000EF01EBE0023A4F87231A4F86E31CAE61C
:1025980001273B4620E7E28C42F21071052A8FBFE3
:1025A80040F2E2434FF4FA73013292B203FB02F2B3
:1025B800B4F8763101FB0323013BB3FBF2F39BB282
:1025C800A4F87831002B7FF4CEAE05E794F85900D3
:1025D800012100F0070015F071F994F8583003F064
:1025E8000703032B7FF660AF94F859304FF4296640
:1025F80003F00703032B7FF668AF4FF429626EE7F9
:102608003D4610E7002D48D0002110460E460B46E7
:1026180019E700232046A4F86E3110F01DFCFBE6F4
:102628000E4610E706F0DCFF0146002838D00023EC
:10263800A4F872311B23A28C0371C280006806F0D3
:102648009FFFE0E694F8B9308BB3013B84F8B930CA
:1026580004F1C406304610F07DF900283AD030461F
:1026680010F078F9002839D00023E3856BE60821BB
:1026780020460EF0A5FD8EE6B8F1000F14D1D4F86F
:10268800BC305A0813F0010336D1C4F8BC207BE6ED
:102698003E2120460EF094FD7DE6002FB4D17AE667
:1026A8000123A4F87231AEE61346012794E60AAA7C
:1026B80028460BA9FDF764FEDDE90A231343C7D0BA
:1026C800237884F8B930C3E7B4F8721100297FF48D
:1026D8002AAE47E7FF200EF00BFDC0E70246D4E91B
:1026E800170104F02FFA0028BED194F83C301B07DC
:1026F80044BF238DE38526E642F000421F46C4F816
:10270800BC20434668E600BF8D49FD1A070000005B
:10271800C107010100CA9A3B8C49FD1A000000005C
:102728002DE9F04F87B0BDF84440B0F840710194EE
:10273800BDF84840CDE9043202940446B0F80431AB
:10274800BDF84C901F4490F85800BFB2A7EB09039E
:1027580000919EB2C0F3C00100F00700BDF840A090
:10276800D4F8FC80039615F0A7F8E58C052D40F207
:10277800198140F2E24B06FB05F5ADB24FF0961316
:10278800E3619623BAF1050F238440F2048194F89B
:10279800582002F00702032A40F2DB8094F85920FF
:1027A8004FF4296302F00702032A00F2E38002F1E2
:1027B8002801C900521021FA02F2B2F5A47F38BFED
:1027C8004FF4A4720721134400F29F300344824A55
:1027D80082485646E3FB002110467DA3D3E9002337
:1027E800FDF766FC40F2E24320F07F400BFB05F268
:1027F80003FB06F6531E3344B3FBF6F31FFA83FBC1
:10280800606006FB0BF082425D4680F0B68073493B
:10281800801AA0FB01016EA3D3E90023FDF748FC51
:1028280020F07F408044B4F80421B4F84031A9EB8B
:1028380007094D44ADB213442B44A4F84031638DCD
:1028480013441D4494F837306585DB0900F0B180E6
:102858000023216CC4F8C030A36C40F2E24701FBAE
:102868000233039A5D4D01FB1233A36415F01CFA81
:10287800814694F8B800C0F3420015F017FA059B9A
:10288800814407FB03F306FB09F9236509F574295D
:10289800534B09F23F29A3FB09394FEA99430BFB34
:1028A80003FB2364A6EB0309A36C72085B44963A06
:1028B800934228BF134607214748C4E9112344A37C
:1028C800D3E90023EBFB0501FDF7F2FB049BA8EB22
:1028D80000084448A0FB03303DA3D3E90023800A45
:1028E80007FB00F0A0FB0501FDF7E2FB20F07F45A8
:1028F800019B31462385029B2046A4F87631A4F833
:1029080026A010F043FA384B218D3344B3FBF6F37D
:10291800881D9AB29042A4F8702104D2C1F57F4173
:10292800FA310A4492B2009BA4F86C2113B1002337
:10293800A4F8783143464A4629462046FFF758FC12
:1029480094F8423143F0010384F8423107B0BDE8FE
:10295800F08F02F12803DB005210D34094F859207D
:10296800B3F5A47F02F0070238BF4FF4A473032A1B
:102978007FF61DAF4FF4296224E7121A1748A2FB0D
:10298800000113A3D3E90023FDF792FB20F07F4059
:10299800A8EB000847E70AF1010619204FF4FA737B
:1029A800B6B223E7039B4FF4FA7B05FB0335ADB2C0
:1029B800E4E6049B0948B146A3FB000104A3D3E95C
:1029C8000023FDF775FB20F07F45013590E700BF38
:1029D8008D49FD1A070000008C49FD1A00CA9A3B70
:1029E80083DE1B435917B7D17FC3C901000000001C
:1029F8002DE9F04F04460B68D0F8220095B0D3F8C3
:102A080000A094F82070E38C1290487CADF84C300C
:102A1800FF28C7F380138846154616680C908DF872
:102A28003F3040F0298299461A4612AB93E80300DA
:102A38000DF1400B1090ADF84410D4F800C0FF0918
:102A48000AF187015B4638460A91CDF82CC00EF092
:102A58009FFA0A99002840F0F78196F880310A9089
:102A680069F3C71367F3861386F880311098BBF8AB
:102A78000430C6F88701A6F88B31DAF8873005F1FB
:102A88002200C6F881318B88A6F88531618E94F8CA
:102A980034302981AB72D4F82E3005216B60D4F81C
:102AA8003E30C5F8223094F8423085F8263004F0DC
:102AB800D1F995F8273000F03F0060F3050385F859
:102AC800273094F843300128C3F3040185F828100F
:102AD800218F03F01F03E98289B240F2B5811B33CD
:102AE80003F01F030B2B00F2AF8140F67A4306393F
:102AF80089B299420A9A00F2A78140F2E243D8F8D3
:102B080000104A60628FE98A2A83E08EDAF838205A
:102B180003FB01F70A90002A00F01A8240F6C4125B
:102B280040F6A6639AF819107F2988BF1A460D92B5
:102B38000021304610F03EF994F8433096F8B8205A
:102B48005B0963F3430286F8B82015F0ADF88146B7
:102B580096F8B800C0F3420015F0A8F840F2E24237
:102B6800484407FB00F0D64B00F5742000F23F20E4
:102B7800A3FB00307B08800C963B28636B6394F8BA
:102B88003530394602FB03F36B64A38F3046A6F851
:102B9800763110F0FBF8CB4BCB4A3B44B3FBF7F351
:102BA800C6F87C219AB2A6F87021298B881D82422A
:102BB80004DDC1F57F41FA310A4492B2A6F86C21CE
:102BC8006B68C6F8BC30DAF83830002B00F0BB81EF
:102BD8004FF00109E20700F1C3814FF480732384A9
:102BE8009AF81B0014F0FEF904F12F03002800F0F6
:102BF8005D81A26AC4F82F20A28D9A800C9BFF2BBE
:102C080000F0A881BDF84C301298A4F82D30C4F813
:102C18002900BBF804301098A4F827309DF83F30FD
:102C2800C4F8230084F82230EB8A3046E3862B8BE5
:102C38002387B6F87631638796F8B830C3F3420332
:102C480084F83C300DF03AFE002203462146AB8260
:102C58000B98E38085F8A720D8F804B006F07EFC2E
:102C68001C23AA8ADBF80040ABF806208BF8043056
:102C7800B9F1000F40F036818BF820900AF0F4FE8D
:102C8800002840F042815946204606F079FC95F824
:102C9800483003F00703032B00F2058103F1280BEA
:102CA8004FEACB0B5B102BFA03FBBBF5A47F38BFB5
:102CB8004FF4A47B95F8490000F00700032800F2C0
:102CC800EF8000F12804E4004310DC40B4F5A47F51
:102CD80038BF4FF4A474012114F0F0FD07214FF020
:102CE80096135C4400F29F3CDFF8E0B1DFF8E0E1C6
:102CF80081460CEB0400E0FB0BE1C5E903336EA34E
:102D0800D3E900237046FDF7D3F9034640F2E244C5
:102D180023F07F4373602B6BDDF828C0FD1AD8F8C9
:102D28000C70002204FB0C742F3CE41A0D9B02214A
:102D380001201C4403F040FFDAF83830A4EB090402
:102D4800ABB11F6838460CF037F802460332012150
:102D58000020604B0097D2B205F08CFC012800F0EF
:102D6800088197F846306FF3000387F846305046DD
:102D78000BF0E0F902465548A4FB000114464EA3A7
:102D8800D3E90023FDF794F98146CDF804A0D8F8DB
:102D98000830504A493B009229F07F49A21C012182
:102DA8000020D2B24B4405F0A1FC012800F0DA80E3
:102DB8009AF81830DB0700F1A08030460DF07EFD50
:102DC800424B0446A5FB035A3BA3D3E900232846FC
:102DD8005146FDF76DF90696D8F808300722A3F199
:102DE80049084FF4F8734FF0000B08933A493B4BEE
:102DF80020F07F470791A7FB0331E81A384B02FB05
:102E08000711059373686AEB01014FF47A72CDE9F3
:102E180003B30023FDF74CF901460834E4B20291EC
:102E28004346224658460121CDE9009705F038FB74
:102E380010F0FD0F40F0A48001220221104603F09B
:102E4800BBFE15B0BDE8F08F00220126CAF80820A5
:102E580095F82C30214662F3000385F82C30E5689C
:102E68000B98267106F07AFB294628682E7106F021
:102E780087FB15B0BDE8F08F0DF1400B5A460DF1F8
:102E88003F0113F0D5FA9DF83F9094F8207009F1AE
:102E980002095FFA89F98DF83F9009F00102CCE543
:102EA8004FF4296417E74FF4296B03E7C4F82F00A0
:102EB8009880A3E6AFF300808D49FD1A0700000053
:102EC80083DE1B437FC3C901404B4C0000CA9A3BB9
:102ED8008C49FD1A85590101D55801018D49FD1A02
:102EE800FD58010195F82730281D43F0400385F867
:102EF800273013F091F82885BEE6002301221846F2
:102F08001146009305F0B6FB57E75946204606F0F0
:102F180025FBDAF834B05046DBF800400BF00AF92C
:102F280010F0FF000DD100231222ABF806008BF839
:102F380004208BF80830AA8A8BF80930ABF80A20ED
:102F4800A1E600DEEFE794F82030C3F3401941E62C
:102F58000D93EDE50022C4F82920A4F82D2058E6A9
:102F680000DE3AE606F09AFB82453FF421AF00DE28
:102F78001EE706F093FB87423FF4F3AE00DEF0E66F
:102F880000DE59E7000000002DE9F04F04468DB03F
:102F9800BDF86850002005951646CDE906419DF814
:102FA8005C90BDF860A0BDF864B09DF86C500393C8
:102FB8000DF0B2F9002800F09A8009F001080446E3
:102FC800404605F0C1FC0490B8F1000F05D0062179
:102FD80003F094FD002800F09380DDE903214046CA
:102FE800169B0DF0D5FF00287DD101200DF094F936
:102FF800074600287BD06B077DD54369002B00F07E
:10300800818007F1100494F8343065F3020384F8E2
:1030180034306368002B00F08A806368039A1D6867
:1030280002F0010A93F848000493C0F3C00100F0CD
:10303800070014F041FC94F83420049B02F00702C6
:10304800032A65D802F12801C900521021FA02F2B8
:10305800B2F5A47F38BF4FF4A4725200D98900F2A8
:1030680009330B4407211344B348B44AE3FB002156
:103078001046AFA3D3E90023FDF71AF8034623F05F
:103088007F436B60304613F027FDA38E03F0BF0328
:1030980063F0FF03A386002E3DD0A9F10203012BA4
:1030A80040F23081DDE9062397F86210059869F34C
:1030B800830187F8621094F834106AF3451184F894
:1030C800341016990968A16016998988A082A1818F
:1030D800204600210096FEF75FFC03460020BB65F2
:1030E8000DB0BDE8F08F0B200DB0BDE8F08F0C20BF
:1030F8000DB0BDE8F08F63693BB12746103482E715
:103108001220F1E7636943617BE743696361F4E790
:103118004FF4A952A2E714F065F80028BDD0324652
:103128000398169913F048FE84F83500B5E706F0C1
:10313800FDF90890002800F0F7800DF0B3FB054674
:10314800002800F0EE80143003F09AFE05F1100319
:10315800002840F0EB80032105F11800099314F0D2
:1031680097FA4FF6FF72E86E099BA5F828B0A5F804
:1031780026A0AA84002800F0D08005F15C0105F1A2
:103188006002099303F0C6FC7F224FF0000BA5F8FC
:10319800B620B5F85820C5F86CB022F4EF6222F0DA
:1031A800070242F48C7242F00102A5F8582095F803
:1031B8007220A5F870B022F0070285F87220A5F8F1
:1031C8002AB0C5F82EB005F1320012F0CFFE95F8FE
:1031D8003720012160F3050285F837200DF12F0013
:1031E80014F056FA40F2E242062102FB0AFA544A67
:1031F8009DF82F005244B2FBFAF2A5F87411514918
:10320800059BA1FB00C1C90801EB4101A0EB8100AE
:1032180095F83710053001F03F0185F8371095F81B
:103228003C1085F83800288D21F0070185F83C10FE
:1032380000F1060C91B26145A5F8763185F839B0F0
:10324800099BA5F840B1A5F878B1A5F872B1A5F821
:103258006EB1A5F8701102DD0639091A89B24FF06E
:10326800000B2846A5F86C1109930FF027FD51466D
:1032780028460FF08BFD089B85F844B1C5F8483106
:10328800039B03F0010A0DF077FE95F8802160F3A7
:10329800020285F880210DF075FE95F8802160F313
:1032A800C50285F8802195F8422105F1C4006BF329
:1032B800410285F842210FF00BFB4FF0961195F86B
:1032C8008021C5E90711169B6AF3C71285F880218A
:1032D8001968D2B2C5F88711998869F38612049BD8
:1032E80085F88021A5F88B111A68C5F881219A887C
:1032F800099BA5F885216360C5E902BB85F800B084
:103308002D618FE6002013F00BFC94F83430C14691
:1033180043F0400384F83430C4E605F16400E866FD
:103328002BE7089806F008F90720DDE600DE12E72B
:103338008D49FD1A0700000000CA9A3B8C49FD1A06
:103348007FC3C901ABAAAAAA2DE9F04F0446A38DF1
:1033580090F820708DB0806AADF82C30E3070E46E7
:103368001546C7F3C0110A90C7F3401700F11D8135
:1033780000232384B37C707C13F0010318BFD4F8B6
:10338800223004F12F021ABFC4F82F30E38CC4F89E
:103398002F30FF28938004F1290804F1230200F05C
:1033A800E28004F1220113F043F894F82230BDF8CA
:1033B8002C200A98023384F82230C4F82900A8F88F
:1033C80004203368D3F800A0EB8AE3862B8B23878D
:1033D800BAF82430638714F065FC84F83C00D5F80B
:1033E800009048460DF06AFA03460021AB82484631
:1033F800E3800FF0DFFC002385F8A7302146206822
:10340800746806F0ABF81C23AA8AD4F80080E2801E
:103418002371002F40F0B6802146404684F8207082
:1034280006F0AEF840F2E24395F84800B5F816B059
:10343800C0F3C00100F0070003FB0BFBF46814F0B5
:103448003BFA00220221A4EB0008012003F0B4FBA0
:1034580050460CF01BFF5AA3D3E900235A4C0546EB
:10346800A8FB044820464146FCF722FE0746CDF853
:1034780004A0B368554A493B009227F07F476A1D6C
:1034880001210020D2B23B4405F030F910F0FD0FC5
:1034980040F08F8001200CF02DFF054680B1824559
:1034A8007CD028460CF0F2FE0246053201210020AD
:1034B800474B0095D2B205F0DDF810F0FD0F76D13C
:1034C8004FF0000A0422012153465046CDF800A0CF
:1034D80005F0D0F848460DF0F1F939A3D3E90023F7
:1034E800054639480835ABFB0001FCF7E1FD40F221
:1034F8007231CDF81C90B668099136498346089117
:10350800354910460691D9F804104FF47A72CDE97E
:1035180004A119460023FCF7CBFD07222F4BCDE968
:1035280002B0A7FB033102FB0711E01A68EB0101A7
:103538004FF47A720023FCF7BBFD0146493EEDB219
:10354800019133462A4650460121009704F0C8FFEE
:1035580010F0FD0F2FD10122022110460DB0BDE859
:10356800F04F03F029BB0023BDF82CC00A98C4F81B
:103578002930A8F8043084F82210C4F82300A2F8EF
:1035880004C01EE795F82730281D43F0400385F84E
:10359800273012F041FD012728853DE700200CF077
:1035A800A9FE054600288BD07BE700DEE0E600DEBA
:1035B80086E700DE6EE700DECDE700BFAFF30080F0
:1035C8008D49FD1A0700000000CA9A3B415A0101C3
:1035D8004D5A0101455A0101755A01018D49FD1ADB
:1035E800032870B50D4610D00838C3B20F2B11D878
:1035F80080B20DF06BF9044660B190F93730002BBA
:103608000BDA40682860204670BD00200BF078FC7B
:103618000446D8B90024204670BD90F85800184ECA
:10362800C0F3C00100F0070014F046F90721154A5D
:1036380000F5C5501F30E0FB062110460EA3D3E964
:103648000023FCF735FD20F07F40DBE7FF22114621
:103658000BF05EFC07210A4A0A4BE0FB02311846D0
:1036680005A3D3E90023FCF723FD20F07F40286061
:10367800204670BDAFF300808D49FD1A0700000099
:1036880000CA9A3B8C49FD1A70B51546002488B0CB
:103698001E4606AB029307AB019305AB0093224A83
:1036A8002B46079412F07EFBFF2835D00721069B96
:1036B8001E48A3FB000201FB032119A3D3E9002341
:1036C800FCF7F6FC044600B13E34079D1849A5F501
:1036D8007422A2F510728A42059B15D80721134857
:1036E800A3FB000201FB03210DA3D3E90023FCF790
:1036F800DFFC024600200F4BA3FB053504EB954485
:103708001444346008B070BD05F1E87505F5D4358A
:10371800013B05F5A575E1E76FF00900F2E700BF89
:1037280000CA9A3B00000000A15D01018D49FD1A05
:10373800BFBDF07F83DE1B432DE9F043C6683E49D9
:103748007368D0E900971A68A7F57423A3F5107376
:103758008B42804683B007D907F1E87707F5D4375D
:1037680009F1FF3907F5A57773685168DD8A0220EA
:1037780006F1100301AACDF80490FFF785FF002891
:1037880050D10199A1EB09031B0238D408464946D8
:1037980005F044F826A3D3E9002304464FF0070CAC
:1037A8002649A0FB01010CFB0411FCF781FC3469DC
:1037B8000444002C346109DB40F2E24305FB03F3C7
:1037C800A34230D2E41AA342FCD334610721D8F8CB
:1037D80000301A48A3EB0903A3FB000201FB0321F5
:1037E80013A3D3E90023FCF763FC154BA3FB0737AE
:1037F800A0EB97402044306103B0BDE8F083484611
:1038080005F00CF80AA3D3E9002304464FF0070C8F
:103818000A49A0FB01010CFB0411FCF749FC3469BF
:10382800241AC6E73469002CD0D103B0BDE8F08370
:1038380000CA9A3B00000000BFBDF07F8D49FD1A09
:1038480083DE1B4300000000F0B5C46805466368CA
:1038580083B0002B60D117F057FA94F92C0017F0B9
:10386800A9FAA17A607A01F00101C0F3820017F089
:103878007DFA627A252102F01C02082017F028FB45
:10388800434B01A8019317F00FFB40F25B604149DD
:1038980017F0FEFB237A20461A46C3F3420363F36C
:1038A8000612227214F00CFC13F09CFC70BB637AB5
:1038B8009B0721D127682E68384613F0B5FF0346C9
:1038C8001E446A6806F11801012017F07BFE18F003
:1038D80017F820460AF03CFC0146023132463846C9
:1038E800C9B213F0A3FF054618BB204613F04CFFDE
:1038F800E8B9002003B0F0BD012013F06DF80246CE
:1039080041780232007817F0F5FDD3E7607A10F0BD
:10391800030018BF0120F0E793F82C309A079AD0DB
:1039280021461D4817F0E4F917F042FBE1E700DEF5
:10393800DFE740F21143194A19491A481BF0BDFD47
:103948000721194B0026A5FB030301FB05310EA334
:10395800D3E90023FCF7ACFB1449024614481BF0DA
:10396800ACFD86F31188BFF36F8F0323184602DF7F
:103978001048214617F0BCF917F01AFB6FF08B00BE
:10398800B8E700BFAFF3008000CA9A3B0000000010
:10399800D6BE898E55555500AD790101E40F020157
:1039A80030100201680E02018D49FD1A60100201F3
:1039B80034100201C17C010100232DE9F047C468DD
:1039C80084B007460DF1070104F1140066688DF80C
:1039D800073014F037FB0546002800F0DF80337B02
:1039E80006EB8303D3F8108098F8003003F00F0338
:1039F800072B40F0C980404603A914F0FDFD0028BC
:103A080040F0CA80039A002A00F0A1809378517888
:103A18001B0203F4F8530B4300F09980238992F8B2
:103A280000A00133238117F06FF996F92C0017F0E5
:103A3800C1F996F80990B17A4FEA5919484601F048
:103A4800010117F093F94FEA8902FF21082017F0C6
:103A58003FFA6B4B02A802930AF03F0A17F024FAC8
:103A680040F25B60674917F013FB504613F0F0FE15
:103A780098F802303F2B38D8AB789A0602D0EB780A
:103A8800DB066BD4002321465F48236217F030F928
:103A980017F0F2FC284617F051FA26683D683046C0
:103AA80013F0C2FE03461D4405F118017A6801208F
:103AB80017F088FD17F024FF20460BF087F9014620
:103AC80003312A463046C9B213F0B0FE0546002835
:103AD8006AD1204614F0A2FE204613F055FE0028B5
:103AE8005ED1002004B0BDE8F0870DF1070106F1B2
:103AF800180014F0A7FA8046002853D021464348FE
:103B080017F0F6F8962017F051FD484617F040FCDC
:103B18009DF80730A3B913F065FB58B9737A990774
:103B2800B8D0012012F058FF4178821C007817F0B5
:103B3800E1FCAFE7707A10F0030018BF0120F1E74D
:103B48006B68C8F804302B89A8F80830E3E72146E9
:103B58002F4817F0CDF817F02BFAC2E72046294670
:103B6800256214F031FE21462A4817F0C1F84FF4B7
:103B7800967017F01BFDB37A4A4603F00103194605
:103B8800484617F02FFC85E700DE404603A914F0ED
:103B980033FD00283FF436AF00DE33E700DE1EE7D2
:103BA80000DE9EE700DEA9E74FF4A4731A4A1B491A
:103BB8001B481BF082FC07211A4B0026A5FB0303B8
:103BC80001FB05310CA3D3E90023FCF771FA164970
:103BD800024616481BF071FC86F31188BFF36F8FFD
:103BE8000323184602DF0848214617F081F817F02A
:103BF800DFF96FF08B0075E700CA9A3B0000000000
:103C0800D6BE898E555555003D8601016586010150
:103C180081870101418801016C1002013010020105
:103C2800680E02018D49FD1ABC1002013410020110
:103C38002DE9F041C4688CB094F92830002BC0F20B
:103C4800E780636805460E46002B40F0D68094F85E
:103C580028306FF3000384F8283017F055F894F9EA
:103C6800440017F0A7F894F83400012100F0070089
:103C780017F07CF894F8342008209200252102F0EF
:103C88001C0217F025F994F83430012023F01803AA
:103C980084F8343005F0A2FD002800F0C080203000
:103CA80017F046F9784B0BA80B9317F0FDF87749F6
:103CB80040F25B6017F0ECF994F82800C0F341007B
:103CC800253013F0C5FD2146714817F011F894F816
:103CD80028309B0603D46368002B00F08B80962065
:103CE80017F064FC00231A461946184617F064FBBF
:103CF80013F078FA002841D194F8283013F0180FFF
:103D080058D1D4F800802F68404613F08DFD074441
:103D18006A6807F11801002017F054FC17F0F0FD4D
:103D280017F0C4FB20460CF0BDFA014605314046A9
:103D38003A46C9B213F07AFD8046002875D116B903
:103D4800236C002B3FD163687BB12A68514BA26179
:103D5800696804F11802E1619A60022101220020D9
:103D6800646202F05DFF00285DD1204613F00CFD6F
:103D7800002856D100200CB0BDE8F08194F8280046
:103D8800C0F3C00012F028FE07460DF12B0013F017
:103D98004BF9804679783878BA1C17F0ABFB94F861
:103DA8003420414692009DF82B0002F01C0217F0C7
:103DB80051FEA6E7012012F00FFE4178821C007820
:103DC80017F098FB9DE740F2F3120892324A0093ED
:103DD8000792324A3B46059231460422CDE90366F2
:103DE800CDE90166069404F05BFB10F0FD0FAAD044
:103DF80000DEA8E717F040FB7AE7636893F82C30F9
:103E0800D90705D4636893F82C309A077FF51FAF5C
:103E18002146234816F06CFF17F0CAF8AAE700DE1F
:103E28003DE700DEA6E700DE9FE740F2E5131D4A06
:103E38001D491E481BF041FB07211D4B0025A8FB0F
:103E4800030301FB08310EA3D3E90023FCF730F983
:103E58001849024618481BF030FB85F31188BFF358
:103E68006F8F0323184602DF1448214616F040FFDF
:103E780017F09EF86FF08B007DE700BFAFF300806E
:103E880000CA9A3B00000000D6BE898E55555500E1
:103E9800713F00013C020021C98B0101498C0101DD
:103EA800AD790101C810020130100201680E02014B
:103EB8008D49FD1A1411020134100201098D010106
:103EC80038B5044614F0D0FE94F8283094F8282029
:103ED800C3F34103013303F00303032B08BF00239B
:103EE80063F3420214BF03F12500252084F828203B
:103EF80013F0AEFC63680BB1236953B904F08CFC72
:103F080001460020033117F0D7FBBDE8384017F011
:103F1800F7BC17F06BFC054604F07EFC0146002058
:103F2800033117F0C9FB17F0EBFC17F05FFC2946CB
:103F380004F074FC07210346094AA0FB020201FBB6
:103F4800032105A3D3E90023FCF7B2F823691B1A60
:103F5800236138BDAFF3008000CA9A3B000000001F
:103F68008D49FD1A000000002DE9F04F8DB0044680
:103F780017F078F810F0FF0013D1FF238DF829000F
:103F88008DF827008DF82A308DF8283013F0B0FC12
:103F98002146A34816F0ACFE17F00AF80DB0BDE8AC
:103FA800F08F17F081F8054617F0D8FA8DF827003A
:103FB80017F0DEFA8DF8280017F0C2FD8DF82900F9
:103FC80017F0A2FD8DF82A0017F08AFA064617F0B6
:103FD80063FAEDB2074613F08BFC002DD8D0012010
:103FE80005F0FCFB0546002800F0F98195F8203023
:103FF80005F1200903F00F03072B00F0E5809DF879
:104008002730002B3FD19DF82980B8F1000F40F0F0
:10401800FD8042464FF0FF0A41465346204615F0C0
:1040280087F80028B4D09DF82980002395F820202F
:1040380061688DF82B30F6B202F00F0300294AD0E0
:10404800616891F82C10880745D4072B40F0EA8066
:1040580094F834305A079BD094F8282012F00102C3
:1040680096D10DF12B0101914B4601212046CDF847
:1040780000A015F0A5F8002840F0A18095F82030A0
:1040880003F00F0379E094F828009DF82810C0F396
:10409800C00012F0D3FF9DF8298082469DF82720A2
:1040A800BAE7012B46D195F821200C2AE6D119460A
:1040B800002395F8202020460193CDF800A0D209CE
:1040C80005F1280314F006FF002840F0B88095F8A1
:1040D800203003F00F036BBB95F821309A1F1F2A7D
:1040E80044D894F8282002F02102202A08D1D4F8D4
:1040F80004B0BBF1000F00F09E81063B1F2B35D8A2
:10410800636833B195F8203003F00F03072B7FF471
:104118003FAF9DF82B503346524641462046009704
:10412800019514F02DFF00283FF432AF10307FF4D2
:104138002FAF33E7062BCFD04521D94011F001012D
:1041480040F05781012B11D195F821300C2B95D1D6
:1041580095F820200DF12B0301932046CDF800A0FF
:10416800D20905F1280314F0B5FE40BB95F82030BC
:1041780003F00F03072B3FF46BAF042B7FF408AF5A
:1041880095F82130063B1F2B3FF602AF94F82830F4
:10419800DB077FF5FDAE16F095FF95F82030027825
:1041A800C3F38013B3EBD21F7FF4F2AE06220830BC
:1041B80005F122011CF0D7FB00287FF4E9AE95F841
:1041C8002130002B9CD1E3E60DF12A0301930DF178
:1041D8002903009349460AAB20460DF1270215F042
:1041E800E1FC9DF827308346002B40F0DF809DF8E6
:1041F8002980B8F1000F40F0F4804FF0FF0ABBF1BE
:10420800000F3FF412AF9DF8272005E79DF82A001C
:1042180012F038FF9DF8298082469DF82720FBE69A
:10422800358D010194F82810090740F1CB80002B47
:104238007FF437AF95F82130063B1F2B96D8042022
:1042480005F0CCFA00283FF4A3AE17F071FB236CFD
:10425800074643B940F27122A38F02FB03F3B0FB78
:10426800F3F203FB1207072123685A68B24BA2FB3B
:10427800030301FB0231AEA3D3E90023FBF718FFC8
:10428800A0F2D3431F3B62EB0202BB4272F1000271
:10429800FFF47EAE17F0F0F863685046079312F00B
:1042A800AFFE94F8343081465B0640F11C8100284B
:1042B80000F019818346012716F004FFCDE9027B3F
:1042C80007460BAB049305F12203019395F82030C0
:1042D8000022C3F38013204639460093012314F0CB
:1042E800DFFF384616F02AFE16F0B2FE002840F02E
:1042F80018812146914816F0FBFC002E40F0FA8008
:10430800626892F82C3043F0010382F82C3094F85C
:10431800283043F0800384F8283005F07BFA4FF604
:10432800FF7217213B460646C280017195F820E0CE
:1043380000F12002CEF3401E07F1200C1F685D68D3
:104348009868D96810336345176055609060D160EC
:1043580002F11002F2D11B68136096F82030B460A5
:104368006EF3451386F8203017F040FAB8F1000FC5
:1043780008BF4FF0FF0A30610B9B86F819A07361E4
:1043880094F8343013F0400303D0B9F1000318BF98
:104398000123B27E63F30002B27605F03BFA0346CE
:1043A80031463068F36005F063FAF7E594F82800C1
:1043B8009DF82810C0F3C00012F040FE9DF8298037
:1043C80082461CE7BAF1FF0F8DF82CA0C2F3801BC0
:1043D80012D094F8352052453FF429AF7BE600DE31
:1043E80004E69DF82A0012F04DFE9DF829808246C9
:1043F80005E795F8213080E605F1220158460BAA19
:10440800079112F093FE079900283FF460AE94F8E4
:104418003430C3F340135B457FF459AE062204F1F0
:1044280008001CF0A0FA00287FF451AE95F820305F
:1044380003F00F03FBE6962017F0B8F8584616F07D
:10444800A7FF3346414652462046CDE9007B14F08B
:1044580097FD00287FF49CAD16F034FE0646032134
:104468000C223378504661F30303337095F82030FB
:1044780072703278C3F3801363F3C712327012F08C
:10448800BFFD94F8342057063AD5C8B33246317880
:1044980041F0400102F8021B0168C6F80210838847
:1044A8009380D5F822303046B360EB8CB38116F098
:1044B80045FD16F0CDFDB0BB17F022FA94F8283070
:1044C80043F0010384F8283095F82030190705D106
:1044D80094F8343043F0080384F8343021461848FF
:1044E80016F006FC5AE594F8287004F1360BC7F369
:1044F8008017E1E616F0E4FF079B83F8A600FFE6C5
:1045080094F828303278C3F3801363F38612334665
:1045180003F8022BD4F83620C6F80220628F9A805E
:10452800BFE700DEE5E600DEC6E700BFAFF30080C8
:1045380000CA9A3B000000008D49FD1AD18D010187
:10454800498D0101000000002DE9F047C46882B0E0
:1045580007460DF1020120460BF0F6FF90F92830CE
:10456800002BC0F2DC8043680546002B40F0CC806D
:10457800002223796FF386132371854B1A8016F076
:10458800C3FB95F9440016F015FC6079012100F091
:10459800070016F0EBFB627908209200FF2102F079
:1045A8001C0216F095FC012005F018F9002800F00F
:1045B800BD80203016F0BCFC764B01A8019316F0A4
:1045C80073FC754940F25B6016F062FD207900F0DB
:1045D8003F0013F03DF92146704816F089FB9620FC
:1045E80016F0E4FF6279012302F007021046002169
:1045F80016F0E2FE12F0F6FD00285AD195F82830A0
:1046080013F0180F77D1D4F800903E68484613F09D
:104618000BF906EB00087A6808F11801002016F07B
:10462800D1FF06466079012100F00700D4F808A000
:1046380016F096FC06446079564400F007000228FC
:1046480035D004280CBF4FF4BC73282301211E4425
:1046580016F088FC304417F0DDF817F051F916F021
:1046680025FF20460BF066FF0146073142464846C3
:10467800C9B213F0DBF8064600285DD16B686BB150
:104688003B680221AB617A68454BEA616D620122A1
:1046980018359D6002F0C4FA00284BD1204613F06B
:1046A80073F8002844D1002002B0BDE8F087182331
:1046B800CCE795F82800C0F3C00012F08DF98046C9
:1046C8000DF1030012F0B0FC064698F8011098F8B6
:1046D800000008F1020216F00DFF62793146C2F3BC
:1046E8000202920042F002029DF8030002F01E024C
:1046F80017F0B0F987E7012012F06EF94178821CB3
:10470800007816F0F7FE7EE7436893F82C30DA0756
:1047180005D4436893F82C309B077FF529AF2146D1
:10472800204816F0E5FA16F043FCBCE700DE40E747
:1047380000DEB8E700DEB1E740F251231A4A1B4910
:104748001B481AF0BAFE07211A4B0025A6FB0303E3
:1047580001FB06310CA3D3E90023FBF7A9FC16499A
:10476800024616481AF0A9FE85F31188BFF36F8F29
:104778000323184602DF1248214616F0B9FA16F04C
:1047880017FC6FF08B008FE700CA9A3B000000000F
:1047980086800021D6BE898E55555500499C010159
:1047A8005C020021A59701012811020130100201C5
:1047B800680E02018D49FD1AC01102013410020170
:1047C800F9930101000000002DE9F04F8FB0054674
:1047D8000E46174616F046FC10F0FF0015D1FF23D1
:1047E8008DF831008DF82F008DF832308DF830308B
:1047F80013F074F8002E5CD031467F4816F078FA32
:1048080016F0D6FB0FB0BDE8F08F16F04DFC04464D
:1048180016F0A4FE8DF82F0016F0AAFE8DF83000D1
:1048280017F08EF98DF8310017F06EF98DF8320017
:1048380016F056FEC3B2079316F02EFEE4B20690A9
:1048480013F04CF89CB3032004F0C8FF044670B37F
:1048580090F8203000F1200A03F00F03072B26D12F
:1048680090F821301BB30DF1320301930DF13103A0
:1048780000930DF12F02514628460CAB15F092F922
:104888009DF82F208346002A40F0A7819DF831909B
:10489800B9F1000F40F0C7814FF0FF08BBF1000FDE
:1048A80028D043464946284614F042FC10BB002E47
:1048B800A2D195F83430D90640F18A8104F0AAFFD4
:1048C8000146002800F0C8820A238D600B71EB6A4C
:1048D8000868CB6004F0CCFF95F83430DA0640F174
:1048E80077816FF304132946444885F8343016F06D
:1048F800FFF985E700238DF833306B682BB16B68BF
:1049080093F82C1011F002017ED06B68002B00F098
:1049180076816B68002BCAD1002E00F0AC81337908
:104928001B0612D4EB6A1BB193F90430002B0CDB85
:1049380000220DF133030193284653461146CDF862
:10494800008014F03DFC0028B1D00021A660337926
:10495800A27EC3F3801363F30412A276337943F083
:1049680080033371E96204F055FF16F03FFF2061C0
:1049780016F0DEFF06998346384616F0F3FAA37E52
:10498800069AABEB000062F38203A376079B606193
:10499800002B40F030817F20B9F1000F08BF4FF0A5
:1049A800FF08A37E9DF8332003F0F70362F3410369
:1049B800207684F81980A376002E00F03C813946D1
:1049C800069A0F4B5046009615F048F805460922FE
:1049D800A37E214665F3C713A3762068227104F0ED
:1049E80047FF94F91A30002BFFF60CAF054A1388DD
:1049F8000133138000E700BFF99301010191010120
:104A0800E59701018680002194F822305B067FF546
:104A18007CAF534601222846CDE9008114F0D0FB33
:104A280000283FF472AF002E00F00982042004F041
:104A3800D5FE00283FF4E0AEB34616F079FF2B6CA4
:104A4800824643B940F27122AB8F02FB03F3B0FBFD
:104A5800F3F203FB120A07212B689F485B68A3FB4C
:104A6800000201FB03219AA3D3E90023FBF720FBF3
:104A78000346780700F1F28107F0030202F12B01E7
:104A8800C7F34000C9001732D200C1405B1AC240C8
:104A98006FF481610B449B1A1F3B62EB0202534582
:104AA80072F10002FFF403AF404612F0A9FA95F83C
:104AB800343009905A0640F1DB81002800F0D88193
:104AC8004FF0010A089016F0FDFA089B0DAACDE9EF
:104AD80002A3049204F12402019294F820200446CF
:104AE800C2F3801228462146069B00923A4614F0EB
:104AF800D7FB204616F022FA16F0AAFA002840F052
:104B0800EF8116F0FDFE962016F050FD384616F09F
:104B18003FFC5946714816F0EBF8079B002B40F014
:104B2800C6816A6892F82C3043F0010382F82C3071
:104B380095F8283043F0800385F8283004F06AFEA1
:104B48004FF6FF7317220746C380027100F1200356
:104B580004F1200ED4F800C06068A168E26810343F
:104B68007445C3F800C058609960DA6003F1100317
:104B7800F0D122681A6097F82030BD6043F0200316
:104B880087F8203016F032FEB9F1000F08BF4FF059
:104B9800FF080D9B386187F819807B6195F83430E0
:104BA80013F0400303D0099B003B18BF0123BA7ED2
:104BB80063F30002BA7604F02DFEF860CBF80C70AF
:104BC800002E7FF41FAE464A13880133138019E67E
:104BD800E96A444816F08CF812E695F828009DF822
:104BE8003010C0F3C000089212F028FA9DF83190F6
:104BF8008046089A52E616F063FCC0B2CCE695F8F7
:104C080028309B067FF585AE002E6FD03379580685
:104C180000F1098194F822207F2A74D86A68002A52
:104C28003FF47EAEE8E59DF83200089212F02AFAC9
:104C3800089A804632E63946069A2B4B504600952C
:104C480014F00CFF06460922A37E214666F3C7131B
:104C5800A3762068227104F00BFE94F91A30002B19
:104C680080F20E8195F8343043F0100385F8343023
:104C78000FB0BDE8F08FEB6A1BB193F90430002B3D
:104C880016DB00220DF133030193284653461146E3
:104C9800CDF8008014F094FA00283FF40AAEEB6ACD
:104CA80033B995F83430D8063FF508AE002190E7BF
:104CB800A560EB6AA27EE3601B79C3F3801363F3FC
:104CC8000412A276EA6A137943F0800313714AE664
:104CD80000CA9A3B000000008D49FD1A7595010134
:104CE80086800021F9930101E5970101EA6A002A0B
:104CF80000F0B980137959063FF50BAE94F82230CD
:104D08007F2B7FF606AE00220DF133030193284670
:104D180053461146CDF8008014F052FA00283FF4AB
:104D2800F8AD042004F05AFD00283FF4C0AD9620E9
:104D380016F03CFC384616F02BFB16F0C3F98246F9
:104D480003210C229AF80030404661F303038AF8E5
:104D5800003094F820308AF801209AF80020C3F334
:104D6800801363F3C7128AF8002012F049F995F806
:104D780034305A0640F18980002800F08680534676
:104D88009AF8002042F0400203F8022B0268CAF8A1
:104D9800022082889A80636A5046CAF80830238DB8
:104DA800AAF80C3016F0CAF816F052F9002840F0AC
:104DB800958016F0A5FD04F02DFD09232371002E22
:104DC8007FD031464748A66015F092FF337943F00B
:104DD8004003337116F00AFD206116F0A9FD06990B
:104DE8000546384616F0BEF8079B2D1A6561002B5C
:104DF80063D17F20B9F1000F08BF4FF0FF08A27EF2
:104E08009DF8333002F065025B0042F0080223F09F
:104E18007D031343207621462068A37684F8198001
:104E280004F026FDEEE4EA6A002A7FF463AF6A68BC
:104E3800002A7FF4E1AC1B067FF57AAD85E5D5F84D
:104E48002CB0BBF1000F3FF42CAF042004F0C6FCDB
:104E580000287FF4F2AD2CE500DE35E54FF4CA6298
:104E6800A3F5356314E66B68002B3FF40AAF20E521
:104E780095F828A005F13603CAF3801A089322E6AC
:104E8800194A13880133138026E5514695F82830CE
:104E98009AF80020C3F3801363F3861201F8022BFB
:104EA800D5F83630CAF802306B8F8B8073E716F06E
:104EB80007FB6B6883F8A60033E616F001FBC0B267
:104EC80098E7A560EB6A2146E360084815F010FFF3
:104ED800EA6A137943F0400313717BE700DE68E761
:104EE80000DE0EE64D950101868000212595010121
:104EF8004FF6FF732DE9F043C46883B0A28A9A4243
:104F080000F00181064614F01DFF3389628BA383EC
:104F18001A440023208C92B2104494F8271080B2CF
:104F2800451C25844D066383E28304F1220300F1C6
:104F3800AA8001F03F0094F82810009004F129009D
:104F480011F022F80546D4E90C30A26BA18BA363BB
:104F580003FB0122D4E910C1E36B0027824294BF0E
:104F68009B181B18834228BF0346614494F84920C4
:104F7800C4E9107194F82C10C2F3020262F306110E
:104F880094F8622084F82C1012F00402E36300F015
:104F98008B8015F0B9FE94F9A70015F00BFF201DC2
:104FA80015F082FF2389A17A40F25B6043EA014150
:104FB80016F06EF8284612F04BFC2146584815F0BA
:104FC80097FEA08916F0F2FA94F8482094F8490060
:104FD800C2F3C003002102F0070200F0070016F038
:104FE800EBF9204614F070FFD4F80080376840468B
:104FF80012F01AFC03461F44726807F118010020DA
:1050080016F0E0FA814616F045FC002016F066FC22
:10501800E36B94F8490003F12F02636C012100F05F
:10502800070003EB420515F09BFF4D44054494F837
:10503800490000F00700022834D004280CBF4FF4C0
:10504800BC73282301211D4415F08CFF284416F059
:10505800E1FB16F02BFAA18A3A4608314046C9B25C
:1050680012F0E4FB0546B0B1B37A13F0020629D07A
:10507800002521462B4815F03BFE15F099FF2846E0
:1050880003B0BDE8F0831A4601F03F03218D10F00C
:10509800C7FF054657E7204612F076FB002839D1AE
:1050A8000025ECE71823CDE7D4E9130101F04AFD08
:1050B80000287FF46EAF94F8623043F0040384F85C
:1050C800623066E740F25913174A184918481AF02F
:1050D800F4F907211748A5FB000301FB05310EA3CE
:1050E800D3E90023FAF7E4FF1349024613481AF0FC
:1050F800E4F986F31188BFF36F8F0323184602DFA4
:105108006FF08B05B5E721460D4815F0F1FD15F058
:105118004FFFC5E700DEC3E700CA9A3B0000000066
:1051280025A1010165790101CC11020130100201AC
:10513800680E02018D49FD1A201202013410020185
:10514800AD790101000000004FF6FF73F0B5C468A7
:1051580085B0A28A9A4200F0AE80054614F0F2FDAE
:105168002B89628BA3831A440023208C92B21044AB
:1051780094F8271080B2461C26844E066383E28387
:1051880004F1220368D401F03F0094F8281000903D
:1051980004F1290010F0F8FE0646204603A914F091
:1051A80055FF039B94F862101A7861F3C3021A70D2
:1051B800039A94F862301178C3F3400363F38201D1
:1051C800117015F0A1FD94F9A70015F0F3FD201D4D
:1051D80015F06AFE2389A17A40F25B6043EA014137
:1051E80015F056FF304612F033FB2046039914F0B1
:1051F80003FF2146364815F07BFDE08916F0D6F905
:1052080094F8490000F0070016F0C2F827682E68E5
:10521800384612F009FB03461E4406F118016A6875
:10522800012016F0CFF916F06BFBA18A324608313F
:105238003846C9B212F0FAFA0646A8B1AB7A13F0AA
:10524800020517D000252146224815F051FD15F01A
:10525800AFFE284605B0F0BD1A4601F03F03218D88
:1052680010F0DEFE064698E7204612F08DFA48BB9D
:105278000025EEE74FF48073174A184918481AF0CA
:105288001CF907211748A6FB000301FB06310EA3F2
:10529800D3E90023FAF70CFF1349024613481AF022
:1052A8000CF985F31188BFF36F8F0323184602DFCB
:1052B8006FF08B05C7E721460D4815F019FD15F06D
:1052C80077FED5E700DED3E700CA9A3B000000006E
:1052D800399F0101657901012C1202013010020188
:1052E800680E02018D49FD1A7C1202013410020178
:1052F800AD79010103488368DB6903B118476FF092
:1053080057007047400B0201024883689B6903B14C
:1053180018477047400B020110B4034606480A4676
:1053280081680C691CB11946234610BC18476FF0F8
:10533800570010BC704700BF400B020110B50F4C5E
:1053480020461AF083FEA8B1A3685B6A0BB1204619
:105358009847FFF7D9FFA3682BB11B6C1BB100223C
:10536800074906489847A3681B6A0BB10348984742
:10537800002010BD6FF01500FBE700BF400B0201D5
:105388008D5300012DE9F04F804E8FB0B368804FE8
:105398000393039BDB6B002B40F0EA80B468A36B9C
:1053A800002B40F0ED80E36A23B13046984708B9F6
:1053B800FFF7A0FFFFF79EFF50B13B68B3B900228B
:1053C8000023744818F05EFC386078B9FFF79CFF3A
:1053D800B368DB6A13BBDFF8C081704D98F8003002
:1053E800032BD6D8DFE803F01F3395B63B68D9689E
:1053F8001A8AB368DB6873B1304698470146386843
:105408000C301AF077FA3868048A002CE0D101F0E1
:10541800E3F83C60DCE76FF05701F0E73046984767
:105428000028B6D0D7E75E4C01212046FFF774FF6D
:105438000028AED02078431E012B01D90528CDD1F4
:1054480019F0B7FE0123286088F80030C6E7DFF8B6
:1054580050A1DFF850919AF8000019F0AAFE2968C7
:10546800401A4844FFF758FF2B6804461B1A2B6064
:10547800002B6BD19AF80000421E042A16D8DFE8E8
:1054880002F00417150313000220CDE900330022AF
:10549800002301F04BFADFF810B10346CBF8000007
:1054A80040B988F8000074E71020EEE70020ECE728
:1054B8000420EAE79AF80000022823D005281CD027
:1054C800012822D199F802202A6019F072FE354984
:1054D800024603F10C001AF0FCF9DBF800000C306E
:1054E8001AF020FA2B68984211D2DBF8000001F07C
:1054F80073F8032388F8003028E0B9F80220C2F3D3
:105508000D02E1E7B9F80220DEE70022DCE702231A
:10551800F0E7DFF894902968D9F800301A8AD8683B
:105528001044FFF7F9FED9F8001004460B8A03442B
:105538000B822B68A3EB0009C5F80090B9F1000FA6
:1055480004D11A481AF08FFE88F80090002C7FF4D6
:1055580045AF1EE7296805A8212928BF2121FFF7A3
:10556800DBFE2B6804461B1A2B60002BEED1C1E72B
:105578003046984700287FF411AF0FB0BDE8F08F90
:105588003046984700287FF40EAFF6E7400B02013B
:10559800A82000215C03002193800021A420002181
:1055A800928000218E800021A02000214403002148
:1055B80038B5094D4FF0FF324FF0FF33284618F049
:1055C80061FB044601F0EAF910B1204601F004F845
:1055D80018F084FFEEE700BF4403002170B51848B7
:1055E80088B001F0E7F900220023CDE90623002363
:1055F8006FF00802CDE90133CDE9032300934FF49E
:105608008062104B1049114818F0BEFD10490F4830
:105618001AF0F8FE0A4D0F4E0F4C4FF0FF324FF0C4
:10562800FF33284618F02EFB014630461AF01BFEC1
:10563800A3685B69002BF0D020469847EDE700BFD0
:105648002C030021B9550001E0800021F803002156
:10565800681502015C030021400B0201014B1B6825
:10566800184700BF1000002130B585B004460D462C
:105678001022002168461BF06EF902238DF80230D3
:10568800044B2A4621466846019319F037FB05B0BA
:1056980030BD00BF6556000180B505460E46174669
:1056A800984618F0BFFF03461BF0D0F90446DFF810
:1056B8001890424649F8003039463046A84754F811
:1056C800090000F09DFB00BF080000002DE9F0472D
:1056D800058B04462807904611D4022905F00705D2
:1056E80040F0CC80204619F010FF78B10138218BAA
:1056F800042811D8DFE800F0C2106D859500012953
:105708000CBF45F0100545F02005258388F3118866
:10571800BFF36F8FBDE8F08701F0070AAA4500F0D4
:10572800A5800027B9463E46A368002B00F0BC8040
:1057380041F00801218388F31188BFF36F8FA168B6
:10574800002900F0BA800D68002900F0B6803346C1
:1057580052462046D1F80480C047002D76D02B68E9
:1057680029461D46F0E701F007035A1F012A1BD8F6
:10577800002221F00701062B276889B2C4E900221C
:1057880009D13B4603E0628B013262831B68002B20
:10579800F9D141F002012046218319F0B6FE002814
:1057A8007AD041F0200176E0042B0AD121F00701DC
:1057B80089B22046218319F0A8FE10B141F02001DA
:1057C8002183218B01F0070AAA454FD00027B9464B
:1057D800AAE7236921F0070141F00601062DD3F855
:1057E800009021832DD1B9F1000F3FD041F008017D
:1057F800218388F31188BFF36F8F20463949C84742
:1058080029E021F00701236941F0040189B2042D40
:10581800D3F804902183E6D000274FF0040A3E46CF
:1058280082E721F00701236941F0050189B2052DBE
:10583800D3F808902183D6D000274FF0050A3E46BA
:1058480072E700274FF0060A3E466DE72B4687E7CA
:10585800B9F1000FD1D1EFF31188202383F3128817
:10586800BFF36F8F238B23F008032383258BEA066E
:105878002ED525F01003238305F007056669218BD3
:10588800002EBFF670AF00232768C4E9003321F06B
:10589800070141F001012183218B4FF0000901F03C
:1058A800070AAA457FF440AF002F9CD041F00801B9
:1058B800218388F31188BFF36F8F002FC8D03D680C
:1058C800394633465246204619F04BFE2F46F4E738
:1058D800AB067FF51BAF25F02003238305F00705F2
:1058E80000E700BF97F50101014B036000207047F6
:1058F800380D020108B50348034A0021121A19F0AD
:105908002AFF08BDF8030021DC800021074808B5FC
:10591800074A0849121A19F020FFBDE8084006484E
:10592800064A0749121A19F018BF00BF00000021E3
:10593800F8030021BC1A0201000000210000002128
:10594800BC1A020138B505460C4699B1D1E90123C4
:105958000F48096819F0A4FDD4E90423E1680D484B
:1059680019F09EFDE1690C4819F09AFDA1690B48F0
:1059780019F096FD012D05D1EFF30581084810397E
:1059880019F08EFD21462846BDE8384018F03AB88F
:1059980074150201A4150201D4150201E4150201CF
:1059A8001316020130BFFFF7FDBF00BF2DE9F0411C
:1059B80005460B4EDFF82C80324606EB0807CC1B59
:1059C800204609491AF0A0FFA01942460021083CC8
:1059D8001AF0C1FF6C6707F10800BDE8F08100BF4D
:1059E8000000000004000000080D0201054B5A6980
:1059F8009B689A421FBF044A536843F08053536020
:105A0800704700BF5080002100ED00E010B5204C29
:105A1800204819F045FDA36A990137D51E4819F0A9
:105A28003FFD1E20A36ADA0103D51C4819F038FD92
:105A38001F20174CA36ADB0203D5194819F030FD63
:105A48000220A36A1C0303D5164819F029FD21205A
:105A58000F4CA36A590303D5134819F021FD2220DE
:105A6800A36A9A0303D5114819F01AFD2320084C9C
:105A7800A36ADB0303D50E4819F012FD2420A36A9C
:105A88006FEA03436FEA1343A36210BD1D20C9E701
:105A980000ED00E02716020140160201541602012B
:105AA8006F1602019A160201B9160201DF160201E9
:105AB800FA16020170B5204C064620480D4619F02A
:105AC800EFFCA36AD90435D51D4819F0E9FC172065
