:1010000040A600207D6E0000C72E0200696E000021
:10101000696E0000696E0000696E0000000000004B
:10102000000000000000000000000000456F00000C
:10103000696E000000000000E16E0000696E0000B3
:1010400015710000B58D01001571000015710000CB
:101050001571000015710000157100001571000078
:101060001571000015710000157100001571000068
:101070001571000015710000157100001571000058
:101080001571000015710000157100001571000048
:101090001571000015710000157100001571000038
:1010A0001571000015710000157100001571000028
:1010B0001571000015710000157100001571000018
:1010C0001571000015710000157100001571000008
:1010D00015710000157100001571000015710000F8
:1010E00015710000157100001571000015710000E8
:1010F00015710000157100001571000015710000D8
:1011000053B94AB9002908BF00281CBF4FF0FF316E
:101110004FF0FF3000F00CB8ADF1080C6DE904CED3
:1011200000F012F8DDF804E0DDE9022304B07047B6
:10113000704700BF10F8012B11F8013B012A28BFAE
:101140009A42F7D0D01A70472DE9F04786468C4670
:101150000846089E154674461946002B40F0C2808A
:101160008542B2FA82F245D94AB1C2F1200300FAAF
:1011700002FC2EFA03F3954043EA0C0C94404FEA2C
:10118000154EA8B2BCFBFEF8230C0EFB18CC08FBD6
:1011900000F943EA0C43994528D9EB1808F1FF37C9
:1011A00004D2994502D9A8F102072B44A3EB090305
:1011B000A4B2B3FBFEFC0EFB1C330CFB00F044EAB4
:1011C0000344A04214D92C190CF1FF3304D2A042DD
:1011D00002D9ACF102032C44241A43EA07401EB1A1
:1011E000D440002334607360BDE8F0874746DDE7F4
:1011F0006346F1E792BB431B01214FEA154EAFB2A4
:10120000B3FBFEFC200C0EFB1C330CFB07F840EA82
:101210000343984562D9EB180CF1FF3004D298458E
:1012200002D9ACF102002B44A3EB0803A4B2B3FB38
:10123000FEFC0EFB1C330CFB07F744EA0344A742F9
:101240004ED92C190CF1FF3304D2A74202D9ACF1CC
:1012500002032C44E41B43EA0040C0E7C2F1200330
:1012600020FA03F1954090402EFA03F303434FEA2E
:10127000154EAFB2B1FBFEFC0EFB1C10190C0CFBA3
:1012800007F841EA0041884504FA02F422D96918B6
:101290000CF1FF3004D2884502D9ACF10200294498
:1012A000A1EB08019BB2B1FBFEFC0EFB1C110CFB79
:1012B00007F743EA01439F420ED9EB180CF1FF31C7
:1012C00004D29F4202D9ACF102012B44DB1B41EA5C
:1012D000004192E76046E3E76146F7E76046A3E72F
:1012E0006346B7E7834206D916B9002108467BE773
:1012F000C6E900E0F9E7B3FA83F78FB9834201D377
:10130000724508D8BEEB020460EB030301209C4643
:101310001EB9002168E73846FAE7C6E9004CF8E74D
:10132000C7F1200CBB4022FA0CF41C432EFA0CF13E
:1013300020FA0CF3B84001434FEA14490EFA07F5BE
:10134000B3FBF9F81FFA84FE09FB18300B0C08FBFD
:101350000EFA43EA00439A4502FA07F240D9E3182D
:1013600008F1FF3004D29A4502D9A8F102002344C3
:10137000A3EB0A0389B2B3FBF9F809FB183308FBA6
:101380000EFE41EA03418E452CD9611808F1FF3366
:1013900004D28E4502D9A8F10203214443EA004059
:1013A000A0FB0298A1EB0E014145CE46434602D375
:1013B00006D14D4504D2B9EB020E68EB04030138A7
:1013C000002EA6D0B5EB0E0261EB030101FA0CFC76
:1013D00022FA07F34CEA0303F940C6E9003198E723
:1013E0004046C5E74346D9E72DE9F843D0E9073839
:1013F000856903EB08042F34A5420F46164619D819
:10140000DFF86C80A3FB080117A3D3E90023FFF7E3
:1014100077FE0346601BA0FB080123F07F4412A364
:10142000D3E90023FFF76CFE20F07F403C60306082
:10143000BDE8F883DFF838900BA3D3E90023A5FBC0
:101440000901FFF75DFE20F07F440A480A2106A348
:10145000D3E90023E8FB0901FFF752FE20F07F40AB
:101460003C603060BDE8F8838D49FD1A070000003C
:1014700000CA9A3B00166BF12DE9F04F8DB09A46E9
:10148000179C9DF85870A36B05460E464BB1B4F8F7
:1014900078301BB1B4F87610994276D2E06F00280C
:1014A00076D14FF6FF739A4521D023780133DBB212
:1014B0002370002B77D058498B7AA1F808A067F3E6
:1014C00000038B72554BC1E9005204F11000002259
:1014D000C86099600120114607F0E6F9002864D140
:1014E000A36BC4F8905013B120460FF043FB257E48
:1014F00015F0010549D14A4A4A4B11781B788B42B5
:1015000055D04FF6FF739A45D4F87C80B4F87690A6
:1015100015BF0AF101074FF0000ABFB25746B8F1F4
:10152000000F2FD0B9F1000F2CD0A26E0AF1010AE2
:1015300040F271211FFA8AF301FB02FA3A4A4FF096
:10154000070BA6FB02010AFB03F309930BFB061131
:101550002FA3D3E90023FFF7D3FD099B324A1E18BE
:10156000A5FB02010BFB051129A3D3E90023FFF71B
:10157000C7FD50443044804586BFA8EB0606E667A9
:10158000C4F87CA04F44A4F876700DB0BDE8F08F8D
:10159000A16E40F27123A1FB0313814273F100039A
:1015A000FFF47FAFF1E700DE85E700DE98E7013367
:1015B00004210BA8137017F069FE0B9B1B490095C3
:1015C000A1FB03211A4A0694CDE90355CDE9015543
:1015D00028465D1A01EB5501A21A164D9208A5FB8B
:1015E0000252090A920840F2471505FB11330232F4
:1015F000114905910133D2B201210B9308F02EFE5F
:1016000010F0FD0F01D10B9D7BE700DEFBE700BF73
:1016100000CA9A3B00000000E05A0020C4020020EB
:10162000908900208F8900208D49FD1A21F1D490E6
:101630000C5B002015F9AC1B3DF30000000000001E
:10164000002900F0B6812DE9F04F8FB0002840F05E
:10165000B2818C4C164694F8802012F001071D468A
:1016600040F0B181607EFF2300F00300E37616F0C6
:10167000DBFF94F88000430700F1F48094F8292000
:10168000637F04EB820204EB8303D76AD3F82080E4
:10169000002F00F0CF80394640460EF0AFFC002806
:1016A00040F0848198F8003013F00E0F40F0F08085
:1016B0006369002B40F0798109F09CFD8146002888
:1016C00000F0AC8109F0A2FD0A90002800F0A3818F
:1016D00010F014FF8346002800F09A81C06E4FF688
:1016E000FF720BF11003ABF824200B93002800F0DD
:1016F00011820BF160020BF15C0107F051F89BF8CD
:10170000722022F007028BF872200022CBF86C20A6
:10171000ABF8702098F8002002F00F02072A00F0C2
:10172000EB819BF8582022F0770242F011028BF8EF
:101730005820012211465448D0F801C0CBF881C18D
:10174000D200CBF887C110F801CB42EA01219BF807
:1017500080210CF0010C6CF386126CF3C7128BF82D
:1017600080218288ABF88521ABF88B21BBF858200B
:1017700022F4E16211439BF83720ABF8581002F0D5
:101780003F0262F07F028BF837209BF83C2040F646
:101790007F014FF0000A22F00F02ABF8B6104FF4B1
:1017A000C0218BF83C20CBF872115846CBE912AA25
:1017B0008BF839A0ABF82AA0CBF82EA0CBF850A01C
:1017C000ABF840A1ABF878A1ABF86EA113F05EF8CE
:1017D0008BF844A1CBF8489111F0F4F99BF88011F3
:1017E00060F302018BF8801111F0F2F99BF880117F
:1017F00060F3C5018BF880119BF842116AF3410137
:101800008BF842110BF1C40012F04AFE0A9B63668A
:101810000BF11003C4F860906361CBE902AA8BF866
:1018200000A0CBF810B017F0B5FFB0B30DF028FE54
:101830000320BBE098F8003003F00F03072B00F003
:10184000B480124818F00EF9C0B2002840F0E680CB
:1018500094F8293004EB8303DF6A04233B700623EA
:101860007B7018E7C0F3C0003A4604F1810117F01D
:1018700073F8FF28E0763FF401AF384616F01AFF00
:10188000FCE600BF0C5B00200D720200345B002000
:1018900003F00F03072B00F04281B14B1B78022BA2
:1018A00000F043810023636300252E46637E227E81
:1018B000E667C3F38206A37EA4F87850C2F342021F
:1018C000012100250DF133008DF8332003EA0109D1
:1018D000A4F8765007F000F90246002861D033469C
:1018E0003946CDF8009040460DF018FC9D499E4BBE
:1018F0002570A0FB0101C01841F1070196A3D3E9AF
:101900000023C4E90255FFF7FBFBB4F86860606090
:1019100008F0EAFD00F1180746B998F8005005F004
:101920000F05A5F10105B5FA85F56D09237E65F36F
:1019300000032376DB07656800F12081D4F8388046
:10194000B8F1000F6CD1894B8948049505F2471511
:101950000694CDF8088091211D600993A6FB000331
:1019600001FB0631834B0793834B05934FF6FF73BF
:1019700002260DAD039378A3D3E900230D960895B5
:10198000FFF7BEFB032101903B463246CDF80080B5
:10199000404608F003FC294609F0BAFC002800F094
:1019A0009B8063690BB10DF06BFD0C200FB0BDE89F
:1019B000F08F0DF08FBD6A4B1B78022BF5D0002005
:1019C0000FB0BDE8F08F664B1B78022BF7D194F86F
:1019D0002920637F04EB820204EB8303D16A186A37
:1019E0000EF00CFB0028E1D1636B002BDDD01A79DF
:1019F00002F0FF0142B942F2107206FB02F2A4F8B3
:101A00007610A4F87850E2671B79002BD7D0CCE78A
:101A10000A9809F001FC484609F0F2FB0720C5E7E7
:101A2000D8F80080AB1C3B440DA940460D9300F054
:101A30006BF9A36E94F8742040F271218146A3FBE8
:101A40000131002A40F0D18042F6DC32981841F191
:101A5000000140F2E2420023FFF752FB80B2A8F8F7
:101A600034004A460D99404600F08EF98146002820
:101A700097D10DAB089302903C4B3D48049505F27D
:101A80004715069491211D600993A6FB000301FBF5
:101A90000631384B0793384B05934FF6FF730225F9
:101AA00003932DA3D3E900230D95FFF729FB032111
:101AB00001903B462A46CDF80090484608F06EFB60
:101AC0000DA909F025FC00287FF46BAF98F846308B
:101AD00043F0010388F8463094F88030002043F04A
:101AE000010384F8803010F025FA00287FF467AFF6
:101AF000012016F07BFD62E7617E9BF858204909C2
:101B000061F3020261F306128BF85820A27E02F004
:101B1000010210E60BF16400CBF86C00E9E598F8DF
:101B2000023059067FF5B9AEC2E509F063FB814684
:101B3000002867D009F06AFB00286AD00023C0F8AB
:101B400000900371237E6063DA073FF5ADAE42F289
:101B5000107303FB06F6A9E68D49FD1A0700000085
:101B60008E89002000CA9A3B8C49FD1A005B002038
:101B7000002AE784ADA6000079140000284B0993E1
:101B800000200DAA18600226049501950892254DA3
:101B9000254A05920321CDE9020006943B460090B8
:101BA000079532460D9608F0F9FA0DA909F0B0FB39
:101BB00000287FF4F6AE0DAA1C4908924AF2D832EA
:101BC00000920591CDE903000321CDE901000795BD
:101BD0003B46069401220D9608F0ACFA0DA909F0D7
:101BE00097FB00283FF478AFDBE602FB01110132DE
:101BF000A2FB0303194440F2E2420023FFF780FAFC
:101C000080B22CE76369002B3FF408AF0DF038FC7D
:101C100004E76369002B3FF4FEAE0DF031FCFAE6F9
:101C2000005B0020ADA6000079140000E1F1000087
:101C30002DE9F041037E477E90F81A808AB00D4668
:101C4000C3F34203044601210DF1230016468DF82B
:101C5000233006F041FFC7F3820708F0010802466F
:101C60003B4631462846CDF800800DF057FA204912
:101C7000204AA0FB0131981841F107011AA3D3E9CA
:101C80000023FFF73DFA63689842054623D21B1AEA
:101C900000220192184A02930221184B0991A21ABC
:101CA000CA40A3FB0232CA4000230A4409AE1449C9
:101CB0000591CDE903330321D2B20696009318466D
:101CC00008F0CCFA314609F023FB40B965600020EA
:101CD0000AB0BDE8F081FAD9C21A0023D9E70C2076
:101CE0000AB0BDE8F08100BF8D49FD1A0700000071
:101CF00000CA9A3B8C49FD1A0C5B002015F9AC1BFD
:101D0000ADA60000000000002DE9F04182B00446BD
:101D10001B4E1C4F88460EF009FB0725334629460B
:101D2000E0FB0731184614A3D3E90023FFF7E8F9D5
:101D300094F8253020F07F4004EB83036060996ABB
:101D4000FF231A4620460EF08FFA2946E0FB076172
:101D500009A3D3E900233046FFF7D2F901A920F007
:101D60007F4015F089FE18B9019B0233C8F8003096
:101D7000002002B0BDE8F0818D49FD1A0700000087
:101D80008C49FD1A00CA9A3B2DE9F04700268CB019
:101D90008846C0E902662049067017464822044674
:101DA00006F0DEFC0546A08E1C4940F2E24202FB32
:101DB00000F002230B93A0FB010115A3D3E900233C
:101DC000FFF79EF90DF12C0ACDF820A006941946D4
:101DD00063681F44124B0793124B059381460023FF
:101DE00010464FF47A72CDE90367FFF789F903359E
:101DF000EDB2CDE9019043462A46009630460321D4
:101E000008F098F9514609F083FA0CB0BDE8F08764
:101E10008D49FD1A07000000E45B002000CA9A3BD0
:101E2000ADA600006903010070B590F803C01CF076
:101E3000010F14BF00F10A04041D1B481CF0020F1F
:101E400015461E464FF00702A1FB000318BF0634DB
:101E500002FB01311CF0080F11A3D3E9002318BFC6
:101E60000234FFF74DF9AD1B10492844A1FB0031A6
:101E70000D09490C04D00E4BA3FB0030012145098C
:101E8000A2782078657022F01F02C5F3042361F365
:101E9000C71013432070A370204670BDAFF30080BD
:101EA00000CA9A3B000000008D49FD1A8988888885
:101EB000B5814E1B000000002DE9F04F93B0D0F823
:101EC00038B00A9000241094DBF80030944909934C
:101ED0004822184606F044FC0A9BCDF82CB0D3F8F3
:101EE00090A0CDF83CA0FF22C51C8DF83720012220
:101EF000EDB20A9252460E94AA460DF144090DF134
:101F000040080EAF02269B4615460BE0119B4BBBCB
:101F10000F9BAB422AD19DF83730FF2B31D09A4529
:101F200034D00F9D7F4BCDF81890CDE90443CDE917
:101F30000244CDE900780FAB0DF1370202210020F9
:101F4000119608F06DFA0228E0D1119B022BDDD129
:101F50000221002008F0B0FA119B022BF8D0119B4F
:101F6000002BD5D000DE0F9BAB42D4D00A9A531E73
:101F7000DBB2002A00F0C6800A939DF83730FF2BB1
:101F8000CDD100DE9DF837309A45CAD1109C664904
:101F90000E9DA4F57422A2F510728A425B46DDF80C
:101FA0002CB007D904F1E874013D04F5D4340E9542
:101FB00004F5A5745D4ACBF80C50A2FB0424A40CD4
:101FC000CBF81040197F587F10948142CAB204D0D8
:101FD0000132D2B2022A08BF002203EB8202597EEC
:101FE000D2F82080BBF8087098F80120C1F3820174
:101FF00003297BD9997ED30001F0010252002B33D3
:102000000132934003F5BC731FFA83FA484E4FF038
:102010000709A5FB06013EA3D3E9002309FB05112F
:10202000FFF76EF8434A04EB000CA2FB0C120AF512
:10203000967A22F00F011FFA8AF3A1EB1212B3EB8A
:10204000420F1FD9099B3C489B8E40F2E24202FBA3
:1020500003C4A4FB000130A3D3E90023FFF750F829
:1020600020F07F45A5FB060129A3D3E90023CBF887
:102070000C5009FB0511FFF743F80137241ACBF880
:102080001040BFB22246294600234046FFF7CCFE4F
:10209000DBF80C300999099D0133CBF80C3091F82D
:1020A000452091F84430934202EB420305EB430391
:1020B00018BF81F8442093F83D30062101FB0252FD
:1020C0000446E98E383203F03F03384615F07CFDB4
:1020D000237860F30503237008F006FA0F9908F0DF
:1020E00005FA2C280AD813B0BDE8F08F8B180933F5
:1020F000DB004910CB401FFA83FA87E700DE13B0FC
:10210000BDE8F08F00DEFF230A9304E7AFF3008001
:1021100000CA9A3B000000008D49FD1A070000002C
:10212000E45B002065030100BFBDF07F83DE1B433D
:102130008D49FD1A8988888800CA9A3B00000000F2
:102140002DE9F04FA5B00D461E4640F201232E9911
:102150000F92AB432F9A0C9104460D9200F0F78139
:10216000637F04EB830305F4007BD3F820A09AF887
:10217000007007F00F07072F10D0BBF1000F04D13C
:102180000C27384625B0BDE8F08FD6F8012031780D
:10219000204625B0BDE8F04F0DF08CBF9AF8023014
:1021A00013F03F0218BF9AF803208DF880200AF13F
:1021B00004020A92BBF1000F02D07F2B00F27D8156
:1021C0000C9904F11C0017F0E9FC9AF80020037840
:1021D00002F00F0223F03F03134302464FF00008C2
:1021E00002F8023B9AF80230139282788DF87C80D4
:1021F0009B0963F387128270A26B814604F1100081
:10220000002A00F0D882537D02EB8303996913689A
:102210001493CB780B910231129103F001018DF8E8
:10222000883011910D99099302F1140017F0B6FC52
:1022300099F8001002780B9B01F00F0122F03F0289
:102240000A4302701A780178C2F3801262F3861191
:1022500001701A78C9B2D20962F3C711017099F8F6
:1022600002208178920962F3871181709DF88020A5
:10227000012115EA010380460E938DF88410099B15
:1022800002EA010040F00781002800F048819AF836
:10229000000098F800C00E99C0F3801060F3861C0F
:1022A00088F800C099F8000061F3861089F80000F2
:1022B0000AF10A010A911198002840F044810B9814
:1022C0000430099003F0020190071D9140F105814F
:1022D0000A9906310A919DF8841041F002018DF8A7
:1022E00084109AF8001098F800C0C909404661F3BC
:1022F000C71C00F810CB99F800106FF3C71189F8CC
:10230000001003F0020111B109990631099112F090
:102310000801189102D00A9902310A919DF87C10A7
:1023200041F008018DF87C10811C0E9115F0080118
:1023300000F0D18002213170D6F801101791C6F853
:10234000010005369DF8841041F008018DF88410D5
:1023500013F00801199102D009990231099112F084
:1023600010011A9102D00A9903310A919DF87C104C
:1023700041F010018DF87C1009F10901109103F072
:1023800010011B91E90640F19A80811CC6F80110EA
:102390009DF8841041F010018DF8841003213170F4
:1023A000053603F01001002900F0918000211691FC
:1023B0000999033109919DF88410C90644BF411D54
:1023C0000E91520611D50A9A01320A92627E02F0EB
:1023D0001C02102A00F00E829DF87C2042F0400280
:1023E0008DF87C2009F10A0210925B0608D5099B42
:1023F000013309939DF8843043F040038DF8843015
:102400009DF88430159313F040031C9302D00E9B6B
:1024100001330E93109B139A981AC0B2022803D866
:1024200009F1030310930120099B129A9B1ADBB256
:10243000022B03D80B9B0333099301230B9A527889
:102440009A42C0F0AA800E9908F1020CA1EB0C0C84
:102450005FFA8CFCBCF1020F04D808F103010E9165
:102460004FF0010CBBF1000F73D096F800B0D6F816
:102470000110D51AEDB2099B3570C6F8013005364A
:10248000BBF1000F40F09580002940F08081099950
:102490005A465B4668E016F801EB98F800C06EF308
:1024A000861C88F800C099F800C06FF3861C89F874
:1024B00000C000283FF4FFAEFAE6122761E60F994C
:1024C000C9063FF56EAF03F0100100297FD103F07C
:1024D000100116916FE7179134E70E9908F10A0081
:1024E00000297FF408AF03F00201002967D09DF8AE
:1024F00084000B9940F002008DF88400087898F869
:1025000000C00E99C00960F3C71C404600F810CB0C
:1025100099F800C061F3C71C89F800C0F4E611986F
:1025200000283AD00B9998F800C008780E99C0F3AB
:10253000801060F3861C88F800C099F8000061F3F1
:10254000861089F800000B990A310991BAE600DE7D
:1025500006E66D0523D40F99890500F11881D31A79
:102560000999DDB25A465B4605EB020EBEF1FB0F40
:102570003FF707AE0CEB05071744FF2F30DD0CF1DA
:1025800001035B442B44CA45337000F0A1810B9BCF
:10259000984500F098814527F3E51F27F1E596F867
:1025A00000B00999D51AEDB2D6F801305A46053671
:1025B000DAE75D464FF0000B5A465B46D4E799F8E0
:1025C00000C00E9961F3C71C89F800C09FE69DF812
:1025D000841041F010018DF8841009991691E7E6F6
:1025E00099F8022089F80100013860F3050289F8A2
:1025F000022098F802200E9E0C930CF1FF3060F33D
:10260000050288F802200BEB0502624488F80120DD
:1026100030462A4623F0A4FC0C9B23B15A461946A7
:10262000701923F08FFC98F802309A0600F0AD8004
:102630009DF87C305B0640F1F4800A9A109912F8FC
:10264000013C01F8013C531E0A934B1E10931A9B48
:1026500013B10A9B033B0A93109E637E16F8032C6A
:102660006FF3050206F8032C5D0917F001F9322813
:102670008CBF0020012095FAA5F3002DB3FA83F357
:1026800008BF4FF0FF335B0106F8013C16F8033C2E
:1026900060F386136FF3C71306F8033C002306F8B4
:1026A000023C1B9B13B1099B033B0993159BDF065F
:1026B00002D50E9B033B0E93169B23B10E9803226B
:1026C000194623F04DFC189B13B10A9B023B0A9359
:1026D000199B13B1099B023B0993179B002B00F038
:1026E000E580179A537812781B0203F470631A433B
:1026F0001098D1B200F8051C94F87230C3F30303AC
:102700001B0103EB122300F8043C0E9800F8021C96
:1027100094F87230C3F303031B0103EB122300F898
:10272000013C159B9E076CD40238159BDD0709D52B
:10273000119B002B00F0D080099B991F06380622C0
:1027400023F00EFC99F802300B9899061CBF9DF8F7
:102750007C3089F8033098F802309A061CBF9DF847
:10276000843088F80330A57E637E169A05F0010553
:102770004FF496745B094146009501940EF00EFAF1
:10278000149B93F84630DB075AD40027F9E499F8F4
:10279000023089F80100013860F3050389F802303E
:1027A00098F8023088F801C00CF1FF3C6CF3050387
:1027B00088F8023037E70EF073F91490002800F023
:1027C0009780DDF850C0CDF844809CF825300CEBA4
:1027D00083030122996A0B91084610F8023B12907C
:1027E00003F03F034A700B7081F803800CF1100274
:1027F000434617E59DF8842042F040028DF884207E
:10280000F3E51D9B002B6AD0099B063B09930E99AB
:102810001A6841F8082C9B8821F8043CA1F10800B3
:1028200083E71C9B002B3FF412AF099A0E9912F814
:10283000013C01F8013C531E09934B1E0E9306E721
:10284000149C20460DF072FD2F4A304B0721E0FB0F
:10285000023118462AA3D3E90023FEF751FC65682C
:1028600020F07F44AC423ED22E1B0025149F284905
:10287000022348223846239305F072FF002325499E
:102880000195C21C23AD0591CDE9033303210296C6
:10289000D2B200931846069507F0E0FC294608F0EE
:1028A00037FD00287FF46CAC7C606EE794F87230E2
:1028B000194903F00F0331F81320501C21F81300BD
:1028C000C2F30B0214E70D9AA36B12785A7562E6F5
:1028D0000C9B1B7863775AE60A9B991F2EE70A9B8D
:1028E000063B0A9393E77FF650AF651B0026BDE7D2
:1028F000CA457FF446AC00DE43E400BFAFF300807E
:102900008D49FD1A0700000000CA9A3B8C49FD1A48
:10291000E45B0020ADA60000C05B002000000000CA
:1029200070B5294C9DF810E094F8625015F002053E
:1029300042D110F0080F4FEA500605D094F8C6C0F7
:102940001CF0020F38D1643471B3A4F84C104FEA74
:10295000401C94F838101D484FEACE0E0EF0180EA9
:102960000CF0200C4CEA0E0C21F038014CEA010C62
:1029700094F8441084F838C066F3020184F84410D7
:1029800094F8621063F3830184F86210A2FB0003E1
:10299000912101FB02310AA3D3E90023FEF7B0FB2A
:1029A0002065A065284670BD94F8443061F30203A9
:1029B00084F84430284670BD0C25284670BD00BF01
:1029C0008D49FD1A070000006C5C0020002AE78496
:1029D00010B504469DF80800A2874FEA411CC000CC
:1029E00094F8281000F018000CF0200C4CEA000CB1
:1029F0000B4821F038014CEA010CA3FB00029121A5
:102A000084F828C001FB032103A3D3E90023FEF7C8
:102A100077FB206410BD00BF8D49FD1A0700000040
:102A2000002AE784000000002DE9F04F90F86230A2
:102A300090F83820DFF83092DFF830826FF300032F
:102A4000044600F14601C3F3800060F386128DB0A6
:102A500084F8623084F8382007F0ECFD94F83820D0
:102A6000B4F84C308248246102F07902002684F8E0
:102A700038209121A3FB000201FB0321C4E9026677
:102A800077A3D3E900232670FEF73AFB794AA36DBA
:102A90002365A4EB0905A2FB05251833C5F34715EB
:102AA000984205EB450296BF0346636060600746A7
:102AB00048F8223098BF26654FEA450A002D5AD1C2
:102AC00099F8A83003F00703032B72D84FF0000BDE
:102AD00007F00AFD636900F11806002B00F08380FF
:102AE0000DF12C09AA4408EB8A030993CDF8209034
:102AF0000694B4F84C305E484FF00008A3FB000287
:102B0000CDF80C80912101FB0321636804935A4B9B
:102B100007935A4B05934FF0020A51A3D3E90023C0
:102B2000CDF82CA0FEF7ECFA104619464FF47A7255
:102B30000023FEF7E5FA05355E44EDB2CDE90170FC
:102B4000032133462A46CDF80080404607F026FB95
:102B5000494608F0DDFB002841D194F8623043EA91
:102B60000A0384F862300DF027F9002856D00020BF
:102B70000DB0BDE8F08F012DA8D199F84430DB07E6
:102B8000A4D5266D002EA1D0B9F84C30384891213B
:102B9000A3FB000201FB032131A3D3E90023FEF7CD
:102BA000AFFA87424FF0000B47D00023C8F80C3033
:102BB0008EE7266D002E89D0B9F8B0302C489121CF
:102BC000A3FB000201FB032125A3D3E90023FEF7A9
:102BD00097FA874226D00023C8F8003076E70C2009
:102BE0000DB0BDE8F08F0DF12C09CDE90A33616815
:102BF0004B460AAA032001F043FD00287FF472AF80
:102C00000B991F4816A3D3E90023A1FB0001FEF78F
:102C100077FA0A9B20F07F461E4463E7504615F082
:102C2000E5FCA4E7D9F8B43033449F42D3D3023350
:102C30009F429CBF193E6660CDE7D9F850303344BF
:102C40009F42B2D302339F42AFD8193E6660D9F893
:102C50005030C4F850B0C9F850B003F1020BA4E7EB
:102C60008D49FD1A070000006C5C0020545C0020B8
:102C7000002AE7841F85EB51ADA60000E91801008A
:102C800000CA9A3B000000002DE9F04F0B79082B99
:102C900093B00C46074609D0092B00F07981062B2A
:102CA00000F0CC8100DE13B0BDE8F08FD1F80890C1
:102CB000D9F82C30002B40F03B82D9F800804046F8
:102CC0000FF004F90530C3B20B930420A37E2760F4
:102CD000002666F38613A37694F82130E660002B75
:102CE00000F04C8104F1220A3546B64694F82220C1
:102CF000910600F03F8194F823C01CF0010F14BF2F
:102D000004F12A0104F124011CF0020F18BF06315E
:102D10001CF0040F18BF01311CF0080F18BF02315E
:102D20001CF0100B1CBF8B4603311CF0200F18BF8A
:102D300012311CF0400F18BF0131C2F30502A1EBA4
:102D40000A010132D2B2C9B28A4238BF0A469A4257
:102D50003ABF9A1A5FFA82FA4FF0000ABBF1000FED
:102D600000F08E819BF802109BF801C00A0202F469
:102D7000F85252EA0C0200F08381BEF1000F40F0DD
:102D8000A9815F294FEA511C00F2D6819BF80010FF
:102D90000C9101F03F0EBEF1240F00F2CD810C9991
:102DA00011F0800F14BF4FF496711E210D9101FB9D
:102DB00002F2410740F1D781D800A37EC3F380031C
:102DC0005B002B30013300FA03F303F5BC730D995C
:102DD00003F5967E50187045C0F08F810C99B64867
:102DE00049064CBF32214FF4FA7102FB01F1A0FBFE
:102DF0000101890C0C910121CDE90E3201FA0CF38D
:102E0000D8B2109316F030FB61690F9A0E9B1190A7
:102E10002F390A44D31A0C9A1B1AA8489B1AA3FBF1
:102E20000001A3A3D3E90023FEF76AF920F07F4352
:102E30000E9394F91A30002B80F25481002D00F08B
:102E40009E81AB8D53449BB21E2BAB8504D994F964
:102E50001A30002B80F2D380AB6A002B00F0A581E2
:102E6000DC60AB8DAC62A3839BF80010109BB28832
:102E700001F03F0141EA032122F4E76240F23F738F
:102E800022F007020B401343B38094F91A30002B51
:102E9000C0F28D81B8F1000F00F0978198F8623090
:102EA00013F0010340F02F81D9F82C20B24208BF63
:102EB000C9F82C30737903F00703032B00F25C810F
:102EC00003F10902D2005B10DA40119B7B4803F248
:102ED000053313447A4A0721E3FB0021104674A30B
:102EE000D3E90023FEF70CF90C9B0D9A2F3302EB6C
:102EF000430320F07F4068600022B360022101207C
:102F000005F09EFC0B9AFF2A0DD023690E99002034
:102F1000453B0B44CDE90000012107F0B7F910F063
:102F2000FD0F40F0698167493022284605F018FC02
:102F300065492369CDE907156449CDE90515696837
:102F400002460020CDE9030107320E990091CDE938
:102F50000100453BD2B2012107F0ECF810F0FD0F63
:102F600040F0488101220221104613B0BDE8F04F25
:102F700005F066BC013BDBB2002D3BD1A3832146AB
:102F8000384608F04FF913B0BDE8F04F08F056B9D5
:102F90008E684C4B35689D4260D1D5F82090B9F1D0
:102FA000000F00F0D08047493022084605F0D8FBDA
:102FB0000730C3B20B93D9F800000EF0A1FF804692
:102FC000707900F0070002286ED004286AD001282A
:102FD0007FF468AE062394F81AE02371002273464A
:102FE00062F38613A37694F821302760E260002B09
:102FF00040F0FB80AA8D13449BB2AB85A383B8F14C
:10300000000F7ED098F86230AA6ADB077BD4D460C8
:103010002B6AAC62002B7AD02B6A002B79D02B78EC
:1030200003F0FF0233B3012A7ED1AB68002B7DD1C0
:10303000274BC5E9023513B0BDE8F08FD1F80890F1
:10304000D9F82C30002B75D1D9F8008040460EF00D
:103050003DFF0530C3B20B93012037E6CB68002B50
:103060007CD01D682A6A964272D1B1461E46FF2363
:103070000B93A0E7284613B0BDE8F04F0EF0E2BF77
:10308000002D48D0AB8D53449BB2AB85A383BEF1DA
:10309000000FB4D0AB6A002B43D0DC60AC6213B03D
:1030A000BDE8F08F082396E7072394E7AFF300808D
:1030B0008D49FD1A0700000083DE1B4300CA9A3BBE
:1030C0008C49FD1A605D0020A5200100FD1F010054
:1030D00095200100002D38D0AB8D53449BB2AB85B9
:1030E000A383D7E707F000FA23690E9A383B9918B3
:1030F00007F0FCF902023FF5A1AE002D7FF47FAF8F
:103100003DE700DE7EE7AB6AA342C6D1CBE500DE39
:1031100082E700DE83E7A4F81CA0BEF1000F3FF4B5
:103120002EAF00DEAB6AB8E700DE7EE700DE7FE7A9
:1031300000DEC2E500DE87E795B1AB8D53449BB25C
:10314000AB85A3835BE700DE2DE7A4F81CA0E8E7CE
:1031500000DEB1461E46FF230B932CE700DE80E71E
:10316000A4F81CA00BE700F0030E73440933DB0046
:10317000C0F34000C3402AE64FF43472A5E61F486E
:1031800005F0C0FA054610B30023027D0370C0E9C4
:10319000023363F3C712A0F82CA0006102754362EA
:1031A0008362C0F8209000F110066C6259E6D9F8ED
:1031B0002C30B3B9C9F82C60A37E43F04003A3764A
:1031C00033796FF3861333716DE500DE66E694F9AB
:1031D0001A30002BBFF6D3AEA37E43F04003A37694
:1031E000CDE6B342E6D000DEE4E7CEF3C00E04F154
:1031F000220A7BE500DEB5E600DE94E65C5D002099
:103200002DE9F04F05468BB08B46012002219946EF
:1032100014461AF041FA002202218246012005F0EC
:103220000FFB33494FF4C872284605F099FA00F1B4
:103230000806304B0093F6B201954B463246012109
:10324000002007F0A9F810F0FD0F48D12A4BA4FB8D
:103250000348204624A3D3E900234146FDF750FF4D
:10326000264B20F07F47A7FB03310722E01A02FB21
:10327000071168EB01014FF47A720023FDF740FF5C
:10328000CDE90170CDF800B008950695696895F90B
:1032900037401B4804911B4931EA240128BF0146ED
:1032A0000591194C07944FF6FE7103914B46324637
:1032B0000121002006F03EFF10F0FD0F0DD1BAF104
:1032C000000F02D10BB0BDE8F08F012202211046A1
:1032D0000BB0BDE8F04F05F0B3BA00DEEFE700DE5B
:1032E000B4E700BFAFF300808D49FD1A070000006E
:1032F000F8090020D123010000CA9A3B8D49FD1A2C
:10330000A97401001D760100B9230100000000002E
:103310002DE9F0418468A28C4FF6FF739A428CB07D
:1033200044D00546204611F07FFD2B7D012B00F097
:103330003181022B00F02481002B00F0038194F8EE
:103340004461002E40F01F812B8AE78D94F93720CD
:10335000CDE90A666BB3002AC0F27B810023A4F892
:103360007431AB7CA28D03F00303551C012BADB26D
:103370003AD0B4F87831002B00F01581AB4240F21E
:103380007B815B1B9BB20022062BA4F87831E2857F
:1033900040F2068194F937309342C0F272810023E3
:1033A00025E09DF8271020460FF02CFD0CB0BDE85D
:1033B000F081002AB8BF84F8B960AB7CA28D03F01D
:1033C0000303551C012BADB20ED0B4F87431002BA1
:1033D000CFD0AB4240F25F815B1BA4F87431B4F8EC
:1033E0007831002BCAD102E00023A4F8783194F898
:1033F0003C2063F3820284F83C2029460DF1270229
:10340000204611F07FFA7430CBD0B4F872312BB172
:10341000AB4240F20F815B1BA4F87231B4F86E31FD
:103420002BB1AB4240F2FD805B1BA4F86E31E58D01
:1034300016B9AF4200F0EC800135ADB294F8B5306A
:1034400013F0010723D1DDE90A130A46002B40F0EF
:10345000EF80002900F0DE801F461846A28C246908
:103460000694CDE903560832AB4D0290CDE9001722
:10347000D2B201210020059506F0F0FE10F0FD0FFC
:1034800094D007F06FFF844290D000DE8EE794F96D
:1034900037206FF30003002A84F8B530C0F29E8015
:1034A00094F85800C0F3C00100F0070015F0DAFFEF
:1034B00094F8583003F00703032B00F29D8003F1CA
:1034C0002801C9005B10D94094F85930B1F5A07FAC
:1034D00003F0070338BF4FF4A071032B00F295806F
:1034E00003F12802D2005B10DA40B2F5A07F38BFAA
:1034F0004FF4A072E38B03F2093303440B441344EB
:103500008648874A0721E3FB0021104680A3D3E9C0
:103510000023FDF7F5FDDDE90A1320F07F42606826
:103520006260904235BF171A801A002000270A46B1
:10353000002B93D151EA070C90D100286AD019468C
:103540001F468BE794F8723003F01803182B7FF4B2
:10355000F6AE218DB4F870218B1D9A42C4BF931F23
:103560005B1AB4F86C11CCBF9BB21346994200F0C1
:10357000AE80A4F86C31A4F86E31A4F87221DEE6B6
:103580003D2684F84461314620460CB0BDE8F04148
:103590000FF038BC0023A4F87231A4F86E31CEE6E7
:1035A0000126334623E7E28C052A97BF013240F219
:1035B000E2434FF4FA7392B203FB02F2B4F87631AD
:1035C00042F2107101FB0323013BB3FBF2F39BB208
:1035D000A4F87831002B7FF4D1AE08E794F85900B5
:1035E000012100F0070015F03FFF94F8583003F078
:1035F0000703032B7FF663AF94F8593003F00703FA
:10360000032B4FF429617FF66BAF4FF4296271E70A
:10361000354613E7002D43D00027114638463B4678
:103620001CE70023A4F86E31204611F0FDF9FEE6F8
:10363000384613E707F038FE0146A0B30023A4F88C
:103640007231A38CC3801B230371006807F0FCFD5B
:10365000E4E694F8B9306BB3013B84F8B93004F177
:10366000C408404610F05EFFB8B3404610F05AFF61
:10367000B8B30023E38571E6082120460FF0C2FBB2
:1036800094E6A7B9D4F8BC305A0813F0010336D138
:10369000C4F8BC2083E63E2120460FF0B3FB85E64C
:1036A000002EB9D182E60123A4F87231B6E61346A2
:1036B00001269CE60AAA0BA92846FDF795FEDDE93E
:1036C0000A231343CBD0237884F8B930C7E7B4F882
:1036D000721100297FF433AE4DE7FF200FF02AFB73
:1036E000C3E70246D4E9170105F072F80028C0D1FB
:1036F00094F83C301B0744BF238DE3852EE642F04F
:1037000000421E46C4F8BC203B4670E6AFF3008082
:103710008D49FD1A070000001124010000CA9A3BE0
:103720008C49FD1A000000002DE9F04F87B0B0F879
:103730004071BDF84C900091CDE90432B0F80431ED
:10374000BDF840A01F44BFB20446A7EB090390F8A0
:103750005800D4F8FC809EB2BDF844300193C0F309
:10376000C001BDF84830039600F00700029315F041
:1037700079FEE58C052D40F21D8115FB06F5ADB2F5
:1037800040F2E24BBAF1050F40F2088194F858205C
:103790004FF0961302F00702E361032A4FF09603FD
:1037A000238440F2D98094F8592002F00702032ABA
:1037B0004FF4296300F2E18002F12801C9005210A0
:1037C00021FA02F2B2F5A47F38BF4FF4A472134479
:1037D00000F29F300344844A84480721E3FB002120
:1037E00010467FA3D3E90023FDF78AFC564620F05C
:1037F0007F4040F2E2430BFB05F203FB06F6531E4B
:103800003344B3FBF6F31FFA83FB606006FB0BF057
:1038100082425D4680F0B4807449801AA0FB0101A9
:103820006FA3D3E90023FDF76BFC20F07F408044B9
:10383000B4F80421B4F84031A9EB07094D44ADB206
:1038400013442B44A4F84031638D13441D4494F871
:1038500037306585DB0900F0B580216CA36C634FC0
:1038600001FB0233039A01FB1233A3640023C4F863
:10387000C03015F0FDFF054694F8B800C0F34200D3
:1038800015F0F8FF054406FB05F5594B564805F5BC
:10389000742505F23F25A3FB0535AD0CA36C25640B
:1038A0000BFB05FB72085B44963A934228BF134614
:1038B000C4E91123059B40F2E24909FB03F3072108
:1038C0002365EBFB070146A3D3E90023FDF718FCB2
:1038D000049BA8EB00084748A0FB0330800A09FBC3
:1038E00000F0A0FB07013EA3D3E90023FDF708FC8D
:1038F000751B20F07F47019B2385029BA4F876313E
:1039000031462046A4F826A011F028F83A4B218D24
:103910003344881DB3FBF6F39AB29042A4F87021A9
:1039200004D2C1F57F41FA310A4492B2009BA4F857
:103930006C2113B10023A4F8783143462A46394656
:103940002046FFF75DFC94F8423143F0010384F810
:10395000423107B0BDE8F08F02F12803DB005210BE
:10396000D34094F85920B3F5A47F02F0070238BF82
:103970004FF4A473032A7FF61FAF4FF4296226E7A2
:10398000121A1A48A2FB000115A3D3E90023FDF780
:10399000B7FB20F07F40A8EB000849E74FF09613F3
:1039A0000AF10106E36196232384B6B219204FF48D
:1039B000FA7320E7039B013515FB03F5ADB24FF415
:1039C000FA7BDFE6049B0948A3FB000104A3D3E9CB
:1039D0000023FDF795FB20F07F47354601378AE746
:1039E0008D49FD1A070000008C49FD1A00CA9A3B58
:1039F00083DE1B435917B7D17FC3C9010000000004
:103A00002DE9F04F04460B6890F820701668D3F843
:103A100000A0E38CD0F8220095B015464A7CADF8A2
:103A20004C30FF2AC7F3801388460C9212908DF811
:103A30003F3040F0208299461A4612AB93E80300CB
:103A40000DF1400B1090ADF84410FF090AF1870109
:103A5000D4F800C00A915B463846CDF82CC00FF070
:103A6000BDF80A99002840F0EE8196F880310A905E
:103A700069F3C71367F3861386F880311098BBF893
:103A80000430C6F88701A6F88B31DAF88730C6F81B
:103A900081318B88A6F88531638E94F83410A97231
:103AA0002B81D4F82E306B60D4F83E30C5F822302C
:103AB00005F1220094F842300371052105F00CF85D
:103AC00095F8273000F03F0060F3050385F82730B4
:103AD00094F84330C3F3040185F82810218FE9825C
:103AE000012803F01F0389B240F2AD811B3303F0BC
:103AF0001F030B2B00F2A781063989B240F67A43E7
:103B000099420A9A00F29F81D8F800305A60638F78
:103B10002B83E98ADAF8382040F2E24303FB01F70D
:103B2000E18E0A91002A00F013829AF8191040F6EB
:103B3000C41240F6A6637F2988BF1A460D92002161
:103B4000304610F01FFF94F8433096F8B8205B0918
:103B500063F3430286F8B82015F08AFE814696F892
:103B6000B800C0F3420015F085FE09EB000307FB27
:103B700003F3D34A03F5742303F23F23A2FB032389
:103B80009B0C2B637B08963B6B6394F8353040F2BB
:103B9000E24202FB03F36B64A38FA6F87631394649
:103BA000304610F0DBFEC74BC74AC6F87C213B44C9
:103BB000B3FBF7F39AB2A6F87021298B881D8242D5
:103BC00004DDC1F57F41FA310A4492B2A6F86C21B6
:103BD0006B68C6F8BC30DAF83830002B00F0B381DF
:103BE0004FF00109E20700F1BB814FF48073238499
:103BF0009AF81B0014F0C8FF04F12F03002800F00E
:103C00005581A26AC4F82F20A28D9A800C9BFF2BAD
:103C100000F0A081BDF84C301298A4F82D30C4F803
:103C20002900BBF80430A4F8273010989DF83F30E5
:103C3000C4F8230084F82230EB8AE3862B8B238799
:103C4000B6F87631638796F8B830C3F3420384F848
:103C50003C3030460EF05EFC0823A882E08085F8F8
:103C6000A730D8F804B00B98214607F0DBFAAB8AEE
:103C7000ABF806301C23DBF800408BF80430B9F1B8
:103C8000000F40F02F818BF820900BF017FD0028DB
:103C900040F03B815946204607F0D6FA95F8483067
:103CA00003F00703032B00F2FE8003F1280B4FEA19
:103CB000CB0B5B102BFA03FBBBF5A47F38BF4FF493
:103CC000A47B95F8490000F00700032800F2E88083
:103CD00000F12804E4004310DC40B4F5A47F38BFB1
:103CE0004FF4A474012115F0BFFB8146774A784850
:103CF0005C4409F29F3323440721E3FB02014FF0A8
:103D00009613C5E903336CA3D3E90023FDF7F8F953
:103D100020F07F407060D8F80C300A982A6B40F28F
:103D2000E24101FB00342F3C0D9BA41ABD1A022175
:103D3000002201201C4404F083FDDAF83830A4EBA3
:103D40000904A3B11F6838460CF05AFEC21C614B2F
:103D50000097D2B20121002006F0DCFA012800F021
:103D6000088197F846306FF3000387F846305046D5
:103D70000CF006F8074655484FA3D3E90023A4FBEF
:103D80000001FDF7BDF9CDF804A0D8F8083051497D
:103D9000009120F07F4BBA1C453BD2B25B4401211D
:103DA000002006F0F9FA012800F0DC809AF81830BB
:103DB000DB0700F1A28030460EF0ACFB434BA5FBC5
:103DC000035904463CA3D3E9002328464946FDF79E
:103DD00097F9D8F80830404A0792A3F145083F4BBD
:103DE000069620F07F47A7FB0331E81A3C4B05936A
:103DF0004FF4F873089373684FF0000ACDE903A3FA
:103E00004FF0070303FB071169EB01014FF47A72CE
:103E10000023FDF775F90834E4B2CDE90170CDF85F
:103E200000B0434622460121504606F083F910F0C7
:103E3000FD0F40F0A58001220221104604F000FD94
:103E400015B0BDE8F08F0022CAF8082095F82C3094
:103E50000B9862F3000385F82C30E56801262146B3
:103E6000267107F0DFF928682E71294607F0ECF972
:103E700015B0BDE8F08F0DF1400B10460DF13F017C
:103E80005A4614F0A5F89DF83F9094F8207009F177
:103E900002095FFA89F98DF83F9009F00102D4E533
:103EA0004FF429641EE74FF4296B0AE7C4F82F008A
:103EB0009880ABE6AFF300808D49FD1A0700000043
:103EC00083DE1B437FC3C901404B4C0000CA9A3BB1
:103ED0008C49FD1A31750100817401008D49FD1A6C
:103EE000A974010095F8273043F0400385F8273086
:103EF000281D13F065FE2885C5E6002301220093E6
:103F00001846114606F006FA55E75946204607F0CE
:103F100089F9DAF834B05046DBF800400BF030FF96
:103F200010F0FF000DD100231222ABF806008BF831
:103F300008308BF80420AA8AABF80A208BF80930E5
:103F4000A8E600DEEFE794F82030C3F3401949E615
:103F50000D93F4E50022C4F82920A4F82D2060E692
:103F600000DE42E607F0FEF982453FF41FAF00DEB7
:103F70001CE707F0F7F987423FF4F3AE00DEF0E606
:103F800000DE58E7000000002DE9F04F8DB09B46A1
:103F9000BDF864300893CDE90601BDF868309DF89E
:103FA0005C80BDF860A09DF86C90039200200593A2
:103FB0000DF0D8FF002800F09C8008F001070546AE
:103FC000384606F027FB04902FB1062104F0DCFBF5
:103FD000002800F09880169B04995A4638460EF047
:103FE000FDFD002840F0818001200DF0BBFF06465A
:103FF00000287ED019F0040F7FD04369002B00F019
:10400000848006F1100494F8343069F3020384F8D4
:1040100034306368002B00F08D80D4F804900BF0EE
:104020000103D9F80050089399F84800C0F3C00183
:1040300000F0070015F016FA94F8342002F0070299
:10404000032A68D802F12801C900521021FA02F2AD
:10405000B2F5A47F38BF4FF4A4725200B9F80E1025
:1040600000F209330B441344B348B44A0721E3FB7D
:1040700000211046AEA3D3E90023FDF741F820F05C
:104080007F406860039D284614F0F0FAA38E03F089
:10409000BF0363F0FF03A386002D3FD0A8F1020306
:1040A000012B40F22D8196F86210089868F3830185
:1040B00086F8621094F8341060F3451184F83410D7
:1040C00016990968A16016998988A1810599A1822C
:1040D00003990091DDE9062320460021FEF778FCD4
:1040E000B06500200DB0BDE8F08F0B200DB0BDE82D
:1040F000F08F0C200DB0BDE8F08F6B6943B105F176
:1041000010042E467FE71220F0E76B69436178E7E1
:1041100043696B61F3E74FF4A9529FE714F03AFE4D
:104120000028BBD0039A1699584614F015FC84F861
:104130003500B3E707F05EF80990002800F0F28040
:104140000EF0DCF90546002800F0E980143004F098
:10415000D7FC05F11009002840F0E680032105F1A5
:10416000180015F06DF8E86E089B2B854FF6FF726E
:10417000A5F826A0AA84002800F0CD8005F15C01F6
:1041800005F1600204F00CFBB5F8582022F4EF6250
:1041900022F0070242F48C7242F00102A5F8582086
:1041A00095F8722022F00702002385F8722040F66D
:1041B0007F02EB66A5F870306B85C5F82E30A5F848
:1041C000B62005F1320013F0A5FC95F8372060F316
:1041D000050285F8372001210DF12F0015F030F888
:1041E000059A9DF82F10A5F87621554AA2FB0102E9
:1041F000D20802EB4202A1EB820195F8372002F0CF
:104200003F0285F8372095F83C20053122F007025F
:1042100040F2E24085F8381085F83C20298D494A63
:1042200000FB0AFA06205244A5F8740101F1060CBD
:10423000B2FBFAF290B20023604585F83930A5F858
:104240004031A5F87831A5F87231A5F86E31A5F89E
:10425000700102DD0638401A80B2A5F86C012846CC
:1042600010F014FB5146284610F078FB4FF0000A7E
:10427000099BC5F8483185F844A10EF0A3FC95F8D8
:10428000802160F3020285F880210EF0A1FC95F8F0
:10429000802160F3C50285F8802195F842216AF3F8
:1042A000410285F8422105F1C40010F0F9F895F8B3
:1042B00080210BF0010363F3C71285F880214FF0D2
:1042C0009612C5E907220893169B1A68C5F887213C
:1042D00095F880219988049BA5F88B1168F38612C4
:1042E00085F880211A68C5F881219A88A5F885216A
:1042F000C4F80490C5E902AA85F800A02D6193E6F0
:10430000002014F0D7F994F8343043F04003B84655
:1043100084F83430C7E605F16400E8662EE70998B2
:1043200006F06EFF0720E1E600DE17E7AFF300803E
:104330008D49FD1A0700000000CA9A3B8C49FD1AFE
:10434000ABAAAAAA7FC3C9012DE9F04F04468DB0DC
:1043500090F82070A38D806AADF82C30E3070E46EC
:104360001546C7F3C0110A90C7F3401700F11C812E
:1043700000232384B37C707C13F001031CBFD4F8AA
:104380002230C4F82F3004F12F0214BFE38CC4F89C
:104390002F30FF28938004F1290804F1230200F054
:1043A000E18004F1220113F013FE94F82230BDF8ED
:1043B0002C200A98C4F82900023384F82230A8F887
:1043C00004203368D3F800A0EB8AE3862B8B238785
:1043D000BAF82430638715F049FA84F83C00D5F820
:1043E000009048460EF096F80021A882E0804846EA
:1043F00010F0C8FA082385F8A730D6F804802068A2
:10440000214606F00FFFAB8AA8F806301C23D8F827
:10441000004088F80430002F40F0B38088F8207006
:104420004146204606F010FF95F84800B5F816B052
:10443000F46840F2E243C0F3C00100F0070003FB60
:104440000BFB15F00FF80022A4EB0008022101205D
:1044500004F0F6F950460DF039FD594CA8FB04481C
:1044600055A3D3E90023054641462046FCF748FE04
:10447000CDF804A0B3685349009120F07F476A1D2E
:10448000453BD2B23B440121002005F085FF10F0EE
:10449000FD0F40F08D8001200DF04CFD054678B1F8
:1044A00082457AD028460DF011FD421D464B0095FD
:1044B000D2B20121002005F02DFF10F0FD0F75D1C3
:1044C0004FF0000A534604220121CDF800A05046C7
:1044D00005F020FF48460EF01DF80546384836A383
:1044E000D3E90023ABFB0001FCF70AFE1946374B6A
:1044F000B6680893364B069340F27233CDF81C90A1
:104500000993D9F804308346CDE904A3104600236B
:104510004FF47A72FCF7F4FD2E4B0722A7FB033110
:10452000CDE902B002FB0711E01A68EB01014FF47C
:104530007A720023FCF7E4FD0835453EEDB2CDE983
:10454000007033462A460121504605F00FFE10F058
:10455000FD0F2FD10122022110460DB0BDE8F04F12
:1045600004F06EB90023BDF82CC00A98C4F82930B5
:10457000A8F8043084F82210C4F82300A2F804C07C
:104580001FE795F8273043F0400385F82730281DB2
:1045900013F016FB0127288540E700200DF0CAFC28
:1045A000054600288CD07DE700DEE1E600DE87E7E7
:1045B00000DE70E700DECDE78D49FD1A0700000040
:1045C00000CA9A3BE9750100F5750100ED7501001F
:1045D0001D7601008D49FD1A032838B50D4610D00F
:1045E0000838C3B20F2B11D880B20DF09BFF0446E0
:1045F00060B190F93730002B0BDA40682860204614
:1046000038BD00200CF0A4FA0446D8B90024204696
:1046100038BD90F85800C0F3C00100F0070014F056
:1046200021FF154A00F5C55314481F330721E3FB4A
:10463000002110460EA3D3E90023FCF761FD20F012
:104640007F40DBE7FF2211460CF08AFA0B4A0A4B47
:104650000721E0FB0231184605A3D3E90023FCF74C
:104660004FFD20F07F402860204638BDAFF300802A
:104670008D49FD1A070000008C49FD1A00CA9A3BBB
:1046800070B588B01E46134606AA029207AA019288
:1046900005AA00920024224A079413F05BF9FF2830
:1046A00034D0069B1F480721A3FB000201FB032116
:1046B00019A3D3E90023FCF723FD044600B13E34DF
:1046C000079D1949059BA5F57422A2F510728A422F
:1046D00014D814480721A3FB000201FB03210EA3F9
:1046E000D3E90023FCF70CFD104BA3FB053504EBCD
:1046F000954404443460002008B070BD05F1E875AD
:1047000005F5D435013B05F5A575E2E76FF0090025
:10471000F2E700BFAFF3008000CA9A3B0000000040
:10472000497901008D49FD1ABFBDF07F83DE1B432F
:104730002DE9F043C668476873683D491A68D0F8A8
:104740000090A7F57423A3F510738B4283B08046C5
:1047500007D907F1E87707F5D43709F1FF3907F5ED
:10476000A57773685168DD8ACDF8049006F11003CF
:1047700001AA0220FFF784FF00284ED10199A1EB86
:1047800009031B0237D40846494605F0AFFE03462D
:1047900028480721A3FB000201FB032122A3D3E940
:1047A0000023FCF7ADFC34690444002C346109DBC0
:1047B00040F2E24305FB03F3A3422FD2E41AA342E3
:1047C000FCD33461D8F800301A48A3EB0903A3FBEB
:1047D0000002072101FB032113A3D3E90023FCF707
:1047E0008FFC154BA3FB0737A0EB974020443061AB
:1047F00003B0BDE8F083484605F078FE03460D4857
:104800000721A3FB000201FB032107A3D3E9002337
:10481000FCF776FC3469241AC7E73469002CD1D13F
:1048200003B0BDE8F08300BF00CA9A3B000000005F
:10483000BFBDF07F8D49FD1A83DE1B4300000000E1
:10484000F0B5C468636883B00546002B5CD118F0EE
:104850001BF894F92C0018F081F8A17A607A01F025
:104860000101C0F3820018F027F8627A252102F0D6
:104870001C02082018F0D8F8414B019301A818F049
:10488000BFF8404940F25B6018F086F9237AC3F321
:10489000420262F306132372204615F0F3F914F076
:1048A00079FA58BB637A9B071FD127682E68384670
:1048B00014F090FD06446A6806F11801012018F012
:1048C00017FC18F059FD20460BF068FA811C32469F
:1048D000C9B2384614F080FD054610BB204614F0DE
:1048E0002BFDE0B9002003B0F0BD012013F03EFE27
:1048F0004178821C007818F09BFBD6E7607A10F0B4
:10490000030018BF0120F1E793F82C309A079ED0DE
:104910001D48214617F08CFF18F0E4F8E2E700DEAE
:10492000E0E71A4A1A491B4840F211431EF0E4F826
:10493000194B0721A5FB030301FB05310EA3D3E9A6
:104940000023FCF7DDFB1549024615481EF0D4F89C
:10495000002585F31188BFF36F8F0323184602DF0C
:104960001048214617F064FF18F0BCF86FF08B0078
:10497000B9E700BFAFF3008000CA9A3B0000000017
:10498000D6BE898E555555005195010070670200BD
:10499000BC670200F46502008D49FD1AEC67020055
:1049A000C0670200819801002DE9F047C46884B017
:1049B000002307460DF1070104F1140066688DF825
:1049C000073015F021F90546002800F0DD80337B23
:1049D00006EB8303D3F8108098F8003003F00F0340
:1049E000072B40F0C78003A9404615F0E3FB0028E1
:1049F00040F0C880039A002A00F09F809378517895
:104A00001B0203F4F8530B4300F09780238992F8BC
:104A100000A00133238117F037FF96F92C0017F01F
:104A20009DFF96F80990B17A4FEA591901F00101FA
:104A3000484617F041FF4FEA8902FF21082017F08E
:104A4000F3FF6B4B029302A817F0DAFF0AF03F0A5C
:104A5000684940F25B6018F09FF8504614F0CEFCB5
:104A600098F802303F2B36D8AB789A0602D0EB7814
:104A7000DB0669D4002360482362214617F0D8FE84
:104A800018F09AFA284618F005F826683D6830466E
:104A900014F0A0FC054405F118017A68012018F013
:104AA00027FB18F069FC20460BF0B4FFC11C2A4616
:104AB000C9B2304614F090FC054600286AD1204661
:104AC00015F08AFC204614F037FC00285ED1002047
:104AD00004B0BDE8F0870DF1070106F1180015F0EC
:104AE00093F88046002853D02146444817F0A0FE92
:104AF000962018F0F1FA484618F0FAF99DF80730B8
:104B0000A3B914F047F958B9737A9907BAD00120BC
:104B100013F02CFD4178821C007818F089FAB1E777
:104B2000707A10F0030018BF0120F1E76B68C8F835
:104B300004302B89A8F80830E3E73148214617F004
:104B400077FE17F0CFFFC2E720462946256215F011
:104B500019FC21462B4817F06BFE4FF4967018F0A5
:104B6000BBFAB37A03F0010319464A46484618F0E7
:104B7000E9F987E700DE03A9404615F01BFB002892
:104B80003FF438AF00DE35E700DE20E700DE9EE7C9
:104B900000DEA9E71C4A1D491D484FF4A4731DF00F
:104BA000ABFF1C4B0721A5FB030301FB05310EA343
:104BB000D3E90023FCF7A4FA1749024617481DF071
:104BC0009BFF002585F31188BFF36F8F03231846E1
:104BD00002DF0948214617F02BFE17F083FF6FF024
:104BE0008B0075E7AFF3008000CA9A3B000000001D
:104BF000D6BE898E55555500F1A1010019A20100BC
:104C000035A30100F5A30100F8670200BC670200AC
:104C1000F46502008D49FD1A48680200C067020071
:104C20002DE9F041C46894F92830002B8CB0C0F213
:104C3000E680636805460E46002B40F0D58094F868
:104C400028306FF3000384F8283017F01DFE94F924
:104C5000440017F083FE94F83400012100F00700AF
:104C600017F02AFE94F8342092000820252102F043
:104C70001C0217F0D9FE94F8343023F018030120F9
:104C800084F8343006F00EFC002800F0BF8020309D
:104C900017F0FAFE764B0B930BA817F0B1FE75498F
:104CA00040F25B6017F078FF94F82800C0F34100F1
:104CB000253014F0A3FB7048214617F0B9FD94F895
:104CC00028309B0603D46368002B00F08A8096206E
:104CD00018F002FA00231A461946184618F01CF973
:104CE00014F058F8002840D194F8283013F0180F29
:104CF00057D1D4F800802F68404614F06BFB07446E
:104D00006A6807F11801002018F0F2F918F034FB76
:104D100018F06AF920460DF0E5F8411DC9B2404689
:104D20003A4614F059FB8046002875D116B9236C19
:104D3000002B3FD163687BB12A68504BA2616A683F
:104D4000E26104F1180199606462012202210020ED
:104D500003F0AAFD00285DD1204614F0EDFA0028EA
:104D600056D100200CB0BDE8F08194F82800C0F3C3
:104D7000C00013F0FBFB07460DF12B0013F02CFFD6
:104D800079788046BA1C387818F052F994F83420B3
:104D90009DF82B009200414602F01C0218F082FBA5
:104DA000A7E7012013F0E2FB4178821C007818F09D
:104DB0003FF99EE7324A0792324A059240F2F312D7
:104DC00000930892CDE90366CDE9016606943B465F
:104DD0003146042205F0AEF910F0FD0FAAD000DE36
:104DE000A8E718F0E9F87BE7636893F82C30D90757
:104DF00005D4636893F82C309A077FF520AF2248DA
:104E0000214617F015FD17F06DFEAAE700DE3EE71C
:104E100000DEA6E700DE9FE71C4A1D491D4840F260
:104E2000E5131DF069FE1C4B0721A8FB030301FBE2
:104E300008310DA3D3E90023FCF762F917490246B4
:104E400017481DF059FE002585F31188BFF36F8FB9
:104E50000323184602DF1348214617F0E9FC17F038
:104E600041FE6FF08B007DE700CA9A3B0000000016
:104E7000D6BE898E55555500494F00003C04002090
:104E800081A7010001A801005195010054680200AA
:104E9000BC670200F46502008D49FD1AA06802009B
:104EA000C0670200C1A8010038B5044615F0BCFC7B
:104EB00094F8283094F82820C3F34103013303F019
:104EC0000303032B08BF002363F3420214BF03F163
:104ED0002500252084F8282014F090FA63680BB18F
:104EE00023694BB905F000FBC11C002018F062F9E2
:104EF000BDE8384018F040BA18F0E2F9054605F070
:104F0000F3FAC11C002018F055F918F035FA18F022
:104F1000D7F9294605F0EAFA094A03460721A0FB1A
:104F2000020201FB032104A3D3E90023FCF7E8F804
:104F300023691B1A236138BD00CA9A3B0000000098
:104F40008D49FD1A000000002DE9F04F8DB0044698
:104F500017F00CFE10F0FF0013D1FF238DF829008D
:104F60008DF827008DF82A308DF8283014F096FA45
:104F7000A348214617F05CFC17F0B4FD0DB0BDE866
:104F8000F08F17F015FE054618F086F88DF827000B
:104F900018F08CF88DF8280018F0F6FA8DF8290032
:104FA00018F0D4FA8DF82A0018F038F8064618F0F0
:104FB00011F8EDB2074614F071FA002DD8D0012097
:104FC00006F070FA0546002800F0F88195F82030C8
:104FD00003F00F03072B05F1200900F0E5809DF891
:104FE0002730002B3FD19DF82980B8F1000F40F009
:104FF000FD8042464FF0FF0A41465346204615F0D9
:1050000071FE0028B4D09DF8298095F820206168B1
:1050100000238DF82B30F6B202F00F0300294AD09E
:10502000616891F82C10880745D4072B40F0EA807E
:1050300094F834305A079BD094F8282012F00102DB
:1050400096D10DF12B010191CDF800A04B46012125
:10505000204615F08FFE002840F0A18095F8203002
:1050600003F00F0379E094F828009DF82810C0F3AE
:10507000C00013F0BBFD9DF829809DF827208246D3
:10508000BAE7012B46D195F821200C2AE6D195F8F4
:105090002020CDF800A0194600230193D20905F184
:1050A0002803204615F0F2FC002840F0B88095F85F
:1050B000203003F00F036BBB95F821309A1F1F2A95
:1050C00044D894F8282002F02102202A08D1D4F8EC
:1050D00004B0BBF1000F00F09D81063B1F2B35D8BB
:1050E000636833B195F8203003F00F03072B7FF48A
:1050F0003FAF9DF82B50009733465246414620461D
:10510000019515F019FD00283FF432AF10307FF4FF
:105110002FAF33E7062BCFD04521D94011F0010145
:1051200040F05681012B11D195F821300C2B95D1EF
:1051300095F82020CDF800A00DF12B030193D209A2
:1051400005F12803204615F0A1FC40BB95F820305E
:1051500003F00F03072B3FF46BAF042B7FF408AF72
:1051600095F82130063B1F2B3FF602AF94F828300C
:10517000DB077FF5FDAE17F029FD95F820300278AA
:10518000C3F38013B3EBD21F7FF4F2AE08300622D4
:1051900005F1220120F006FF00287FF4E9AE95F822
:1051A0002130002B9CD1E3E60DF12A0301930DF190
:1051B000290300930DF127020AAB4946204616F059
:1051C000BFFA9DF827308346002B40F0DE809DF823
:1051D0002980B8F1000F40F0F3804FF0FF0ABBF1D7
:1051E000000F3FF412AF9DF8272005E79DF82A0035
:1051F00013F020FD9DF829809DF827208246FBE6CC
:10520000EDA8010094F82810090740F1CA80002B8E
:105210007FF437AF95F82130063B1F2B96D804203A
:1052200006F040F900283FF4A3AE18F0ADF8236C67
:10523000074643B9A38F40F2712202FB03F3B0FB90
:10524000F3F203FB120723685A68B14B0721A2FB54
:10525000030301FB0231ACA3D3E90023FBF750FFAA
:10526000A0F2D3431F3B62EB0202BB4272F1000289
:10527000FFF47EAE17F0A0FE63680793504613F06C
:1052800091FC94F834305B06814640F11B81002884
:1052900000F018818346012717F098FCCDE9027BC6
:1052A0000BAB049305F12203019395F82030C3F36F
:1052B000801301460746009300220123204615F083
:1052C000C9FD384617F0E6FB17F046FC002840F011
:1052D00017819048214617F0ABFA002E40F0F98074
:1052E000626892F82C3043F0010382F82C3094F875
:1052F000283043F0800384F8283006F0EFF81722B6
:1053000002714FF6FF72C28095F820E006463B46D8
:10531000CEF3401E00F1200207F1200C1D685868F2
:105320009968DF68D76010336345156050609160FD
:1053300002F11002F2D11B68136096F82030B460BD
:105340006EF3451386F8203017F0BAFFB8F1000F5E
:1053500030610B9B736108BF4FF0FF0A86F819A0FC
:1053600094F8343013F0400303D0B9F1000318BFB0
:105370000123B27E63F30002B27606F0AFF8314645
:10538000F060306806F0D8F8F8E594F828009DF849
:105390002810C0F3C00013F029FC9DF82980824634
:1053A0001DE7BAF1FF0F8DF82CA0C2F3801B12D0BD
:1053B00094F8352052453FF42AAF7CE600DE05E63E
:1053C0009DF82A0013F036FC9DF82980824606E7F6
:1053D00095F8213081E605F122010BAA5846079184
:1053E00013F07CFC079900283FF461AE94F8343048
:1053F000C3F340135B457FF45AAE062204F1080064
:1054000020F0D0FD00287FF452AE95F8203003F054
:105410000F03FCE6962017F05FFE584617F068FD74
:10542000CDE9007B334641465246204615F084FBC9
:1054300000287FF49DAD17F0C9FB064603223378A0
:1054400062F30303337095F820303278C3F380138E
:1054500063F3C7120C2332705046737013F0A2FB33
:1054600094F8342057063AD5C8B33178324641F023
:10547000400102F8021B0168C6F80210838893807D
:10548000D5F82230B360EB8CB381304617F002FBC5
:1054900017F062FBB0BB17F06FFF94F8283043F0B1
:1054A000010384F8283095F82030190705D194F8C5
:1054B000343043F0080384F834301748214617F09D
:1054C000B7F95BE594F8287004F1360BC7F3801741
:1054D000E2E617F093FD079B83F8A60000E794F837
:1054E00028303278C3F3801363F38612334603F80F
:1054F000022BD4F83620C6F80220628F9A80BFE7CC
:1055000000DEE6E600DEC6E700CA9A3B00000000C7
:105510008D49FD1A89A9010001A9010000000000C0
:105520002DE9F047C46882B007460DF1020120461C
:105530000CF036FE90F92830002BC0F2D88043687A
:105540000546002B40F0C8802379854A6FF3861307
:1055500023710023138017F097F995F9440017F091
:10556000FDF96079012100F0070017F0A5F96279D3
:1055700092000820FF2102F01C0217F055FA0120CA
:1055800005F090FF002800F0B980203017F07CFA79
:10559000744B019301A817F033FA734940F25B6032
:1055A00017F0FAFA207900F03F0013F027FF2146A8
:1055B0006E4817F03DF9962017F08EFD627902F0E3
:1055C000070201231046002117F0A6FC13F0E2FBAE
:1055D000002859D195F8283013F0180F73D1D4F85A
:1055E00000903E68484613F0F5FE06EB00087A6826
:1055F00008F11801002017F07BFD06466079D4F809
:1056000008A000F00700012117F056FA064460795F
:1056100000F007000228564434D004280CBF4FF491
:10562000BC73282301211E4417F048FA304417F0B8
:105630005BFE17F0A1FE17F0D7FC20460CF0A6FD8C
:10564000C11D4246C9B2484613F0C6FE06460028B0
:105650005AD16B686BB13B68AB617A68444BEA61C5
:105660006D620122183502219D6003F01DF90028AA
:1056700048D1204613F060FE002841D1002002B03E
:10568000BDE8F0871823CDE795F82800C0F3C000E7
:1056900012F06CFF06460DF1030013F09DFA7178CD
:1056A0008046B21C307817F0C3FC62799DF8030085
:1056B000C2F30202920042F00202414602F01E02D0
:1056C00017F0F0FE8BE7012012F050FF4178821CAA
:1056D000007817F0ADFC82E7436893F82C30DA07C6
:1056E00005D4436893F82C309B077FF52DAF2148F4
:1056F000214617F09DF817F0F5F9BFE700DE44E703
:1057000000DEBBE700DEB4E71B4A1C491C4840F240
:1057100051231DF0F1F91B4B0721A6FB030301FBED
:1057200006310DA3D3E90023FBF7EAFC1649024634
:1057300016481DF0E1F9002585F31188BFF36F8F3E
:105740000323184602DF1248214617F071F817F0BC
:10575000C9F96FF08B0092E700CA9A3B0000000085
:105760007E890020D6BE898E55555500D5B70100DB
:105770005C0400203DB30100B4680200BC67020075
:10578000F46502008D49FD1A4C690200C0670200F1
:10579000A1AF0100000000002DE9F04F8FB00546D9
:1057A0000E46174617F0E2F910F0FF0015D1FF235F
:1057B0008DF831008DF82F008DF832308DF83030B3
:1057C00013F062FE002E5CD07E48314617F030F8B0
:1057D00017F088F90FB0BDE8F08F17F0E9F904462B
:1057E00017F05AFC8DF82F0017F060FC8DF8300090
:1057F00017F0CAFE8DF8310017F0A8FE8DF83200C0
:1058000017F00CFCC3B2079317F0E4FBE4B2069068
:1058100013F03AFE9CB3032005F044FE044670B337
:1058200090F8203003F00F03072B00F1200A26D157
:1058300090F821301BB30DF1320301930DF13103C8
:1058400000930DF12F020CAB5146284615F078FF5E
:105850009DF82F208346002A40F0A6819DF83190C4
:10586000B9F1000F40F0C6814FF0FF08BBF1000F07
:1058700028D043464946284615F034FA10BB002E7E
:10588000A2D195F83430D90640F1898105F026FE81
:105890000146002800F0C3820A230B718D60EB6A79
:1058A0000868CB6005F048FE95F83430DA0640F120
:1058B00076816FF30413444885F83430294616F096
:1058C000B7FF85E76B6800228DF833202BB16B683A
:1058D00093F82C1011F002017CD06B68002B00F0C3
:1058E00075816B68002BCAD1002E00F0AA81337934
:1058F0001B0612D4EB6A1BB193F90430002B0CDBAE
:105900000DF1330300220193CDF800805346114678
:10591000284615F02FFA0028B1D0A6603379A27E70
:10592000C3F3801363F30412A276337943F0800348
:1059300033710023EB6205F0D1FD17F0C1FC20614B
:1059400017F022FD06998346384617F0B7F8A37E74
:10595000069A62F38203A376079BABEB00006061BB
:10596000002B40F02F817F20A37E9DF833202076EE
:10597000B9F1000F03F0F70308BF4FF0FF0862F31F
:10598000410384F81980A376002E00F03B81069A2B
:105990000E4B00963946504615F030FEA37E092284
:1059A00060F3C713A37620682271214605F0C4FD79
:1059B00094F91A30002BFFF60DAF054A1388013316
:1059C000138001E7A1AF0100B1AC01007DB301007C
:1059D0007E89002094F822305B067FF57EAFCDE90A
:1059E000008153460122284615F0C4F900283FF4EF
:1059F00074AF002E00F00682042005F053FD00284D
:105A00003FF4E2AEB34617F0BFFC2B6C824643B9BD
:105A1000AB8F40F2712202FB03F3B0FBF3F203FB06
:105A2000120A2B68A0485B680721A3FB000201FB58
:105A300003219BA3D3E90023FBF762FB034678070E
:105A400000F1EF8107F0030202F12B01C7F34000E0
:105A5000C9001732D200C1405B1AC2406FF48161A5
:105A60000B449B1A1F3B62EB0202534572F100028A
:105A7000FFF405AF404613F095F895F834300990DF
:105A80005A0640F1D881002800F0D58108904FF0E7
:105A9000010A17F09BF8089B0DAACDE902A3049216
:105AA00004F12402019294F82020069BC2F3801294
:105AB00001468246009228463A4615F0CBF95046F8
:105AC00016F0E8FF17F048F8002840F0EC8117F0D6
:105AD00053FC962017F000FB384617F009FA73487C
:105AE000594616F0A5FE079B002B40F0C3816A685B
:105AF00092F82C3043F0010382F82C3095F82830CE
:105B000043F0800385F8283005F0E8FC1722027185
:105B10004FF6FF72C2800446534600F120020AF19C
:105B2000200E1F6858689968D3F80CC0C2F80CC0E2
:105B30001033734517605060916002F11002F0D18C
:105B40001B68136094F82030A56043F0200384F8AC
:105B5000203017F0B5FBB9F1000F0D9B206108BF95
:105B60004FF0FF0884F81980636195F8343013F022
:105B7000400303D0099B003B18BF0123A27E63F3BF
:105B80000002A27605F0AAFCE060CBF80C40002EE3
:105B90007FF420AE464A1388013313801AE6E96A7F
:105BA000444816F045FE13E695F828009DF830109D
:105BB0000892C0F3C00013F019F89DF83190089ACC
:105BC000804653E617F01AFAC0B2CDE695F82830B1
:105BD0009B067FF586AE002E70D03379580600F113
:105BE000058194F822207F2A75D86A68002A3FF43C
:105BF0007FAEE9E59DF83200089213F01BF8089A91
:105C0000804633E6069A2C4B00953946504615F0EF
:105C1000F5FCA37E092260F3C713A37620682271E6
:105C2000214605F089FC94F91A30002B80F20B8193
:105C300095F8343043F0100385F834300FB0BDE8E8
:105C4000F08FEB6A1BB193F90430002B16DB0DF1DA
:105C5000330300220193CDF80080534611462846B5
:105C600015F088F800283FF40CAEEB6A33B995F8CC
:105C70003430D8063FF50AAE002191E7A560EB6A03
:105C8000E3601B79A27EC3F3801363F30412A27650
:105C9000EA6A137943F0800313714CE6AFF3008096
:105CA00000CA9A3B000000008D49FD1A15B10100A1
:105CB0007E890020A1AF01007DB30100EA6A002ABD
:105CC00000F0B480137959063FF50BAE94F82230FA
:105CD0007F2B7FF606AE0DF1330300220193CDF842
:105CE000008053461146284615F044F800283FF43A
:105CF000F8AD042005F0D6FB00283FF4C0AD962097
:105D000017F0EAF9384617F0F3F816F05FFF03785A
:105D1000032262F30303037094F820300278C3F384
:105D2000801363F3C7120C2302704370824640460F
:105D300012F038FF95F834305A0640F18980002877
:105D400000F086809AF80020534642F0400203F8A3
:105D5000022B0268CAF8022082889A80636ACAF815
:105D60000830238DAAF80C30504616F093FE16F03A
:105D7000F3FE002840F0958017F0FEFA05F0AEFB28
:105D800009232371002E7FD04848A660314616F0C3
:105D90004FFD337943F04003337117F091FA2061DE
:105DA00017F0F2FA06990546384616F087FE079B6B
:105DB0002D1A6561002B63D17F21A27E9DF83330BF
:105DC000217602F065025B00B9F1000F42F0080293
:105DD00023F07D0308BF4FF0FF081343206884F8C9
:105DE0001980A376214605F0A7FBF3E4EA6A002AAE
:105DF0007FF468AF6A68002A7FF4E6AC1B067FF583
:105E00007FAD8AE5D5F82CB0BBF1000F3FF42FAF82
:105E1000042005F047FB00287FF4F5AD31E500DEF6
:105E20003AE5A3F535634FF4CA6217E66B68002BB9
:105E30003FF40DAF25E595F828A005F13603CAF328
:105E4000801A089325E61A4A1388013313802BE53C
:105E500095F828309AF80020C3F3801363F3861274
:105E6000534603F8022BD5F83620CAF802206A8F71
:105E70009A8073E717F0C2F86B6883F8A60036E6DD
:105E800017F0BCF8C1B298E7A560EB6AE360094877
:105E9000214616F0CDFCEA6A137943F040031371F2
:105EA0007BE700DE68E700DE11E600BFEDB0010031
:105EB0007E890020C5B001002DE9F043C468A28AA4
:105EC0004FF6FF739A4283B000F00281064615F048
:105ED00005FD3389628B208CA3831A4492B210444F
:105EE00094F82730E28380B2411C21845D064FF094
:105EF0000001618304F1220100F1AA8003F03F0058
:105F00000B4694F82810009004F1290011F010FEBF
:105F10000546D4E90C31A26BA08BA36303FB0022DE
:105F2000E36B8A4294BF9B185B188B4228BF0B46D9
:105F3000626C216CE3630A4494F849306264002285
:105F400094F82C10226494F86220C3F3020363F3E4
:105F5000061112F0040284F82C1000F08A8016F06A
:105F600093FC94F9A70016F0F9FC201D16F048FDEB
:105F70002389A17A40F25B6043EA014116F00CFEEE
:105F8000284613F03BFA2146594816F051FCA089E7
:105F900017F0A2F894F8482094F84900C2F3C0031F
:105FA000002102F0070200F0070016F0B5FF2046BE
:105FB00015F054FDD4F800803768404613F00AFA13
:105FC0000744726807F11801002017F091F8814624
:105FD00017F0A6F9002017F0BDF9E36B94F849001B
:105FE00003F12F02636C00F00700012103EB42056F
:105FF00016F062FD4D44054494F8490000F0070096
:10600000022834D004280CBF4FF4BC73282301218C
:106010001D4416F053FD284417F066F916F0E4FF0E
:10602000A18A08313A46C9B2404613F0D5F905466F
:10603000B0B1B37A13F0020629D000252D482146CD
:1060400016F0F6FB16F04EFD284603B0BDE8F083CF
:106050000A4603F03F03218D11F0B6FD054658E7CF
:10606000204613F069F9002839D10025ECE7182300
:10607000CDE7D4E9130102F0ABFB00287FF46FAF4A
:1060800094F8623043F0040384F8623067E71A4AF8
:106090001A491B4840F259131CF02EFD19480721DC
:1060A000A5FB000301FB05310FA3D3E90023FBF798
:1060B00027F81549024615481CF01EFD86F3118885
:1060C000BFF36F8F0323184602DF6FF08B05B5E730
:1060D0000F48214616F0ACFB16F004FDC5E700DEC4
:1060E000C3E700BFAFF3008000CA9A3B0000000086
:1060F000ADBC01000995010058690200BC670200AF
:10610000F46502008D49FD1AAC690200C067020007
:106110005195010000000000F0B5C468A28A4FF656
:10612000FF739A4285B000F0AF80054615F0D6FBAC
:106130002B89628B208CA3831A4492B2104494F86A
:106140002730E28380B2411C21845E064FF00001BB
:10615000618304F1220168D403F03F000B4694F8F8
:106160002810009004F1290011F0E2FC06462046B8
:1061700003A915F033FD039B94F862101A7861F3BC
:10618000C3021A70039A94F862301178C3F3400383
:1061900063F38201117016F077FB94F9A70016F0F3
:1061A000DDFB201D16F02CFC2389A17A40F25B60F8
:1061B00043EA014116F0F0FC304613F01FF9039951
:1061C000204615F0E1FC2146374816F031FBE08906
:1061D00016F082FF94F8490000F0070016F088FEE0
:1061E00027682E68384613F0F5F8064406F11801C2
:1061F0006A68012016F07CFF17F0BEF8A18A08310A
:106200003246C9B2384613F0E7F80646A8B1AB7A71
:1062100013F0020517D000252448214616F008FB8C
:1062200016F060FC284605B0F0BD0A4603F03F03B7
:10623000218D11F0C9FC064699E7204613F07CF841
:1062400048BB0025EEE71A4A1A491B484FF48073F1
:106250001CF052FC19480721A6FB000301FB063184
:106260000FA3D3E90023FAF74BFF1549024615485F
:106270001CF042FC85F31188BFF36F8F032318468F
:1062800002DF6FF08B05C7E70F48214616F0D0FA02
:1062900016F028FCD5E700DED3E700BFAFF300809F
:1062A00000CA9A3B00000000C1BA01000995010034
:1062B000B8690200BC670200F46502008D49FD1A4E
:1062C000086A0200C0670200519501000348836814
:1062D000DB6903B118476FF057007047886102000F
:1062E000024883689B6903B11847704788610200C0
:1062F00010B4034606480A4681680C691CB1194669
:10630000234610BC18476FF0570010BC704700BF01
:106310008861020010B50F4C20461FF04BF8A8B161
:10632000A3685B6A0BB120469847FFF7D9FFA368C3
:106330002BB11B6C1BB10849064800229847A36883
:106340001B6A0BB103489847002010BD6FF0150081
:10635000FBE700BF886102005D6300002DE9F04F9C
:10636000804E814FB3688FB00393039BDB6B002B90
:1063700040F0EA80B468A36B002B40F0ED80E36A44
:1063800023B13046984708B9FFF7A0FFFFF79EFFFB
:1063900050B13B68B3B97548002200231AF024FEBF
:1063A000386078B9FFF79CFFB368DB6A13BBDFF88E
:1063B000C081704D98F80030032BD6D8DFE803F089
:1063C0001F3395B63B68D9681A8AB368DB6873B126
:1063D00030469847014638680C301CF00EFE38688D
:1063E000048A002CE0D101F0D3F83C60DCE76FF0C8
:1063F0005701F0E7304698470028B6D0D7E75E4C03
:1064000001212046FFF774FF0028AED02078431EFC
:10641000012B01D90528CDD11CF07BF9012328607F
:1064200088F80030C6E7DFF850A1DFF850919AF8FD
:1064300000001CF06EF92968401A4844FFF758FF25
:106440002B681B1A04462B60002B6BD19AF80000B6
:10645000421E042A16D8DFE802F0041715031300C1
:106460000220CDE900330022002302F0A3F8DFF878
:1064700010B10346CBF8000040B988F8000074E77B
:106480001020EEE70020ECE70420EAE79AF800008D
:10649000022823D005281CD0012822D199F80220F7
:1064A0002A601CF036F93549024603F10C001CF055
:1064B00082FDDBF800000C301CF0B7FD2B68984221
:1064C00011D2DBF8000001F063F8032388F80030F4
:1064D00028E0B9F80220C2F30D02E1E7B9F8022082
:1064E000DEE70022DCE70223F0E7DFF8949029687A
:1064F000D9F800301A8AD8681044FFF7F9FED9F8A5
:1065000000100B8A03440B822B68A3EB000904469E
:10651000C5F80090B9F1000F04D11A481FF00FF927
:1065200088F80090002C7FF445AF1EE729682129E8
:1065300028BF212105A8FFF7DBFE2B681B1A0446A4
:106540002B60002BEED1C1E73046984700287FF43E
:1065500011AF0FB0BDE8F08F3046984700287FF4A8
:106560000EAFF6E78861020068260020E0060020F2
:106570008B890020642600208A89002086890020DB
:1065800060260020C806002038B5094D4FF0FF32C4
:106590004FF0FF3328461AF027FD044602F042F878
:1065A00010B1204600F0F4FF1BF00CFAEEE700BF3C
:1065B000C806002070B5184888B002F03FF80022E5
:1065C0000023CDE9062300236FF00802CDE9032361
:1065D000CDE9013300931149114B12484FF4806209
:1065E0001AF0D0FF10490F480B4D104E104C1FF001
:1065F00092F94FF0FF324FF0FF3328461AF0F4FCC7
:10660000014630461FF09BF8A3685B69002BF0D071
:1066100020469847EDE700BFB0060020008A002022
:106620008965000038080020666D0200E006002041
:1066300088610200014B1B68184700BFE80000207A
:1066400030B585B004460D461022002168461FF083
:10665000A1FC02238DF802302A46044B0193214607
:1066600068461BF0F9FD05B030BD00BF356600007F
:1066700080B505460E46174698461BF047FA034676
:106680001FF004FDDFF81890044649F80030424638
:1066900030463946A84754F8090000F00BFC00BF0B
:1066A000080000002DE9F047058B044628079046B6
:1066B00011D4022905F0070540F0CC8020461CF0DB
:1066C00043FA78B10138218B042811D8DFE800F0B3
:1066D000C2106D85950001290CBF45F0100545F0ED
:1066E0002005258388F31188BFF36F8FBDE8F087FD
:1066F00001F0070AAA4500F0A5800027B9463E46EA
:10670000A368002B00F0BC8041F00801218388F3CE
:106710001188BFF36F8FA168002900F0BA800D685F
:10672000002900F0B680D1F8048033465246204656
:10673000C047002D76D02B6829461D46F0E701F0B2
:1067400007035A1F012A1BD8002221F00701062B3C
:10675000276889B2C4E9002209D13B4603E0628B75
:10676000013262831B68002BF9D141F002012183C1
:1067700020461CF0E9F900287AD041F0200176E0AB
:10678000042B0AD121F0070189B2218320461CF095
:10679000DBF910B141F020012183218B01F0070AC0
:1067A000AA454FD00027B946AAE7236921F007017F
:1067B00041F00601062DD3F8009021832DD1B9F1C7
:1067C000000F3FD041F00801218388F31188BFF307
:1067D0006F8F3A492046C84729E021F00701236915
:1067E00041F0040189B2042DD3F804902183E6D04E
:1067F00000273E464FF0040A82E721F00701236993
:1068000041F0050189B2052DD3F808902183D6D037
:1068100000273E464FF0050A72E700273E464FF03C
:10682000060A6DE72B4687E7B9F1000FD1D1EFF3E8
:106830001188202383F31288BFF36F8F238B23F0FB
:1068400008032383258BEA062ED525F01003238326
:1068500005F007056669218B002EBFF670AF002397
:106860002768C4E9003321F0070141F001012183C9
:10687000218B01F0070AAA454FF000097FF440AFD1
:10688000002F9CD041F00801218388F31188BFF3C9
:106890006F8F002FC8D03D68394633465246204698
:1068A0001CF07EF92F46F4E7AB067FF51BAF25F011
:1068B0002003238305F0070500E700BFCD2B02006E
:1068C000014B036000207047B864020007B51B4904
:1068D0001B481CF0A0FC70BB1A4919481CF09BFC1B
:1068E00048BB194916481CF096FC20BB17491448B0
:1068F0001CF091FCF8B90146154A11481CF054FFF0
:10690000C8B9024613490E4801231DF028F890B972
:1069100001230093014602230948EF221CF09BFB50
:1069200048B907481CF0C0FB28B9054803B05DF81A
:1069300004EB1CF0E9BB03B05DF804FB6001002030
:10694000A807002048010020300100201801002085
:10695000EC000020726D020008B50348034A0021D4
:10696000121A1CF0A8FA08BD38080020D8890020A7
:106970000748084A084908B5121A1CF09EFA074849
:10698000074A0849BDE80840121A1CF096BA00BF31
:106990000000002034080020647302000000002082
:1069A000000000206473020038B505460C4699B11A
:1069B000D1E901230F4809681CF091F8D4E90423B8
:1069C000E1680D481CF08BF8E1690C481CF087F871
:1069D000A1690B481CF083F8012D05D1EFF3058167
:1069E000084810391CF07BF821462846BDE838409D
:1069F00019F0CEBFC26D0200F26D0200226E0200DD
:106A0000326E0200616E020030BFFFF7FDBF00BFB3
:106A10002DE9F0410B4EDFF8308006EB0807CC1B68
:106A200005463246094920461FF08CFAA019424615
:106A30000021083C1FF0AEFAC5F8844007F10800B9
:106A4000BDE8F0810000000008000000846402003E
:106A5000054B5A699B689A421FBF044A536843F02A
:106A600080535360704700BF4889002000ED00E06C
:106A70002DE9F843324D80463248894617461CF0CE
:106A80002EF8AB6ADE0622D52F481CF028F8112418
:106A9000AB6A1D0703D52D481CF021F81224284DA0
:106AA000AB6A980715D52A481CF019F86E6BAB6ACB
:106AB000190642D5274831461CF011F8B9F1000FEC
:106AC00003D0AB6A23F08003AB62132403E01024ED
:106AD000DEE76FF015061A4DAB6ADA0703D51E48DC
