:1000000080950020815B000037EC01006D5B0000F3
:100010006D5B00006D5B00006D5B00000000000088
:10002000000000000000000000000000455C00002F
:100030006D5B000000000000E55B00006D5B0000F0
:10004000115E0000E1640100115E0000115E00001D
:10005000115E0000115E0000115E0000115E0000E4
:10006000115E0000115E0000115E0000115E0000D4
:10007000115E0000115E0000115E0000115E0000C4
:10008000115E0000115E0000115E0000115E0000B4
:10009000115E0000115E0000115E0000115E0000A4
:1000A000115E0000115E0000115E0000115E000094
:1000B000115E0000115E0000115E0000115E000084
:1000C000115E0000115E0000115E0000115E000074
:0C00D000115E0000115E0000115E0000D7
:1000E00053B94AB9002908BF00281CBF4FF0FF319F
:1000F0004FF0FF3000F00CB8ADF1080C6DE904CE04
:1001000000F008F8DDF804E0DDE9022304B07047F0
:10011000704700BF2DE9F04786468C460846089E8A
:10012000154674461946002B40F0C2808542B2FA4B
:1001300082F245D94AB1C2F1200300FA02FC2EFA3C
:1001400003F3954043EA0C0C94404FEA154EA8B2D5
:10015000BCFBFEF8230C0EFB18CC08FB00F943EAAD
:100160000C43994528D9EB1808F1FF3704D299457B
:1001700002D9A8F102072B44A3EB0903A4B2B3FBF5
:10018000FEFC0EFB1C330CFB00F044EA0344A042CF
:1001900014D92C190CF1FF3304D2A04202D9ACF1CE
:1001A00002032C44241A43EA07401EB1D440002322
:1001B00034607360BDE8F0874746DDE76346F1E7EA
:1001C00092BB431B01214FEA154EAFB2B3FBFEFCBD
:1001D000200C0EFB1C330CFB07F840EA0343984548
:1001E00062D9EB180CF1FF3004D2984502D9ACF17A
:1001F00002002B44A3EB0803A4B2B3FBFEFC0EFBEE
:100200001C330CFB07F744EA0344A7424ED92C19D0
:100210000CF1FF3304D2A74202D9ACF102032C4403
:10022000E41B43EA0040C0E7C2F1200320FA03F1D7
:10023000954090402EFA03F303434FEA154EAFB2B8
:10024000B1FBFEFC0EFB1C10190C0CFB07F841EA7D
:100250000041884504FA02F422D969180CF1FF30F4
:1002600004D2884502D9ACF102002944A1EB08016F
:100270009BB2B1FBFEFC0EFB1C110CFB07F743EA23
:1002800001439F420ED9EB180CF1FF3104D29F427B
:1002900002D9ACF102012B44DB1B41EA004192E799
:1002A0006046E3E76146F7E76046A3E76346B7E7E2
:1002B000834206D916B9002108467BE7C6E900E06B
:1002C000F9E7B3FA83F78FB9834201D3724508D8AF
:1002D000BEEB020460EB030301209C461EB9002123
:1002E00068E73846FAE7C6E9004CF8E7C7F1200CA2
:1002F000BB4022FA0CF41C432EFA0CF120FA0CF34A
:10030000B84001434FEA14490EFA07F5B3FBF9F878
:100310001FFA84FE09FB18300B0C08FB0EFA43EAA7
:1003200000439A4502FA07F240D9E31808F1FF307A
:1003300004D29A4502D9A8F102002344A3EB0A0390
:1003400089B2B3FBF9F809FB183308FB0EFE41EA4A
:1003500003418E452CD9611808F1FF3304D28E4534
:1003600002D9A8F10203214443EA0040A0FB02980D
:10037000A1EB0E014145CE46434602D306D14D4581
:1003800004D2B9EB020E68EB04030138002EA6D0AC
:10039000B5EB0E0261EB030101FA0CFC22FA07F344
:1003A0004CEA0303F940C6E9003198E74046C5E747
:1003B0004346D9E7000000002DE9F843D0E90738AB
:1003C000856903EB08042F34A5420F46164619D859
:1003D000DFF86C80A3FB080117A3D3E90023FFF724
:1003E0007FFE0346601BA0FB080123F07F4412A39D
:1003F000D3E90023FFF774FE20F07F403C603060BB
:10040000BDE8F883DFF838900BA3D3E90023A5FB00
:100410000901FFF765FE20F07F440A480A2106A380
:10042000D3E90023E8FB0901FFF75AFE20F07F40E3
:100430003C603060BDE8F8838D49FD1A070000007C
:1004400000CA9A3B00166BF12DE9F04F8DB09A4629
:10045000179C9DF85870A36B05460E464BB1B4F837
:1004600078301BB1B4F87610994276D2E06F00284C
:1004700076D14FF6FF739A4521D023780133DBB252
:100480002370002B77D058498B7AA1F808A067F326
:1004900000038B72554BC1E9005204F11000002299
:1004A000C86099600120114606F0EAF8002864D17E
:1004B000A36BC4F8905013B120460EF0A5F8257E2A
:1004C00015F0010549D14A4A4A4B11781B788B42F5
:1004D00055D04FF6FF739A45D4F87C80B4F87690E7
:1004E00015BF0AF101074FF0000ABFB25746B8F135
:1004F000000F2FD0B9F1000F2CD0A26E0AF1010A23
:1005000040F271211FFA8AF301FB02FA3A4A4FF0D6
:10051000070BA6FB02010AFB03F309930BFB061171
:100520002FA3D3E90023FFF7DBFD099B324A1E18F6
:10053000A5FB02010BFB051129A3D3E90023FFF75B
:10054000CFFD50443044804586BFA8EB0606E667E1
:10055000C4F87CA04F44A4F876700DB0BDE8F08FCD
:10056000A16E40F27123A1FB0313814273F10003DA
:10057000FFF47FAFF1E700DE85E700DE98E70133A7
:1005800004210BA8137016F017FA0B9B1B4900955A
:10059000A1FB03211A4A0694CDE90355CDE9015583
:1005A00028465D1A01EB5501A21A164D9208A5FBCB
:1005B0000252090A920840F2471505FB1133023234
:1005C000114905910133D2B201210B9307F026FCAA
:1005D00010F0FD0F01D10B9D7BE700DEFBE700BFB4
:1005E00000CA9A3B0000000094530020C400002081
:1005F0006C7F00206B7F00208D49FD1A21F1D49083
:10060000C053002015F9AC1B45CD000000000000D0
:10061000002900F0AA812DE9F04F8FB0002840F0AA
:10062000BF81D54C164694F8802012F001071D4674
:1006300040F0BE81607EFF2300F00300E37615F0FA
:1006400089FB94F88000430700F1F38094F8292097
:10065000637F04EB820204EB8303D76AD3F8208024
:10066000002F00F0CE80394640460DF033FA0028C6
:1006700040F0788198F8003013F00E0F40F0E880D9
:100680006369002B40F06D8108F072FB8146002801
:1006900000F0B98108F078FB0A90002800F0B081E2
:1006A0000FF040FB8346002800F0A781C06E4FF694
:1006B000FF720BF11003ABF824200B93002800F01D
:1006C0001F820BF160020BF15C0105F055FF9BF8F6
:1006D000722022F007028BF872200022CBF86C20E7
:1006E000ABF8702098F8002002F00F02072A00F003
:1006F000F9819BF8582022F0770242F011028BF822
:100700005820012211469D48D0F801C0CBF881C184
:10071000D200CBF887C110F801CB42EA01219BF847
:1007200080210CF0010C6CF386126CF3C7128BF86D
:1007300080218288ABF88521ABF88B21BBF858204B
:1007400022F4E16211439BF83720ABF8581002F015
:100750003F0262F07F028BF837209BF83C207F211C
:100760004FF0000A22F00F02ABF8B6104FF4C02190
:100770008BF83C20CBF872115846CBE912AA8BF8C3
:1007800039A0ABF82AA0CBF82EA0CBF850A0ABF83C
:1007900040A1ABF878A1ABF86EA111F06DFC8BF81D
:1007A00044A1CBF848910FF007FE9BF8801160F34D
:1007B00002018BF880110FF005FE9BF8801160F3A9
:1007C000C5018BF880119BF842116AF341018BF847
:1007D00042110BF1C40011F059FA0A9B63660BF148
:1007E0001003C4F860906361CBE902AA8BF800A003
:1007F000CBF810B016F064FB78B30CF045FB032087
:10080000B0E098F8003003F00F03072B00F0A98048
:100810005B4816F0BDFCC0B2002840F0F48094F8AC
:10082000293004EB8303DF6A04233B7006237B70CB
:1008300019E7C0F3C0003A4604F1810115F022FC2B
:10084000FF28E0763FF402AF384615F0C9FAFDE61E
:1008500003F00F03072B00F058814A4B1B78022B43
:1008600000F059810023636300252E46227E637EBB
:10087000A4F87850C2F34202012100250DF13300A3
:10088000E6678DF83320C3F38206A4F8765006F0AD
:100890000FF80246002860D03346394640460CF037
:1008A000A1FB3949394B2570A0FB0101C01841F16A
:1008B00007012FA3D3E90023C4E90255FFF710FC79
:1008C000B4F86860606007F0EFFB00F10E0746B90E
:1008D00098F8005005F00F05A5F10105B5FA85F56A
:1008E0006D09237E65F300032376DB07656800F15D
:1008F0002981D4F83880B8F1000F40F08680244B6D
:100900002448049505F247150694CDF808809121F6
:100910001D600993A6FB000301FB06311E4B0793E4
:100920001E4B05934FF6FF7302260DAD039310A3E4
:10093000D3E900230D960895FFF7D2FB0321019020
:100940003B463246CDF80080404607F007FA29467C
:1009500008F09CFA002800F0B58063690BB10CF038
:1009600093FA0C200FB0BDE8F08F0CF0B7BA00BFBF
:100970008D49FD1A07000000C0530020C80A02007C
:10098000E85300206A7F002000CA9A3B8C49FD1A78
:10099000B4530020002AE7846D820000490400005F
:1009A000934B1B78022BDCD000200FB0BDE8F08FFA
:1009B0008F4B1B78022BF7D194F82920637F04EB2F
:1009C000820204EB8303D16A186A0DF083F80028D1
:1009D000C8D1636B002BC4D01A7902F0FF0142B971
:1009E00042F2107206FB02F2A4F87610A4F87850D6
:1009F000E2671B79002BD7D0B3E70A9808F0CAF951
:100A0000484608F0BBF90720ACE7D8F80080AB1CDB
:100A10003B440DA940460D9300F05AF9A36E94F89B
:100A2000742040F271218146A3FB0131002A40F07D
:100A3000BF8042F6DC32981841F1000140F2E242F8
:100A40000023FFF74DFB80B2A8F834004A460D9909
:100A5000404600F07DF9814600287FF47EAF0DAB63
:100A600008930290634B6448049505F24715069479
:100A700091211D600993A6FB000301FB06315F4B2A
:100A800007935F4B05934FF6FF730225039356A31D
:100A9000D3E900230D95FFF723FB032101903B468B
:100AA0002A46CDF80090484607F058F90DA908F0FD
:100AB000EDF900287FF451AF98F8463043F0010378
:100AC00088F8463094F88030002043F0010384F821
:100AD00080300EF063FE00287FF466AF012015F031
:100AE0001BF961E7617E9BF85820490961F3020216
:100AF00061F306128BF85820A27E02F0010202E692
:100B00000BF16400CBF86C00DBE598F80230590675
:100B10007FF5A3AEB4E508F02BF98146002854D048
:100B200008F032F9002857D00023C0F80090037174
:100B3000237E6063DA073FF597AE42F2107303FB42
:100B400006F693E62B4B099300200DAA18600226A7
:100B5000049501950892294D294A05920321CDE972
:100B6000020006943B460090079532460D9607F02A
:100B7000F5F80DA908F08AF900287FF4EEAE0DAA69
:100B8000204908924AF2D83200920591CDE903003B
:100B90000321CDE9010007953B46069401220D96FD
:100BA00007F0A8F80DA908F071F900288AD0D4E65A
:100BB00002FB01110132A2FB0303194440F2E2429D
:100BC0000023FFF78DFA80B23EE76369002B3FF404
:100BD0001AAF0CF059F916E76369002B3FF410AF18
:100BE0000CF052F90CE700BF8D49FD1A0700000018
:100BF0006A7F0020B4530020002AE7846D82000041
:100C000049040000E9CB0000F0B5037E477E8BB0BD
:100C1000C3F342030D46044601210DF1230016469D
:100C20008DF8233005F044FEC7F3820702463B46A9
:100C3000314628460CF0D6F91F49204AA0FB013165
:100C4000981841F107011AA3D3E90023FFF748FAE6
:100C500063689842054622D21B1A00220192184A64
:100C600002930221174B0991A21ACA40A3FB023238
:100C7000CA4000230A4409AE13490591CDE9033364
:100C80000321D2B206960093184607F0C7F8314602
:100C900008F0FCF838B9656000200BB0F0BDFBD956
:100CA000C21A0023DAE70C200BB0F0BDAFF30080CE
:100CB0008D49FD1A0700000000CA9A3B8C49FD1AB5
:100CC000C053002015F9AC1B6D820000000000002D
:100CD0002DE9F04182B004461B4E1C4F88460DF0B2
:100CE0006FF8072533462946E0FB0731184614A361
:100CF000D3E90023FFF7F4F994F8253020F07F4082
:100D000004EB83036060996AFF231A4620460DF0C6
:100D100017F82946E0FB076109A3D3E90023304611
:100D2000FFF7DEF901A920F07F4014F03BFA18B973
:100D3000019B0233C8F80030002002B0BDE8F0810A
:100D40008D49FD1A070000008C49FD1A00CA9A3B24
:100D50002DE9F04700268CB08846C0E9026620499C
:100D6000067017464822044605F0E6FB0546A08EAD
:100D70001C4940F2E24202FB00F002230B93A0FB6D
:100D8000010115A3D3E90023FFF7AAF90DF12C0AFD
:100D9000CDF820A00694194663681F44124B0793B0
:100DA000124B05938146002310464FF47A72CDE929
:100DB0000367FFF795F90335EDB2CDE9019043469E
:100DC0002A4600963046032106F094FF514608F06B
:100DD0005DF80CB0BDE8F0878D49FD1A07000000F2
:100DE0009854002000CA9A3B6D820000FDDD00008F
:100DF00070B590F803C01CF0010F14BF00F10A0495
:100E0000041D1B481CF0020F15461E464FF007023A
:100E1000A1FB000318BF063402FB01311CF0080FD0
:100E200011A3D3E9002318BF0234FFF759F9AD1B12
:100E300010492844A1FB00310D09490C04D00E4B88
:100E4000A3FB003001214509A2782078657022F0CB
:100E50001F02C5F3042361F3C71013432070A3706E
:100E6000204670BDAFF3008000CA9A3B000000002E
:100E70008D49FD1A89888888B5814E1B00000000C5
:100E80002DE9F04F93B0D0F838900A9000241094D8
:100E9000D9F800308C4909934822184605F04CFBDC
:100EA0000A9BCDF82C90D3F890B0CDF83CB0FF223F
:100EB000C51CEDB28DF837200122A9460E945D467F
:100EC0000A920DF1440A0DF140080EAF02269B462E
:100ED0000BE0119B4BBB0F9BAB422AD19DF83730E7
:100EE000FF2B31D0994534D00F9D784BCDF818A009
:100EF000CDE90443CDE90244CDE900780FAB0DF113
:100F0000370202210020119607F06AF80228E0D18A
:100F1000119B022BDDD10221002007F0ADF8119BBF
:100F2000022BF8D0119B002BD5D000DE0F9BAB42DB
:100F3000D4D00A9A531EDBB2002A00F0B7800A937D
:100F40009DF83730FF2BCDD100DE9DF83730994525
:100F5000CAD1109C5E49DDF82C900E9DA4F5742238
:100F6000A2F510728A425B4607D904F1E874013D8C
:100F700004F5D4340E9504F5A574564AC9F80C50FE
:100F8000A2FB0424A40CC9F81040197F587F1094C8
:100F90008142CAB204D00132D2B2022A08BF002272
:100FA00003EB82024C4F5E7ED2F820A0B9F8088095
:100FB000A5FB07014FF0070B3FA3D3E900230BFB71
:100FC0000511FFF78DF8C6F382069AF8011006F0B6
:100FD00003030B44414922180933A1FB0201DB0042
:100FE000C6F34006F34021F00F0003F59673A0EB23
:100FF0001111B3EB410F21D9099B39489C8E40F266
:10100000E24303FB0424A4FB00012DA3D3E9002346
:10101000FFF766F820F07F45A5FB070126A3D3E97B
:101020000023C9F80C500BFB0511FFF759F808F124
:101030000108241AC9F810401FFA88F822462946E8
:1010400000235046FFF7D4FED9F80C300999099DCA
:101050000133C9F80C3091F8452091F8443093429F
:1010600002EB420305EB430318BF81F8442093F8D9
:101070003D30062101FB02520446E98E383203F06E
:101080003F03404614F036F9237860F305032370DC
:1010900007F00AF80F9907F009F82C2802D813B0C6
:1010A000BDE8F08F00DE13B0BDE8F08F00DEFF2357
:1010B0000A9313E7AFF3008000CA9A3B00000000D8
:1010C0008D49FD1A0700000098540020F9DD00004A
:1010D000BFBDF07F83DE1B438D49FD1A8988888858
:1010E00000CA9A3B000000002DE9F04FA5B00D4664
:1010F0001E4640F201232E990F92AB432F9A0C917A
:1011000004460D9200F0F781637F04EB830305F43E
:10111000007BD3F820A09AF8007007F00F07072F84
:1011200010D0BBF1000F04D10C27384625B0BDE824
:10113000F08FD6F801203178204625B0BDE8F04F79
:101140000CF024BD9AF8023013F03F0218BF9AF851
:1011500003208DF880200AF104020A92BBF1000FEF
:1011600002D07F2B00F27D810C9904F11C0016F057
:10117000ABF89AF80020037802F00F0223F03F0347
:10118000134302464FF0000802F8023B9AF802307F
:10119000139282788DF87C809B0963F387128270AA
:1011A000A26B814604F11000002A00F0D882537D22
:1011B00002EB8303996913681493CB780B91023186
:1011C000129103F001018DF8883011910D99099366
:1011D00002F1140016F078F899F8001002780B9BD1
:1011E00001F00F0122F03F020A4302701A780178E1
:1011F000C2F3801262F3861101701A78C9B2D20963
:1012000062F3C711017099F802208178920962F3A4
:10121000871181709DF88020012115EA0103804625
:101220000E938DF88410099B02EA010040F00781BB
:10123000002800F048819AF8000098F800C00E9944
:10124000C0F3801060F3861C88F800C099F8000095
:1012500061F3861089F800000AF10A010A911198D9
:10126000002840F044810B980430099003F00201FB
:1012700090071D9140F105810A9906310A919DF868
:10128000841041F002018DF884109AF8001098F84B
:1012900000C0C909404661F3C71C00F810CB99F89B
:1012A00000106FF3C71189F8001003F0020111B1AB
:1012B00009990631099112F00801189102D00A9992
:1012C00002310A919DF87C1041F008018DF87C10E4
:1012D000811C0E9115F0080100F0D18002213170BF
:1012E000D6F801101791C6F8010005369DF8841054
:1012F00041F008018DF8841013F00801199102D013
:1013000009990231099112F010011A9102D00A993B
:1013100003310A919DF87C1041F010018DF87C108A
:1013200009F10901109103F010011B91E90640F148
:101330009A80811CC6F801109DF8841041F01001BC
:101340008DF8841003213170053603F01001002957
:1013500000F09180002116910999033109919DF8BF
:101360008410C90644BF411D0E91520611D50A9A38
:1013700001320A92627E02F01C02102A00F00E82F4
:101380009DF87C2042F040028DF87C2009F10A0291
:1013900010925B0608D5099B013309939DF88430B0
:1013A00043F040038DF884309DF88430159313F09A
:1013B00040031C9302D00E9B01330E93109B139A93
:1013C000981AC0B2022803D809F103031093012030
:1013D000099B129A9B1ADBB2022B03D80B9B033397
:1013E000099301230B9A52789A42C0F0AA800E9971
:1013F00008F1020CA1EB0C0C5FFA8CFCBCF1020FA3
:1014000004D808F103010E914FF0010CBBF1000F5D
:1014100073D096F800B0D6F80110D51AEDB2099B3A
:101420003570C6F801300536BBF1000F40F09580ED
:10143000002940F0808109995A465B4668E016F819
:1014400001EB98F800C06EF3861C88F800C099F88C
:1014500000C06FF3861C89F800C000283FF4FFAE7F
:10146000FAE6122761E60F99C9063FF56EAF03F061
:10147000100100297FD103F0100116916FE7179139
:1014800034E70E9908F10A0000297FF408AF03F051
:101490000201002967D09DF884000B9940F00200FA
:1014A0008DF88400087898F800C00E99C00960F3A0
:1014B000C71C404600F810CB99F800C061F3C71C68
:1014C00089F800C0F4E6119800283AD00B9998F8F2
:1014D00000C008780E99C0F3801060F3861C88F86D
:1014E00000C099F8000061F3861089F800000B999C
:1014F0000A310991BAE600DE06E66D0523D40F999C
:10150000890500F11881D31A0999DDB25A465B4664
:1015100005EB020EBEF1FB0F3FF707AE0CEB050724
:101520001744FF2F30DD0CF101035B442B44CA4507
:10153000337000F0A1810B9B984500F098814527FE
:10154000F3E51F27F1E596F800B00999D51AEDB239
:10155000D6F801305A460536DAE75D464FF0000B03
:101560005A465B46D4E799F800C00E9961F3C71C50
:1015700089F800C09FE69DF8841041F010018DF8B5
:10158000841009991691E7E699F8022089F801007C
:10159000013860F3050289F8022098F802200E9EB7
:1015A0000C930CF1FF3060F3050288F802200BEB7E
:1015B0000502624488F8012030462A461EF05BFA94
:1015C0000C9B23B15A46194670191EF046FA98F83A
:1015D00002309A0600F0AD809DF87C305B0640F149
:1015E000F4800A9A109912F8013C01F8013C531E4C
:1015F0000A934B1E10931A9B13B10A9B033B0A9349
:10160000109E637E16F8032C6FF3050206F8032C78
:101610005D0915F0C3FC32288CBF0020012095FA2B
:10162000A5F3002DB3FA83F308BF4FF0FF335B013E
:1016300006F8013C16F8033C60F386136FF3C713FA
:1016400006F8033C002306F8023C1B9B13B1099BE0
:10165000033B0993159BDF0602D50E9B033B0E93BC
:10166000169B23B10E98032219461EF004FA189B0C
:1016700013B10A9B023B0A93199B13B1099B023BCE
:101680000993179B002B00F0E580179A5378127886
:101690001B0203F470631A431098D1B200F8051CC2
:1016A00094F87230C3F303031B0103EB122300F819
:1016B000043C0E9800F8021C94F87230C3F3030344
:1016C0001B0103EB122300F8013C159B9E076CD411
:1016D0000238159BDD0709D5119B002B00F0D08047
:1016E000099B991F063806221EF0C5F999F80230A9
:1016F0000B9899061CBF9DF87C3089F8033098F848
:1017000002309A061CBF9DF8843088F80330A57E0D
:10171000637E169A05F001054FF496745B09414605
:10172000009501940CF084FF149B93F84630DB077E
:101730005AD40027F9E499F8023089F801000138F9
:1017400060F3050389F8023098F8023088F801C088
:101750000CF1FF3C6CF3050388F8023037E70CF01E
:10176000E9FE1490002800F09780DDF850C0CDF815
:1017700044809CF825300CEB83030122996A0B917D
:10178000084610F8023B129003F03F034A700B70BA
:1017900081F803800CF11002434617E59DF8842080
:1017A00042F040028DF88420F3E51D9B002B6AD0A7
:1017B000099B063B09930E991A6841F8082C9B88EF
:1017C00021F8043CA1F1080083E71C9B002B3FF4A7
:1017D00012AF099A0E9912F8013C01F8013C531E10
:1017E00009934B1E0E9306E7149C20460CF0E8FA72
:1017F0002F4A304B0721E0FB023118462AA3D3E9D8
:101800000023FEF76DFC656820F07F44AC423ED2B9
:101810002E1B0025149F2849022348223846239373
:1018200004F08AFE002325490195C21C23AD0591D1
:10183000CDE9033303210296D2B2009318460695F0
:1018400006F0ECFA294607F021FB00287FF46CAC87
:101850007C606EE794F87230194903F00F0331F899
:101860001320501C21F81300C2F30B0214E70D9A49
:10187000A36B12785A7562E60C9B1B7863775AE665
:101880000A9B991F2EE70A9B063B0A9393E77FF674
:1018900050AF651B0026BDE7CA457FF446AC00DEAD
:1018A00043E400BFAFF300808D49FD1A070000003C
:1018B00000CA9A3B8C49FD1A985400206D820000A2
:1018C000745400200000000070B5234C9DF810E017
:1018D00094F862C01CF0020F37D1460816F00405D8
:1018E00033D151B363F3830C400194F83830A4F83A
:1018F0004C104FEACE0E0EF0180E00F0200040EA19
:101900000E0023F03803184394F8443084F838006C
:10191000124884F862C066F3020384F844309121CF
:10192000A2FB000301FB023109A3D3E90023FEF768
:10193000D7FB2065A065284670BD94F8443065F358
:10194000020384F84430284670BD0C25284670BD3B
:101950008D49FD1A0700000014550020002AE78475
:1019600010B504469DF80800A2874FEA411CC0004C
:1019700094F8281000F018000CF0200C4CEA000C31
:101980000B4821F038014CEA010CA3FB0002912125
:1019900084F828C001FB032103A3D3E90023FEF749
:1019A0009FFB206410BD00BF8D49FD1A0700000099
:1019B000002AE784000000002DE9F04790F862302B
:1019C00090F838205A4DDFF86C916FF3000304460D
:1019D00000F14601C3F3800060F386128CB084F8F6
:1019E000623084F8382006F005FC94F83820B4F80A
:1019F0004C305148246102F07902002784F83820E5
:101A00009121A3FB0002C4E90277277001FB0321A7
:101A100045A3D3E90023FEF763FB484AA36D236582
:101A2000651BA2FB05250E33C5F34715984205EB50
:101A300045028FBF636003466060276549F8223026
:101A4000064606F031FB636900F10E074FEA450ACE
:101A5000002B4BD00DF12C08AA4409EB8A03099303
:101A6000CDF820800694B4F84C3033484FF000098C
:101A7000A3FB0002CDF80C90912101FB03216368C8
:101A800004932F4B07932F4B05934FF0020A26A385
:101A9000D3E90023CDF82CA0FEF722FB104619460F
:101AA0004FF47A720023FEF71BFB0535EDB2CDE94A
:101AB000016003213B462A46CDF80090484606F0D7
:101AC0004DF9414607F0E2F960B994F8623043EA13
:101AD0000A0384F862300BF0DBFE08B300200CB080
:101AE000BDE8F0870C200CB0BDE8F0870DF12C08A4
:101AF000CDE90A33616843460AAA032001F08CFC51
:101B00000028A9D10B99104807A3D3E90023A1FB12
:101B10000001FEF7E5FA0A9B20F07F471F449BE790
:101B2000504614F0F9F8D9E78D49FD1A0700000076
:101B30001455002008550020002AE7841F85EB512A
:101B40006D8200001DF2000000CA9A3B00000000F8
:101B50002DE9F04F0B79062B93B00C4606463BD08F
:101B6000092B35D18F68914B3D689D4240F0D8805C
:101B7000D5F82090B9F1000F00F015828B49302282
:101B8000084604F0D9FC0630C3B20B93D9F8000024
:101B90000DF0F2FD7A7902F00702012A804600F08A
:101BA000D780022A14D1072394F81AE02371002168
:101BB000734661F38613A37694F821302660E160C2
:101BC000002B00F08A80CEF3C00E04F1220A22E03E
:101BD00000DE13B0BDE8F08FD1F80890D9F82C30B2
:101BE000002B40F0C780D9F8008040460DF0AAFDD8
:101BF000A37E2660002767F38613A37694F821302E
:101C0000E760002B5FD00530C2B20B9204F1220ACC
:101C10003D46BE46012294F82210880650D094F822
:101C200023C01CF0010F14BF04F12A0004F12400AA
:101C30001CF0020F18BF06301CF0040F18BF013053
:101C40001CF0080F18BF02301CF0100B1CBF83469D
:101C500003301CF0200F18BF12301CF0400F18BFCB
:101C60000130C1F30501A0EB0A000131C9B2C0B2D5
:101C7000814238BF014699423ABF591A5FFA81FA48
:101C80004FF0000ABBF1000F58D09BF802C09BF840
:101C900001004FEA0C2101F4F85101434ED0BEF18E
:101CA000000F75D0002D00F08881AB8D53449BB29E
:101CB000AB85A383AB6A002B67D0DC60AC6288E79E
:101CC000013BDBB24DB9A3832146304607F068F8EB
:101CD00013B0BDE8F04F07F06FB8AA8D13449BB264
:101CE000AB85A383B8F1000F3ED098F86230AA6AA2
:101CF000DB073BD4D4602B6AAC62002B3ED02B6A4E
:101D0000002B39D02B7803F0FF021BB3012A27D117
:101D1000AB683BBB264BC5E9023513B0BDE8F08F7D
:101D2000CB68002B00F047811D682A6A974240F07B
:101D30003C81B9461F46FF230B9327E705B3AB8DC4
:101D400053449BB2AB85A383BEF1000FCAD0B1E769
:101D5000062329E7284613B0BDE8F04F0DF086BDF5
:101D600000DED5E700DED5E700DEBEE7AB6AA342C2
:101D7000A3D12EE700DE36E700DEC3E700DEBEE7D4
:101D8000A4F81CA0BEF1000F9ED000DEAB6A94E761
:101D9000BCF13F0F4FEA5C100CD9002D00F0108110
:101DA000AB8D53449BB2AB85A3839BE7A455002026
:101DB000BDF800009BF800C00CF03F0EBEF1240FF0
:101DC000EBD802F0030E73441CF0800F03F10903FB
:101DD00014BF4FF4967E4FF01E0EDB00C2F340029C
:101DE00023FA02F20EFB01F3CDF840E002F5967102
:101DF0009E448E45C0F0D3801CF0400F14BF3221AA
:101E00004FF4FA71DFF840C203FB01F1ACFB01C1F2
:101E1000890C0C910121CDE90D3201FA00F3D8B201
:101E20000F9314F0B7FE61690E9A0D9B11902F3934
:101E30008A1A13440C9A1B1A84489B1AA3FB0001AC
:101E40007FA3D3E90023FEF74BF920F07F430D93E6
:101E500094F91A30002B80F29780002D00F0B380A7
:101E6000AB8D53449BB21E2BAB8504D994F91A3029
:101E7000002BBFF637AFAB6A002B00F0BA80DC60F6
:101E8000AB8DAC62A3839BF800100F9BBA8801F066
:101E90003F0141EA032122F4E76240F23F7322F05E
:101EA00007020B401343BB8094F91A30002BC0F299
:101EB000A280B8F1000F00F0AC8098F8623013F007
:101EC00001037FF453AFD9F82C206048BA4208BF11
:101ED000C9F82C307A79119B03F5EA7102F00303FB
:101EE0000933C2F34002DB00D340594A0B440721B7
:101EF000E3FB0021104652A3D3E90023FEF7F0F8DC
:101F00000C9B109A2F3302EB430320F07F40686054
:101F10000022BB600221012004F07EFB0B9AFF2A05
:101F20000CD023690D9900203B3B0B44CDE9000008
:101F3000012105F08BFF10F0FD0F7AD145493022C9
:101F4000284604F0F9FA44492369CDE907154349C5
:101F5000CDE90515696802460020CDE90301063286
:101F60000D990091CDE901003B3BD2B2012105F072
:101F7000C1FE10F0FD0F5ED101220221104613B008
:101F8000BDE8F04F04F048BB06F08EF823690D9AC7
:101F9000243B991806F08AF802023FF55EAF002D47
:101FA0007FF4A0AE90E600DEE8E500DEB9461F460D
:101FB000FF230B93EAE500DEB6E6A4F81CA0E4E6F6
:101FC000A4F81CA080E6264804F088FA054630B341
:101FD0000023027D0370C0E9023363F3C712A0F847
:101FE0002CA00061027543628362C0F8209000F16A
:101FF00010076C6244E7D9F82C3063B9C9F82C702B
:10200000A37E43F04003A3763B796FF386133B71C5
:10201000DFE500DE51E7BB42F0D000DEEEE794F9E9
:102020001A30002BBFF650AEA37E43F04003A376D8
:102030004AE600DE82E700DE9EE700BFAFF30080E5
:102040008D49FD1A0700000083DE1B4300CA9A3B3E
:102050008C49FD1AA4550020CDF8000025F8000099
:10206000A0550020000000002DE9F04F05468BB080
:102070008B46012002219946144618F087FD002264
:1020800002218246012004F0C7FA31494FF4C87298
:10209000284604F051FAC61D2E4B0093F6B2019566
:1020A0004B4632460121002005F056FF10F0FD0F8F
:1020B00048D1294BA4FB0348204623A3D3E900239E
:1020C0004146FEF70DF8254B20F07F47A7FB033173
:1020D0000722E01A02FB071168EB01014FF47A7244
:1020E0000023FDF7FDFFCDE90170CDF800B00895A4
:1020F0000695696895F9374019480491194931EAFC
:10210000240128BF01460591174C07944FF6FE7134
:1021100003914B4632460121002005F0EBFD10F003
:10212000FD0F0DD1BAF1000F02D10BB0BDE8F08F59
:102130000122022110460BB0BDE8F04F04F06CBA4A
:1021400000DEEFE700DEB4E78D49FD1A070000006E
:10215000C8040020F9FB000000CA9A3B8D49FD1A13
:10216000954C0100E14D0100E1FB00000000000082
:102170002DE9F0418468A28C4FF6FF739A428CB02F
:1021800044D00546204610F045FA2B7D012B00F087
:102190002B81022B00F01E81002B00F0FD8094F8B3
:1021A0004461002E40F019812B8AE78D94F9372085
:1021B000CDE90A666BB3002AC0F263810023A4F85C
:1021C0007431AB7CA28D03F00303551C012BADB21F
:1021D0003AD0B4F87831002B00F00F819D4280F0A6
:1021E00063815B1B9BB20022062BA4F87831E28549
:1021F00040F2008194F937309342C0F25A810023B3
:1022000025E09DF8271020460EF0F6F90CB0BDE849
:10221000F081002AB8BF84F8B960AB7CA28D03F0CE
:102220000303551C012BADB20ED0B4F87431002B52
:10223000CFD0AB4240F247815B1BA4F87431B4F8B5
:102240007831002BCAD102E00023A4F8783194F849
:102250003C2063F3820284F83C2029460DF12702DA
:1022600020460FF045FF7430CBD0B4F872312BB15B
:10227000AB4240F2F7805B1BA4F87231B4F86E31C8
:102280002BB1AB4240F2E5805B1BA4F86E31E58DCB
:1022900016B9AF4200F0D4800135ADB294F8B53034
:1022A00013F0010723D1DDE90A130A46002B40F0A1
:1022B000D780002900F0C6801F461846A28C2469EA
:1022C0000694CDE9035607329F4D0290CDE90017E1
:1022D000D2B201210020059505F0A0FD10F0FD0F00
:1022E00094D006F0FDFD844290D000DE8EE794F994
:1022F00037206FF30003002A84F8B530C0F29880CD
:1023000094F85800C0F3C00100F0070014F040FC3E
:1023100094F8582094F8593002F003012831C2F3A0
:102320004002C900D14003F003022832C3F3400346
:10233000D200DA40E38B03F5EC73B1F5A07F2CBF3C
:102340005B1803F5A073B2F5A07F2CBF9B1803F5B3
:10235000A07303447D4A7E480721E3FB0021104619
:1023600077A3D3E90023FDF7BBFEDDE90A1320F0D4
:102370007F4260686260904235BF171A801A002061
:1023800000270A46002B99D157EA010C96D1002864
:1023900058D019461F4691E794F8723003F018039D
:1023A000182B7FF4FCAE218DB4F870218B1D9A425E
:1023B000C4BF931F5B1AB4F86C11CCBF9BB2134619
:1023C000994200F09C80A4F86C31A4F86E31A4F816
:1023D0007221E4E63D2684F84461314620460CB083
:1023E000BDE8F0410EF008B90023A4F87231A4F85A
:1023F0006E31D4E60126334629E7E28C052A97BFE1
:10240000013240F2E2434FF4FA7392B203FB02F25C
:10241000B4F8763142F2107101FB0323013BB3FBA8
:10242000F2F39BB2A4F87831002B7FF4D7AE0EE71D
:1024300094F85900012100F0070014F0ABFB67E7A6
:1024400035462BE7002D43D00027114638463B4642
:1024500034E70023A4F86E3120460FF0DBFE16E7C8
:1024600038462BE706F0DEFC0146A0B30023A4F8B3
:102470007231A38CC3801B230371006806F0A2FC99
:10248000FCE694F8B9306BB3013B84F8B93004F141
:10249000C40840460FF03CFCB8B340460FF038FC8F
:1024A000B8B30023E38589E6082120460EF0A4F89E
:1024B000ACE6A7B9D4F8BC305A0813F0010336D102
:1024C000C4F8BC209BE63E2120460EF095F89DE620
:1024D000002EB9D19AE60123A4F87231CEE6134654
:1024E0000126B4E60AAA0BA92846FDF765FFDDE937
:1024F0000A231343CBD0237884F8B930C7E7B4F864
:10250000721100297FF44BAE5FE7FF200EF00CF84C
:10251000C3E70246D4E9170104F046F80028C0D109
:1025200094F83C301B0744BF238DE38546E642F018
:1025300000421E46C4F8BC203B4688E6AFF300804C
:102540008D49FD1A0700000039FC00008C49FD1A76
:1025500000CA9A3B000000002DE9F04F87B0B0F8A8
:102560004071BDF84C900091CDE90432B0F80431CF
:10257000BDF840A01F44BFB20446A7EB090390F882
:102580005800D4F8FC809EB2BDF844300193C0F3EB
:10259000C001BDF84830039600F00700029314F024
:1025A000F7FAE58C052D40F2FF8015FB06F5BAF130
:1025B000050FADB240F2E24B40F2018194F8592090
:1025C00094F8581002F003032833C2F34002DB00F2
:1025D000D34001F003022832B3F5A47FC1F34001D8
:1025E0004FEAC20222FA01F238BF4FF4A473B2F5E7
:1025F000A47F2CBF9B1803F5A47303F26E23184429
:102600007F4A804B0721E0FB023118464FF09613BA
:10261000E3619623238478A3D3E90023FDF760FDCB
:10262000564620F07F4040F2E2430BFB05F103FBEE
:1026300006F64B1E3344B3FBF6F31FFA83FB06FB8F
:102640000BF3994260605D4680F0A0806C48591A97
:10265000A1FB000168A3D3E90023FDF741FD20F0B1
:102660007F408044B4F80421B4F84031A9EB070955
:102670004D44ADB213442B44A4F84031638D134450
:102680001D4494F837306585DB0900F0A480216C87
:10269000A36C5B4F01FB0233039A01FB1233A3646B
:1026A0000023C4F8C03014F079FC054694F8B80053
:1026B000C0F3420014F074FC054406FB05F5524BD0
:1026C000504805F5742505F23F25A3FB0535AD0CF3
:1026D000A36C25640BFB05FB72085B44963A93429E
:1026E00028BF1346C4E91123059B40F2E24909FBC8
:1026F00003F307212365EBFB07013FA3D3E9002385
:10270000FDF7EEFC049BA8EB00084048A0FB03305B
:10271000800A09FB00F0A0FB070137A3D3E90023DF
:10272000FDF7DEFC751B20F07F47019B2385029B94
:10273000A4F8763131462046A4F826A00FF004FD17
:10274000334B218D3344881DB3FBF6F39AB290428C
:10275000A4F8702104D2C1F57F41FA310A4492B243
:10276000009BA4F86C2113B10023A4F878314346F0
:102770002A4639462046FFF777FC94F8423143F069
:10278000010384F8423107B0BDE8F08F1C48C91A34
:10279000A1FB000118A3D3E90023FDF7A1FC20F061
:1027A0007F40A8EB00085DE7039B013515FB03F5AF
:1027B000BAF1050FADB24FF4FA7B3FF6FFAE4FF022
:1027C00096130AF10106E36196232384B6B20F2023
:1027D0004FF4FA7329E7049B0948A3FB000106A301
:1027E000D3E90023FDF77CFC20F07F473546013715
:1027F0009BE700BFAFF300808D49FD1A0700000082
:1028000000CA9A3B8C49FD1A83DE1B435917B7D186
:102810007FC3C901000000002DE9F04F04460B689A
:1028200090F820701668D3F800A0E38CD0F822004E
:1028300095B015464A7CADF84C30FF2AC7F380139B
:1028400088460C9212908DF83F3040F020829946D5
:102850001A4612AB93E803000DF1400B1090ADF84F
:102860004410FF090AF18701D4F800C00A915B46C1
:102870003846CDF82CC00DF0ABFD0A99002840F089
:10288000EE8196F880310A9069F3C71367F38613D7
:1028900086F880311098BBF80430C6F88701A6F896
:1028A0008B31DAF88730C6F881318B88A6F885310C
:1028B000638E94F83410A9722B81D4F82E306B609B
:1028C000D4F83E30C5F8223005F1220094F84230A9
:1028D0000371052103F0ECFF95F8273000F03F006D
:1028E00060F3050385F8273094F84330C3F30401FF
:1028F00085F82810218FE982012803F01F0389B28F
:1029000040F2AD811B3303F01F030B2B00F2A781B4
:10291000063989B240F67A4399420A9A00F29F81B9
:10292000D8F800305A60638F2B83E98ADAF83820B0
:1029300040F2E24303FB01F7E18E0A91002A00F026
:102940000B829AF8191040F6C41240F6A6637F294C
:1029500088BF1A460D92002130460FF009FC94F80A
:10296000433096F8B8205B0963F3430286F8B82039
:1029700014F014FB814696F8B800C0F3420014F03E
:102980000FFB09EB000307FB03F3CF4A03F57423A6
:1029900003F23F23A2FB03239B0C2B637B08963B94
:1029A0006B6394F8353040F2E24202FB03F36B6450
:1029B000A38FA6F87631394630460FF0C5FBC34BDE
:1029C000C34AC6F87C213B44B3FBF7F39AB2A6F89E
:1029D0007021298B881D824204DDC1F57F41FA31C7
:1029E0000A4492B2A6F86C216B68C6F8BC30DAF8DB
:1029F0003830002B00F0AB814FF00109E20700F105
:102A0000B3814FF4807323849AF81B0013F052FCB7
:102A100004F12F03002800F04F81A26AC4F82F2090
:102A2000A28D9A800C9BFF2B00F09881BDF84C3052
:102A30001298A4F82D30C4F82900BBF80430A4F88B
:102A4000273010989DF83F30C4F8230084F82230D6
:102A5000EB8AE3862B8B2387B6F87631638796F86B
:102A6000B830C3F3420384F83C3030460DF066F9C9
:102A70000023A882E08085F8A730D8F804B00B982E
:102A8000214606F08DF9AB8AABF806301C23DBF843
:102A900000408BF80430B9F1000F40F043818BF80F
:102AA00020900AF063FB002840F020815946204620
:102AB00006F088F995F8499095F848B009F00709AB
:102AC0000121484614F066F80BF0070B04460BF0A2
:102AD0000300283009F00303C000CBF3400B20FAB9
:102AE0000BF02833B0F5A47F4FEAC303C9F34009C4
:102AF00038BF4FF4A47023FA09F3B3F5A47F2CBFB9
:102B0000C01800F5A47000F26E23724A7248234484
:102B10000721E3FB00214FF09613C5E9033310466C
:102B200067A3D3E90023FDF7DBFA20F07F40706054
:102B3000D8F80C300A982A6B40F2E24101FB0031D0
:102B40002F390D9B891A1944BD1A0C1B0022022132
:102B5000012003F061FDDAF83830A3B11F68384670
:102B60000BF098FCC21C5D4B0097D2B201210020F3
:102B700005F0B0F9012800F0008197F846306FF3B6
:102B8000000387F8463050460AF066FE0746524872
:102B90004BA3D3E90023A4FB0001FDF7A1FACDF874
:102BA00004A0D8F808304D49009120F07F4BBA1CA2
:102BB0003B3BD2B25B440121002005F0CDF9012856
:102BC00000F0D4809AF81830DB0700F1B680304668
:102BD0000DF0B4F8404BA5FB0359044638A3D3E9E4
:102BE000002328464946FDF77BFAD8F808303C4ACE
:102BF0000792A3F13B083B4B069620F07F47A7FBCB
:102C00000331E81A384B05934FF4F873089373684F
:102C10004FF0000ACDE903A34FF0070303FB0711B0
:102C200069EB01014FF47A720023FDF759FA07347A
:102C3000E4B2CDE90170CDF800B04346224601214F
:102C4000504605F057F810F0FD0F40F09D8001222E
:102C50000221104603F0E0FC15B0BDE8F08F002221
:102C6000CAF8082095F82C300B9862F3000385F819
:102C70002C30E56801262146267106F091F8286877
:102C80002E71294606F09EF815B0BDE8F08F0DF1C3
:102C9000400B10460DF13F015A4612F02FFD9DF8F2
:102CA0003F9094F8207009F102095FFA89F98DF8D4
:102CB0003F9009F00102D4E5C4F82F009880B1E6F6
:102CC0008D49FD1A0700000083DE1B437FC3C90145
:102CD000404B4C008C49FD1A00CA9A3B1D4D010027
:102CE0006D4C01008D49FD1A954C01005946204656
:102CF00006F056F8DAF834B05046DBF800400AF037
:102D0000ABFD10F0FF0020D100231222ABF806002B
:102D10008BF808308BF80420AA8AABF80A208BF8CD
:102D20000930C3E695F8273043F0400385F8273093
:102D3000281D12F0DBFA2885B1E60023012200935A
:102D40001846114605F0C6F841E700DEDCE794F8C6
:102D50002030C3F3401951E60D93FCE50022C4F87E
:102D60002920A4F82D2068E600DE4AE606F0B8F82F
:102D700082453FF427AF00DE24E706F0B1F8874232
:102D80003FF4FBAE00DEF8E600DE60E70000000086
:102D90002DE9F04F8BB0CDE904011F460020BDF8AE
:102DA00060309DF85490BDF858A0BDF85CB09DF817
:102DB0006450039316460CF0FFFC002800F0898055
:102DC00009F001080446404605F004FA0290B8F103
:102DD000000F77D1149B02993A4640460DF0F8FA5D
:102DE00000287AD1012D74D894F8443065F3020399
:102DF00084F84430636904F110020692002B7CD001
:102E000063691D6807F0010A93F848000293C0F354
:102E1000C00100F0070013F0BBFE94F84410029BC1
:102E2000DFF8E4C2DA8901F003032833C1F340017B
:102E3000DB00CB40B3F5A47F38BF4FF4A47300EBA5
:102E4000430000F5EC700244B0480721E2FB0C019E
:102E5000ABA3D3E90023FDF743F920F07F4068607E
:102E6000304612F099FFB4F8443003F0BF0363F02A
:102E7000FF03A4F84430A6B3A9F10203012B40F2EA
:102E8000278194F8621069F3830184F8621094F842
:102E900044106AF3451184F8441014990968A1613B
:102EA00014998988A1830399A184DDE9042304F19D
:102EB000100000960021FEF753FDA06500200BB026
:102EC000BDE8F08F062103F04BFB002882D11220D1
:102ED000F5E70C200BB0BDE8F08F0B200BB0BDE880
:102EE000F08F13F0EDFA0028C6D014993846324618
:102EF00013F0C8F884F84500BEE705F039FF0690E6
:102F0000002800F0F7800CF00DFF0546002800F0C7
:102F1000EE80143003F0E0FC05F11003002840F0CF
:102F2000EB80032105F11800079313F01FFDE86EF5
:102F3000079BA5F828B04FF6FF72A5F826A0AA8433
:102F4000002800F0D08005F15C0105F160020793D4
:102F500003F012FBB5F8582022F4EF6222F00702CA
:102F600042F48C7242F00102A5F8582095F87220C4
:102F700022F007024FF0000B85F872207F22A5F89F
:102F8000B620C5F86CB0A5F870B0A5F82AB0C5F8A1
:102F90002EB005F1320012F053F995F8372060F3A6
:102FA000050285F8372001210DF1270013F0DEFC22
:102FB0009DF82710564A039BA5F87631A2FB010223
:102FC000D20802EB4202A1EB820195F83720079B61
:102FD00085F839B002F03F0285F8372095F83C209B
:102FE000A5F840B1053122F0070240F2E24085F831
:102FF000381085F83C20298D464AA5F878B100FBA9
:103000000AFA06205244A5F8740101F1060CB2FB3D
:10301000FAF290B26045A5F872B1A5F86EB1A5F8C4
:10302000700102DD0638401A80B2A5F86C0128460E
:1030300007930FF021F8514628460FF085F84FF01E
:10304000000B069BC5F8483185F844B10DF0B4F982
:1030500095F8802160F3020285F880210DF0B2F925
:1030600095F8802160F3C50285F8802195F842210A
:103070006BF3410285F8422105F1C4000EF006FE13
:1030800095F88021149B07F0010A6AF3C71285F8AE
:1030900080214FF09612C5E907221A68C5F88721EA
:1030A00095F880219988029BA5F88B1169F3861207
:1030B00085F880211A68C5F881219A88079BA5F8B0
:1030C00085216361C5E902BB85F800B02D619BE6EF
:1030D000002012F085FE94F8443043F04003C146CE
:1030E00084F84430CDE605F16400E8662BE70698E5
:1030F00005F044FE0720E2E600DE12E7AFF30080B1
:103100008D49FD1A0700000000CA9A3B8C49FD1A40
:10311000ABAAAAAA7FC3C9012DE9F04F04468DB01E
:1031200090F82070A38D806AADF82C30E3070E462E
:103130001546C7F3C0110A90C7F3401700F1FF808E
:1031400000232384B37C707C13F001031CBFD4F8EC
:103150002230C4F82F3004F12F0214BFE38CC4F8DE
:103160002F30FF28938004F1290804F1230200F096
:10317000CB8004F1220112F0C1FA94F82230BDF89C
:103180002C200A98C4F82900023384F82230A8F8C9
:1031900004203368D3F800A0EB8AE3862B8B2387C7
:1031A000BAF82430638713F0F7FE84F83C00D5F8B2
:1031B000009048460CF0C2FD0021A882E0804846FD
:1031C0000EF0D6FF002385F8A730D6F804802068DB
:1031D000214605F0E5FDAB8AA8F806301C23D8F897
:1031E000004088F80430002F40F09D8088F820705F
:1031F0004146204605F0E6FD95F84800B5F816B0C2
:10320000F46840F2E243C0F3C00100F0070003FBA2
:103210000BFB13F0BDFC0022A4EB000802210120EF
:1032200003F0FAF950460CF08DFA4B4CA8FB044819
:1032300047A3D3E90023054641462046FCF750FF4B
:10324000CDF804A0B3684549009120F07F476A1D7E
:103250003B3BD2B23B440121002004F07DFE10F044
:10326000FD0F70D14FF0000A534604220121CDF822
:1032700000A0504604F02EFE48460CF05FFD0546C7
:10328000354833A3D3E90023ABFB0001FCF728FF4B
:103290001946334BB6680893324B069340F27233AB
:1032A000CDF81C900993D9F804308346CDE904A3E6
:1032B000104600234FF47A72FCF712FF2A4B0722C4
:1032C000A7FB0331CDE902B002FB0711E01A68EB5E
:1032D00001014FF47A720023FCF702FF07353B3EF1
:1032E000EDB2CDE9007033462A460121504604F084
:1032F0001DFD10F0FD0F24D10122022110460DB05A
:10330000BDE8F04F03F088B90023BDF82CC00A983F
:10331000C4F82930A8F8043084F82210C4F8230037
:10332000A2F804C035E795F8273043F0400385F84C
:103330002730281D11F0DAFF0127288556E700DE27
:10334000FEE600DED8E700DE8CE700BFAFF30080CA
:103350008D49FD1A0700000000CA9A3BD54D0100B7
:10336000D94D0100E14D01008D49FD1A000000001A
:10337000032870B50D4610D00738C3B20F2B11D8F3
:1033800080B20CF0E3FC044660B190F93730002BBA
:103390000BDA40682860204670BD00200BF022F94F
:1033A0000446D0B90024204670BD90F85800184E4D
:1033B000C0F3C00100F0070013F0EAFB154A00F269
:1033C000FE400721E0FB062110460FA3D3E90023AE
:1033D000FCF786FE20F07F40DCE7FF2211460BF071
:1033E00009F90B4A0B4B0721E0FB0231184606A3F3
:1033F000D3E90023FCF774FE20F07F4028602046CC
:1034000070BD00BFAFF300808D49FD1A07000000BA
:1034100000CA9A3B8C49FD1A70B588B01E46134607
:1034200006AA029207AA019205AA00920024224A43
:10343000079411F025FEFF2834D0069B1F48072172
:10344000A3FB000201FB032119A3D3E90023FCF72E
:1034500047FE044600B13E34079D1949059BA5F57A
:103460007422A2F510728A4214D814480721A3FBD3
:10347000000201FB03210EA3D3E90023FCF730FE79
:10348000104BA3FB053504EB954404443460002045
:1034900008B070BD05F1E87505F5D435013B05F5BB
:1034A000A575E2E76FF00900F2E700BFAFF3008017
:1034B00000CA9A3B00000000755001008D49FD1ABA
:1034C000BFBDF07F83DE1B432DE9F043C66847682C
:1034D00073683D491A68D0F80090A7F57423A3F5E6
:1034E00010738B4283B0804607D907F1E87707F560
:1034F000D43709F1FF3907F5A57773685168DD8A7C
:10350000CDF8049006F1100301AA0220FFF784FF12
:1035100000284ED10199A1EB09031B0237D40846BC
:10352000494604F0C3FD034628480721A3FB0002D7
:1035300001FB032122A3D3E90023FCF7D1FD346969
:103540000444002C346109DB40F2E24305FB03F341
:10355000A3422FD2E41AA342FCD33461D8F800303E
:103560001A48A3EB0903A3FB0002072101FB032177
:1035700013A3D3E90023FCF7B3FD154BA3FB0737D7
:10358000A0EB97402044306103B0BDE8F08348468B
:1035900004F08CFD03460D480721A3FB000201FB4C
:1035A000032107A3D3E90023FCF79AFD3469241A09
:1035B000C7E73469002CD1D103B0BDE8F08300BF68
:1035C00000CA9A3B00000000BFBDF07F8D49FD1A84
:1035D00083DE1B4300000000F0B5C468636883B05D
:1035E0000546002B5CD116F069FC94F92C0016F00E
:1035F000B7FCA17A607A01F00101C0F3820016F0F5
:10360000A1FC627A252102F01C02082016F00AFDB6
:10361000414B019301A816F0F1FC404940F25B6078
:1036200016F0A2FD237AC3F3420262F3061323725B
:10363000204613F0BDFE12F043FF58BB637A9B0790
:103640001FD127682E68384613F05AFA06446A6874
:1036500006F10E01012016F08FFF17F0E3F8204667
:103660000AF008F9811C3246C9B2384613F04AFA0A
:10367000054610BB204613F0F5F9E0B9002003B071
:10368000F0BD012012F008FB4178821C007816F092
:1036900013FFD6E7607A10F0030018BF0120F1E7AE
:1036A00093F82C309A079ED01D48214616F0DAFB7D
:1036B00016F004FDE2E700DEE0E71A4A1A491B486B
:1036C00040F211431BF061F9194B0721A5FB0303DD
:1036D00001FB05310EA3D3E90023FCF701FD1549D9
:1036E000024615481BF051F9002585F31188BFF3F8
:1036F0006F8F0323184602DF1048214616F0B2FBF5
:1037000016F0DCFC6FF08B00B9E700BFAFF3008070
:1037100000CA9A3B00000000D6BE898E5555550060
:103720007D6C01004C01020098010200D0FF0100F5
:103730008D49FD1AC80102009C010200AD6F010015
:103740002DE9F047C46884B0002307460DF1070156
:1037500004F1140066688DF8073013F0EBFD0546A0
:10376000002800F0DD80337B06EB8303D3F8108064
:1037700098F8003003F00F03072B40F0C78003A92F
:10378000404614F0ADF8002840F0C880039A002AA3
:1037900000F09F80937851781B0203F4F8530B4399
:1037A00000F09780238992F800A00133238116F05E
:1037B00085FB96F92C0016F0D3FB96F80990B17AA8
:1037C0004FEA591901F00101484616F0BBFB4FEAD8
:1037D0008902FF21082016F025FC6B4B029302A8FA
:1037E00016F00CFC0AF03F0A684940F25B6016F0E4
:1037F000BBFC504613F098F998F802303F2B36D8AE
:10380000AB789A0602D0EB78DB0669D400236048D7
:103810002362214616F026FB16F01AFE284616F003
:1038200031FC26683D68304613F06AF9054405F11D
:103830000E017A68012016F09FFE16F0F3FF204675
:103840000AF032FEC11C2A46C9B2304613F05AF9BA
:10385000054600286AD1204614F054F9204613F09A
:1038600001F900285ED1002004B0BDE8F0870DF119
:10387000070106F1180013F05DFD8046002853D0C3
:103880002146444816F0EEFA962016F069FE4846A6
:1038900016F08CFC9DF80730A3B912F011FE58B950
:1038A000737A9907BAD0012012F0F6F94178821C98
:1038B000007816F001FEB1E7707A10F0030018BF2F
:1038C0000120F1E76B68C8F804302B89A8F80830AC
:1038D000E3E73148214616F0C5FA16F0EFFBC2E7E0
:1038E00020462946256214F0E3F821462B4816F0BD
:1038F000B9FA4FF4967016F033FEB37A03F0010371
:1039000019464A46484616F0F9FC87E700DE03A947
:10391000404613F0E5FF00283FF438AF00DE35E7FE
:1039200000DE20E700DE9EE700DEA9E71C4A1D4915
:103930001D484FF4A4731BF028F81C4B0721A5FB6E
:10394000030301FB05310EA3D3E90023FCF7C8FBF9
:103950001749024617481BF018F8002585F311880F
:10396000BFF36F8F0323184602DF0948214616F084
:1039700079FA16F0A3FB6FF08B0075E7AFF30080C8
:1039800000CA9A3B00000000D6BE898E55555500EE
:103990001D79010045790100617A0100217B010058
:1039A000D401020098010200D0FF01008D49FD1AE8
:1039B000240202009C0102002DE9F041C46894F940
:1039C0002830002B8CB0C0F2E680636805460E46B6
:1039D000002B40F0D58094F828306FF3000384F872
:1039E000283016F06BFA94F9440016F0B9FA94F8FE
:1039F0003400012100F0070016F0A4FA94F83420F6
:103A000092000820252102F01C0216F00BFB94F80E
:103A1000343023F01803012084F8343005F000FB23
:103A2000002800F0BF80203016F026FB764B0B9369
:103A30000BA816F0E3FA754940F25B6016F094FBB0
:103A400094F82800C0F34100253013F06DF8704859
:103A5000214616F007FA94F828309B0603D46368D1
:103A6000002B00F08A80962016F07AFD00231A467B
:103A70001946184616F0E2FB12F022FD002840D14C
:103A800094F8283013F0180F57D1D4F800802F681D
:103A9000404613F035F807446A6807F10E0100202C
:103AA00016F06AFD16F0BEFE16F0E2FC20460BF0A2
:103AB00055FE411DC9B240463A4613F023F88046F0
:103AC000002875D116B9236C002B3FD163687BB1F8
:103AD0002A68504BA2616A68E26104F1180199609A
:103AE000646201220221002002F0CAFD00285DD19B
:103AF000204612F0B7FF002856D100200CB0BDE8D8
:103B0000F08194F82800C0F3C00012F0C5F8074611
:103B10000DF12B0012F0F6FB79788046BA1C38784C
:103B200016F0CAFC94F834209DF82B009200414610
:103B300002F01C0216F03CFFA7E7012012F0ACF8DF
:103B40004178821C007816F0B7FC9EE7324A079253
:103B5000324A059240F2F31200930892CDE90366CF
:103B6000CDE9016606943B463146042204F0C2F8D2
:103B700010F0FD0FAAD000DEA8E716F069FC7BE785
:103B8000636893F82C30D90705D4636893F82C3018
:103B90009A077FF520AF2248214616F063F916F008
:103BA0008DFAAAE700DE3EE700DEA6E700DE9FE72B
:103BB0001C4A1D491D4840F2E5131AF0E6FE1C4B55
:103BC0000721A8FB030301FB08310DA3D3E9002360
:103BD000FCF786FA1749024617481AF0D6FE002568
:103BE00085F31188BFF36F8F0323184602DF134854
:103BF000214616F037F916F061FA6FF08B007DE779
:103C000000CA9A3B00000000D6BE898E555555006B
:103C1000E13C00002C020020AD7E01002D7F010060
:103C20007D6C01003002020098010200D0FF01000B
:103C30008D49FD1A7C0202009C010200ED7F01000B
:103C400038B5044614F086F994F8283094F8282002
:103C5000C3F34103013303F00303032B08BF002325
:103C600063F3420214BF03F12500252084F82820C5
:103C700012F05AFF63680BB123694BB904F014FAD0
:103C8000C11C002016F0ECFCBDE8384016F0CABD9F
:103C900016F06CFD054604F007FAC11C002016F072
:103CA000DFFC16F0BFFD16F061FD294604F0FEF9B9
:103CB000094A03460721A0FB020201FB032104A3DA
:103CC000D3E90023FCF70CFA23691B1A236138BDE2
:103CD00000CA9A3B000000008D49FD1A0000000058
:103CE0002DE9F04F8DB0044616F028FA10F0FF00D1
:103CF00013D1FF238DF829008DF827008DF82A3085
:103D00008DF8283012F060FFA348214616F0AAF87B
:103D100016F0D4F90DB0BDE8F08F16F031FA054673
:103D200016F0FEFB8DF8270016F004FC8DF8280035
:103D300016F0A4FE8DF8290016F082FE8DF82A00F8
:103D400016F0B0FB064616F091FBEDB2074612F0F6
:103D50003BFF002DD8D0012005F062F90546002870
:103D600000F0F88195F8203003F00F03072B05F1E0
:103D7000200900F0E5809DF82730002B3FD19DF809
:103D80002980B8F1000F40F0FD8042464FF0FF0A55
:103D900041465346204614F03BFB0028B4D09DF822
:103DA000298095F82020616800238DF82B30F6B229
:103DB00002F00F0300294AD0616891F82C1088079F
:103DC00045D4072B40F0EA8094F834305A079BD052
:103DD00094F8282012F0010296D10DF12B010191E7
:103DE000CDF800A04B460121204614F059FB0028D5
:103DF00040F0A18095F8203003F00F0379E094F8AB
:103E000028009DF82810C0F3C00012F085FA9DF834
:103E100029809DF827208246BAE7012B46D195F8E4
:103E200021200C2AE6D195F82020CDF800A01946D3
:103E300000230193D20905F12803204614F0BCF9B0
:103E4000002840F0B88095F8203003F00F036BBBDA
:103E500095F821309A1F1F2A44D894F8282002F0A0
:103E60002102202A08D1D4F804B0BBF1000F00F0E1
:103E70009D81063B1F2B35D8636833B195F8203000
:103E800003F00F03072B7FF43FAF9DF82B500097F3
:103E90003346524641462046019514F0E3F9002886
:103EA0003FF432AF10307FF42FAF33E7062BCFD083
:103EB0004521D94011F0010140F05681012B11D16B
:103EC00095F821300C2B95D195F82020CDF800A045
:103ED0000DF12B030193D20905F12803204614F0BC
:103EE0006BF940BB95F8203003F00F03072B3FF42C
:103EF0006BAF042B7FF408AF95F82130063B1F2BE6
:103F00003FF602AF94F82830DB077FF5FDAE16F0E0
:103F100045F995F820300278C3F38013B3EBD21F34
:103F20007FF4F2AE0830062205F122011BF0C5FD38
:103F300000287FF4E9AE95F82130002B9CD1E3E610
:103F40000DF12A0301930DF1290300930DF12702CE
:103F50000AAB4946204614F06FFF9DF82730834690
:103F6000002B40F0DE809DF82980B8F1000F40F072
:103F7000F3804FF0FF0ABBF1000F3FF412AF9DF842
:103F8000272005E79DF82A0012F0EAF99DF829801C
:103F90009DF827208246FBE61980010094F828103E
:103FA000090740F1CA80002B7FF437AF95F8213024
:103FB000063B1F2B96D8042005F032F800283FF46A
:103FC000A3AE16F037FC236C074643B9A38F40F22B
:103FD000712202FB03F3B0FBF3F203FB1207236829
:103FE0005A68B14B0721A2FB030301FB0231ACA3CA
:103FF000D3E90023FCF774F8A0F2A2331F3B62EB75
:104000000202BB4272F10002FFF47EAE16F020FA0B
:1040100063680793504612F05BF994F834305B06FE
:10402000814640F11B81002800F01881834601275A
:1040300016F0B4F8CDE9027B0BAB049305F1220333
:10404000019395F82030C3F380130146074600938F
:1040500000220123204614F093FA384616F012F895
:1040600016F062F8002840F017819048214615F0BC
:10407000F9FE002E40F0F980626892F82C3043F08F
:10408000010382F82C3094F8283043F0800384F840
:10409000283004F0E1FF172202714FF6FF72C28050
:1040A00095F820E006463B46CEF3401E00F1200284
:1040B00007F1200C1D6858689968DF68D7601033D5
:1040C000634515605060916002F11002F2D11B68E7
:1040D000136096F82030B4606EF3451386F82030F4
:1040E00016F044FBB8F1000F30610B9B736108BF01
:1040F0004FF0FF0A86F819A094F8343013F040030B
:1041000003D0B9F1000318BF0123B27E63F30002AC
:10411000B27604F0A1FF3146F060306804F0CAFFC7
:10412000F8E594F828009DF82810C0F3C00012F0BC
:10413000F3F89DF8298082461DE7BAF1FF0F8DF84C
:104140002CA0C2F3801B12D094F8352052453FF4C6
:104150002AAF7CE600DE05E69DF82A0012F000F9A1
:104160009DF82980824606E795F8213081E605F121
:1041700022010BAA5846079112F046F90799002828
:104180003FF461AE94F83430C3F340135B457FF4E1
:104190005AAE062204F108001BF08FFC00287FF4C1
:1041A00052AE95F8203003F00F03FCE6962016F08F
:1041B000D7F9584615F0FAFFCDE9007B3346414662
:1041C0005246204614F04EF800287FF49DAD15F0BD
:1041D000E5FF06460322337862F30303337095F854
:1041E00020303278C3F3801363F3C7120C2332708C
:1041F0005046737012F06CF894F8342057063AD594
:10420000C8B33178324641F0400102F8021B016820
:10421000C6F8021083889380D5F82230B360EB8C07
:10422000B381304615F02EFF15F07EFFB0BB16F0BF
:10423000F9FA94F8283043F0010384F8283095F80F
:104240002030190705D194F8343043F0080384F87E
:1042500034301748214615F005FE5BE594F82870C8
:1042600004F1360BC7F38017E2E616F00BF9079B53
:1042700083F8A60000E794F828303278C3F380135F
:1042800063F38612334603F8022BD4F83620C6F8BF
:104290000220628F9A80BFE700DEE6E600DEC6E716
:1042A00000CA9A3B000000008D49FD1AB58001004C
:1042B0002D800100000000002DE9F047C46882B0A5
:1042C00007460DF1020120460BF07EFB90F92830E5
:1042D000002BC0F2D88043680546002B40F0C88010
:1042E0002379854A6FF3861323710023138015F019
:1042F000E5FD95F9440015F033FE6079012100F0E9
:10430000070015F01FFE627992000820FF2102F0DD
:104310001C0215F087FE012004F082FE002800F048
:10432000B980203015F0A8FE744B019301A815F058
:1043300065FE734940F25B6015F016FF207900F0CE
:104340003F0012F0F1FB21466E4815F08BFD9620E0
:1043500016F006F9627902F00702012310460021E7
:1043600015F06CFF12F0ACF8002859D195F8283000
:1043700013F0180F73D1D4F800903E68484612F03D
:10438000BFFB06EB00087A6808F10E01002016F06A
:10439000F3F806466079D4F808A000F00700012180
:1043A00015F07EFE0644607900F0070002285644AE
:1043B00034D004280CBF4FF4BC73282301211E44C1
:1043C00015F070FE304416F0E5F916F02BFA16F0F1
:1043D0004FF820460BF0EEFA811D4246C9B248461E
:1043E00012F090FB064600285AD16B686BB13B680F
:1043F000AB617A68444BEA616D6201221835022193
:104400009D6002F03DF9002848D1204612F02AFBB9
:10441000002841D1002002B0BDE8F0871823CDE785
:1044200095F82800C0F3C00011F036FC06460DF1E7
:10443000030011F067FF71788046B21C307816F0E7
:104440003BF862799DF80300C2F30202920042F049
:104450000202414602F01E0216F0AAFA8BE7012082
:1044600011F01AFC4178821C007816F025F882E7DA
:10447000436893F82C30DA0705D4436893F82C305E
:104480009B077FF52DAF2148214615F0EBFC15F079
:1044900015FEBFE700DE44E700DEBBE700DEB4E761
:1044A0001B4A1C491C4840F251231AF06EFA1B4B60
:1044B0000721A6FB030301FB06310DA3D3E900236B
:1044C000FBF70EFE1649024616481AF05EFA002562
:1044D00085F31188BFF36F8F0323184602DF12485C
:1044E000214615F0BFFC15F0E9FD6FF08B0092E757
:1044F00000CA9A3B000000005A7F0020D6BE898E79
:1045000055555500CD8E01004C020020598A0100FE
:104510009002020098010200D0FF01008D49FD1AAF
:10452000280302009C010200BD860100000000007B
:104530002DE9F04F8FB005460E46174615F0FEFDEB
:1045400010F0FF0015D1FF238DF831008DF82F00FA
:104550008DF832308DF8303012F02CFB002E5CD00C
:104560007E48314615F07EFC15F0A8FD0FB0BDE881
:10457000F08F15F005FE044615F0D2FF8DF82F00E0
:1045800015F0D8FF8DF8300016F078FA8DF831006C
:1045900016F056FA8DF8320015F084FFC3B2079377
:1045A00015F064FFE4B2069012F004FB9CB3032004
:1045B00004F036FD044670B390F8203003F00F038A
:1045C000072B00F1200A26D190F821301BB30DF102
:1045D000320301930DF1310300930DF12F020CAB67
:1045E0005146284614F028FC9DF82F208346002AC7
:1045F00040F0A6819DF83190B9F1000F40F0C681DE
:104600004FF0FF08BBF1000F28D04346494628462B
:1046100013F0FEFE10BB002EA2D195F83430D9065F
:1046200040F1898104F018FD0146002800F0C382A2
:104630000A230B718D60EB6A0868CB6004F03AFDC9
:1046400095F83430DA0640F176816FF3041344486C
:1046500085F83430294615F005FC85E76B680022A3
:104660008DF833202BB16B6893F82C1011F00201F8
:104670007CD06B68002B00F075816B68002BCAD171
:10468000002E00F0AA8133791B0612D4EB6A1BB10D
:1046900093F90430002B0CDB0DF13303002201935E
:1046A000CDF8008053461146284613F0F9FE002845
:1046B000B1D0A6603379A27EC3F3801363F30412F2
:1046C000A276337943F0800333710023EB6204F068
:1046D000C3FC16F04BF8206116F0ACF8069983463F
:1046E000384615F0DFFCA37E069A62F38203A376B8
:1046F000079BABEB00006061002B40F02F817F2017
:10470000A37E9DF833202076B9F1000F03F0F70364
:1047100008BF4FF0FF0862F3410384F81980A376C5
:10472000002E00F03B81069A0E4B0096394650460B
:1047300014F0F2FAA37E092260F3C713A37620686F
:104740002271214604F0B6FC94F91A30002BFFF6D2
:104750000DAF054A13880133138001E7BD860100C0
:10476000DD830100998A01005A7F002094F82230ED
:1047700058067FF57EAFCDE90081534601222846D9
:1047800013F08EFE00283FF474AF002E00F0078275
:10479000042004F045FC00283FF4E2AE089616F031
:1047A00049F82B6C834643B9AB8F40F2712202FB70
:1047B00003F3B0FBF3F203FB120B2B68A0485A681B
:1047C000DFF880A207F0030303F12B011733C7F3CF
:1047D000400CC900DB0021FA0CF123FA0CF30B4466
:1047E000AAEB030AA2FB0001072303FB021192A319
:1047F000D3E90023FBF774FC8244BAF11F0A63EB90
:104800000303DA4573F10003FFF405AF404611F0EE
:104810005FFD95F834305A06834640F1D381002875
:1048200000F0D08109904FF0010A15F0B7FC099B08
:104830000DAACDE902A3049204F12402019294F896
:104840002020069BC2F38012014682460092284631
:104850003A4613F095FE504615F014FC15F064FC32
:10486000002840F0E78115F0DDFF962015F078FE76
:10487000384615F09BFC0899734815F0F3FA079B2E
:10488000002B40F0BE816A6892F82C3043F001039F
:1048900082F82C3095F8283043F0800385F82830D2
:1048A00004F0DAFB172202714FF6FF72C280044651
:1048B000534600F120020AF1200E1F6858689968DB
:1048C000D3F80CC0C2F80CC01033734517605060A9
:1048D000916002F11002F0D11B68136094F820304F
:1048E000A56043F0200384F8203015F03FFFB9F1B4
:1048F000000F0D9B206108BF4FF0FF0884F819805E
:10490000636195F8343013F0400303D0BBF100032A
:1049100018BF0123A27E63F30002A27604F09CFB81
:10492000089BE060DC60002E7FF420AE474A1388CD
:10493000013313801AE6E96A454815F093FA13E645
:1049400095F828009DF830100892C0F3C00011F0CF
:10495000E3FC9DF83190089A804653E615F092FDED
:10496000C0B2CDE695F828309B067FF586AE002EC6
:1049700072D03379580600F1068194F822207F2AFC
:1049800077D86A68002A3FF47FAEE9E59DF83200E7
:10499000089211F0E5FC089A804633E6069A2D4B02
:1049A00000953946504614F0B7F9A37E092260F30A
:1049B000C713A37620682271214604F07BFB94F98B
:1049C0001A30002B80F2068195F8343043F0100342
:1049D00085F834300FB0BDE8F08FEB6A1BB193F966
:1049E0000430002B16DB0DF1330300220193CDF8C8
:1049F000008053461146284613F052FD00283FF42C
:104A00000CAEEB6A33B995F83430D8063FF50AAEF0
:104A1000002191E7A560EB6AE3601B79A27EC3F3F6
:104A2000801363F30412A276EA6A137943F08003D9
:104A300013714CE6AFF3008000CA9A3B00000000FF
:104A40008D49FD1A28FDFFFF318801005A7F0020A3
:104A5000BD860100998A0100EA6A002A00F0AD8053
:104A6000137959063FF509AE94F822307F2B7FF673
:104A700004AE0DF1330300220193CDF800805346BC
:104A80001146284613F00CFD00283FF4F6AD042033
:104A900004F0C6FA00283FF4BEAD962015F060FD84
:104AA000384615F083FB15F079FB0378032262F397
:104AB0000303037094F820300278C3F3801363F388
:104AC000C7120C23027043708246404611F000FC6E
:104AD00095F834305A0640F1828000287FD09AF849
:104AE0000020534642F0400203F8022B0268CAF845
:104AF000022082889A80636ACAF80830238DAAF857
:104B00000C30504615F0BEFA15F00EFB002840F0B0
:104B10008F8015F087FE04F09FFA09232371002E81
:104B200079D04548A660314615F09CF9337943F0B9
:104B30004003337115F01AFE206115F07BFE0699D3
:104B40000546384615F0AEFA079B2D1A6561002B15
:104B50005DD17F21A27E9DF83330217602F065027F
:104B60005B00B9F1000F42F0080223F07D0308BF9B
:104B70004FF0FF081343206884F81980A37621467C
:104B800004F098FAF2E4EA6A002A7FF469AF6A68EE
:104B9000002A7FF4E5AC1B067FF57EAD89E5EB6A64
:104BA0000893002B3FF42FAF042004F039FA0028BB
:104BB0007FF4F5AD31E500DE3AE56B68002B3FF49C
:104BC00012AF2AE595F828A005F13603CAF3801A3A
:104BD00009932AE6194A13880133138030E595F8C2
:104BE00028309AF80020C3F3801363F386125346EB
:104BF00003F8022BD5F83620CAF802206A8F9A8073
:104C000079E715F03FFC6B6883F8A6003BE615F0EA
:104C100039FCC1B29EE7A560EB6AE3600848214613
:104C200015F020F9EA6A137943F04003137181E724
:104C300000DE6EE700DE16E6098801005A7F0020DC
:104C4000E1870100000000002DE9F043C468A28A5A
:104C50004FF6FF739A4283B000F00281064614F0CB
:104C6000B9F93389628B208CA3831A4492B2104421
:104C700094F82730E28380B2411C21845D064FF016
:104C80000001618304F1220100F1AA8003F03F00DA
:104C90000B4694F82810009004F1290010F0DEFA79
:104CA0000546D4E90C31A26BA08BA36303FB002261
:104CB000E36B8A4294BF9B185B188B4228BF0B465C
:104CC000626C216CE3630A4494F849306264002208
:104CD00094F82C10226494F86220C3F3020363F367
:104CE000061112F0040284F82C1000F08A8015F0EE
:104CF000E5F894F9A70015F033F9201D15F07EF9B9
:104D00002389A17A40F25B6043EA014115F02CFA55
:104D1000284611F009FF2146594815F0A3F8A0894B
:104D200015F01EFC94F8482094F84900C2F3C00323
:104D3000002102F0070200F0070015F07FFA20467C
:104D400014F004FAD4F800803768404611F0D8FE19
:104D50000744726807F10E01002015F00DFC814632
:104D600015F034FD002015F04BFDE36B94F849007D
:104D700003F12F02636C00F00700012103EB4205F1
:104D800015F08EF94D44054494F8490000F00700F1
:104D9000022834D004280CBF4FF4BC73282301210F
:104DA0001D4415F07FF9284415F0F4FC15F060FB64
:104DB000A18A07313A46C9B2404611F0A3FE054622
:104DC000B0B1B37A13F0020629D000252D48214650
:104DD00015F048F815F072F9284603B0BDE8F083E5
:104DE0000A4603F03F03218D10F084FA054658E788
:104DF000204611F037FE002839D10025ECE71823B2
:104E0000CDE7D4E9130101F0CFFB00287FF46FAFA9
:104E100094F8623043F0040384F8623067E71A4A7A
:104E20001A491B4840F2591319F0AFFD19480721E0
:104E3000A5FB000301FB05310FA3D3E90023FBF71A
:104E40004FF915490246154819F09FFD86F3118860
:104E5000BFF36F8F0323184602DF6FF08B05B5E7B2
:104E60000F48214614F0FEFF15F028F9C5E700DED3
:104E7000C3E700BFAFF3008000CA9A3B0000000008
:104E8000A9930100356C010034030200980102006F
:104E9000D0FF01008D49FD1A880302009C01020029
:104EA0007D6C010000000000F0B5C468A28A4FF6D6
:104EB000FF739A4285B000F0AF80054614F08AF87F
:104EC0002B89628B208CA3831A4492B2104494F8ED
:104ED0002730E28380B2411C21845E064FF000013E
:104EE000618304F1220168D403F03F000B4694F87B
:104EF0002810009004F1290010F0B0F90646204671
:104F000003A914F0E9F9039B94F862101A7861F38D
:104F1000C3021A70039A94F862301178C3F3400305
:104F200063F38201117014F0C9FF94F9A70015F022
:104F300017F8201D15F062F82389A17A40F25B6012
:104F400043EA014115F010F9304611F0EDFD0399E7
:104F5000204614F097F92146374814F083FFE08982
:104F600015F0FEFA94F8490000F0070015F01EF95C
:104F700027682E68384611F0C3FD064406F10E017D
:104F80006A68012015F0F8FA15F04CFCA18A073187
:104F90003246C9B2384611F0B5FD0646A8B1AB7A23
:104FA00013F0020517D000252448214614F05AFFBB
:104FB00015F084F8284605B0F0BD0A4603F03F031B
:104FC000218D10F097F9064699E7204611F04AFD29
:104FD00048BB0025EEE71A4A1A491B484FF4807374
:104FE00019F0D3FC19480721A6FB000301FB063189
:104FF0000FA3D3E90023FBF773F8154902461548C0
:1050000019F0C3FC85F31188BFF36F8F0323184693
:1050100002DF6FF08B05C7E70F48214614F022FF2F
:1050200015F04CF8D5E700DED3E700BFAFF3008002
:1050300000CA9A3B00000000BD910100356C0100E0
:105040009403020098010200D0FF01008D49FD1A6F
:10505000E40302009C0102007D6C010003488368A8
:10506000DB6903B118476FF0570070476CFC010013
:10507000024883689B6903B1184770476CFC0100C4
:1050800010B4034606480A4681680C691CB11946EB
:10509000234610BC18476FF0570010BC704700BF84
:1050A0006CFC010010B50F4C20461AF077F8A8B13F
:1050B000A3685B6A0BB120469847FFF7D9FFA36846
:1050C0002BB11B6C1BB10849064800229847A36806
:1050D0001B6A0BB103489847002010BD6FF0150004
:1050E000FBE700BF6CFC0100ED5000002DE9F04F24
:1050F000804E814FB3688FB00393039BDB6B002B13
:1051000040F0EA80B468A36B002B40F0ED80E36AC6
:1051100023B13046984708B9FFF7A0FFFFF79EFF7D
:1051200050B13B68B3B975480022002318F000F86D
:10513000386078B9FFF79CFFB368DB6A13BBDFF810
:10514000C081704D98F80030032BD6D8DFE803F00B
:105150001F3395B63B68D9681A8AB368DB6873B1A8
:1051600030469847014638680C3019F0EDFD386834
:10517000048A002CE0D101F089F83C60DCE76FF094
:105180005701F0E7304698470028B6D0D7E75E4C85
:1051900001212046FFF774FF0028AED02078431E7F
:1051A000012B01D90528CDD119F06BFA0123286014
:1051B00088F80030C6E7DFF850A1DFF850919AF880
:1051C000000019F05EFA2968401A4844FFF758FFBA
:1051D0002B681B1A04462B60002B6BD19AF8000039
:1051E000421E042A16D8DFE802F004171503130044
:1051F0000220CDE900330022002301F0C7F8DFF8D8
:1052000010B10346CBF8000040B988F8000074E7FD
:105210001020EEE70020ECE70420EAE79AF800000F
:10522000022823D005281CD0012822D199F8022079
:105230002A6019F026FA3549024603F10C0019F0EC
:1052400072FDDBF800000C3019F096FD2B689842D7
:1052500011D2DBF8000001F019F8032388F80030C0
:1052600028E0B9F80220C2F30D02E1E7B9F8022004
:10527000DEE70022DCE70223F0E7DFF894902968FC
:10528000D9F800301A8AD8681044FFF7F9FED9F827
:1052900000100B8A03440B822B68A3EB0009044621
:1052A000C5F80090B9F1000F04D11A481AF083F83C
:1052B00088F80090002C7FF445AF1EE7296821296B
:1052C00028BF212105A8FFF7DBFE2B681B1A044627
:1052D0002B60002BEED1C1E73046984700287FF4C1
:1052E00011AF0FB0BDE8F08F3046984700287FF42B
:1052F0000EAFF6E76CFC0100782000201C030020B4
:10530000677F002074200020667F0020627F0020DD
:10531000702000200403002038B5094D4FF0FF3203
:105320004FF0FF33284617F003FF044601F066F8FC
:1053300010B1204600F0AAFF18F034FBEEE700BFE2
:105340000403002070B5184888B001F063F800220B
:105350000023CDE9062300236FF00802CDE90323E3
:10536000CDE9013300931149114B12484FF480628B
:1053700018F06EF910490F480B4D104E104C1AF0F2
:10538000E9F84FF0FF324FF0FF33284617F0D0FE18
:10539000014630461AF00FF8A3685B69002BF0D085
:1053A00020469847EDE700BFEC020020C07F0020B8
:1053B00019530000B8030020A00602001C030020BF
:1053C0006CFC0100014B1B68184700BF1000002057
:1053D00030B585B004460D461022002168461AF00B
:1053E00064FB02238DF802302A46044B01932146C8
:1053F000684618F0E9FE05B030BD00BFC553000097
:1054000080B505460E461746984618F06FFB0346D2
:105410001AF0C6FBDFF81890044649F800304246FF
:1054200030463946A84754F8090000F0C5FB00BFD4
:10543000080000002DE9F047058B04462807904638
:1054400011D4022905F0070540F0CC80204619F060
:10545000C4FA78B10138218B042811D8DFE800F0B4
:10546000C2106D85950001290CBF45F0100545F06F
:105470002005258388F31188BFF36F8FBDE8F0877F
:1054800001F0070AAA4500F0A5800027B9463E466C
:10549000A368002B00F0BC8041F00801218388F351
:1054A0001188BFF36F8FA168002900F0BA800D68E2
:1054B000002900F0B680D1F80480334652462046D9
:1054C000C047002D76D02B6829461D46F0E701F035
:1054D00007035A1F012A1BD8002221F00701062BBF
:1054E000276889B2C4E9002209D13B4603E0628BF8
:1054F000013262831B68002BF9D141F00201218344
:10550000204619F06AFA00287AD041F0200176E0AE
:10551000042B0AD121F0070189B22183204619F01A
:105520005CFA10B141F020012183218B01F0070AC0
:10553000AA454FD00027B946AAE7236921F0070101
:1055400041F00601062DD3F8009021832DD1B9F149
:10555000000F3FD041F00801218388F31188BFF389
:105560006F8F3A492046C84729E021F00701236997
:1055700041F0040189B2042DD3F804902183E6D0D0
:1055800000273E464FF0040A82E721F00701236915
:1055900041F0050189B2052DD3F808902183D6D0BA
:1055A00000273E464FF0050A72E700273E464FF0BF
:1055B000060A6DE72B4687E7B9F1000FD1D1EFF36B
:1055C0001188202383F31288BFF36F8F238B23F07E
:1055D00008032383258BEA062ED525F010032383A9
:1055E00005F007056669218B002EBFF670AF00231A
:1055F0002768C4E9003321F0070141F0010121834C
:10560000218B01F0070AAA454FF000097FF440AF53
:10561000002F9CD041F00801218388F31188BFF34B
:105620006F8F002FC8D03D6839463346524620461A
:1056300019F0FFF92F46F4E7AB067FF51BAF25F015
:105640002003238305F0070500E700BF5FEA0100A0
:10565000014B036000207047A8FE010008B5034815
:10566000034A0021121A19F0DEFA08BDB80300201F
:105670008C7F00200748084A084908B5121A19F01B
:10568000D4FA0748074A0849BDE80840121A19F039
:10569000CCBA00BF00000020B8030020E40B0200D9
:1056A0000000002000000020E40B020038B5054691
:1056B0000C4699B1D1E901230F48096819F058F94E
:1056C000D4E90423E1680D4819F052F9E1690C4866
:1056D00019F04EF9A1690B4819F04AF9012D05D1CD
:1056E000EFF305810848103919F042F921462846A0
:1056F000BDE8384017F0DCBBAC060200DC06020057
:105700000C0702001C0702004B07020030BFFFF726
:10571000FDBF00BF2DE9F0410B4EDFF8308006EBF6
:105720000807CC1B05463246094920461AF095F970
:10573000A01942460021083C1AF0B7F96C6707F13E
:105740000800BDE8F08100BF000000000400000078
:105750007CFE0100054B5A699B689A421FBF044AB0
:10576000536843F080535360704700BF247F00208C
:1057700000ED00E02DE9F843324D8046324889467D
:10578000174619F0F5F8AB6ADE0622D52F4819F056
:10579000EFF81124AB6A1D0703D52D4819F0E8F87E
:1057A0001224284DAB6A980715D52A4819F0E0F85D
:1057B0006E6BAB6A190642D52748314619F0D8F806
:1057C000B9F1000F03D0AB6A23F08003AB6213245E
:1057D00003E01024DEE76FF015061A4DAB6ADA0716
:1057E00003D51E4819F0C4F81424AB6A9B0603D5F0
:1057F0001B4819F0BDF81524124B9A6AD50602D43D
:105800009A6A90070AD55B68190507D54146304664
:1058100000F0B8FA10B180F309880224094B9A6AA3
:10582000920642BF5A6A22F400525A629A6A42F0C1
:10583000FF029A6200233B702046BDE8F8836FF0B8
:105840001506C4E700ED00E05F07020076070200DE
:10585000AA070200BE070200D7070200EE070200F7
:105860000E08020010B51D4C1D4819F081F8A36AFE
:10587000990130D51B4819F07BF81E20A36ADA0184
:1058800003D5194819F074F81F20144CA36A1B03A0
:1058900003D5164819F06CF82120A36A590303D5E3
:1058A000134819F065F822200C4CA36A9A0303D51B
:1058B000104819F05DF82320A36ADB0303D50E48D6
:1058C00019F056F82420054A936A6FEA03436FEAF9
:1058D0001343936210BD1D20D0E700BF00ED00E030
:1058E0003E080200570802006B080200860802000A
:1058F000A5080200CB080200E608020070B5244C9F
:10590000064624480D4619F033F8A36AD90435D564
:10591000214819F02DF81720A36A1A0503D51F484E
:1059200019F026F818201A4CA36A9B050FD51C48BD
:1059300019F01EF8A16BA36A180407D5194819F0CD
:1059400017F81EB1A36A23F40043A3621920104C78
:10595000A36A590503D5144819F00AF81A20A36A56
:10596000DA050DD5114819F003F81B20084A936A8F
:1059700043F47F43936200232B7070BD1620CBE766
:10598000A36A9B04F2D50A4818F0F2FF1C20EDE749
:1059900000ED00E01209020029090200AA07020036
:1059A0003B090200550902006B0902008709020049
:1059B0000E0802002DE9F0415B4B5F688AB0044697
:1059C000C7F30806002585F31188BFF36F8F02F037
:1059D0007F43B3F17F4F06D102F00C03082B13D1A4
:1059E000524818F0C5FF00252C464FF00008F31E62
:1059F0008DF80780092B00F28680DFE803F00A7A31
:105A00007E7684848484848210074CBF0C460125F2
:105A1000EBE74748444E18F0ABFF8DF80780F36A78
:105A20009A0704D5434818F0A3FF002330E0F36A37
:105A3000002B01DA4048F6E7F36A5B00F5D53F48F2
:105A400018F096FF7369A26943F480737361BFF322
:105A50004F8FBFF36F8F736932F8022C23F480737A
:105A60007361BFF34F8FBFF36F8F4DF602739A428E
:105A700009D0B36ADBB253B30DF10702012120460E
:105A8000FFF778FE33E021682D4818F071FF236896
:105A90009DF80720C2B902AE04F1200720686168B2
:105AA000324603C20834BC421646F7D1099AB5B350
:105AB000C2F3080121B96FEA52226FEA4222099229
:105AC00002A91846FFF7F2FD0AB0BDE8F081B36AFB
:105AD00013F47F4F05D00DF107010120FFF70EFFF2
