:10000000E8950020FD3A000077FC0100E93A000085
:10001000E93A0000E93A0000E93A0000E93A000054
:10002000000000000000000000000000C13B0000D4
:10003000E93A000000000000613B0000E93A0000DE
:10004000693D0000693D0000693D0000693D000018
:10005000693D0000693D0000693D0000693D000008
:10006000693D0000693D0000693D0000693D0000F8
:10007000693D0000693D0000693D0000693D0000E8
:10026000693D0000693D0000C1550100693D000085
:10027000693D0000693D0000693D0000693D0000E6
:10028000693D0000693D0000693D0000693D0000D6
:10029000693D0000693D0000693D0000693D0000C6
:1002A000693D0000693D0000693D0000693D0000B6
:1004800053B94AB9002908BF00281CBF4FF0FF31FB
:100490004FF0FF3000F00CB8ADF1080C6DE904CE60
:1004A00000F008F8DDF804E0DDE9022304B070474D
:1004B000704700BF2DE9F04786468C460846089EE7
:1004C000154674461946002B40F0C1808542B2FAA9
:1004D00082F245D94AB1C2F1200300FA02FC9540EC
:1004E00094402EFA03F343EA0C0C4FEA154EA8B2DF
:1004F000230CBCFBFEF80EFB18CC08FB00F943EA0A
:100500000C43994528D9EB1808F1FF3704D29945D7
:1005100002D9A8F102072B44A3EB0903A4B2B3FB51
:10052000FEFC0EFB1C330CFB00F044EA0344A0422B
:1005300014D92C190CF1FF3304D2A04202D9ACF12A
:1005400002032C44241A43EA07401EB1D44000237E
:1005500034607360BDE8F0874746DDE76346F1E746
:1005600092BB431B01214FEA154EAFB2200CB3FBE7
:10057000FEFC0EFB1C330CFB07F840EA03439845D6
:1005800061D9EB180CF1FF3004D2984502D9ACF1D7
:1005900002002B44A3EB0803A4B2B3FBFEFC0EFB4A
:1005A0001C330CFB07F744EA0344A7424DD92C192E
:1005B0000CF1FF3304D2A74202D9ACF102032C4460
:1005C000E41B43EA0040C0E7C2F120039540944099
:1005D00020FA03F12EFA03F34FEA154E9040AFB222
:1005E0000343B1FBFEFC0EFB1C10190C0CFB07F8BF
:1005F00041EA0041884522D969180CF1FF3004D244
:10060000884502D9ACF102002944A1EB08019BB254
:10061000B1FBFEFC0EFB1C110CFB07F743EA014388
:100620009F420ED9EB180CF1FF3104D29F4202D940
:10063000ACF102012B44DB1B41EA004193E7604629
:10064000E3E76146F7E76046A4E76346B8E783421D
:1006500006D916B9002108467CE7C6E900E0F9E7AB
:10066000B3FA83F78FB9834201D3724508D8BEEB42
:10067000020460EB030301209C461EB9002169E7D8
:100680003846FAE7C6E9004CF8E7C7F1200CBB4052
:100690000EFA07F522FA0CF42EFA0CF1BA401C43BC
:1006A00020FA0CF3B8404FEA144901431FFA84FEC4
:1006B000B3FBF9F809FB18300B0C08FB0EFA43EA00
:1006C00000439A4540D9E31808F1FF3004D29A4517
:1006D00002D9A8F102002344A3EB0A0389B2B3FBB9
:1006E000F9F809FB183308FB0EFE41EA03418E4579
:1006F0002CD9611808F1FF3304D28E4502D9A8F134
:100700000203214443EA0040A1EB0E01A0FB029842
:100710004145CE46434602D306D14D4504D2013869
:10072000B9EB020E68EB0403002EA7D0B5EB0E0266
:1007300061EB030101FA0CFC22FA07F3F9404CEAE1
:100740000303C6E9003199E74046C5E74346D9E7C8
:10075000002900F0BE812DE9F04F8FB0002840F055
:10076000BA818C4C164694F880201D4612F0010781
:1007700040F0B981FF23607EE37600F0030014F0BF
:1007800057FB94F88000430700F1F48094F8292087
:10079000637F04EB8202D76A04EB8303D3F82080E3
:1007A000002F00F0CF80394640460BF067FC002850
:1007B00040F08C8198F8003013F00E0F40F0F0807C
:1007C0006369002B40F0818106F04AFC81460028D5
:1007D00000F0B48106F050FC0A90002800F0AB81D4
:1007E0000EF09AF88346002800F0A2814FF6FF72BF
:1007F0008284C06E0BF110030B93002800F01C8262
:100800000BF160020BF15C0103F062FF00219BF829
:100810007220CBF86C1022F007028BF87220ABF834
:10082000701098F8002002F00F02072A00F0F681FD
:1008300001229BF8581021F0770141F011018BF84B
:100840005810114643F67F7CD20042EA012E5249ED
:10085000ABF8B6C0D1F8012011F801CB4FF0000A77
:1008600089889BF88001ABF88511ABF88B114FF4A8
:10087000C021CBF87211BBF858100CF0010C21F418
:10088000E1614EEA0101ABF858109BF837106CF3A8
:10089000861001F03F0161F07F018BF837109BF863
:1008A0003C106CF3C71021F00F01CBF88121CBF87D
:1008B00087218BF83C108BF88001CBE912AA5846AF
:1008C0008BF839A0ABF82AA0CBF82EA0CBF850A01B
:1008D000ABF840A1ABF878A1ABF86EA110F01EFA0E
:1008E0008BF844A1CBF848910EF076FB9BF8801171
:1008F00060F302018BF880110EF074FB9BF88011FD
:1009000060F3C5018BF880119BF842110BF1C40014
:100910006AF341018BF8421110F00AF80A9BC4F8FF
:10092000609063660BF110036361CBE902AA8BF858
:1009300000A0CBF810B015F02DFBB0B30AF0DCFD31
:100940000320C3E098F8003003F00F03072B00F0FA
:10095000BC80124815F078FCC0B2002840F0EE8050
:1009600094F8293004EB8303DF6A04233B700623E9
:100970007B7018E73A46C0F3C00004F1810114F01F
:10098000EBFBFF28E0763FF401AF384614F096FA0F
:10099000FCE600BFD455002063270200FC55002070
:1009A00003F00F03072B00F04C81B74B1B78022B91
:1009B00000F04D810023636300252E46A4F8785093
:1009C0000025637E227EE667C3F38206A37EC2F320
:1009D000420201210DF133008DF8332003F00109AB
:1009E000A4F8765004F016F80246002869D0334681
:1009F00039464046CDF800900AF010FBA34B013079
:100A0000A0FB030145F1000203FB02119CA3D3E903
:100A10000023013861F10001C4E902552570FFF798
:100A20002FFDB4F86860606005F092FC00F2DD27ED
:100A300046B998F8005005F00F05A5F10105B5FA83
:100A400085F56D09237E65F300032376DB07656872
:100A500000F12681D4F83880B8F1000F70D14FF63C
:100A6000FF7391214FF00209049503938848894B45
:100A700005F51C5510350694CDF808801D600993C6
:100A8000A6FB000301FB0631834B0DAD0793834B9F
:100A9000CDF8349005937AA3D3E900230895FFF7A6
:100AA000EFFC01463B4601914A4603214046CDF802
:100AB000008005F099FA294606F060FB002800F056
:100AC0009D8063690BB10AF017FD0C200FB0BDE8E3
:100AD000F08F0AF03BBD6C4B1B78022BF5D0002049
:100AE0000FB0BDE8F08F684B1B78022BF7D194F85C
:100AF0002920637F04EB820204EB8303D16A186A26
:100B00000BF0BCFA0028E1D1636B002BDDD01A7921
:100B100002F0FF0142B942F2107206FB02F2A4F8A1
:100B20007610A4F87850E2671B79002BD7D0CCE779
:100B30000A9806F0A7FA484606F098FA0720C5E793
:100B4000D8F80080AB1C3B440DA940460D9300F043
:100B50006FF940F27121A36E94F874208146A3FBD3
:100B60000131002A40F0D28042F6F132981841F16A
:100B7000000140F2E2420023FFF782FC80B2A8F8B5
:100B800034004A4640460D990BF090FF81460028FC
:100B900097D14FF6FF7291210DAB0893049505F59F
:100BA0001C5302250290039239483A4A10330694A6
:100BB0001360A6FB000301FB0631374B0992079334
:100BC000364B0D9505932EA3D3E90023FFF758FC70
:100BD00001463B4601912A4603214846CDF8009044
:100BE00005F002FA0DA906F0C9FA00287FF469AFF2
:100BF00098F8463043F0010388F8463094F8803086
:100C0000002043F0010384F880300DF03DFB002804
:100C10007FF465AF012014F0EDF860E7617E9BF88A
:100C20005820490961F3020261F306128BF858203B
:100C3000A27E02F0010205E60BF16400CBF86C0025
:100C4000DEE598F8023059067FF5AFAEB8E506F05C
:100C500007FA8146002866D006F00EFA002869D00F
:100C60000023C0F800900371237E6063DA073FF52C
:100C7000A3AE42F2107303FB06F69FE6AFF30080CB
:100C800000CA9A3B00000000E280002000CA9A3BA4
:100C9000002AE784C85500201565000031B3000024
:100CA00000200226274A04950992019506941060B7
:100CB000254A264D05920DAA032108923B4632464D
:100CC000CDE90200009007950D9605F08DF90DA96C
:100CD00006F054FA00287FF4F4AE0DAA1C490892DD
:100CE0001C4A0591009203213B460122CDE90300F5
:100CF000CDE90100079506940D9605F043F90DA97D
:100D000006F03CFA00283FF479AFDAE602FB011165
:100D10000132A2FB030340F2E24219440023FFF731
:100D2000AFFB80B22BE76369002B3FF407AF0AF0FB
:100D3000E3FB03E76369002B3FF4FDAE0AF0DCFB45
:100D4000F9E600BFC855002031B30000156500006A
:100D5000E1B00000728E13002DE9F04304460D4609
:100D60000121237E8BB094F81A90C3F342030DF156
:100D70002300174609EA010994F819808DF82330F9
:100D800003F048FEC8F38208024643463946284627
:100D9000CDF800900AF042F90026214A431CA3FB3B
:100DA000023146F1000002FB0011581E61F1000102
:100DB00019A3D3E90023FFF763FB63680546834269
:100DC00022D91A1A02210292164A174BA21ACA40B5
:100DD000A3FB02320023CA400A4409911349019639
:100DE00009AE059118460321CDE903330696D2B228
:100DF000009305F063F9314606F0C0F940B965602B
:100E000000200BB0BDE8F083FAD23246C61AD9E70B
:100E10000C200BB0BDE8F08300CA9A3B0000000034
:100E200000CA9A3BD455002015F9AC1B156500008B
:100E3000F0B583B007460C460BF0C8FA00261C4DEF
:100E4000431CA3FB053146F1000205FB0211581EAD
:100E500061F1000114A3D3E90023FFF711FBFF2385
:100E600097F82520786007EB8202916A38461A4687
:100E70000BF046FA0CA3D3E900230130A0FB0501D7
:100E800046F1000605FB0611013861F10001FFF78C
:100E9000F7FA01A913F058F910B9019B0233236046
:100EA000002003B0F0BD00BF00CA9A3B0000000064
:100EB00000CA9A3B000000002DE9F04F40F20127E4
:100EC000A5B02E9C8F430C942F9C0D460D941E466E
:100ED00004460F9200F00282637F05F4007B04EB6E
:100EE0008303D3F820A09AF8007007F00F07072FAC
:100EF00010D0BBF1000F04D10C27384625B0BDE857
:100F0000F08F2046D6F80120317825B0BDE8F04FAB
:100F10000BF010B99AF8023013F03F0218BF9AF89C
:100F200003208DF880200AF104020A92BBF1000F21
:100F300002D07F2B00F285810C9904F11C0015F082
:100F400023FA81464FF0000803789AF8001023F046
:100F50003F0301F00F010B4300F8023B9AF8023007
:100F600099F802109B0963F3871189F80210139016
:100F7000A06B04F110028DF87C80002800F0E48260
:100F8000437D00EB83039A6903680B921493D37833
:100F90000232129203F001028DF8883011920D99FD
:100FA0001430099315F0F0F98046012299F800C039
:100FB00000780CF00F0C20F03F000B9B40EA0C0077
:100FC00088F80000187898F800C0C0F3801060F32B
:100FD000861C88F800C018785FFA8CFCC00960F3A2
:100FE000C71C88F800C099F8020098F802C08DF874
:100FF000842080099DF8802015F0010360F3871C90
:101000000E9302F00101099B88F802C040F00781AD
:10101000002900F04B819AF8001098F800C0C1F345
:10102000801161F3861C88F800C099F800100E98B2
:1010300060F3861189F800100AF10A010A911199EA
:10104000002940F047810B990431099103F0020116
:101050001D91910740F106810A999DF8840006319F
:101060000A91414640F002008DF884009AF8000091
:1010700098F800C0C00960F3C71C01F810CB99F8BC
:1010800000006FF3C71089F8000003F0020010B1F0
:1010900009980630099012F00800189002D00A98BA
:1010A00002300A909DF87C0040F008008DF87C002A
:1010B000881C0E9015F0080000F0D28002203070DD
:1010C000D6F80100C6F80110179005369DF8840087
:1010D00040F008008DF8840013F00800199002D049
:1010E00009980230099012F010001A9002D00A9864
:1010F00003300A909DF87C0040F010008DF87C00D1
:1011000009F10900109003F010001B90E80640F16F
:101110009A80881CC6F80100032030709DF8840076
:10112000053640F010008DF8840003F01000002810
:1011300000F09280002016900998033009909DF8E5
:101140008400C00644BF05310E91520611D50A9A9B
:1011500001320A92627E02F01C02102A00F0138211
:101160009DF87C2042F040028DF87C2009F10A02B3
:1011700010925B0608D5099B013309939DF88430D2
:1011800043F040038DF884309DF88430159313F0BC
:1011900040031C9302D00E9B01330E93109B139AB5
:1011A000981AC0B2022803D8012009F10303109352
:1011B000099B129A9B1ADBB2022B03D801230B9ACC
:1011C000033209920B9A52789A42C0F0AD800E9980
:1011D00008F1020CA1EB0C0C5FFA8CFCBCF1020FC5
:1011E00004D84FF0010C08F103010E91BBF1000F80
:1011F00076D096F800B0D51A099BEDB2D6F801105A
:101200003570C6F801300536BBF1000F40F098800C
:10121000002940F085815A465B4609996BE016F833
:1012200001EB98F800C06EF3861C88F800C099F8AE
:1012300000C06FF3861C89F800C000293FF4FFAEA0
:10124000FAE6122759E60F98C0063FF56EAF03F095
:101250001000002840F0828003F0100016906EE726
:10126000179033E70E9808F10A0100287FF407AFC2
:1012700003F00200002869D041469DF884C00B9815
:101280004CF0020C8DF884C090F800C098F800E093
:101290004FEADC1C6CF3C71E01F810EB99F800C094
:1012A0000E9860F3C71C89F800C0F1E61199002977
:1012B0003AD00B9998F800C009780E98C1F38011C4
:1012C00061F3861C88F800C099F8001060F386115D
:1012D00089F800100B990A310991B7E600DEFBE5A9
:1012E0006D0523D40F99890500F11A81D31ADDB257
:1012F0005A465B46099905EB020EBEF1FB0F3FF71C
:10130000FCAD0CEB05071744FF2F30DD0CF101039A
:101310005B442B44CA45337000F0A9810B9B984570
:1013200000F0A0814527E8E51F27E6E596F800B024
:10133000D51A0999D6F801305A46EDB20536DAE7E2
:101340005D464FF0000B5A465B46D4E799F800C063
:101350000E9860F3C71C89F800C09CE69DF88400D5
:1013600040F010008DF8840009981690E4E699F892
:10137000022089F80100013860F3050289F8022093
:1013800098F802200CF1FF3060F305020E9E88F8F9
:1013900002200BEB0502624488F8012030462A4601
:1013A0000C931FF05BFD0C9B23B15A461946701934
:1013B0001FF047FD98F802309A0600F0AF809DF8C4
:1013C0007C305B0640F1F6800A9A109912F8013CD5
:1013D00001F8013C531E0A934B1E10931A9B13B144
:1013E0000A9B033B0A93109E657E16F8033C6D0929
:1013F0006FF3050306F8033C14F02CFE002195FA68
:10140000A5F232288CBF002001208D42B2FA82F270
:1014100008BF4FF0FF3216F8033C520160F3861309
:101420006FF3C71306F8033C1B9B06F8021C06F873
:10143000012C13B1099B033B0993159BDF0602D5D1
:101440000E9B033B0E93169B23B1032219460E9865
:101450001FF004FD189B13B10A9B023B0A93199BD2
:1014600013B1099B023B0993179B002B00F0ED8001
:10147000179A537812781B0203F470631A4310987A
:10148000D1B200F8051C94F87230C3F303031B01BA
:1014900003EB122300F8043C0E9800F8021C94F8A9
:1014A0007230C3F303031B0103EB122300F8013C6A
:1014B000159B9E076ED40238159BDD0709D5119B3D
:1014C000002B00F0D880099B991F062206381FF0D8
:1014D000C5FC99F802300B98990618BF9DF87C302E
:1014E000414618BF89F8033098F802309A0618BFB1
:1014F0009DF88430169A18BF88F803304FF496731D
:101500000193A57E637E05F001055B0900950BF054
:10151000DDFC149B93F84630DB075AD40027ECE43B
:1015200099F8023089F80100013860F3050389F861
:10153000023098F8023088F801C00CF1FF3C6CF3DF
:10154000050388F8023035E710460BF023FB1490B2
:10155000002800F09C801498012290F82530CDF8E6
:10156000448000EB8303996A10308C461CF8023BE0
:101570000B9103F03F030B70CDF848C043464A700F
:1015800081F803800BE59DF8842042F040028DF83D
:101590008420EEE51D9B002B70D0099B063B099330
:1015A0001A680E9941F8082C9B88A1F1080021F8CF
:1015B000043C81E71C9B002B3FF410AF099A0E9965
:1015C00012F8013C01F8013C531E09934B1E0E9387
:1015D00004E7149C002520460AF0F8FE304B013049
:1015E000A0FB030145F1000203FB02112AA3D3E98A
:1015F0000023013861F10001FEF742FF63680446F1
:1016000098423FD21F1A0223DDF850804822254914
:101610004046239303F03CF803210023224A23AEE3
:1016200005924218CDE903331846029706960195B4
:10163000D2B2009304F042FD314605F09FFD002830
:101640007FF45AACC8F8044068E794F87230174940
:1016500003F00F0331F81320501C21F81300C2F3DC
:101660000B020CE70D9AA36B12785A755AE60C9B85
:101670001B78637752E60A9B991F26E70A9B063B75
:101680000A938DE77FF64AAF2F46C51ABBE7CA45D6
:101690007FF433AC00DE30E400CA9A3B0000000067
:1016A00000CA9A3BAC560020156500008856002001
:1016B000F8B5294C9DF818E094F8625015F0020531
:1016C00040D107074FEA500604D594F8C670BF070B
:1016D00038D4643471B391274FEA401C1F48A4F8F2
:1016E0004C10A2FB00014FEACE0E07FB021194F84A
:1016F00044200EF0180E0CF0200C66F302024CEAA7
:101700000E0C94F838E084F8442094F862202EF00F
:10171000380E4CEA0E0C63F3830284F8622084F8DE
:1017200038C00BA3D3E90023FEF7AAFE2065A0650D
:101730002846F8BD94F84430284661F3020384F843
:101740004430F8BD0C252846F8BD00BFAFF300803B
:1017500000CA9A3B0000000034570020002AE784AA
:1017600070B504469126124D82874FEA411CA3FBB7
:1017700005019DF810E006FB03114FEACE0E94F828
:1017800028300EF0180E0CF0200C4CEA0E0C23F052
:1017900038034CEA030C84F828C003A3D3E90023E0
:1017A000FEF76EFE206470BD00CA9A3B0000000088
:1017B000002AE784000000002DE9F04F044690F86D
:1017C00062308DB06FF30003C3F3800084F86230A1
:1017D00094F8383004F1460160F3861384F8383009
:1017E00004F05CFE4FF00008912194F83820B4F822
:1017F0004C30814802F0790284F83820A3FB0002C3
:10180000C4E9028801FB032179A3D3E9002384F80A
:1018100000802461FEF734FE784E794BA51BA3FBB4
:101820000535A36DC5F34715236503F2DD23834218
:1018300024BF0346C4F85080DFF8C88105EB450299
:1018400034BF63606060074648F822304FEA450ABB
:10185000002D5BD196F8A83003F00703032B75D851
:101860004FF0000B04F074FD636900F2DD26002BDD
:1018700000F088800DF12C099121AA4408EB8A031D
:101880004FF000084FF0020A0993CDF8209006941B
:10189000B4F84C30626858480492A3FB000201FB84
:1018A0000321594BCDF82CA00793584BCDF80C8051
:1018B00005934FA3D3E90023FEF7E2FD1046194636
:1018C0004FF47A720023FEF7DBFD014605355E44D6
:1018D000EDB20291334603212A4640460197CDF8E6
:1018E000008004F081FB494605F048FC002845D102
:1018F00094F8623043EA0A0384F862300AF09CFAF2
:10190000002850D000200DB0BDE8F08F012DA7D1E8
:1019100096F84430DB07A3D5D4F85090B9F1000F06
:101920009ED09121B6F84C3033484FF0000BA3FB0A
:10193000000201FB03212EA3D3E90023FEF7A0FD43
:10194000874240D00023C8F80C308BE7D4F8509081
:10195000B9F1000F84D09121B6F8B0302648A3FB2E
:10196000000201FB032122A3D3E90023FEF788FD37
:1019700087421CD00023C8F8003071E70C200DB05E
:10198000BDE8F08F0DF12C09CDE90A3303204B4659
:1019900061680AAA12F000FC00287FF46DAFDDE94F
:1019A0000A361E4468E7504613F024FAAAE7D6F830
:1019B000B4304B449F42DDD302339F429CBFA9F217
:1019C000DE236360D6E7336D4B449F42BAD30233C4
:1019D0009F42B7D8A9F2DE236360336DC4F850B0DC
:1019E000C6F850B003F1020BACE700BFAFF30080C4
:1019F00000CA9A3B00000000002AE7843457002008
:101A00001F85EB511C5700201565000041DC0000CC
:101A10002DE9F04F0B790C46082B074691B009D001
:101A2000092B00F07581062B00F0CC8100DE11B08F
:101A3000BDE8F08FD1F80890D9F82C30002B40F099
:101A40003C82D9F8008040460CF0EAFB4FF0040CD1
:101A50000530C3B20A930026A27E94F8213066F3C3
:101A600086122760A276E660002B00F0478135469B
:101A7000B64604F1220A94F82220900600F03A813A
:101A800094F82300C2F30502C1074CBF04F12A01F8
:101A900004F1240110F0020F18BF063110F0040FFA
:101AA00018BF013110F0080F18BF023110F0100BF1
:101AB0001CBF8B46033110F0200F18BF12314006B7
:101AC00048BF0131A1EB0A010132D2B2C9B28A4248
:101AD00038BF0A469A4236BF9A1A4FF0000A5FFA98
:101AE00082FABBF1000F00F090819BF802009BF896
:101AF0000110020202F4F8520A4300F08681BEF19E
:101B0000000F40F0A9815F284FEA501E00F2D981F2
:101B10009BF8001001F03F00242800F2D28111F060
:101B2000800F14BF4FF496701E2000FB02F21CF0D1
:101B3000040F0C900B9200F0DB81DB0003F12B0211
:101B4000A37EC3F380035B0001339A4002F5BC72AD
:101B5000DDE90B30034402F596708342C0F09281B8
:101B600049064CBF32234FF4FA730B98B44900FB7B
:101B700003F3A1FB031301219B0CCDE90D3201FA04
:101B80000EF3D8B20F9314F071F861690B9B0E9AA3
:101B9000113919448A1A121A034694F91A100D9829
:101BA0000029A2EB00020B9280F25E81002D00F072
:101BB000AC81AA8D524492B21E2AAA8504D994F906
:101BC0001A20002A80F2DF80AA6A002A00F0B5817C
:101BD000D46040F23F72A98DAC62A1839BF80010E3
:101BE0000F9801F03F0141EA00210A40B18821F439
:101BF000E76121F007010A43B28094F91A20002A14
:101C0000C0F29D81B8F1000F00F0A78198F8622022
:101C100012F0010240F03C81D9F82C10B14208BF0B
:101C2000C9F82C20727902F00702032A00F26A81B7
:101C300002F10901C900521021FA02F2002703F251
:101C40000533DFF800C213440133A3FB0C017AA370
:101C5000D3E9002347F1000E0CFB0E11013861F1AE
:101C60000001FEF70DFC0D9B0C9A113302EB4303B0
:101C700068603A46B3600221012002F07BFD0A9BB6
:101C8000FF2B0FD0CDE900771A4623690B99A3F6F5
:101C90004F130B443846012104F02CFA10F0FD0FCD
:101CA00040F0728130226849284602F0F1FC00269B
:101CB000664B0121CDE90735654BCDE905356A68ED
:101CC000236904920B9ACDE902660092C21DA3F625
:101CD0004F133046D2B2019604F054F910F0FD0FC4
:101CE00040F0508101220221104611B0BDE8F04FB2
:101CF00002F040BD013BDBB2002D3FD1A383214662
:101D0000384605F0C5F911B0BDE8F04F05F0CCB983
:101D10008E684D4B35689D4265D1D5F82090B9F15C
:101D2000000F00F0D58048493022084602F0B0FC90
:101D30000730C3B20A93D9F800000CF08BFA96F87A
:101D400005C080460CF0070CBCF1020F71D0BCF14D
:101D5000040F6CD0BCF1010F7FF468AE062394F839
:101D60001AE000217246237194F8213061F3861243
:101D70002760E160A276002B40F0FF80AA8D13441B
:101D80009BB2AB85A383B8F1000F7FD098F8623087
:101D9000AA6ADB077CD4D4602B6AAC62002B7BD0B0
:101DA0002B6A002B7AD02B7803F0FF023BB3012A79
:101DB0007FD1AB68002B7ED1264BC5E9023511B02F
:101DC000BDE8F08FD1F80890D9F82C30002B76D1EF
:101DD000D9F8008040460CF023FA0530C3B24FF02A
:101DE000010C0A9337E6CB68002B7CD01D682A6A69
:101DF000964272D1B1461E46FF230A939BE72846BE
:101E000011B0BDE8F04F0CF0CBBA002D48D0AB8D2F
:101E100053449BB2AB85A383BEF1000FB3D0AB6A32
:101E2000002B43D0DC60AC6211B0BDE8F08F08231A
:101E300095E7072393E700BF00CA9A3B0000000024
:101E400083DE1B4300CA9A3B2858002001E40000AF
:101E500059E30000F1E30000002D3BD0AB8D53446B
:101E60009BB2AB85A383DAE70E9304F071FA226983
:101E70000B9BA2F20C62D11804F06CFA00280E9BA6
:101E8000FFF694AE002D7FF47EAF38E700DE7DE7ED
:101E9000AB6AA342C6D1CAE500DE81E700DE82E775
:101EA000A4F81CA0BEF1000F3FF429AF00DEAB6A1E
:101EB000B8E700DE7DE700DE7EE700DEC1E500DE9C
:101EC00086E795B1AB8D53449BB2AB85A3835AE7AC
:101ED00000DE28E7A4F81CA0E8E700DEB1461E46B5
:101EE000FF230A9327E700DE80E7A4F81CA006E79B
:101EF0000CF0030213440933DB00CCF3400C23FA4B
:101F00000CF225E64FF4347298E620480E9302F066
:101F100093FB0E9B054610B30022017DC0E902220F
:101F200062F3C7110270A0F82CA0006100F1100646
:101F3000017542628262C0F820906C6249E6D9F86D
:101F40002C30B3B9C9F82C60A37E43F04003A376CC
:101F500033796FF38613337169E500DE56E694F941
:101F60001A30002BBFF6CBAEA37E43F04003A3761E
:101F7000C5E6B342E6D000DEE4E7CEF3C00E04F1DE
:101F8000220A78E500DEADE600DE8BE6245800206C
:101F90004FF6FF732DE9F04184688CB0A28C9A4211
:101FA00045D0054620460FF087F92B7D012B00F028
:101FB0003B81022B00F02D81002B00F00C8194F866
:101FC0004471002F40F029812B8ACDE90A77B4F8BB
:101FD0002E8094F937206BB3002AC0F2868100234B
:101FE000A4F87431AB7CA68D03F003030136012BFA
:101FF000B6B23AD0B4F87831002B00F01E81B3426B
:1020000040F2888100229B1B9BB2062BA4F87831FA
:10201000E28540F20F8194F937309342C0F27F811C
:10202000002325E020469DF827100DF0F9F80CB0AC
:10203000BDE8F081002AB8BF84F8B970AB7CA68DEA
:1020400003F003030136012BB6B20ED0B4F874319D
:10205000002BCFD0B34240F26E819B1BA4F87431A9
:10206000B4F87831002BCAD102E00023A4F878310B
:1020700094F83C20314663F3820284F83C202046E9
:102080000DF127020EF086FE7430CBD0B4F8723119
:102090002BB1B34240F219819B1BA4F87231B4F802
:1020A0006E312BB1B34240F207819B1BA4F86E3115
:1020B000E58D17B9A84500F0F6800135ADB294F86A
:1020C000B53013F0010123D1DDE90A030246002BEC
:1020D00040F0F980002800F0E88019461E46A28CE6
:1020E00024690090B4480832019105900121002034
:1020F000CDE9035702960694D2B203F0DFFF10F049
:10210000FD0F94D005F064F8844290D000DE8EE795
:1021100094F937206FF30003002A84F8B530C0F239
:10212000A78094F85800C0F3C00100F0070013F036
:102130009BFD94F85830024603F00703032B00F28E
:10214000A68003F1280C4FEACC0C5B102CFA03FCA0
:1021500094F85930BCF5A07F03F0070338BF4FF463
:10216000A07C032B00F29C8003F12801C9005B10C6
:1021700021FA03F3B3F5A07F38BF4FF4A073002614
:10218000E08B00F20930104460441844DFF82CC2A0
:102190000130A0FB0C0186A3D3E9002346F1000E19
:1021A0000CFB0E11013861F10001FEF769F963685B
:1021B000606083422ABF3146C11A1E1ADDE90A0354
:1021C0000246002B8BD150EA010C88D1002E6CD036
:1021D0001846194683E794F8723003F01803182B59
:1021E0007FF4EDAE218DB4F870218B1D9A42D2BFE1
:1021F0001346931F5B1AB4F86C11C8BF9BB2994287
:1022000000F0B580A4F86C31A4F86E31A4F8722106
:10221000D5E63D231F4684F84431394620460CB0AC
:10222000BDE8F0410CF0FCBF0023A4F87231A4F823
:102230006E31C4E601273B461AE7E28C42F2107188
:10224000052A8FBF40F2E2434FF4FA73013292B293
:1022500003FB02F2B4F8763101FB0323013BB3FB2D
:10226000F2F39BB2A4F87831002B7FF4C8AEFFE6FE
:1022700094F85900012100F0070013F0F7FC94F8DE
:102280005830024603F00703032B7FF65AAF94F849
:1022900059304FF4296C03F00703032B7FF664AF2A
:1022A0004FF429636BE73D4609E7002D48D0002134
:1022B00010460E460B4612E700232046A4F86E3166
:1022C0000EF0FAFDF4E60E4609E704F023FF01469E
:1022D000002838D00023A4F872311B23A28C03718C
:1022E000C280006804F0E6FED9E694F8B9308BB3FA
:1022F000013B84F8B93004F1C40630460EF05AFBB5
:1023000000283AD030460EF055FB002839D0002383
:10231000E38564E6082120460CF082FF87E6B8F1E9
:10232000000F14D1D4F8BC305A0813F0010336D191
:10233000C4F8BC2074E63E2120460CF071FF76E61E
:10234000002FB4D173E60123A4F87231A7E6134637
:1023500001278DE60AAA28460BA905F077F9DDE9E1
:102360000A231343C7D0237884F8B930C3E7B4F8FD
:10237000721100297FF423AE46E7FF200CF0E8FE3F
:10238000C0E70246D4E9170102F0BAF90028BED12D
:1023900094F83C301B0744BF238DE3851FE642F0D1
:1023A00000421F46C4F8BC20434661E6AFF30080FC
:1023B00000CA9A3B000000006DE7000000CA9A3B8B
:1023C0002DE9F04F87B0BDF84440B0F84071029459
:1023D000BDF84840CDE9043203940446B0F8043116
:1023E00090F858000191C0F3C00100F00700BDF85B
:1023F0004C601F44BDF840A0D4F8FC8013F034FCBE
:10240000E58CBFB2A7EB0609052D1FFA89F940F24A
:10241000F88040F2E24B15FB09F5ADB24FF0961390
:10242000E3619623BAF1050F238440F2E28094F829
:10243000582002F00702032A40F2C78094F859207E
:102440004FF4296302F00702032A00F2CF8002F161
:102450002801C900521021FA02F2B2F5A47F38BF58
:102460004FF4A472134400F29F30184400236C4AC6
:102470000130A0FB020143F1000302FB031166A33C
:10248000D3E90023013861F10001FDF7F9FF53465C
:1024900040F2E2420BFB05F502FB03FBA8EB05084B
:1024A000013D5D44B5FBFBF5B4F80411B4F84021DF
:1024B000638DF61B2E44606094F83700B6B20A4470
:1024C0000B443244ADB21E44C0090BFB0588A4F88E
:1024D0004021668500F09C800023226CC4F8C03047
:1024E000A36C40F2E24602FB013302FB1933A36402
:1024F00013F0B0FD074694F8B800C0F3420013F0A3
:10250000ABFD07444FF0FF30059B0BFB07F706FBC5
:1025100003F307F574272365424B07F23F27A3FB1C
:102520000737BF0C07FB05F5A36C4FEA5B022B4492
:10253000963A934228BF13460146C4E91123384B0B
:102540000135E5FB030134A3D3E900232764FDF73C
:1025500097FF354D049BABEB0707A5FB0335AD0A91
:1025600006FB05F5A8EB0008029B59462385039B53
:102570002046A4F87631A4F826A00EF037FC2B4BA9
:10258000218D5B44B3FBFBF3881D9AB29042A4F803
:10259000702104D2C1F57F41FA310A4492B2019B05
:1025A000A4F86C2113B10023A4F8783143463A46CD
:1025B000294620460CF0EAF894F8423143F0010332
:1025C00084F8423107B0BDE8F08F02F12803DB0048
:1025D0005210D34094F85920B3F5A47F02F00702BB
:1025E00038BF4FF4A473032A7FF631AF4FF429624A
:1025F00038E70AF1010340F2DD204FF4FA729BB292
:1026000048E7013515FB09F54FF4FA7BADB205E754
:10261000049D5F460135A7E700CA9A3B0000000011
:1026200000CA9A3B83DE1B435917B7D17FC3C90148
:102630002DE9F04F04460B68D0F8220095B0D3F88E
:1026400000A094F82070E38C1290487CADF84C30D8
:10265000FF28C7F380138846154616680C908DF83E
:102660003F3040F0018299461A4612AB93E80300CE
:102670000DF1400B1090ADF84410D4F800C0FF09E4
:102680000AF187015B4638460A91CDF82CC00CF060
:10269000AFFC0A99002840F0CF8196F880310A906B
:1026A00069F3C71367F3861386F880311098BBF877
:1026B0000430C6F88701A6F88B31DAF8873005F1C7
:1026C0002200C6F881318B88A6F88531618E94F896
:1026D00034302981AB72D4F82E3005216B60D4F8E8
:1026E0003E30C5F8223094F8423085F8263002F0AA
:1026F00091F995F8273000F03F0060F3050385F865
:10270000273094F843300128C3F3040185F82810DA
:10271000218F03F01F03E98289B240F28D811B33C0
:1027200003F01F030B2B00F2878140F67A43063932
:1027300089B299420A9A00F27F8140F2E243D8F8C6
:1027400000104A60628FE98A2A83E08EDAF8382026
:1027500003FB01F70A90002A00F0EF8140F6C41253
:1027600040F6A6639AF819107F2988BF1A460D9281
:10277000002130460EF04EFB94F8433096F8B82016
:102780005B0963F3430286F8B82013F063FC8146CB
:1027900096F8B800C0F3420013F05EFC40F2E2424B
:1027A000484407FB00F0CC4B00F5742000F23F20BA
:1027B000A3FB00307B08800C963B28636B6394F886
:1027C0003530394602FB03F36B64A38F3046A6F81D
:1027D00076310EF00BFBC14BC14A3B44B3FBF7F320
:1027E000C6F87C219AB2A6F87021298B881D8242F6
:1027F00004DDC1F57F41FA310A4492B2A6F86C219A
:102800006B68C6F8BC30DAF83830002B00F09081E5
:102810004FF00109E20700F198814FF4807323849F
:102820009AF81B0012F0BCFD04F12F03002800F001
:102830003581A26AC4F82F20A28D9A800C9BFF2BB1
:1028400000F07D81BDF84C301298A4F82D30C4F80A
:102850002900BBF804301098A4F827309DF83F30C9
:10286000C4F8230084F82230EB8A3046E3862B8BB1
:102870002387B6F87631638796F8B830C3F34203FE
:1028800084F83C300CF054F83F2203462146AB82DA
:102890000B98E38085F8A720D8F804B004F0F8FB83
:1028A0001C23AA8ADBF80040ABF806208BF8043022
:1028B000B9F1000F40F0F6808BF8209008F03AFF55
:1028C000002840F017815946204604F0F3FB95F8A4
:1028D000483003F00703032B00F2DD8003F1280BDF
:1028E0004FEACB0B5B102BFA03FBBBF5A47F38BF81
:1028F0004FF4A47B95F8490000F00700032800F28C
:10290000C78000F128094FEAC909431029FA03F9E1
:10291000B9F5A47F38BF4FF4A479012113F0A6F9CB
:1029200009EB0B0E4FF000094FF0961300F29F31A8
:10293000DFF8B0C1714401310446A1FB0C0149F13B
:10294000000E0CFB0E110138C5E9033360A3D3E977
:10295000002361F10001FDF793FD40F2E241706058
:10296000D8F80C300A982A6B01FB0033113B9B1AF4
:10297000BD1A0D9A0221134401204A461C1B01F086
:10298000F9FEDAF83830ABB11F6838460AF07AF849
:102990000246033248460121534B0097D2B203F05E
:1029A000EFFB012800F0DA8097F846306FF3000360
:1029B00087F84630504609F023FA0246CDF804A0C5
:1029C000D8F808304849A3F64F130232009100208E
:1029D00001212344D2B203F015FC012800F0B78096
:1029E0009AF81830DB0768D430460BF0A1FF4FF49B
:1029F000F8720696D8F80830089200F10802002014
:102A00003A49A3F64F1307913949D2B2059171683B
:102A1000CDE90200049101950121009403F0B2FA7E
:102A200010F0FD0F40F0A18001220221104601F0BC
:102A3000A1FE15B0BDE8F08F00220126CAF80820DB
:102A400095F82C30214662F3000385F82C30E568B8
:102A50000B98267104F01CFB294628682E7104F09F
:102A600029FB15B0BDE8F08F0DF1400B5A460DF172
:102A70003F0111F0A7FE9DF83F9094F8207009F1F6
:102A800002095FFA89F98DF83F9009F00102F4E537
:102A90004FF4296941E74FF4296B2BE7C4F82F0065
:102AA0009880CBE695F82730281D43F0400385F841
:102AB000273011F07BFC2885FEE600230122184612
:102AC0001146009303F05CFB8EE700BFAFF300807C
:102AD00000CA9A3B0000000083DE1B437FC3C9018C
:102AE000404B4C0000CA9A3BDD3901002D390100F2
:102AF000553901005946204604F0CAFADAF834B0D4
:102B00005046DBF8004009F07BF910F0FF000DD1D2
:102B100000231222ABF806008BF804208BF8083053
:102B2000AA8A8BF80930ABF80A20CCE600DEEFE782
:102B300094F82030C3F340196CE60D9318E6002298
:102B4000C4F82920A4F82D2083E600DE65E604F011
:102B50003FFB82453FF444AF00DE41E704F038FB21
:102B600087423FF421AF00DE1EE700DE5CE700BFD6
:102B70002DE9F04F04468DB0BDF868500020059552
:102B80001646CDE906419DF85C90BDF860A0BDF801
:102B900064B09DF86C5003930BF090FB002800F09C
:102BA0009F8009F001080446404603F067FC04904A
:102BB000B8F1000F05D0062101F07EFD002800F0DD
:102BC0009880DDE903214046169B0CF011FA00289D
:102BD00040F0828001200BF071FB074600287FD077
:102BE0006B0740F181804369002B00F0848007F17E
:102BF000100494F8343065F3020384F834306368C9
:102C0000002B00F08D806368039A1D6802F0010AB2
:102C100093F848000493C0F3C00100F0070013F0DC
:102C200023F894F83420049B02F00702032A68D8A2
:102C300002F12801C900521021FA02F2B2F5A47F74
:102C400038BF4FF4A4725200DB8900F209301844F7
:102C500000231044B64A0130A0FB020143F10003F7
:102C600002FB0311B0A3D3E90023013861F1000195
:102C7000FDF706FC6860304612F0FCF8A38E03F006
:102C8000BF0363F0FF03A386002E3DD0A9F102032A
:102C9000012B40F23181DDE9062397F86210059897
:102CA00069F3830187F8621094F834106AF34511D0
:102CB00084F8341016990968A16016998988A08251
:102CC000A181204600210096FEF74AFD0346002020
:102CD000BB650DB0BDE8F08F0B200DB0BDE8F08FE7
:102CE0000C200DB0BDE8F08F63693BB1274610346E
:102CF0007FE71220F1E76369436178E74369636125
:102D0000F4E74FF4A9529FE712F04AFC0028BDD027
:102D100032460398169912F01FFA84F83500B5E789
:102D200004F09EF90890002800F0F8800BF0F4FD04
:102D30000546002800F0EF80143001F081FE05F117
:102D40001003002840F0EC80032105F118000993DE
:102D500012F074FE4FF6FF72E86E099BA5F828B0DA
:102D6000A5F826A0AA84002800F0D18005F15C0116
:102D700005F16002099301F0ABFC43F67F724FF05E
:102D8000000BA5F8B620B5F85820C5F86CB022F4B1
:102D9000EF6222F0070242F48C7242F00102A5F8C1
:102DA000582095F87220A5F870B022F0070285F837
:102DB0007220A5F82AB0C5F82EB005F1320011F046
:102DC0009FFA95F83720012160F3050285F8372036
:102DD0000DF12F0012F032FE40F2E242062102FB1A
:102DE0000AFA544A9DF82F005244B2FBFAF2A5F8B1
:102DF00074115149059BA1FB00C1C90801EB4101B8
:102E0000A0EB810095F83710053001F03F0185F8FF
:102E1000371095F83C1085F83800288D21F007010F
:102E200085F83C1000F1060C91B26145A5F87631A9
:102E300085F839B0099BA5F840B1A5F878B1A5F897
:102E400072B1A5F86EB1A5F8701102DD0639091A44
:102E500089B24FF0000B2846A5F86C1109930DF0CC
:102E60005DFF514628460DF0C1FF089B85F844B12F
:102E7000C5F84831039B03F0010A0CF0ADF895F852
:102E8000802160F3020285F880210CF0ABF895F800
:102E9000802160F3C50285F8802195F8422105F173
:102EA000C4006BF3410285F842210DF041FD4FF063
:102EB000961195F88021C5E90711169B6AF3C71290
:102EC00085F880211968D2B2C5F88711998869F30D
:102ED0008612049B85F88021A5F88B111A68C5F825
:102EE00081219A88099BA5F885216360C5E902BB09
:102EF00085F800B02D618BE6002011F0DFFF94F81B
:102F00003430C14643F0400384F83430C3E605F161
:102F10006400E8662AE7089804F0A8F80720DCE6D1
:102F200000DE11E7AFF3008000CA9A3B000000000A
:102F300000CA9A3B7FC3C901ABAAAAAA000000003D
:102F4000032838B50D4610D00838C3B20F2B11D85E
:102F500080B20BF0F5FC044660B190F93730002BDD
:102F60000BDA40682860204638BD002009F06AFE70
:102F70000446F8B90024204638BD90F85800C0F344
:102F8000C00100F0070012F06FFE002300F5C550ED
:102F9000174A1F300130A0FB020143F1000302FB7E
:102FA000031111A3D3E90023013861F10001FDF7FA
:102FB00067FAD7E7FF22114609F04CFE00230C4ABE
:102FC0000130A0FB020143F1000302FB031106A341
:102FD000D3E90023013861F10001FDF751FA2860BF
:102FE000204638BDAFF3008000CA9A3B00000000C5
:102FF00000CA9A3B03488368DB6903B118476FF046
:1030000057007047A8100200024883689B6903B10B
:1030100018477047A810020010B4034606480A4635
:1030200081680C691CB11946234610BC18476FF023
:10303000570010BC704700BFA810020010B50F4C1D
:1030400020461DF0A0FAA8B1A3685B6A0BB1204628
:103050009847FFF7D9FFA3682BB11B6C1BB1002267
:10306000074906489847A3681B6A0BB1034898476D
:10307000002010BD6FF01500FBE700BFA810020094
:10308000853000002DE9F04F804E8FB0B368804F3F
:103090000393039BDB6B002B40F0EA80B468A36BC7
:1030A000002B40F0ED80E36A23B13046984708B921
:1030B000FFF7A0FFFFF79EFF50B13B68B3B90022B6
:1030C000002374481BF066F8386078B9FFF79CFF5E
:1030D000B368DB6A13BBDFF8C081704D98F800302D
:1030E000032BD6D8DFE803F01F3395B63B68D968C9
:1030F0001A8AB368DB6873B130469847014638686E
:103100000C301CF057FE3868048A002CE0D101F026
:103110001DF93C60DCE76FF05701F0E73046984757
:103120000028B6D0D7E75E4C01212046FFF774FF98
:103130000028AED02078431E012B01D90528CDD11F
:103140001CF0BFFA0123286088F80030C6E7DFF8DA
:1031500050A1DFF850919AF800001CF0B2FA2968EB
:10316000401A4844FFF758FF2B6804461B1A2B608F
:10317000002B6BD19AF80000421E042A16D8DFE813
:1031800002F00417150313000220CDE900330022DA
:10319000002301F0A9F9DFF810B10346CBF80000D5
:1031A00040B988F8000074E71020EEE70020ECE753
:1031B0000420EAE79AF80000022823D005281CD052
:1031C000012822D199F802202A601CF07AFA3549A8
:1031D000024603F10C001CF0DCFDDBF800000C30B3
:1031E0001CF000FE2B68984211D2DBF8000001F0C1
:1031F000ADF8032388F8003028E0B9F80220C2F3C4
:103200000D02E1E7B9F80220DEE70022DCE7022345
:10321000F0E7DFF894902968D9F800301A8AD86866
:103220001044FFF7F9FED9F8001004460B8A034456
:103230000B822B68A3EB0009C5F80090B9F1000FD1
:1032400004D11A481DF0ACFA88F80090002C7FF4E5
:1032500045AF1EE7296805A8212928BF2121FFF7CE
:10326000DBFE2B6804461B1A2B60002BEED1C1E756
:103270003046984700287FF411AF0FB0BDE8F08FBB
:103280003046984700287FF40EAFF6E7A8100200FA
:1032900068210020E8030020DF8000206421002056
:1032A000DE800020DA80002060210020D003002092
:1032B00038B5094D4FF0FF324FF0FF3328461AF072
:1032C00069FF044601F048F910B1204601F03EF8CC
:1032D0001BF08CFBEEE700BFD003002070B5184850
:1032E00088B001F045F900220023CDE90623002330
:1032F0006FF00802CDE90133CDE9032300934FF4C9
:103300008062104B104911481BF0C6F910490F4854
:103310001DF015FB0A4D0F4E0F4C4FF0FF324FF0D2
:10332000FF3328461AF036FF014630461DF038FAC2
:10333000A3685B69002BF0D020469847EDE700BFFB
:10334000B8030020B132000028810020880400204A
:1033500010230200E8030020A8100200014B1B68A4
:10336000184700BFA000002030B585B004460D46C8
:103370001022002168461DF08BFD02238DF80230DB
:10338000044B2A462146684601931BF03FFF05B0D7
:1033900030BD00BF5D33000080B505460E461746C0
:1033A00098461BF0C7FB03461DF0ECFD0446DFF812
:1033B0001890424649F8003039463046A84754F83C
:1033C000090000F0B7FB00BF080000002DE9F0473E
:1033D000058B04462807904611D4022905F00705FD
:1033E00040F0CC8020461CF018FB78B10138218BCE
:1033F000042811D8DFE800F0C2106D85950001297E
:103400000CBF45F0100545F02005258388F3118891
:10341000BFF36F8FBDE8F08701F0070AAA4500F0FF
:10342000A5800027B9463E46A368002B00F0BC806B
:1034300041F00801218388F31188BFF36F8FA168E1
:10344000002900F0BA800D68002900F0B6803346EC
:1034500052462046D1F80480C047002D76D02B6814
:1034600029461D46F0E701F007035A1F012A1BD821
:10347000002221F00701062B276889B2C4E9002247
:1034800009D13B4603E0628B013262831B68002B4B
:10349000F9D141F00201204621831CF0BEFA002838
:1034A0007AD041F0200176E0042B0AD121F0070107
:1034B00089B2204621831CF0B0FA10B141F02001FE
:1034C0002183218B01F0070AAA454FD00027B94676
:1034D000AAE7236921F0070141F00601062DD3F880
:1034E000009021832DD1B9F1000F3FD041F00801A8
:1034F000218388F31188BFF36F8F20463949C8476D
:1035000029E021F00701236941F0040189B2042D6B
:10351000D3F804902183E6D000274FF0040A3E46FA
:1035200082E721F00701236941F0050189B2052DE9
:10353000D3F808902183D6D000274FF0050A3E46E5
:1035400072E700274FF0060A3E466DE72B4687E7F5
:10355000B9F1000FD1D1EFF31188202383F3128842
:10356000BFF36F8F238B23F008032383258BEA0699
:103570002ED525F01003238305F007056669218BFE
:10358000002EBFF670AF00232768C4E9003321F096
:10359000070141F001012183218B4FF0000901F067
:1035A000070AAA457FF440AF002F9CD041F00801E4
:1035B000218388F31188BFF36F8F002FC8D03D6837
:1035C00039463346524620461CF053FA2F46F4E75C
:1035D000AB067FF51BAF25F02003238305F007051D
:1035E00000E700BF9FFA0100014B03600020704715
:1035F000481A020008B50348034A0021121A1CF0B9
:1036000032FB08BD8804002024810020074808B54B
:10361000074A0849121A1CF028FBBDE80840064872
:10362000064A0749121A1CF020BB00BF0000002008
:1036300084040020802802000000002000000020F8
:103640008028020038B505460C4699B1D1E901231E
:103650000F4809681CF0ACF9D4E90423E1680D486F
:103660001CF0A6F9E1690C481CF0A2F9A1690B480D
:103670001CF09EF9012D05D1EFF3058108481039A2
:103680001CF096F921462846BDE838401AF046BCA1
:103690001C2302004C2302007C2302008C23020026
:1036A000BB23020030BFFFF7FDBF00BF2DE9F04193
:1036B00005460B4EDFF82C80324606EB0807CC1B84
:1036C000204609491DF0BDFBA01942460021083CD7
:1036D0001DF0DEFB6C6707F10800BDE8F08100BF5C
:1036E0000000000004000000F8190200054B5A69B0
:1036F0009B689A421FBF044A536843F0805353604B
:10370000704700BF9C80002000ED00E010B5204C09
:1037100020481CF04DF9A36A990137D51E481CF0CA
:1037200047F91E20A36ADA0103D51C481CF040F9B2
:103730001F20174CA36ADB0203D519481CF038F987
:103740000220A36A1C0303D516481CF031F921207E
:103750000F4CA36A590303D513481CF029F9222002
:10376000A36A9A0303D511481CF022F92320084CC0
:10377000A36ADB0303D50E481CF01AF92420A36AC0
:103780006FEA03436FEA1343A36210BD1D20C9E72C
:1037900000ED00E0CF230200E8230200FC2302003A
:1037A0001724020042240200612402008724020040
:1037B000A224020070B5244C064624480D461CF095
:1037C000F7F8A36AD90435D521481CF0F1F8172081
:1037D000A36A1A0503D51F481CF0EAF818201A4CF2
:1037E000A36A9B050FD51C481CF0E2F8A16BA36AE5
:1037F000180407D519481CF0DBF81EB1A36A23F49E
:103800000043A3621920104CA36A590503D514483C
:103810001CF0CEF81A20A36ADA050DD511481CF069
:10382000C7F81B20084A936A43F47F43936200233E
:103830002B7070BD1620CBE7A36A9B04F2D50A4813
:103840001CF0B6F81C20EDE700ED00E0CE240200ED
:10385000E5240200F72402000B25020025250200C2
:103860003B250200572502007025020070B5264C4A
:10387000064626480D461CF09BF8A36AD80640D59C
:1038800023481CF095F81120A36A190703D5214895
:103890001CF08EF812201C4CA36A9A070FD51E4804
:1038A0001CF086F8616BA36A1B0607D51B481CF049
:1038B0007FF81EB1A36A23F08003A3621320124C89
:1038C000A36ADE0703D516481CF072F81420A36A19
:1038D0009C0603D513481CF06BF815200A4B9A6A16
:1038E000D10658BF9A6A9A6A920642BF5A6A22F46F
:1038F00000525A629A6A42F0FF029A6200232B70C9
:1039000070BD1020C0E700BF00ED00E0A025020060
:10391000B7250200F7240200EB250200042602006E
:103920001B260200702502002DE9F0415B4B044686
:103930005F6800258AB0C7F3080685F31188BFF3D6
:103940006F8F02F07F43B3F17F4F06D102F00C037B
:10395000082B13D152481CF02BF800252C464FF0B1
:103960000008F31E8DF80780092B00F28580DFE840
:1039700003F00A797D7583838383838110074CBFAD
:103980000C460125EBE74748444E1CF011F88DF832
:103990000780F36A9A0704D543481CF009F800230E
:1039A0002FE0F36A002B01DA4048F6E7F36A5B0088
:1039B000F5D53F481BF0FCFF7369A26943F480739F
:1039C0007361BFF34F8FBFF36F8F736932F8022CAF
:1039D00023F480737361BFF34F8FBFF36F8F4DF686
:1039E00002739A4208D0B36ADBB24BB301200DF1E7
:1039F0000701FFF73BFF33E021682E481BF0D8FF9B
:103A000023689DF80720C2B902AE04F120073246B0
:103A100020686168083403C2BC421646F7D1099A8F
:103A2000B5B3C2F3080121B96FEA52226FEA42220C
:103A30000992184602A9FFF705FE0AB0BDE8F08119
:103A4000B36A13F47F4F05D001200DF10701FFF792
:103A5000B1FE05E0B36AB3F5803FA0D3FFF756FE91
:103A60000346CEE700200DF10701C2E700200DF16B
:103A70000701ECE7104890E7104B17F4F87F104966
:103A8000104818BF1946A6F110021BF091FF86E7F7
:103A900022F4FF7222F00102CAE700BF00ED00E04D
:103AA0006926020095260200AD260200CF260200FC
:103AB000DE260200FE2602001B270200502602001E
:103AC0003B26020040270200064B5A6942F01002D2
:103AD0005A615A6942F480625A615A6922F00802B6
:103AE0005A61704700ED00E0EFF30880EFF30981C1
:103AF00001B57246FFF718FF01BD00BF0B4880F308
:103B0000088819F015F8202080F3118808484FF430
:103B10000061401880F30988EFF314800221084304
:103B200080F31488BFF36F8F00F0B0F8E8950020A1
:103B3000A8880020084B9B6883420BD1EFF30583D4
:103B400043B1064B5A6842F080525A605A6A22F4D6
:103B500000425A621AF0F4BF9C80002000ED00E0A1
:103B600014498A684FF030001044EFF3098C80E864
:103B7000F01F202080F31288BFF36F8F0E4F4FF09D
:103B800000664A698A603E60506F0C4C2060906FFE
:103B90000023936780F3118802F1300090E8F01F52
:103BA0008CF3098802F1000004B51CF06FF8BDE841
:103BB000044070479C80002004ED00E06C21002050
:103BC0001EF0040F0CBFEFF30880EFF3098081694A
:103BD00011F8021C0229FFD001B572461CF047F80B
:103BE00001BD00BF00B2002807DB01234109034AE1
:103BF00000F01F00834042F82130704700E100E0F0
:103C000000B200280CDB01220649430900F01F0026
:103C10008240203341F82320BFF34F8FBFF36F8FD3
:103C2000704700BF00E100E0054B420953F8222035
:103C3000012300F01F0003FA00F01040704700BF9E
:103C400000E100E000B2002801F10101ACBF00F189
:103C50006040064B4FEA4111C9B2ABBF00F561406D
:103C600000F00F0080F800131954704714ED00E0C5
:103C7000044B054A23F07F039360BFF34F8FBFF3DC
:103C80006F8F70470000000000ED00E008B5FFF7FF
:103C9000EFFF0B4AD2F8883023F47003C2F8883063
:103CA000EFF3148323F0040383F31488BFF36F8FBF
:103CB000FFF7A0FCFFF7AAFC00F046F81AF0F2F9B3
:103CC00000ED00E042F8203C009B0B4942F81C3C10
:103CD000019B21F0010142F8183C029B42F8081CAC
:103CE00042F8143C4FF0807342F8043C0023203A21
:103CF00002658367704700BF9933000000B50D4B24
:103D000015469860426F0C4B0E461A60436E83F363
:103D10000B882C4686F309880020044B98472046E0
:103D2000002100220023024C204700009BFC0100E0
:103D3000993300009C8000206C2100201022014B50
:103D40001A61704700ED00E00023202040F20F12BE
:103D500010B5044CE1180133934281F80003F9D106
:103D600010BD00BF00E100E008B5EFF30583064A8F
:103D7000103B02EBC30152F8330049688847BDE8A5
:103D80000840FFF7B3BC00BFE81002001FB5094CA4
:103D9000094A23460121094800F0FAF80023039359
:103DA000074B0121E41A01A80193029400F0FAF8EC
:103DB00004B010BD00F0022000000020481A0200EC
:103DC0008804002010B50C7A0B6804F01F0223F061
:103DD0001F031A43CB68640923F01F03054943EA14
:103DE000440343F00103C1F89800C1F89C20C1F8D6
:103DF000A03010BD00ED00E010B5074BD3F89030B7
:103E0000C3F30723013B984202D8FFF7DBFF10BD45
:103E10006FF01500FBE700BF00ED00E02DE9F04F6B
:103E20000F46144606464FF000084D4D85B0B84584
:103E300080F29280D6F80490B9F1000F36D0B9F133
:103E40001F0F40F2878019F01F0F40F08380D6F8D3
:103E500000A01AF01F0F7DD150461BF041FF834692
:103E600009EB0A0001381BF03BFF834572D11BF1BF
:103E7000160F6FD05C456DDDC5F898B0D5F89C1075
:103E8000C5F898B0D5F8A03021F01F0143F01F0A03
:103E9000D6E900321A44994202F1FF391ED1CA45CF
:103EA00008D131465FFA8BF01BF023FF08F10108BF
:103EB0000C36BCE73146C5F898B0D5F89C3022F0F6
:103EC0001F0203F01F031343C5F89C30E0B21BF040
:103ED00010FF10F1160F3DD0441CE7E7C5F898B06D
:103EE000D5F8A020013B23F01F0302F01F0213436B
:103EF000CA453146E0B2C5F8A030E8D01BF0F9FE63
:103F000010F1160F26D0C5F898B0D5F89C209DF872
:103F100008300AF1FF3A62F304038DF80830D5F84F
:103F2000A0309DF808205B0863F347128DF8082045
:103F3000D6E900321344009323F01F035344A3EB4C
:103F40000903013023F01F036946C0B20393FFF752
:103F500053FFBEE76FF01504204605B0BDE8F08FB3
:103F600000ED00E00522044BC3F89420BFF34F8F0F
:103F7000BFF36F8F704700BF00ED00E0BFF35F8FAE
:103F80000022024BC3F89420704700BF00ED00E010
:103F900010B5034C2278FFF741FF207010BD00BF21
:103FA000E08000202DE9F74F294D8A4606464FF064
:103FB0000008AB46274FD0451BDAD6F80490B9F17C
:103FC000000F3FD03168084601911BF089FE01992E
:103FD000044609EB010001381BF082FE84424FF0D9
:103FE00014021D4B08D002FB08F36FF015024BF8CA
:103FF000032003B0BDE8F08F14F1160F2C60F8D049
:104000001978A142F5DD02FB08B0C7F89840C7F85F
:104010009840D7F89C4000F10801007B64F304004D
:104020000871D7F8A0000C79400860F347140C71B0
:10403000D7F89C1021F01F016960D7F8A01021F07B
:104040001F01296108F1010814350C36B3E700BFE0
:104050007021002000ED00E0E0800020F0B54B4929
:104060004B4CD1F890302568C3F307239D4287B0AD
:1040700000F288800020FFF781FF464BC1F8C03076
:10408000854216D1444C01A82570FFF7ADFA0025F2
:104090000646424FAE4213D1002023783B49D1F867
:1040A0009020C2F30722934266DBFFF75BFF0020FC
:1040B00042E0616801EB0011FFF784FE0130DFE7A9
:1040C0000199280101EB0513DA683A40B2F5800F37
:1040D00041D007D8B2F5801F14D0B2F5001F2DD003
:1040E0000135D7E7B2F1006FFAD15A689B680958D9
:1040F000013B22F01F0003444FF0030C012023F08A
:104100001F030AE05A689B680958013B22F01F0010
:1041100003440120844623F01F0340EA4C10CDE9FC
:1041200002218DF8100002A920780593FFF764FEA4
:1041300000281DDA6FF0150007B0F0BD5A689B68C3
:104140000958013B22F01F0003444FF0020C0120EC
:1041500023F01F03E1E75A689B680958013B22F0EE
:104160001F0003444FF0000C062023F01F03D4E788
:10417000237801332370B3E7C1F89830C1F8A00069
:1041800001338CE74FF0FF30D6E700BF00ED00E0D1
:10419000541A0200AAFF4400E08000200000F0FF53
:1041A00008B50649064821F00701C1F1005202F5A1
:1041B0003C321BF0BEFB002008BD00BF2FA1002039
:1041C0008421002070B541690446867A0A4D59B1B0
:1041D000437ADB0706D42C2303FB06535B6A1B6878
:1041E0009B689847002363612C20214606FB005002
:1041F000BDE870401CF0DFBA000400202C22024B06
:1042000002FB0030704700BF000400202C21827A9E
:10421000054B01FB02339A6A1B7F801A1B3323F084
:104220000303B0FBF3F070470004002038B52C24E2
:10423000827A064B04FB02335B6AD3E901240C60EB
:104240001568FFF7E3FF04FB005038BD00040020B1
:104250002DE9F04385B00546684690461C4603911B
:104260001CF08EFCDDE90067EFF31189202383F356
:104270001288BFF36F8F6B8B002B41D02A8B9A4231
:1042800025D900220023284619F084FF0446F0B106
:1042900089F31188BFF36F8F039B002B41D0324607
:1042A0003B4668461CF091FC2C21A27A254B204607
:1042B00001FB02335B6A03A91B681D68DDE900236B
:1042C000A847606170BB2046FFF77CFF24E0698B44
:1042D0004B1E6B8389F31188BFF36F8F2B7F2A8B63
:1042E000AC6A1B3323F00303521A02FB0344154B41
:1042F000154AEB1A9B105343A3722B7FE372CBE753
:1043000089F31188BFF36F8F23464246284619F080
:1043100041FF04460028BFD10024204605B0BDE877
:10432000F0836361012300252381039B2946638277
:10433000E27A656004F118001CF0AAFD6369258229
:10434000E360EAE700040020A38B2EBA70B52C25A9
:104350000C4C00B970BD037A4668002BFAD0013BC3
:10436000DBB20372002BF5D1C3604360837A05FB97
:1043700003431B6A13B198473046EAE7FFF722FF71
:10438000FAE700BF0004002008B5234A234B1A6057
:1043900017F046FE4FF47A612148D0F82436C3F373
:1043A0000802C3F309434B4382F480721D498832EB
:1043B00001FB02334FF4FA215B00B3FBF1F201FB86
:1043C00012331949B3F57A3F28BF0132C1F80429E5
:1043D000D0F820364FF47A60C3F30802C3F30943E0
:1043E000434342F21C5082F4807202F2172200FB17
:1043F00002334FF47A701B0AB3FBF0F200FB123366
:10440000B3F5FA7F4FF0010328BF0132C1F81C2732
:10441000C1F80036002008BD0020A1078803002055
:1044200000C0FF00F82A00800000125048B1054B80
:10443000054A1B68B3FBF2F35843044B43F00103F6
:10444000184770478803002040420F00301A0200CE
:1044500070B50446807AFFF7D1FE6169054649B11F
:10446000637ADB0704D4436A20461B689B6898473D
:1044700000236361214628461CF09DF9034B1B680D
:104480001BB1BDE870402A20184770BD9021002064
:1044900008B5034B18681CF083F9002008BD00BF65
:1044A00094210020811EC9B21E2938B5044609D8BE
:1044B0000A4820FA01F1C90704D509481BF033FC6A
:1044C000054610B90025284638BD064B013CE4B22C
:1044D000195D0C301BF066FCF5E700BF41000040A1
:1044E000580400206A270200F8B501280446DDE9D7
:1044F000067609D0042804D114481BF014FC0546A4
:1045000020B900252846F8BD1148F6E7013CE4B281
:104510001F2C96BF0F4B0021195D00F10C042046A3
:104520001BF040FC002FEDD0002EEBD020461BF0FE
:1045300059FC864203D92846FFF708FFE1E73246D7
:10454000394620461BF025FCDCE700BF00040020B4
:104550002C0400206A270200038A014623B1034B82
:10456000186883689B68184712207047A4000020D1
:1045700010B5084B084C186020681CF004F830B1E6
:10458000206806498368BDE810401B6818476FF033
:10459000120010BD94210020A400002091440000CE
:1045A00070B54FF0FF320D464FF0FF330021064645
:1045B0001BF068FC044660B91A230A4A0A490B48F2
:1045C0001BF003FA84F31188BFF36F8F032318469F
:1045D00002DF022104F10C001BF0D5FB06704570D0
:1045E000204670BD8A270200C0270200C4270200AF
:1045F00010B54FF0000E00F1070C541E2CF0030C08
:104600001860A4B2ACF80020023A93B201FB04F2A5
:1046100040F802E074B14FF6FF7C03FB011403FB8A
:1046200001F22044121B013B9BB263458050A0EB7A
:104630000100F8D110BD00BF0346006810B1026848
:104640000AB91A607047C11D21F00301B1F800C01A
:10465000D11D21F003010CF1FF3CA1F800C0F0E7EF
:104660000B687BB1073323F003031A88013292B23F
:104670000346D1F800C043F807CB23F003031A80A8
:10468000086070470122F3E702FB0100704700BF9A
:10469000401A90FBF2F080B2704700BF531E1144E5
:1046A0009BB242B1DB430138CA1811F8013D914277
:1046B00000F8013FF9D17047014402E010F8013BD6
:1046C0001BB98842FAD1002070470120704700BF13
:1046D00010600860704700BF0A6803460068904297
:1046E00009BF002200200A601A607047D2F800C09B
:1046F000CCF80000D2F800C0CCF80410106070476D
:10470000884203D01AB14368136070470020704795
:104710000B68834209D02AB1586810601A680A6091
:1047200018467047002BF9D1FAE70023F8E700BFDD
:104730002DE9F0414FF00C080C4F0D4E3D4606F1AF
:10474000300421462846221D0C3CFFF7C1FFA6423B
:10475000A5F10805F5D1A8F1040818F1040FA7F197
:104760002007A6F13006E9D1BDE8F081142200202F
:10477000A022002003468C4610B49AB101EB4101FF
:10478000144803EB4304090101EB84010144487A16
:104790000C7AA04204BF0130087210BC6146184672
:1047A00017F0CCBA01EB41020A4C120100EB4003B6
:1047B00002EB830323449C7ADA7AA24201D010BC34
:1047C000704701329A720122034B5A5410BC17F001
:1047D000E5BA00BF1C22002098210020F8B506464B
:1047E0001C460D4602B322786378D21A12F00302F7
:1047F0003BD1274F71004FEA450C3144AC4489004E
:1048000001EB0C1101330431DBB27A1860682146E8
:104810002370FFF76BFF01221E4B294630465A5585
:1048200017F0BCFA0020F8BD17F0A2FA0028DAD081
:104830002946304617F08EFA0028D4D005EB450201
:1048400006EB4601124F120102EB81023A44907AC4
:10485000D27A637890424FEA46014FEA450C0CD079
:104860002078C01A10F00302C7D0012A03D0013308
:10487000DBB22370CFE71046F8BD2278D21A920738
:1048800002D00233DBB22370D4E902039847C9E7B0
:104890001C220020982100202DE9F04FDFF86C91B8
:1048A00089B019F80030002B5CD04FF0000B3C228F
:1048B00004230324CDE904BB09F800B0834612FBAE
:1048C0000033DFF84CA100EB40070AEB0717039316
:1048D0000294B846002358F8240FB96A07AA079330
:1048E000FFF70EFF44460546CDB1079E96F80080BF
:1048F0007278A8EB020808F00308B8F1010F34D071
:1049000031788A1A02F00302012ACBB23CD1D7E9EE
:10491000090107AAFFF7F4FE0546002DE5D197F837
:104920002E3097F82F209A4203D087F82F3001239A
:10493000049397F82C3097F82D209A4203D087F8EB
:104940002D3001230593029B0C3F5D1EEBB2FF2B24
:104950000293BED1049AD846DDF814B012B1BBF16F
:10496000000F47D009B0BDE8F08F013A7270079A86
:10497000D2E902029047079E32787178D3B2521A78
:1049800002F00302012A23D000222146B86A0193D3
:10499000FFF7BEFE7560019B717873703278521A12
:1049A00002F00302012A0AD0D7E9090107AAFFF79A
:1049B000A7FEB8F1010F054696D104460EE0039B11
:1049C0007170284631460AEB0302FFF78FFEEBE7D2
:1049D00007AAD7E90901FFF793FE0446029B8BB1B2
:1049E00001235946584609F80B3017F0D7F909B09A
:1049F000BDE8F08F5A464146404609B0BDE8F04F49
:104A000017F09CB9002C8AD0EAE700BF982100205B
:104A10001C2200204B1E8446DBB271B100200CF139
:104A2000FF319C4411F8013F23B15A1E013013405D
:104A3000C0B2FAD16145F5D170470846704700BF52
:104A40002DE9F04F03260125074683B0042138469F
:104A500010F0F4FF00201F23D7F800C04FF001082A
:104A6000834682462CFA03F408E01C2B40F27E8138
:104A700019294AD04FF0010808461446013BDBB221
:104A8000FF2B49D02CFA03F202F0010294420CD021
:104A9000411C0E2BC9B270D9002AE6D01C2B40F263
:104AA0006281192931D09046E6E708F1010E072B03
:104AB0005FFA8EFE10D9BEF1060F00F24981002A7E
:104AC00040F03781BEF1060F00F005811C2B40F24B
:104AD000FA800146F046CFE7002A40F00181BEF19E
:104AE000060F40F2EB80012290469A404CEA020CFD
:104AF000D14642460BF1010B01305FFA8BFBC1B28C
:104B0000CA4500F091801929B6D1013305FA03F3A3
:104B10004AB35B420CEA030C0022A04B01A88CEACA
:104B2000030302AC019310F8013B23B1591E01327B
:104B30000B40D2B2FAD1A042F5D1012A09D91FFA0D
:104B40008CF3B3EB1C4F12D15FFA8CF3B3EB1C6FF9
:104B50000DD1013E16F0FF067FF478AF6FF00D0027
:104B600003B0BDE8F08F013B4CEA030CD4E7002012
:104B7000C7F800C003B0BDE8F08F0AF10109072BA8
:104B80005FFA89F900F29180002A73D1052B5FD971
:104B900014464FF0010E012902D02246F0460DE0E6
:104BA000CCB105FA03F2072B2CEA020C88BF0022D5
:104BB00021D9A0421AD001460E2BA1D91929A4D07F
:104BC000B9F10C0FA1D0CA4656E7BEF1060F4ED080
:104BD00009B101294BD105FA03F2072B4CEA020C6B
:104BE0001AD90C46A0424FF00102E4D1611C4FF0EB
:104BF0000108C9B2E0E70BF1FF3BA0425FFA8BFB73
:104C000020D00022CA4517D0014635E74FF0010EEB
:104C100001292CD14CF0200C0BF1010B88425FFADA
:104C20008BFB06D00122EDE709F101095FFA89F952
:104C3000C4E704460122D9E709F1010901465FFAF8
:104C400089F9BDE7013000224FF00108C1B257E7F2
:104C5000BBF1000F19D0052BD8D0BBF1010F1AD032
:104C6000042B4FF0010E0DD1E1B101291AD0F0460D
:104C70000022A3E70BF1010B5FFA8BFB0124A64690
:104C800089E7D146BBF1020F9FD101229A404CEA3D
:104C9000020CC1E7D1464FF0010B0BFA03F24CEACC
:104CA000020CB9E74CF0100CB6E7002AE6D14FF041
:104CB000010E1C2B3FF472AF14466CE7052B1FD975
:104CC000BEF1060F07D00146D146002883D000224E
:104CD000EFE78B4633D1014622464FF00608CBE67C
:104CE0000BF10101BEF1060FC9B2F2D90130C1B218
:104CF000012098409046D14600222CEA000CFFE6A5
:104D0000BBF1000F08D1012293469A404CEA020CF5
:104D10000446D1465A4669E7052B31D0BBF1010F55
:104D20000146B7D0042BACD1BEF1060F0CD0D14652
:104D30009AE7BEF1060FCED01C2B3FF6CAAE30B3B9
:104D40000146D1460122B4E72246F046D14635E776
:104D50004FF0010E0EFA03F162B904467246D146D5
:104D60004CEA010C42E79646D146A2E7D1464FF005
:104D7000010E9EE70446D14600222CEA010C35E7DD
:104D8000BEF1060FA7D028B10146D14640E7044640
:104D9000D14606E7D14600213CE700BFD6BE898E4A
:104DA00030B5037E0568FF2B14D003EB43028B4222
:104DB00005EB021227D04FF0000C01E099420BD016
:104DC0009E4613789468FF2B03EB4302A44405EB43
:104DD0000212F3D1002030BD714517D013780FFABD
:104DE0008EFE0EEB4E0E4FEA0E1EFF2B906805F85E
:104DF0000E3006D003EB430305EB03139A6802441D
:104E00009A60604430BD9E464FF0000C13780376E4
:104E1000E4E700BF2DE9F04704462C250846274E5D
:104E200004EB840105FB046504EB4104696806EBAF
:104E3000840601EBC007FC7811F830E004F1010CA6
:104E40005FFA8CFCE64598BF4FF0000C7978BDF80E
:104E5000289061452ED04FF004084FF0020A79687F
:104E600004EB840E04EB4E0E01EB8E0401F82E8051
:104E70006360089B6270A360099BA4F81090E360D4
:104E80000B9B84F802A06361109B23620C9BA361BF
:104E90000D9BE3610E9B63620F9BA36287F803C0C7
:104EA000D5E908359847334641460022A847A078FF
:104EB000BDE8F0870120BDE8F08700BFDC220020BC
:104EC0002DE9F04F427A87B0D0E90065002A00F062
:104ED000F48083468A46B146531EDBB205EBC3031A
:104EE00003930595039B5A6893F801800492BAF1E5
:104EF000FF0F5CD000260AEB4A052801D44619F8BA
:104F000000A009EB0515FF272F70DBF800409BF888
:104F1000182004EB000EBA42DEF8081000F0C98039
:104F2000CDE901860CE0091A05D1BEF81E80F68B8A
:104F3000B04500F2AC80E35C1746FF2B68D01A4600
:104F400002EB420304EB0316B0681B018842EAD966
:104F5000DDE90186FF2FCEF808108EF8002060D022
:104F60003FB207EB47073F0104F807C0FF2A06D00E
:104F700002EB420204EB0214A3685B1AA360AB7855
:104F800001336B70002EB2D04FF00002736A3270A2
:104F9000B27013B10020B16A98476B68002BA6D19C
:104FA000736ABAF1FF0F2B62B36A6B62A2D1039BE3
:104FB000049C9A7808EB880308EB430308F101018D
:104FC000424504EB83065FFA81F864D003990878C0
:104FD00014F82310404508BF4FF000080429E9D118
:104FE00096F801C00CEB4C0009EB00156978AA7823
:104FF0000001914218D04FF00002012004F8232054
:10500000736AB0700BB1B16A9847039B9A78D1E785
:105010001A46DDE90186FF2FCEF808108EF8002031
:105020009ED18BF818C0A1E74FF6FE71338ADBF8EA
:1050300014208B4207D04FF6FF715B1AB3FA83F34B
:105040005B0985F82C304FF6FD71336AAB62F3686B
:105050006B60338A8B4288BF0023AB837369AB617B
:10506000B369EB60F3692B610023B1686B61A960E0
:1050700073689C1A17D4002321446B614FF000031E
:10508000EB83EB78A96043F00103EB703BE701464B
:10509000DDE901865EE7039A0599A2F108038A42D9
:1050A0000BD003931EE7D31A9942E4D85B1A002170
:1050B000E3E722548BF818C061E707B0BDE8F08F32
:1050C00001232DE9F04F447E8FB08376002C40F011
:1050D000B380037E8146FF2B00F0AD8015F0C4FB4A
:1050E000D9F81420D9F81C30821A934294BF0023B7
:1050F000012399F81880A346B8F1FF0FD9F800A052
:10510000049377D01646059408EB48080AEB081478
:10511000A3684FEA0818B3426BD8A578F61A9B44E7
:1051200063781AF808805B1BDBB2012B5ED1A369A0
:10513000A06A0393002800F00D81016800297ED049
:10514000002B40F09080049B002B00F029819623D7
:105150000393037A5A0700F01881037A6FF302036E
:105160000372E78BE2787B1C6FF30002E27094F825
:105170002C209BB2E383002A71D0A28B9A426ED27C
:10518000A06A002800F03581037A03F00703012BA1
:1051900065D00127002541684560A36A1A7A65F346
:1051A00002021A72A578013DA570E568F5B1606943
:1051B000D9F81430E278ABEB0000184402F0010299
:1051C0002369002F40F0D780B4F81EC0CDE900233A
:1051D00063463A46A847039BE783002B049B18BF0E
:1051E00001230493E37867F30003E370B8F1FF0F42
:1051F0008AD1059C99F80B3099F80A209A4208D177
:105200000132D2B2022A16BF14460023234689F87F
:105210000B4009EB8303C3F80CB0D9F824400025F8
:105220004B46012204210320A44689F81A500FB0EE
:10523000BDE8F04F604784760FB0BDE8F08F039B68
:10524000002B00F08580049B002B86D1D9F81C3000
:105250005B4582D8B8F1FF0F11D1049F9AE7A3787C
:10526000013BA370C2E7049B002B7FF472AFD9F817
:105270001C309B45FFF46DAFB8F1FF0F66D0039B68
:10528000E78B9C460793A38B6168BB428EBF3A466F
:10529000FB1A9AB202FB011208EB48030AEB031354
:1052A000DDF81CE006929A6896454DD3CDE9086B6F
:1052B000CDF82880A346964604468846CDE90C756D
:1052C000CDF82CC0DDF81CC0CDF81C90DDF80C909A
:1052D000996A986909B1096801B908B3DD8B9E8B99
:1052E0005F68B5426AD2002F40F08180C4B1216866
:1052F00031B1B9F1000F03D17044814280F08D804B
:10530000B5420DD3D9789BF8030001F0010600F0F7
:105310000105AE4270D84140C90701D4002F6BD1BE
:105320001B78FF2B07D003EB43030AEB03139A68A8
:105330009644E645CCD90D9DDDF81C902046DDE96C
:105340000A8C5C46DDE9086BCDF80CC0002874D0EF
:1053500000271FE7039BABB1049B002B7FF401AF39
:10536000D9F81C309B45FFF4FCAEB8F1FF0F86D195
:1053700004990F4617E7CDE900234FF6FF7300228B
:10538000A84733E7039F00210DE7A18BE28B9142F1
:105390003FF6E3AE012262F302030372E78BE1E61C
:1053A000D9F81C305B453FF6D2AEB8F1FF0F30D0D4
:1053B0004FF0960CE78BCDF81CC064E79FB1A91B9A
:1053C00089B2B8F1000F0AD001FB0771891A069A59
:1053D0008A422CBF00270127002C88D190E747463E
:1053E000002C84D18CE7002C81D127468AE72946FE
:1053F000E7E70127A578C6E72046DDE90A8C5C4689
:10540000DDE9086B0C9FDDF81C90A0B9CDF80CC04D
:10541000A8E69623049F0393BCE6DDF81C90204683
:10542000DDE90A8C5C46DDE9086BCDF80CC000298B
:105430003FF493AE8DE60168F7E707460146B2E612
:10544000837E002B40F0C5832DE9F04F437E8DB065
:1054500083460A93002B40F081800121837AC27A2F
:1054600040699A4207908BF8191000F0B3830B44FF
:10547000DBB2022B0ABF0A9A1A4613468BF80A308F
:105480000BEB8203DA68079B04921344CBF81430C9
:10549000012309939BF8189015F0E6F9B9F1FF0F75
:1054A000059002D1CBF814000790DBF800309BF890
:1054B0000980019308F1FF33DBF80450DBB2B8F147
:1054C000000F00F0A0844FF0000805EBC307FF2396
:1054D000CDF82C90C246D94603930695CDF820808E
:1054E000D7F804B0F878BE7832B202EB8201731CB0
:1054F00002EB4104B042DBB20BEB84055FD03A789B
:105500009A4208BF0023BB701BF824206978042A44
:105510003AD9019801EB410300EB0318082A4FEA3E
:105520000313029398F8020098F8013020D81B1A50
:1055300013F0FF032AD1062A1AD199F81B308B42A7
:105540004ED00BF824A06B6A85F802A0002BC9D0BE
:105550000020A96A9847F878BE78C5E70421446A14
:10556000034601220846A4460DB0BDE8F04F60474F
:105570004FF001030BF824A0AB706B6A002BB1D085
:105580000120A96A9847ADE71E46ADE7052A1ED15E
:105590006A684AB9AA683AB9EA682AB92A691AB996
:1055A0006A6932F07F42E3D0012B26D00421012228
:1055B0004B460846D9F824400892A047BE70069A88
:1055C000A7F10803974200F0DF801F4688E7012B10
:1055D00000F09480062AE9D199F81B308B42B0D1B3
:1055E0006968D9F814208B1A40F1B080521A0499D6
:1055F000914294BF00235B18AAE04846FFF7D0FB16
:10560000C8F80800059BD9F814E0A3EB0E0C049B26
:1056100003EB0C01884240F2A280421AD8F8043011
:1056200013B3AB8A03B3013B99B2A982D8F8040043
:10563000B8F81E30824207D80AE0B3B2121AA8F8AE
:105640001E308242A98A03D98B4203F1FF36F4D877
:10565000994207D901339BB2A8F81E30A98A0244A7
:105660008B42F7D3A8F81C106968D8F8143011449D
:10567000C8F80810AA68D8F828001344C8F81430ED
:1056800048B102683AB1D5E901329B1A4360D8F8B3
:105690000810D8F81430BCF1000F68DB8C449C452E
:1056A0006FD9ACEB03020023C8F81430C8F8082007
:1056B000EA68D8F818301344C8F818302A699342B9
:1056C00094BF00239B1AC8F81830AB7D2BB198F813
:1056D000032063F3000288F80320EB7D13B1013B44
:1056E00088F82C30039BDDE90121535498F80130F0
:1056F0006A780133039288F8013022E7062A3FF4E2
:105700001CAF4846FFF74CFB98F80230C8F8080079
:1057100088F8013099F81B206B789A427FF411AF1A
:105720001BF82430062B3FF45BAFFF2389F81B30B6
:105730001BF82430062B3FF453AF082B3FF450AF37
:105740000599D9F814208B1A3FF550AF049A1344E9
:10575000D9F81C209A4288BFC9F81C30F1E6D8F865
:10576000143000221944091AC8F8141056E7059A93
:10577000AEEB020E8E4591D39E44AEEB01030022A8
:1057800092E7A3EB0C03FAE7CB46DDF82080DDF8C7
:105790002C909BF81820B2EB090318BF0123029349
:1057A000099B002B00F06F81059B0799FF2ADBF80E
:1057B0000070A3EB010664D00025CDF81490AA4632
:1057C000A9460196049DCDF8108002EB420307EB39
:1057D0000314A1681B01A94200F2EB82019894F81E
:1057E00002C0401A019060786D1AA0EB0C00DBF843
:1057F0001CC08944614528BF4FF0FF31B4F81E80BA
:1058000026BF8BF81B100021ACEB0101CBF81C105C
:10581000D4F828C0A169C0B2BCF1000F00F0FE802E
:10582000DCF80060002E00F0E280002940F0E28009
:10583000022800F0B882C4F808A0F95C8BF81810B0
:10584000D4F804E0A16ABEF1000F40F0B68029B19F
:10585000097A01F00701012900F08B8048B1012885
:1058600002D0B8F1000F04D0236A13B10120616A9D
:105870009847A17861709BF81820FF2AA5D1DDE92F
:105880000489029B09995846914518BF0B46039914
:1058900002930027FFF714FB5846DBF800A0CDF871
:1058A0000490CDF80C80027EFF2A154600F0BF82DE
:1058B00016464FF0FF0800E01E4633B203EB4303E9
:1058C0000AEB031CDCF828401B0121463CB194F88C
:1058D00008E00EF0070EBEF1010F00F07F811AF80C
:1058E0000330B046FF2BE7D18346DDF80490104625
:1058F000DDF80C80002F00F0CC80914500F0718223
:10590000B8F1000F00F0E3800546FF2D00F09F8204
:10591000B9F1FF0F00F08682DBF8003005EB45059A
:1059200003EB05139F68002F00F0588214F09CFFD2
:105930000A260446DBF81450013E621B974202F12E
:10594000050240F23881BA422CBFAD18ED19DBF8E0
:1059500028302846984714F087FF2B1BC4F1010418
:1059600004449C4240F22981002E00F01B81044631
:10597000E0E72846A178A5606170079EDBF81480F7
:1059800006EB090CBCEB0806D4F814E050D406442E
:10599000B446E64554D20020ACEB0E0E60610131F6
:1059A0000398C9B2C4F808E0F854617003929BF8F8
:1059B0001820FF2A7FF409AF61E721B1097A01F0CD
:1059C00007010129D5D0B4F81E80B8F1000F3CD1F1
:1059D000B4F81C8094F82CC04046617800FB0EE0BF
:1059E000BCF1000F3BD0A4F81E80A060C5E70029E1
:1059F0003FF421AF02287FF41EAFB8F1000F7FF40F
:105A00001AAF9CF808C00CF0070CBCF1010F3FF472
:105A100012AFCBF81C108BF81B200CE700293FF4C9
:105A20000AAF02287FF407AFB8F1000FF1D002E708
:105A3000A8EB0C08804521D2B4468444E645AAD39D
:105A4000AEEB0C004FF0000EA8E70020A17894F810
:105A50002CC000FB0EE06170BCF1000FC3D1019EB1
:105A60008642C0D970440CF1010C86421FFA8CFCAE
:105A7000F8D8C44401961FFA8CF8B4E70EEB080C72
:105A8000ACEB0000DEE758460399FFF719FA9BF8E4
:105A9000180081457FF434AFB8F1000F00F0B681F3
:105AA000029B002B40F00982029B8BF819309BF877
:105AB0001A30002B00F08A80DBF824405B4601227C
:105AC00003210420A4460DB0BDE8F04F60479BF8C9
:105AD0000920DBF80440531EDBB2002A3FF414AF68
:105AE00001220292002604EBC307CDF804907B78D4
:105AF000F978D7F8048099424DD01BB203EB8302AA
:105B000003EB420318F8232008EB8303012A31D06A
:105B1000022A36D1D3E9019599F80010D3F80CE0A8
:105B2000FF29DBF800C0DEF80000DBF8142003D00A
:105B3000D5F800A0924538D000209BF818102A60B4
:105B4000FF2907D112E01CF80210DAF80850FF29EB
:105B500028440BD001EB41020CEB021ADAF8185082
:105B60001201002DEFD0DAF80820104489F8001057
:105B7000CEF800005A6A9E7012B10020996A9047D0
:105B8000F9787B783A780133DBB29A4208BF002378
:105B900099427B70B1D1A742A7F1080300F00081C0
:105BA0001F46A4E700DE0446C4E601EB41010A01FA
:105BB0001CF80210C4E701230A9300238BF8193064
:105BC0009BF81A300A9A1A437FF476AF0DB0BDE8FD
:105BD000F08F70470A9B099304935BE4DCF808207C
:105BE000002A40F04181DCF818B0BBF1000F06D16B
:105BF0000A68002A00F043810C464FF0960BC269F8
:105C0000963209926268114604922268914280F0AD
:105C1000D980A2EB010E1AF80310FF2900F0D28000
:105C2000DE45C0F0CF800022AEEB0B05CDE9068645
:105C3000059598460890D946174615460B4609988B
:105C400039E0A5F196063E44764528BF76460BEB33
:105C5000000296450DD34E450BD3DCF81820002AE0
:105C60004CD0227A120749D4B6EB0B0201D0824203
:105C70004BD28A6A22B1127A02F00702012A33D08B
:105C80008A698AB3496879B396322F44D019DCF80F
:105C90001820002A00F08280217AAEEB0B0209075F
:105CA00000F1AE8000251AF80330FF2B2DD00BEB4E
:105CB0000709CE4529D303EB43030AEB03118E6892
:105CC0001B013544962DBCD8DCF8186086B1267AC5
:105CD00016F00806BBD088692F44963005993844E1
:105CE000884298BF0246DDE700221AF80330DCE75D
:105CF0008A692F4496323A441046D3E70028B8D038
:105D0000A6EB0B068642B4D30246DDE907604346A4
:105D10000499DDF81880114461601AF80350FF2DD2
:105D200018BF4FF0FF0901D1AFE00D4629B201EBDA
:105D300041010AEB011EDEF808700901974280F06C
:105D4000BF801AF80110A946FF29A2EB0702ECD187
:105D5000FF2DCCF8082015D0B8F1FF0F1AF803106A
:105D60005ED00FFA88F202EB420212010AF802102A
:105D70002DB205EB45052A011AF802100AF80310A6
:105D80000AF802600222BCF81E300127013BACF881
:105D90001E30237A62F30203237284E5024681E710
:105DA000DDF804907CE6B8F1000F7FF444AD962155
:105DB00027E6491BA160DDF81490DDF810809BF800
:105DC00018205EE5049A62601AF80330FF2B08BFC2
:105DD00000225AD00023CCF80830D3E78BF8197092
:105DE0006AE6B8F1000F7FF497AD9BF80920DBF865
:105DF0000440531EDBB2002A3FF48EAD029771E6D9
:105E0000114600226CE7FF230393C2E49BF80920AC
:105E1000DBF80440531EDBB2002A7FF463AE3FE69A
:105E20000176A5E714F006FD9BF8185074E583464B
:105E3000DDF804901046DDF80C80002F3FF429AE09
:105E4000B9F1FF0F2DD0B8F1000F3FF440AE14F0C0
:105E5000FBFCE8B9CBF81C008BF819009BF81A3052
:105E6000002B3FF4B3AE27E600DEDCF818B0BBF140
:105E7000000F07D1DCF8281000297FF4B9AE00DE4E
:105E80004FF0960BDCF82840B9E6CCF8082079E70B
