:1000000080960020E15D000057F20100CD5D000008
:10001000CD5D0000CD5D0000CD5D00000000000062
:10002000000000000000000000000000A55E0000CD
:10003000CD5D000000000000455E0000CD5D0000C9
:1000400071600000ED6D01007160000071600000E2
:10005000716000007160000071600000716000005C
:10006000716000007160000071600000716000004C
:10007000716000007160000071600000716000003C
:10008000716000007160000071600000716000002C
:10009000716000007160000071600000716000001C
:1000A000716000007160000071600000716000000C
:1000B00071600000716000007160000071600000FC
:1000C00071600000716000007160000071600000EC
:1000D00071600000716000007160000071600000DC
:1000E00071600000716000007160000071600000CC
:1000F00071600000716000007160000071600000BC
:1001000053B94AB9002908BF00281CBF4FF0FF317E
:100110004FF0FF3000F00CB8ADF1080C6DE904CEE3
:1001200000F008F8DDF804E0DDE9022304B07047D0
:10013000704700BF2DE9F04786468C460846089E6A
:10014000154674461946002B40F0C2808542B2FA2B
:1001500082F245D94AB1C2F1200300FA02FC2EFA1C
:1001600003F3954043EA0C0C94404FEA154EA8B2B5
:10017000BCFBFEF8230C0EFB18CC08FB00F943EA8D
:100180000C43994528D9EB1808F1FF3704D299455B
:1001900002D9A8F102072B44A3EB0903A4B2B3FBD5
:1001A000FEFC0EFB1C330CFB00F044EA0344A042AF
:1001B00014D92C190CF1FF3304D2A04202D9ACF1AE
:1001C00002032C44241A43EA07401EB1D440002302
:1001D00034607360BDE8F0874746DDE76346F1E7CA
:1001E00092BB431B01214FEA154EAFB2B3FBFEFC9D
:1001F000200C0EFB1C330CFB07F840EA0343984528
:1002000062D9EB180CF1FF3004D2984502D9ACF159
:1002100002002B44A3EB0803A4B2B3FBFEFC0EFBCD
:100220001C330CFB07F744EA0344A7424ED92C19B0
:100230000CF1FF3304D2A74202D9ACF102032C44E3
:10024000E41B43EA0040C0E7C2F1200320FA03F1B7
:10025000954090402EFA03F303434FEA154EAFB298
:10026000B1FBFEFC0EFB1C10190C0CFB07F841EA5D
:100270000041884504FA02F422D969180CF1FF30D4
:1002800004D2884502D9ACF102002944A1EB08014F
:100290009BB2B1FBFEFC0EFB1C110CFB07F743EA03
:1002A00001439F420ED9EB180CF1FF3104D29F425B
:1002B00002D9ACF102012B44DB1B41EA004192E779
:1002C0006046E3E76146F7E76046A3E76346B7E7C2
:1002D000834206D916B9002108467BE7C6E900E04B
:1002E000F9E7B3FA83F78FB9834201D3724508D88F
:1002F000BEEB020460EB030301209C461EB9002103
:1003000068E73846FAE7C6E9004CF8E7C7F1200C81
:10031000BB4022FA0CF41C432EFA0CF120FA0CF329
:10032000B84001434FEA14490EFA07F5B3FBF9F858
:100330001FFA84FE09FB18300B0C08FB0EFA43EA87
:1003400000439A4502FA07F240D9E31808F1FF305A
:1003500004D29A4502D9A8F102002344A3EB0A0370
:1003600089B2B3FBF9F809FB183308FB0EFE41EA2A
:1003700003418E452CD9611808F1FF3304D28E4514
:1003800002D9A8F10203214443EA0040A0FB0298ED
:10039000A1EB0E014145CE46434602D306D14D4561
:1003A00004D2B9EB020E68EB04030138002EA6D08C
:1003B000B5EB0E0261EB030101FA0CFC22FA07F324
:1003C0004CEA0303F940C6E9003198E74046C5E727
:1003D0004346D9E7000000002DE9F843D0E907388B
:1003E000856903EB08042F34A5420F46164619D839
:1003F000DFF86C80A3FB080117A3D3E90023FFF704
:100400007FFE0346601BA0FB080123F07F4412A37C
:10041000D3E90023FFF774FE20F07F403C6030609A
:10042000BDE8F883DFF838900BA3D3E90023A5FBE0
:100430000901FFF765FE20F07F440A480A2106A360
:10044000D3E90023E8FB0901FFF75AFE20F07F40C3
:100450003C603060BDE8F8838D49FD1A070000005C
:1004600000CA9A3B00166BF12DE9F04F8DB09A4609
:10047000179C9DF85870A36B05460E464BB1B4F817
:1004800078301BB1B4F87610994276D2E06F00282C
:1004900076D14FF6FF739A4521D023780133DBB232
:1004A0002370002B77D058498B7AA1F808A067F306
:1004B00000038B72554BC1E9005204F11000002279
:1004C000C86099600120114606F00AFA002864D13C
:1004D000A36BC4F8905013B120460EF067FB257E45
:1004E00015F0010549D14A4A4A4B11781B788B42D5
:1004F00055D04FF6FF739A45D4F87C80B4F87690C7
:1005000015BF0AF101074FF0000ABFB25746B8F114
:10051000000F2FD0B9F1000F2CD0A26E0AF1010A02
:1005200040F271211FFA8AF301FB02FA3A4A4FF0B6
:10053000070BA6FB02010AFB03F309930BFB061151
:100540002FA3D3E90023FFF7DBFD099B324A1E18D6
:10055000A5FB02010BFB051129A3D3E90023FFF73B
:10056000CFFD50443044804586BFA8EB0606E667C1
:10057000C4F87CA04F44A4F876700DB0BDE8F08FAD
:10058000A16E40F27123A1FB0313814273F10003BA
:10059000FFF47FAFF1E700DE85E700DE98E7013387
:1005A00004210BA8137016F08DFE0B9B1B490095C0
:1005B000A1FB03211A4A0694CDE90355CDE9015563
:1005C00028465D1A01EB5501A21A164D9208A5FBAB
:1005D0000252090A920840F2471505FB1133023214
:1005E000114905910133D2B201210B9307F052FE5C
:1005F00010F0FD0F01D10B9D7BE700DEFBE700BF94
:1006000000CA9A3B0000000004550020C4000020EE
:10061000608000205F8000208D49FD1A21F1D49078
:100620003055002015F9AC1B75D300000000000008
:10063000002900F0B6812DE9F04F8FB0002840F07E
:10064000B2818C4C164694F8802012F001071D46AA
:1006500040F0B181607EFF2300F00300E37615F0E7
:10066000FFFF94F88000430700F1F48094F82920FC
:10067000637F04EB820204EB8303D76AD3F8208004
:10068000002F00F0CF80394640460DF0D3FC002803
:1006900040F0848198F8003013F00E0F40F0F080A5
:1006A0006369002B40F0798108F0C0FD8146002885
:1006B00000F0AC8108F0C6FD0A90002800F0A3818C
:1006C0000FF038FF8346002800F09A81C06E4FF685
:1006D000FF720BF11003ABF824200B93002800F0FD
:1006E00011820BF160020BF15C0106F075F89BF8CA
:1006F000722022F007028BF872200022CBF86C20C7
:10070000ABF8702098F8002002F00F02072A00F0E2
:10071000EB819BF8582022F0770242F011028BF80F
:100720005820012211465448D0F801C0CBF881C1AD
:10073000D200CBF887C110F801CB42EA01219BF827
:1007400080210CF0010C6CF386126CF3C7128BF84D
:1007500080218288ABF88521ABF88B21BBF858202B
:1007600022F4E16211439BF83720ABF8581002F0F5
:100770003F0262F07F028BF837209BF83C2040F666
:100780007F014FF0000A22F00F02ABF8B6104FF4D1
:10079000C0218BF83C20CBF872115846CBE912AA45
:1007A0008BF839A0ABF82AA0CBF82EA0CBF850A03C
:1007B000ABF840A1ABF878A1ABF86EA112F082F8CB
:1007C0008BF844A1CBF8489110F018FA9BF88011EF
:1007D00060F302018BF8801110F016FA9BF880117B
:1007E00060F3C5018BF880119BF842116AF3410157
:1007F0008BF842110BF1C40011F06EFE0A9B636688
:100800000BF11003C4F860906361CBE902AA8BF886
:1008100000A0CBF810B016F0D9FFB0B30CF04CFE2E
:100820000320BBE098F8003003F00F03072B00F023
:10083000B480124817F032F9C0B2002840F0E680C8
:1008400094F8293004EB8303DF6A04233B7006230A
:100850007B7018E7C0F3C0003A4604F1810116F03E
:1008600097F8FF28E0763FF401AF384615F03EFFD9
:10087000FCE600BF30550020E81402005855002067
:1008800003F00F03072B00F04281B14B1B78022BC2
:1008900000F043810023636300252E46637E227EA1
:1008A000E667C3F38206A37EA4F87850C2F342023F
:1008B000012100250DF133008DF8332003EA0109F1
:1008C000A4F8765006F024F90246002861D0334699
:1008D0003946CDF8009040460CF03CFC9D499E4BBB
:1008E0002570A0FB0101C01841F1070196A3D3E9CF
:1008F0000023C4E90255FFF703FCB4F868606060A8
:1009000007F00EFE00F1180746B998F8005005F000
:100910000F05A5F10105B5FA85F56D09237E65F38F
:1009200000032376DB07656800F12081D4F8388066
:10093000B8F1000F6CD1894B8948049505F2471531
:100940000694CDF8088091211D600993A6FB000351
:1009500001FB0631834B0793834B05934FF6FF73DF
:1009600002260DAD039378A3D3E900230D960895D5
:10097000FFF7C6FB032101903B463246CDF80080CD
:10098000404607F027FC294608F0DEFC002800F06E
:100990009B8063690BB10CF08FFD0C200FB0BDE89C
:1009A000F08F0CF0B3BD6A4B1B78022BF5D0002002
:1009B0000FB0BDE8F08F664B1B78022BF7D194F88F
:1009C0002920637F04EB820204EB8303D16A186A57
:1009D0000DF030FB0028E1D1636B002BDDD01A79DC
:1009E00002F0FF0142B942F2107206FB02F2A4F8D3
:1009F0007610A4F87850E2671B79002BD7D0CCE7AB
:100A00000A9808F025FC484608F016FC0720C5E7C0
:100A1000D8F80080AB1C3B440DA940460D9300F074
:100A20006BF9A36E94F8742040F271218146A3FB08
:100A30000131002A40F0D18042F6DC32981841F1B1
:100A4000000140F2E2420023FFF75AFB80B2A8F80F
:100A500034004A460D99404600F08EF98146002840
:100A600097D10DAB089302903C4B3D48049505F29D
:100A70004715069491211D600993A6FB000301FB15
:100A80000631384B0793384B05934FF6FF73022519
:100A900003932DA3D3E900230D95FFF731FB032129
:100AA00001903B462A46CDF80090484607F092FB5D
:100AB0000DA908F049FC00287FF46BAF98F8463088
:100AC00043F0010388F8463094F88030002043F06A
:100AD000010384F880300FF049FA00287FF467AFF3
:100AE000012015F09FFD62E7617E9BF858204909BF
:100AF00061F3020261F306128BF85820A27E02F025
:100B0000010210E60BF16400CBF86C00E9E598F8FF
:100B1000023059067FF5B9AEC2E508F087FB814681
:100B2000002867D008F08EFB00286AD00023C0F8A8
:100B300000900371237E6063DA073FF5ADAE42F2A9
:100B4000107303FB06F6A9E68D49FD1A07000000A5
:100B50005E80002000CA9A3B8C49FD1A2455002073
:100B6000002AE784E586000069040000284B099309
:100B700000200DAA18600226049501950892254DC3
:100B8000254A05920321CDE9020006943B460090D8
:100B9000079532460D9607F01DFB0DA908F0D4FB12
:100BA00000287FF4F6AE0DAA1C4908924AF2D8320A
:100BB00000920591CDE903000321CDE901000795DD
:100BC0003B46069401220D9607F0D0FA0DA908F0D5
:100BD000BBFB00283FF478AFDBE602FB01110132DA
:100BE000A2FB0303194440F2E2420023FFF788FA14
:100BF00080B22CE76369002B3FF408AF0CF05CFC7B
:100C000004E76369002B3FF4FEAE0CF055FCFAE6F6
:100C100024550020E58600006904000019D2000078
:100C20002DE9F041037E477E90F81A808AB00D4688
:100C3000C3F34203044601210DF1230016468DF84B
:100C4000233005F065FFC7F3820708F0010802466C
:100C50003B4631462846CDF800800CF07BFA20490F
:100C6000204AA0FB0131981841F107011AA3D3E9EA
:100C70000023FFF745FA63689842054623D21B1A02
:100C800000220192184A02930221184B0991A21ADC
:100C9000CA40A3FB0232CA4000230A4409AE1449E9
:100CA0000591CDE903330321D2B20696009318468D
:100CB00007F0F0FA314608F047FB40B965600020C4
:100CC0000AB0BDE8F081FAD9C21A0023D9E70C2096
:100CD0000AB0BDE8F08100BF8D49FD1A0700000091
:100CE00000CA9A3B8C49FD1A3055002015F9AC1BFF
:100CF000E5860000000000002DE9F04182B00446C6
:100D00001B4E1C4F88460DF02DFB07253346294608
:100D1000E0FB0731184614A3D3E90023FFF7F0F9ED
:100D200094F8253020F07F4004EB83036060996ADB
:100D3000FF231A4620460DF0B3FA2946E0FB07616F
:100D400009A3D3E900233046FFF7DAF901A920F01F
:100D50007F4014F0ADFE18B9019B0233C8F8003093
:100D6000002002B0BDE8F0818D49FD1A07000000A7
:100D70008C49FD1A00CA9A3B2DE9F04700268CB039
:100D80008846C0E902662049067017464822044694
:100D900005F002FD0546A08E1C4940F2E24202FB2E
:100DA00000F002230B93A0FB010115A3D3E900235C
:100DB000FFF7A6F90DF12C0ACDF820A006941946EC
:100DC00063681F44124B0793124B0593814600231F
:100DD00010464FF47A72CDE90367FFF791F90335B6
:100DE000EDB2CDE9019043462A46009630460321F4
:100DF00007F0BCF9514608F0A7FA0CB0BDE8F0873F
:100E00008D49FD1A070000000856002000CA9A3BD1
:100E1000E5860000A1E3000070B590F803C01CF067
:100E2000010F14BF00F10A04041D1B481CF0020F3F
:100E300015461E464FF00702A1FB000318BF0634FB
:100E400002FB01311CF0080F11A3D3E9002318BFE6
:100E50000234FFF755F9AD1B10492844A1FB0031BE
:100E60000D09490C04D00E4BA3FB003001214509AC
:100E7000A2782078657022F01F02C5F3042361F385
:100E8000C71013432070A370204670BDAFF30080DD
:100E900000CA9A3B000000008D49FD1A89888888A5
:100EA000B5814E1B000000002DE9F04F93B0D0F843
:100EB00038B00A9000241094DBF80030944909936C
:100EC0004822184605F068FC0A9BCDF82CB0D3F8F0
:100ED00090A0CDF83CA0FF22C51C8DF83720012240
:100EE000EDB20A9252460E94AA460DF144090DF154
:100EF00040080EAF02269B4615460BE0119B4BBBEC
:100F00000F9BAB422AD19DF83730FF2B31D09A4549
:100F100034D00F9D7F4BCDF81890CDE90443CDE937
:100F20000244CDE900780FAB0DF137020221002019
:100F3000119607F091FA0228E0D1119B022BDDD126
:100F40000221002007F0D4FA119B022BF8D0119B4C
:100F5000002BD5D000DE0F9BAB42D4D00A9A531E93
:100F6000DBB2002A00F0C6800A939DF83730FF2BD1
:100F7000CDD100DE9DF837309A45CAD1109C664924
:100F80000E9DA4F57422A2F510728A425B46DDF82C
:100F90002CB007D904F1E874013D04F5D4340E9562
:100FA00004F5A5745D4ACBF80C50A2FB0424A40CF4
:100FB000CBF81040197F587F10948142CAB204D0F8
:100FC0000132D2B2022A08BF002203EB8202597E0C
:100FD000D2F82080BBF8087098F80120C1F3820194
:100FE00003297BD9997ED30001F0010252002B33F3
:100FF0000132934003F5BC731FFA83FA484E4FF059
:101000000709A5FB06013EA3D3E9002309FB05114F
:10101000FFF776F8434A04EB000CA2FB0C120AF52A
:10102000967A22F00F011FFA8AF3A1EB1212B3EBAA
:10103000420F1FD9099B3C489B8E40F2E24202FBC3
:1010400003C4A4FB000130A3D3E90023FFF758F841
:1010500020F07F45A5FB060129A3D3E90023CBF8A7
:101060000C5009FB0511FFF74BF80137241ACBF898
:101070001040BFB22246294600234046FFF7CCFE6F
:10108000DBF80C300999099D0133CBF80C3091F84D
:10109000452091F84430934202EB420305EB4303B1
:1010A00018BF81F8442093F83D30062101FB02521D
:1010B0000446E98E383203F03F03384614F0A0FDB1
:1010C000237860F30503237007F02AFA0F9907F0DD
:1010D00029FA2C280AD813B0BDE8F08F8B180933F1
:1010E000DB004910CB401FFA83FA87E700DE13B01C
:1010F000BDE8F08F00DEFF230A9304E7AFF3008022
:1011000000CA9A3B000000008D49FD1A070000004C
:10111000085600209DE30000BFBDF07F83DE1B4327
:101120008D49FD1A8988888800CA9A3B0000000012
:101130002DE9F04FA5B00D461E4640F201232E9931
:101140000F92AB432F9A0C9104460D9200F0F78159
:10115000637F04EB830305F4007BD3F820A09AF8A7
:10116000007007F00F07072F10D0BBF1000F04D15C
:101170000C27384625B0BDE8F08FD6F8012031782D
:10118000204625B0BDE8F04F0CF0B0BF9AF8023011
:1011900013F03F0218BF9AF803208DF880200AF15F
:1011A00004020A92BBF1000F02D07F2B00F27D8176
:1011B0000C9904F11C0016F00DFD9AF8002003783C
:1011C00002F00F0223F03F03134302464FF00008E2
:1011D00002F8023B9AF80230139282788DF87C80F4
:1011E0009B0963F387128270A26B814604F11000A1
:1011F000002A00F0D882537D02EB830399691368BB
:101200001493CB780B910231129103F001018DF808
:10121000883011910D99099302F1140016F0DAFC4F
:1012200099F8001002780B9B01F00F0122F03F02A9
:101230000A4302701A780178C2F3801262F38611B1
:1012400001701A78C9B2D20962F3C711017099F816
:1012500002208178920962F3871181709DF88020C5
:10126000012115EA010380460E938DF88410099B35
:1012700002EA010040F00781002800F048819AF856
:10128000000098F800C00E99C0F3801060F3861C2F
:1012900088F800C099F8000061F3861089F8000012
:1012A0000AF10A010A911198002840F044810B9834
:1012B0000430099003F0020190071D9140F105816F
:1012C0000A9906310A919DF8841041F002018DF8C7
:1012D00084109AF8001098F800C0C909404661F3DC
:1012E000C71C00F810CB99F800106FF3C71189F8EC
:1012F000001003F0020111B109990631099112F0B1
:101300000801189102D00A9902310A919DF87C10C7
:1013100041F008018DF87C10811C0E9115F0080138
:1013200000F0D18002213170D6F801101791C6F873
:10133000010005369DF8841041F008018DF88410F5
:1013400013F00801199102D009990231099112F0A4
:1013500010011A9102D00A9903310A919DF87C106C
:1013600041F010018DF87C1009F10901109103F092
:1013700010011B91E90640F19A80811CC6F801100A
:101380009DF8841041F010018DF884100321317014
:10139000053603F01001002900F09180002116911C
:1013A0000999033109919DF88410C90644BF411D74
:1013B0000E91520611D50A9A01320A92627E02F00B
:1013C0001C02102A00F00E829DF87C2042F04002A0
:1013D0008DF87C2009F10A0210925B0608D5099B62
:1013E000013309939DF8843043F040038DF8843035
:1013F0009DF88430159313F040031C9302D00E9B8C
:1014000001330E93109B139A981AC0B2022803D886
:1014100009F1030310930120099B129A9B1ADBB276
:10142000022B03D80B9B0333099301230B9A5278A9
:101430009A42C0F0AA800E9908F1020CA1EB0C0CA4
:101440005FFA8CFCBCF1020F04D808F103010E9185
:101450004FF0010CBBF1000F73D096F800B0D6F836
:101460000110D51AEDB2099B3570C6F8013005366A
:10147000BBF1000F40F09580002940F08081099970
:101480005A465B4668E016F801EB98F800C06EF328
:10149000861C88F800C099F800C06FF3861C89F894
:1014A00000C000283FF4FFAEFAE6122761E60F996C
:1014B000C9063FF56EAF03F0100100297FD103F09C
:1014C000100116916FE7179134E70E9908F10A00A1
:1014D00000297FF408AF03F00201002967D09DF8CE
:1014E00084000B9940F002008DF88400087898F889
:1014F00000C00E99C00960F3C71C404600F810CB2D
:1015000099F800C061F3C71C89F800C0F4E611988F
:1015100000283AD00B9998F800C008780E99C0F3CB
:10152000801060F3861C88F800C099F8000061F311
:10153000861089F800000B990A310991BAE600DE9D
:1015400006E66D0523D40F99890500F11881D31A99
:101550000999DDB25A465B4605EB020EBEF1FB0F60
:101560003FF707AE0CEB05071744FF2F30DD0CF1FA
:1015700001035B442B44CA45337000F0A1810B9BEF
:10158000984500F098814527F3E51F27F1E596F887
:1015900000B00999D51AEDB2D6F801305A46053691
:1015A000DAE75D464FF0000B5A465B46D4E799F800
:1015B00000C00E9961F3C71C89F800C09FE69DF832
:1015C000841041F010018DF8841009991691E7E616
:1015D00099F8022089F80100013860F3050289F8C2
:1015E000022098F802200E9E0C930CF1FF3060F35D
:1015F000050288F802200BEB0502624488F80120FE
:1016000030462A461EF0F8FE0C9B23B15A46194676
:1016100070191EF0E3FE98F802309A0600F0AD80D3
:101620009DF87C305B0640F1F4800A9A109912F81C
:10163000013C01F8013C531E0A934B1E10931A9B68
:1016400013B10A9B033B0A93109E637E16F8032C8A
:101650006FF3050206F8032C5D0916F025F9322810
:101660008CBF0020012095FAA5F3002DB3FA83F377
:1016700008BF4FF0FF335B0106F8013C16F8033C4E
:1016800060F386136FF3C71306F8033C002306F8D4
:10169000023C1B9B13B1099B033B0993159BDF067F
:1016A00002D50E9B033B0E93169B23B10E9803228B
:1016B00019461EF0A1FE189B13B10A9B023B0A9328
:1016C000199B13B1099B023B0993179B002B00F058
:1016D000E580179A537812781B0203F470631A435B
:1016E0001098D1B200F8051C94F87230C3F30303CC
:1016F0001B0103EB122300F8043C0E9800F8021CB7
:1017000094F87230C3F303031B0103EB122300F8B8
:10171000013C159B9E076CD40238159BDD0709D54B
:10172000119B002B00F0D080099B991F06380622E0
:101730001EF062FE99F802300B9899061CBF9DF8C6
:101740007C3089F8033098F802309A061CBF9DF867
:10175000843088F80330A57E637E169A05F0010573
:101760004FF496745B094146009501940DF032FAEE
:10177000149B93F84630DB075AD40027F9E499F814
:10178000023089F80100013860F3050389F802305E
:1017900098F8023088F801C00CF1FF3C6CF30503A7
:1017A00088F8023037E70DF097F91490002800F020
:1017B0009780DDF850C0CDF844809CF825300CEBC4
:1017C00083030122996A0B91084610F8023B12909C
:1017D00003F03F034A700B7081F803800CF1100294
:1017E000434617E59DF8842042F040028DF884209E
:1017F000F3E51D9B002B6AD0099B063B09930E99CC
:101800001A6841F8082C9B8821F8043CA1F10800D3
:1018100083E71C9B002B3FF412AF099A0E9912F834
:10182000013C01F8013C531E09934B1E0E9306E741
:10183000149C20460CF096FD2F4A304B0721E0FB0C
:10184000023118462AA3D3E90023FEF759FC656844
:1018500020F07F44AC423ED22E1B0025149F284925
:10186000022348223846239304F096FF002325499B
:101870000195C21C23AD0591CDE9033303210296E6
:10188000D2B200931846069506F004FD294607F0EB
:101890005BFD00287FF46CAC7C606EE794F87230DE
:1018A000194903F00F0331F81320501C21F81300DD
:1018B000C2F30B0214E70D9AA36B12785A7562E615
:1018C0000C9B1B7863775AE60A9B991F2EE70A9BAD
:1018D000063B0A9393E77FF650AF651B0026BDE7F2
:1018E000CA457FF446AC00DE43E400BFAFF300809E
:1018F0008D49FD1A0700000000CA9A3B8C49FD1A69
:1019000008560020E5860000E45500200000000095
:1019100070B5294C9DF810E094F8625015F002055E
:1019200042D110F0080F4FEA500605D094F8C6C017
:101930001CF0020F38D1643471B3A4F84C104FEA94
:10194000401C94F838101D484FEACE0E0EF0180EC9
:101950000CF0200C4CEA0E0C21F038014CEA010C82
:1019600094F8441084F838C066F3020184F84410F7
:1019700094F8621063F3830184F86210A2FB000301
:10198000912101FB02310AA3D3E90023FEF7B8FB42
:101990002065A065284670BD94F8443061F30203C9
:1019A00084F84430284670BD0C25284670BD00BF21
:1019B0008D49FD1A0700000090560020002AE78498
:1019C00010B504469DF80800A2874FEA411CC000EC
:1019D00094F8281000F018000CF0200C4CEA000CD1
:1019E0000B4821F038014CEA010CA3FB00029121C5
:1019F00084F828C001FB032103A3D3E90023FEF7E9
:101A00007FFB206410BD00BF8D49FD1A0700000058
:101A1000002AE784000000002DE9F04F90F86230C2
:101A200090F83820DFF83092DFF830826FF300034F
:101A3000044600F14601C3F3800060F386128DB0C6
:101A400084F8623084F8382006F010FE94F83820CC
:101A5000B4F84C308248246102F07902002684F800
:101A600038209121A3FB000201FB0321C4E9026697
:101A700077A3D3E900232670FEF742FB794AA36DD2
:101A80002365A4EB0905A2FB05251833C5F347150B
:101A9000984205EB450296BF0346636060600746C7
:101AA00048F8223098BF26654FEA450A002D5AD1E2
:101AB00099F8A83003F00703032B72D84FF0000BFE
:101AC00006F02EFD636900F11806002B00F08380FC
:101AD0000DF12C09AA4408EB8A030993CDF8209054
:101AE0000694B4F84C305E484FF00008A3FB0002A7
:101AF000CDF80C80912101FB0321636804935A4BBC
:101B000007935A4B05934FF0020A51A3D3E90023E0
:101B1000CDF82CA0FEF7F4FA104619464FF47A726D
:101B20000023FEF7EDFA05355E44EDB2CDE9017014
:101B3000032133462A46CDF80080404606F04AFB92
:101B4000494607F001FC002841D194F8623043EA8D
:101B50000A0384F862300CF04BF9002856D00020BC
:101B60000DB0BDE8F08F012DA8D199F84430DB0706
:101B7000A4D5266D002EA1D0B9F84C30384891215B
:101B8000A3FB000201FB032131A3D3E90023FEF7ED
:101B9000B7FA87424FF0000B47D00023C8F80C304B
:101BA0008EE7266D002E89D0B9F8B0302C489121EF
:101BB000A3FB000201FB032125A3D3E90023FEF7C9
:101BC0009FFA874226D00023C8F8003076E70C2021
:101BD0000DB0BDE8F08F0DF12C09CDE90A33616835
:101BE0004B460AAA032001F043FD00287FF472AFA0
:101BF0000B991F4816A3D3E90023A1FB0001FEF7B0
:101C00007FFA0A9B20F07F461E4463E7504614F09B
:101C100009FDA4E7D9F8B43033449F42D3D302334B
:101C20009F429CBF193E6660CDE7D9F850303344DF
:101C30009F42B2D302339F42AFD8193E6660D9F8B3
:101C40005030C4F850B0C9F850B003F1020BA4E70B
:101C50008D49FD1A0700000090560020785600209C
:101C6000002AE7841F85EB51E586000021F900007A
:101C700000CA9A3B000000002DE9F04F0B79082BB9
:101C800093B00C46074609D0092B00F07981062B4A
:101C900000F0CC8100DE13B0BDE8F08FD1F80890E1
:101CA000D9F82C30002B40F03B82D9F80080404618
:101CB0000EF028F90530C3B20B930420A37E2760F1
:101CC000002666F38613A37694F82130E660002B95
:101CD00000F04C8104F1220A3546B64694F82220E1
:101CE000910600F03F8194F823C01CF0010F14BF4F
:101CF00004F12A0104F124011CF0020F18BF06317F
:101D00001CF0040F18BF01311CF0080F18BF02317E
:101D10001CF0100B1CBF8B4603311CF0200F18BFAA
:101D200012311CF0400F18BF0131C2F30502A1EBC4
:101D30000A010132D2B2C9B28A4238BF0A469A4277
:101D40003ABF9A1A5FFA82FA4FF0000ABBF1000F0D
:101D500000F08E819BF802109BF801C00A0202F489
:101D6000F85252EA0C0200F08381BEF1000F40F0FD
:101D7000A9815F294FEA511C00F2D6819BF800101F
:101D80000C9101F03F0EBEF1240F00F2CD810C99B1
:101D900011F0800F14BF4FF496711E210D9101FBBD
:101DA00002F2410740F1D781D800A37EC3F380033C
:101DB0005B002B30013300FA03F303F5BC730D997C
:101DC00003F5967E50187045C0F08F810C99B64887
:101DD00049064CBF32214FF4FA7102FB01F1A0FB1E
:101DE0000101890C0C910121CDE90E3201FA0CF3AD
:101DF000D8B2109315F054FB61690F9A0E9B1190A5
:101E00002F390A44D31A0C9A1B1AA8489B1AA3FB11
:101E10000001A3A3D3E90023FEF772F920F07F436A
:101E20000E9394F91A30002B80F25481002D00F0AB
:101E30009E81AB8D53449BB21E2BAB8504D994F984
:101E40001A30002B80F2D380AB6A002B00F0A58102
:101E5000DC60AB8DAC62A3839BF80010109BB28852
:101E600001F03F0141EA032122F4E76240F23F73AF
:101E700022F007020B401343B38094F91A30002B71
:101E8000C0F28D81B8F1000F00F0978198F86230B0
:101E900013F0010340F02F81D9F82C20B24208BF83
:101EA000C9F82C30737903F00703032B00F25C812F
:101EB00003F10902D2005B10DA40119B7B4803F268
:101EC000053313447A4A0721E3FB0021104674A32B
:101ED000D3E90023FEF714F90C9B0D9A2F3302EB84
:101EE000430320F07F4068600022B360022101209C
:101EF00004F0C2FC0B9AFF2A0DD023690E99002032
:101F0000453B0B44CDE90000012106F0DBF910F060
:101F1000FD0F40F0698167493022284604F03CFCFF
:101F200065492369CDE907156449CDE90515696857
:101F300002460020CDE9030107320E990091CDE958
:101F40000100453BD2B2012106F010F910F0FD0F5F
:101F500040F0488101220221104613B0BDE8F04F45
:101F600004F08ABC013BDBB2002D3BD1A3832146A8
:101F7000384607F073F913B0BDE8F04F07F07AB9AF
:101F80008E684C4B35689D4260D1D5F82090B9F1F0
:101F9000000F00F0D08047493022084604F0FCFBD7
:101FA0000730C3B20B93D9F800000DF0C5FF80468F
:101FB000707900F0070002286ED004286AD001284A
:101FC0007FF468AE062394F81AE02371002273466A
:101FD00062F38613A37694F821302760E260002B29
:101FE00040F0FB80AA8D13449BB2AB85A383B8F16C
:101FF000000F7ED098F86230AA6ADB077BD4D460E9
:102000002B6AAC62002B7AD02B6A002B79D02B780C
:1020100003F0FF0233B3012A7ED1AB68002B7DD1E0
:10202000274BC5E9023513B0BDE8F08FD1F8089011
:10203000D9F82C30002B75D1D9F8008040460DF02E
:1020400061FF0530C3B20B93012037E6CB68002B4C
:102050007CD01D682A6A964272D1B1461E46FF2383
:102060000B93A0E7284613B0BDE8F04F0EF006B87A
:10207000002D48D0AB8D53449BB2AB85A383BEF1FA
:10208000000FB4D0AB6A002B43D0DC60AC6213B05D
:10209000BDE8F08F082396E7072394E7AFF30080AD
:1020A0008D49FD1A0700000083DE1B4300CA9A3BDE
:1020B0008C49FD1A84570020DD0001003500010025
:1020C000CD000100002D38D0AB8D53449BB2AB85C1
:1020D000A383D7E706F024FA23690E9A383B9918B0
:1020E00006F020FA02023FF5A1AE002D7FF47FAF8B
:1020F0003DE700DE7EE7AB6AA342C6D1CBE500DE5A
:1021000082E700DE83E7A4F81CA0BEF1000F3FF4D5
:102110002EAF00DEAB6AB8E700DE7EE700DE7FE7C9
:1021200000DEC2E500DE87E795B1AB8D53449BB27C
:10213000AB85A3835BE700DE2DE7A4F81CA0E8E7EE
:1021400000DEB1461E46FF230B932CE700DE80E73E
:10215000A4F81CA00BE700F0030E73440933DB0066
:10216000C0F34000C3402AE64FF43472A5E61F488E
:1021700004F0E4FA054610B30023027D0370C0E9C1
:10218000023363F3C712A0F82CA00061027543620A
:102190008362C0F8209000F110066C6259E6D9F80D
:1021A0002C30B3B9C9F82C60A37E43F04003A3766A
:1021B00033796FF3861333716DE500DE66E694F9CB
:1021C0001A30002BBFF6D3AEA37E43F04003A376B4
:1021D000CDE6B342E6D000DEE4E7CEF3C00E04F174
:1021E000220A7BE500DEB5E600DE94E6805700209B
:1021F0002DE9F04F05468BB08B4601200221994610
:10220000144619F047FA002202218246012004F008
:1022100033FB33494FF4C872284604F0BDFA00F18D
:102220000806304B0093F6B201954B463246012129
:10223000002006F0CDF810F0FD0F48D12A4BA4FB8A
:102240000348204624A3D3E900234146FDF758FF65
:10225000264B20F07F47A7FB03310722E01A02FB41
:10226000071168EB01014FF47A720023FDF748FF74
:10227000CDE90170CDF800B008950695696895F92B
:1022800037401B4804911B4931EA240128BF01460D
:102290000591194C07944FF6FE7103914B46324657
:1022A0000121002005F062FF10F0FD0F0DD1BAF101
:1022B000000F02D10BB0BDE8F08F012202211046C1
:1022C0000BB0BDE8F04F04F0D7BA00DEEFE700DE58
:1022D000B4E700BFAFF300808D49FD1A070000008E
:1022E000F80400200904010000CA9A3B8D49FD1A38
:1022F000E154010055560100F10301000000000007
:102300002DE9F0418468A28C4FF6FF739A428CB09D
:1023100044D00546204610F0A3FD2B7D012B00F094
:102320003181022B00F02481002B00F0038194F80E
:102330004461002E40F01F812B8AE78D94F93720ED
:10234000CDE90A666BB3002AC0F27B810023A4F8B2
:102350007431AB7CA28D03F00303551C012BADB28D
:102360003AD0B4F87831002B00F01581AB4240F23E
:102370007B815B1B9BB20022062BA4F87831E2859F
:1023800040F2068194F937309342C0F27281002303
:1023900025E09DF8271020460EF050FD0CB0BDE85A
:1023A000F081002AB8BF84F8B960AB7CA28D03F03D
:1023B0000303551C012BADB20ED0B4F87431002BC1
:1023C000CFD0AB4240F25F815B1BA4F87431B4F80C
:1023D0007831002BCAD102E00023A4F8783194F8B8
:1023E0003C2063F3820284F83C2029460DF1270249
:1023F000204610F0A3FA7430CBD0B4F872312BB170
:10240000AB4240F20F815B1BA4F87231B4F86E311D
:102410002BB1AB4240F2FD805B1BA4F86E31E58D21
:1024200016B9AF4200F0EC800135ADB294F8B5308A
:1024300013F0010723D1DDE90A130A46002B40F00F
:10244000EF80002900F0DE801F461846A28C246928
:102450000694CDE903560832AB4D0290CDE9001742
:10246000D2B201210020059505F014FF10F0FD0FF8
:1024700094D006F093FF844290D000DE8EE794F96A
:1024800037206FF30003002A84F8B530C0F29E8035
:1024900094F85800C0F3C00100F0070014F0FEFFEC
:1024A00094F8583003F00703032B00F29D8003F1EA
:1024B0002801C9005B10D94094F85930B1F5A07FCC
:1024C00003F0070338BF4FF4A071032B00F295808F
:1024D00003F12802D2005B10DA40B2F5A07F38BFCA
:1024E0004FF4A072E38B03F2093303440B4413440B
:1024F0008648874A0721E3FB0021104680A3D3E9E1
:102500000023FDF7FDFDDDE90A1320F07F4260683E
:102510006260904235BF171A801A002000270A46D1
:10252000002B93D151EA070C90D100286AD01946AC
:102530001F468BE794F8723003F01803182B7FF4D2
:10254000F6AE218DB4F870218B1D9A42C4BF931F43
:102550005B1AB4F86C11CCBF9BB21346994200F0E1
:10256000AE80A4F86C31A4F86E31A4F87221DEE6D6
:102570003D2684F84461314620460CB0BDE8F04168
:102580000EF05CBC0023A4F87231A4F86E31CEE6E4
:102590000126334623E7E28C052A97BF013240F239
:1025A000E2434FF4FA7392B203FB02F2B4F87631CD
:1025B00042F2107101FB0323013BB3FBF2F39BB228
:1025C000A4F87831002B7FF4D1AE08E794F85900D5
:1025D000012100F0070014F063FF94F8583003F075
:1025E0000703032B7FF663AF94F8593003F007031A
:1025F000032B4FF429617FF66BAF4FF4296271E72B
:10260000354613E7002D43D00027114638463B4698
:102610001CE70023A4F86E31204610F021FAFEE6F4
:10262000384613E706F05CFE0146A0B30023A4F889
:102630007231A38CC3801B230371006806F020FE57
:10264000E4E694F8B9306BB3013B84F8B93004F197
:10265000C40840460FF082FFB8B340460FF07EFF3B
:10266000B8B30023E38571E6082120460EF0E6FBAF
:1026700094E6A7B9D4F8BC305A0813F0010336D158
:10268000C4F8BC2083E63E2120460EF0D7FB85E649
:10269000002EB9D182E60123A4F87231B6E61346C2
:1026A00001269CE60AAA0BA92846FDF795FEDDE95E
:1026B0000A231343CBD0237884F8B930C7E7B4F8A2
:1026C000721100297FF433AE4DE7FF200EF04EFB70
:1026D000C3E70246D4E9170104F096F80028C0D1F8
:1026E00094F83C301B0744BF238DE3852EE642F06F
:1026F00000421E46C4F8BC203B4670E6AFF30080A3
:102700008D49FD1A070000004904010000CA9A3BE8
:102710008C49FD1A000000002DE9F04F87B0B0F899
:102720004071BDF84C900091CDE90432B0F804310D
:10273000BDF840A01F44BFB20446A7EB090390F8C0
:102740005800D4F8FC809EB2BDF844300193C0F329
:10275000C001BDF84830039600F00700029314F062
:102760009DFEE58C052D40F21D8115FB06F5ADB2F1
:1027700040F2E24BBAF1050F40F2088194F858207C
:102780004FF0961302F00702E361032A4FF096031D
:10279000238440F2D98094F8592002F00702032ADA
:1027A0004FF4296300F2E18002F12801C9005210C0
:1027B00021FA02F2B2F5A47F38BF4FF4A472134499
:1027C00000F29F300344844A84480721E3FB002140
:1027D00010467FA3D3E90023FDF792FC564620F074
:1027E0007F4040F2E2430BFB05F203FB06F6531E6B
:1027F0003344B3FBF6F31FFA83FB606006FB0BF078
:1028000082425D4680F0B4807449801AA0FB0101C9
:102810006FA3D3E90023FDF773FC20F07F408044D1
:10282000B4F80421B4F84031A9EB07094D44ADB226
:1028300013442B44A4F84031638D13441D4494F891
:1028400037306585DB0900F0B580216CA36C634FE0
:1028500001FB0233039A01FB1233A3640023C4F883
:10286000C03015F021F8054694F8B800C0F34200D6
:1028700015F01CF8054406FB05F5594B564805F5BF
:10288000742505F23F25A3FB0535AD0CA36C25642B
:102890000BFB05FB72085B44963A934228BF134634
:1028A000C4E91123059B40F2E24909FB03F3072128
:1028B0002365EBFB070146A3D3E90023FDF720FCCA
:1028C000049BA8EB00084748A0FB0330800A09FBE3
:1028D00000F0A0FB07013EA3D3E90023FDF710FCA5
:1028E000751B20F07F47019B2385029BA4F876315E
:1028F00031462046A4F826A010F04CF83A4B218D22
:102900003344881DB3FBF6F39AB29042A4F87021C9
:1029100004D2C1F57F41FA310A4492B2009BA4F877
:102920006C2113B10023A4F8783143462A46394676
:102930002046FFF75DFC94F8423143F0010384F830
:10294000423107B0BDE8F08F02F12803DB005210DE
:10295000D34094F85920B3F5A47F02F0070238BFA2
:102960004FF4A473032A7FF61FAF4FF4296226E7C2
:10297000121A1A48A2FB000115A3D3E90023FDF7A0
:10298000BFFB20F07F40A8EB000849E74FF096130B
:102990000AF10106E36196232384B6B219204FF4AD
:1029A000FA7320E7039B013515FB03F5ADB24FF435
:1029B000FA7BDFE6049B0948A3FB000104A3D3E9EB
:1029C0000023FDF79DFB20F07F47354601378AE75E
:1029D0008D49FD1A070000008C49FD1A00CA9A3B78
:1029E00083DE1B435917B7D17FC3C9010000000024
:1029F0002DE9F04F04460B6890F820701668D3F864
:102A000000A0E38CD0F8220095B015464A7CADF8C2
:102A10004C30FF2AC7F3801388460C9212908DF831
:102A20003F3040F0208299461A4612AB93E80300EB
:102A30000DF1400B1090ADF84410FF090AF1870129
:102A4000D4F800C00A915B463846CDF82CC00EF091
:102A5000E1F80A99002840F0EE8196F880310A905A
:102A600069F3C71367F3861386F880311098BBF8B3
:102A70000430C6F88701A6F88B31DAF88730C6F83B
:102A800081318B88A6F88531638E94F83410A97251
:102A90002B81D4F82E306B60D4F83E30C5F822304C
:102AA00005F1220094F842300371052104F030F85A
:102AB00095F8273000F03F0060F3050385F82730D4
:102AC00094F84330C3F3040185F82810218FE9827C
:102AD000012803F01F0389B240F2AD811B3303F0DC
:102AE0001F030B2B00F2A781063989B240F67A4307
:102AF00099420A9A00F29F81D8F800305A60638F99
:102B00002B83E98ADAF8382040F2E24303FB01F72D
:102B1000E18E0A91002A00F013829AF8191040F60B
:102B2000C41240F6A6637F2988BF1A460D92002181
:102B300030460FF043FF94F8433096F8B8205B0915
:102B400063F3430286F8B82014F0AEFE814696F88F
:102B5000B800C0F3420014F0A9FE09EB000307FB24
:102B600003F3D34A03F5742303F23F23A2FB0323A9
:102B70009B0C2B637B08963B6B6394F8353040F2DB
:102B8000E24202FB03F36B64A38FA6F87631394669
:102B900030460FF0FFFEC74BC74AC6F87C213B44C6
:102BA000B3FBF7F39AB2A6F87021298B881D8242F5
:102BB00004DDC1F57F41FA310A4492B2A6F86C21D6
:102BC0006B68C6F8BC30DAF83830002B00F0B381FF
:102BD0004FF00109E20700F1BB814FF480732384B9
:102BE0009AF81B0013F0ECFF04F12F03002800F00B
:102BF0005581A26AC4F82F20A28D9A800C9BFF2BCE
:102C000000F0A081BDF84C301298A4F82D30C4F823
:102C10002900BBF80430A4F8273010989DF83F3005
:102C2000C4F8230084F82230EB8AE3862B8B2387B9
:102C3000B6F87631638796F8B830C3F3420384F868
:102C40003C3030460DF082FC0823A882E08085F8F5
:102C5000A730D8F804B00B98214606F0FFFAAB8AEB
:102C6000ABF806301C23DBF800408BF80430B9F1D8
:102C7000000F40F02F818BF820900AF03BFD0028D8
:102C800040F03B815946204606F0FAFA95F8483064
:102C900003F00703032B00F2FE8003F1280B4FEA39
:102CA000CB0B5B102BFA03FBBBF5A47F38BF4FF4B3
:102CB000A47B95F8490000F00700032800F2E880A3
:102CC00000F12804E4004310DC40B4F5A47F38BFD1
:102CD0004FF4A474012114F0E3FB8146774A78484D
:102CE0005C4409F29F3323440721E3FB02014FF0C8
:102CF0009613C5E903336CA3D3E90023FDF700FA6B
:102D000020F07F407060D8F80C300A982A6B40F2AF
:102D1000E24101FB00342F3C0D9BA41ABD1A022195
:102D2000002201201C4403F0A7FDDAF83830A4EBA0
:102D30000904A3B11F6838460BF07EFEC21C614B2C
:102D40000097D2B20121002005F000FB012800F01D
:102D5000088197F846306FF3000387F846305046F5
:102D60000BF02AF8074655484FA3D3E90023A4FBEC
:102D70000001FDF7C5F9CDF804A0D8F80830514995
:102D8000009120F07F4BBA1C453BD2B25B4401213D
:102D9000002005F01DFB012800F0DC809AF81830B7
:102DA000DB0700F1A28030460DF0D0FB434BA5FBC2
:102DB000035904463CA3D3E9002328464946FDF7BE
:102DC0009FF9D8F80830404A0792A3F145083F4BD5
:102DD000069620F07F47A7FB0331E81A3C4B05938A
:102DE0004FF4F873089373684FF0000ACDE903A31A
:102DF0004FF0070303FB071169EB01014FF47A72EF
:102E00000023FDF77DF90834E4B2CDE90170CDF877
:102E100000B0434622460121504605F0A7F910F0C4
:102E2000FD0F40F0A58001220221104603F024FD91
:102E300015B0BDE8F08F0022CAF8082095F82C30B4
:102E40000B9862F3000385F82C30E56801262146D3
:102E5000267106F003FA28682E71294606F010FA4A
:102E600015B0BDE8F08F0DF1400B10460DF13F019C
:102E70005A4613F0C9F89DF83F9094F8207009F174
:102E800002095FFA89F98DF83F9009F00102D4E553
:102E90004FF429641EE74FF4296B0AE7C4F82F00AA
:102EA0009880ABE6AFF300808D49FD1A0700000063
:102EB00083DE1B437FC3C901404B4C0000CA9A3BD1
:102EC0008C49FD1A69550100B95401008D49FD1A5C
:102ED000E154010095F8273043F0400385F827308E
:102EE000281D12F089FE2885C5E6002301220093E3
:102EF0001846114605F02AFA55E75946204606F0CD
:102F0000ADF9DAF834B05046DBF800400AF054FF6F
:102F100010F0FF000DD100231222ABF806008BF851
:102F200008308BF80420AA8AABF80A208BF8093005
:102F3000A8E600DEEFE794F82030C3F3401949E635
:102F40000D93F4E50022C4F82920A4F82D2060E6B2
:102F500000DE42E606F022FA82453FF41FAF00DEB3
:102F60001CE706F01BFA87423FF4F3AE00DEF0E602
:102F700000DE58E7000000002DE9F04F8DB09B46C1
:102F8000BDF864300893CDE90601BDF868309DF8BE
:102F90005C80BDF860A09DF86C90039200200593C2
:102FA0000CF0FCFF002800F09C8008F001070546AB
:102FB000384605F04BFB04902FB1062103F000FCCE
:102FC000002800F09880169B04995A4638460DF068
:102FD00021FE002840F0818001200CF0DFFF064632
:102FE00000287ED019F0040F7FD04369002B00F039
:102FF000848006F1100494F8343069F3020384F8F5
:1030000034306368002B00F08D80D4F804900BF00E
:103010000103D9F80050089399F84800C0F3C001A3
:1030200000F0070014F03AFA94F8342002F0070296
:10303000032A68D802F12801C900521021FA02F2CD
:10304000B2F5A47F38BF4FF4A4725200B9F80E1045
:1030500000F209330B441344B348B44A0721E3FB9D
:1030600000211046AEA3D3E90023FDF749F820F074
:103070007F406860039D284613F014FBA38E03F085
:10308000BF0363F0FF03A386002D3FD0A8F1020326
:10309000012B40F22D8196F86210089868F38301A5
:1030A00086F8621094F8341060F3451184F83410F7
:1030B00016990968A16016998988A1810599A1824C
:1030C00003990091DDE9062320460021FEF778FCF4
:1030D000B06500200DB0BDE8F08F0B200DB0BDE84D
:1030E000F08F0C200DB0BDE8F08F6B6943B105F196
:1030F00010042E467FE71220F0E76B69436178E702
:1031000043696B61F3E74FF4A9529FE713F05EFE4A
:103110000028BBD0039A1699584613F039FC84F85E
:103120003500B3E706F082F80990002800F0F2803D
:103130000DF000FA0546002800F0E980143003F095
:10314000FBFC05F11009002840F0E680032105F1A1
:10315000180014F091F8E86E089B2B854FF6FF726B
:10316000A5F826A0AA84002800F0CD8005F15C0116
:1031700005F1600203F030FBB5F8582022F4EF624D
:1031800022F0070242F48C7242F00102A5F85820A6
:1031900095F8722022F00702002385F8722040F68D
:1031A0007F02EB66A5F870306B85C5F82E30A5F868
:1031B000B62005F1320012F0C9FC95F8372060F313
:1031C000050285F8372001210DF12F0014F054F885
:1031D000059A9DF82F10A5F87621554AA2FB010209
:1031E000D20802EB4202A1EB820195F8372002F0EF
:1031F0003F0285F8372095F83C20053122F0070280
:1032000040F2E24085F8381085F83C20298D494A83
:1032100000FB0AFA06205244A5F8740101F1060CDD
:10322000B2FBFAF290B20023604585F83930A5F878
:103230004031A5F87831A5F87231A5F86E31A5F8BE
:10324000700102DD0638401A80B2A5F86C012846EC
:103250000FF038FB514628460FF09CFB4FF0000A58
:10326000099BC5F8483185F844A10DF0C7FC95F8D5
:10327000802160F3020285F880210DF0C5FC95F8ED
:10328000802160F3C50285F8802195F842216AF318
:10329000410285F8422105F1C4000FF01DF995F8AF
:1032A00080210BF0010363F3C71285F880214FF0F2
:1032B0009612C5E907220893169B1A68C5F887215C
:1032C00095F880219988049BA5F88B1168F38612E4
:1032D00085F880211A68C5F881219A88A5F885218A
:1032E000C4F80490C5E902AA85F800A02D6193E610
:1032F000002013F0FBF994F8343043F04003B84653
:1033000084F83430C7E605F16400E8662EE70998D2
:1033100005F092FF0720E1E600DE17E7AFF300803B
:103320008D49FD1A0700000000CA9A3B8C49FD1A1E
:10333000ABAAAAAA7FC3C9012DE9F04F04468DB0FC
:1033400090F82070A38D806AADF82C30E3070E460C
:103350001546C7F3C0110A90C7F3401700F11C814E
:1033600000232384B37C707C13F001031CBFD4F8CA
:103370002230C4F82F3004F12F0214BFE38CC4F8BC
:103380002F30FF28938004F1290804F1230200F074
:10339000E18004F1220112F037FE94F82230BDF8EA
:1033A0002C200A98C4F82900023384F82230A8F8A7
:1033B00004203368D3F800A0EB8AE3862B8B2387A5
:1033C000BAF82430638714F06DFA84F83C00D5F81D
:1033D000009048460DF0BAF80021A882E0804846E7
:1033E0000FF0ECFA082385F8A730D6F8048020689F
:1033F000214605F033FFAB8AA8F806301C23D8F825
:10340000004088F80430002F40F0B38088F8207026
:103410004146204605F034FF95F84800B5F816B04F
:10342000F46840F2E243C0F3C00100F0070003FB80
:103430000BFB14F033F80022A4EB0008022101205A
:1034400003F01AFA50460CF05DFD594CA8FB0448F5
:1034500055A3D3E90023054641462046FCF750FE1C
:10346000CDF804A0B3685349009120F07F476A1D4E
:10347000453BD2B23B440121002004F0A9FF10F0EB
:10348000FD0F40F08D8001200CF070FD054678B1F5
:1034900082457AD028460CF035FD421D464B0095FA
:1034A000D2B20121002004F051FF10F0FD0F75D1C0
:1034B0004FF0000A534604220121CDF800A05046E7
:1034C00004F044FF48460DF041F80546384836A35D
:1034D000D3E90023ABFB0001FCF712FE1946374B82
:1034E000B6680893364B069340F27233CDF81C90C1
:1034F0000993D9F804308346CDE904A3104600238C
:103500004FF47A72FCF7FCFD2E4B0722A7FB033128
:10351000CDE902B002FB0711E01A68EB01014FF49C
:103520007A720023FCF7ECFD0835453EEDB2CDE99B
:10353000007033462A460121504604F033FE10F055
:10354000FD0F2FD10122022110460DB0BDE8F04F32
:1035500003F092B90023BDF82CC00A98C4F82930B2
:10356000A8F8043084F82210C4F82300A2F804C09C
:103570001FE795F8273043F0400385F82730281DD2
:1035800012F03AFB0127288540E700200CF0EEFC02
:10359000054600288CD07DE700DEE1E600DE87E707
:1035A00000DE70E700DECDE78D49FD1A0700000060
:1035B00000CA9A3B215601002D56010025560100F4
:1035C000555601008D49FD1A032838B50D4610D017
:1035D0000838C3B20F2B11D880B20CF0BFFF0446DD
:1035E00060B190F93730002B0BDA40682860204634
:1035F00038BD00200BF0C8FA0446D8B90024204694
:1036000038BD90F85800C0F3C00100F0070013F077
:1036100045FF154A00F5C55314481F330721E3FB46
:10362000002110460EA3D3E90023FCF769FD20F02A
:103630007F40DBE7FF2211460BF0AEFA0B4A0A4B44
:103640000721E0FB0231184605A3D3E90023FCF76C
:1036500057FD20F07F402860204638BDAFF3008042
:103660008D49FD1A070000008C49FD1A00CA9A3BDB
:1036700070B588B01E46134606AA029207AA0192A8
:1036800005AA00920024224A079412F07FF9FF282D
:1036900034D0069B1F480721A3FB000201FB032136
:1036A00019A3D3E90023FCF72BFD044600B13E34F7
:1036B000079D1949059BA5F57422A2F510728A424F
:1036C00014D814480721A3FB000201FB03210EA319
:1036D000D3E90023FCF714FD104BA3FB053504EBE5
:1036E000954404443460002008B070BD05F1E875CD
:1036F00005F5D435013B05F5A575E2E76FF0090046
:10370000F2E700BFAFF3008000CA9A3B0000000060
:10371000815901008D49FD1ABFBDF07F83DE1B4337
:103720002DE9F043C668476873683D491A68D0F8C8
:103730000090A7F57423A3F510738B4283B08046E5
:1037400007D907F1E87707F5D43709F1FF3907F50D
:10375000A57773685168DD8ACDF8049006F11003EF
:1037600001AA0220FFF784FF00284ED10199A1EBA6
:1037700009031B0237D40846494604F0D3FE03462A
:1037800028480721A3FB000201FB032122A3D3E960
:103790000023FCF7B5FC34690444002C346109DBD8
:1037A00040F2E24305FB03F3A3422FD2E41AA34203
:1037B000FCD33461D8F800301A48A3EB0903A3FB0B
:1037C0000002072101FB032113A3D3E90023FCF727
:1037D00097FC154BA3FB0737A0EB974020443061C3
:1037E00003B0BDE8F083484604F09CFE03460D4854
:1037F0000721A3FB000201FB032107A3D3E9002358
:10380000FCF77EFC3469241AC7E73469002CD1D157
:1038100003B0BDE8F08300BF00CA9A3B000000007F
:10382000BFBDF07F8D49FD1A83DE1B430000000001
:10383000F0B5C468636883B00546002B5CD117F00F
:103840004DF894F92C0017F077F8A17A607A01F01E
:103850000101C0F3820017F059F8627A252102F0C5
:103860001C02082017F0CEF8414B019301A817F075
:10387000B5F8404940F25B6017F088F9237AC3F34A
:10388000420262F306132372204614F017FA13F073
:103890009DFA58BB637A9B071FD127682E6838466C
:1038A00013F0B4FD06446A6806F11801012017F010
:1038B00019FC17F05BFD20460AF08CFA811C324699
:1038C000C9B2384613F0A4FD054610BB204613F0DC
:1038D0004FFDE0B9002003B0F0BD012012F062FE00
:1038E0004178821C007817F09DFBD6E7607A10F0D3
:1038F000030018BF0120F1E793F82C309A079ED0FF
:103900001D48214616F0BEFF17F0DAF8E2E700DEA8
:10391000E0E71A4A1A491B4840F211431BF045FBE5
:10392000194B0721A5FB030301FB05310EA3D3E9C6
:103930000023FCF7E5FB1549024615481BF035FB53
:10394000002585F31188BFF36F8F0323184602DF2C
:103950001048214616F096FF17F0B2F86FF08B0072
:10396000B9E700BFAFF3008000CA9A3B0000000037
:10397000D6BE898E55555500897501003C0B020055
:10398000880B0200C00902008D49FD1AB80B020025
:103990008C0B0200B97801002DE9F047C46884B0AF
:1039A000002307460DF1070104F1140066688DF845
:1039B000073014F045F90546002800F0DD80337B20
:1039C00006EB8303D3F8108098F8003003F00F0360
:1039D000072B40F0C78003A9404614F007FC0028DD
:1039E00040F0C880039A002A00F09F8093785178B5
:1039F0001B0203F4F8530B4300F09780238992F8DD
:103A000000A00133238116F069FF96F92C0016F00F
:103A100093FF96F80990B17A4FEA591901F0010124
:103A2000484616F073FF4FEA8902FF21082016F07E
:103A3000E9FF6B4B029302A816F0D0FF0AF03F0A91
:103A4000684940F25B6017F0A1F8504613F0F2FCB1
:103A500098F802303F2B36D8AB789A0602D0EB7834
:103A6000DB0669D4002360482362214616F00AFF72
:103A700017F09CFA284616F0FBFF26683D68304692
:103A800013F0C4FC054405F118017A68012017F011
:103A900029FB17F06BFC20460AF0D8FFC11C2A4610
:103AA000C9B2304613F0B4FC054600286AD120465E
:103AB00014F0AEFC204613F05BFC00285ED1002021
:103AC00004B0BDE8F0870DF1070106F1180014F00D
:103AD000B7F88046002853D02146444816F0D2FE5D
:103AE000962017F0F3FA484617F0FCF99DF80730D6
:103AF000A3B913F06BF958B9737A9907BAD00120BA
:103B000012F050FD4178821C007817F08BFAB1E773
:103B1000707A10F0030018BF0120F1E76B68C8F855
:103B200004302B89A8F80830E3E73148214616F025
:103B3000A9FE16F0C5FFC2E720462946256214F00B
:103B40003DFC21462B4816F09DFE4FF4967017F071
:103B5000BDFAB37A03F0010319464A46484617F006
:103B6000EBF987E700DE03A9404614F03FFB00288D
:103B70003FF438AF00DE35E700DE20E700DE9EE7E9
:103B800000DEA9E71C4A1D491D484FF4A4731BF031
:103B90000CFA1C4B0721A5FB030301FB05310EA307
:103BA000D3E90023FCF7ACFA1749024617481BF08B
:103BB000FCF9002585F31188BFF36F8F03231846A6
:103BC00002DF0948214616F05DFE16F079FF6FF01E
:103BD0008B0075E7AFF3008000CA9A3B000000003D
:103BE000D6BE898E555555002982010051820100AB
:103BF0006D8301002D840100C40B0200880B0200BC
:103C0000C00902008D49FD1A140C02008C0B020041
:103C10002DE9F041C46894F92830002B8CB0C0F233
:103C2000E680636805460E46002B40F0D58094F888
:103C300028306FF3000384F8283016F04FFE94F913
:103C4000440016F079FE94F83400012100F00700DA
:103C500016F05CFE94F8342092000820252102F032
:103C60001C0216F0CFFE94F8343023F01803012024
:103C700084F8343005F032FC002800F0BF8020309A
:103C800016F0F0FE764B0B930BA816F0A7FE7549C5
:103C900040F25B6016F07AFF94F82800C0F3410010
:103CA000253013F0C7FB7048214616F0EBFD94F861
:103CB00028309B0603D46368002B00F08A8096208E
:103CC00017F004FA00231A461946184617F01EF991
:103CD00013F07CF8002840D194F8283013F0180F26
:103CE00057D1D4F800802F68404613F08FFB07446B
:103CF0006A6807F11801002017F0F4F917F036FB95
:103D000017F06CF920460CF009F9411DC9B2404684
:103D10003A4613F07DFB8046002875D116B9236C16
:103D2000002B3FD163687BB12A68504BA2616A685F
:103D3000E26104F11801996064620122022100200D
:103D400002F0CEFD00285DD1204613F011FB0028C3
:103D500056D100200CB0BDE8F08194F82800C0F3E3
:103D6000C00012F01FFC07460DF12B0012F050FFAF
:103D700079788046BA1C387817F054F994F83420D2
:103D80009DF82B009200414602F01C0217F088FBC0
:103D9000A7E7012012F006FC4178821C007817F09A
:103DA00041F99EE7324A0792324A059240F2F312F5
:103DB00000930892CDE90366CDE9016606943B467F
:103DC0003146042204F0D2F910F0FD0FAAD000DE33
:103DD000A8E717F0EBF87BE7636893F82C30D90776
:103DE00005D4636893F82C309A077FF520AF2248FA
:103DF000214616F047FD16F063FEAAE700DE3EE717
:103E000000DEA6E700DE9FE71C4A1D491D4840F280
:103E1000E5131BF0CAF81C4B0721A8FB030301FBA9
:103E200008310DA3D3E90023FCF76AF917490246CC
:103E300017481BF0BAF8002585F31188BFF36F8F80
:103E40000323184602DF1348214616F01BFD16F027
:103E500037FE6FF08B007DE700CA9A3B0000000040
:103E6000D6BE898E55555500393F00003C020020D2
:103E7000B98701003988010089750100200C020012
:103E8000880B0200C00902008D49FD1A6C0C02006B
:103E90008C0B0200F988010038B5044614F0E0FCF0
:103EA00094F8283094F82820C3F34103013303F039
:103EB0000303032B08BF002363F3420214BF03F183
:103EC0002500252084F8282013F0B4FA63680BB18C
:103ED00023694BB904F024FBC11C002017F064F9DE
:103EE000BDE8384017F042BA17F0E4F9054604F08F
:103EF00017FBC11C002017F057F917F037FA17F01D
:103F0000D9F9294604F00EFB094A03460721A0FB14
:103F1000020201FB032104A3D3E90023FCF7F0F81C
:103F200023691B1A236138BD00CA9A3B00000000B8
:103F30008D49FD1A000000002DE9F04F8DB00446B8
:103F400016F00EFE10F0FF0013D1FF238DF82900AC
:103F50008DF827008DF82A308DF8283013F0BAFA42
:103F6000A348214616F08EFC16F0AAFD0DB0BDE860
:103F7000F08F16F017FE054617F088F88DF8270029
:103F800017F08EF88DF8280017F0FCFA8DF829004C
:103F900017F0DAFA8DF82A0017F03AF8064617F00B
:103FA00013F8EDB2074613F095FA002DD8D0012092
:103FB00005F094FA0546002800F0F88195F82030C5
:103FC00003F00F03072B05F1200900F0E5809DF8B1
:103FD0002730002B3FD19DF82980B8F1000F40F029
:103FE000FD8042464FF0FF0A41465346204614F0FA
:103FF00095FE0028B4D09DF8298095F820206168AE
:1040000000238DF82B30F6B202F00F0300294AD0BE
:10401000616891F82C10880745D4072B40F0EA809E
:1040200094F834305A079BD094F8282012F00102FB
:1040300096D10DF12B010191CDF800A04B46012145
:10404000204614F0B3FE002840F0A18095F82030FF
:1040500003F00F0379E094F828009DF82810C0F3CE
:10406000C00012F0DFFD9DF829809DF827208246D0
:10407000BAE7012B46D195F821200C2AE6D195F814
:104080002020CDF800A0194600230193D20905F1A4
:104090002803204614F016FD002840F0B88095F85B
:1040A000203003F00F036BBB95F821309A1F1F2AB5
:1040B00044D894F8282002F02102202A08D1D4F80C
:1040C00004B0BBF1000F00F09D81063B1F2B35D8DB
:1040D000636833B195F8203003F00F03072B7FF4AA
:1040E0003FAF9DF82B50009733465246414620463D
:1040F000019514F03DFD00283FF432AF10307FF4FD
:104100002FAF33E7062BCFD04521D94011F0010165
:1041100040F05681012B11D195F821300C2B95D10F
:1041200095F82020CDF800A00DF12B030193D209C2
:1041300005F12803204614F0C5FC40BB95F820305B
:1041400003F00F03072B3FF46BAF042B7FF408AF92
:1041500095F82130063B1F2B3FF602AF94F828302C
:10416000DB077FF5FDAE16F02BFD95F820300278C9
:10417000C3F38013B3EBD21F7FF4F2AE08300622F4
:1041800005F122011CF05AF900287FF4E9AE95F8F8
:104190002130002B9CD1E3E60DF12A0301930DF1B0
:1041A000290300930DF127020AAB4946204615F07A
:1041B000E3FA9DF827308346002B40F0DE809DF81F
:1041C0002980B8F1000F40F0F3804FF0FF0ABBF1F7
:1041D000000F3FF412AF9DF8272005E79DF82A0055
:1041E00012F044FD9DF829809DF827208246FBE6C9
:1041F0002589010094F82810090740F1CA80002B96
:104200007FF437AF95F82130063B1F2B96D804205A
:1042100005F064F900283FF4A3AE17F0AFF8236C63
:10422000074643B9A38F40F2712202FB03F3B0FBB0
:10423000F3F203FB120723685A68B14B0721A2FB74
:10424000030301FB0231ACA3D3E90023FBF758FFC2
:10425000A0F2D3431F3B62EB0202BB4272F10002A9
:10426000FFF47EAE16F0A2FE63680793504612F08C
:10427000B5FC94F834305B06814640F11B81002880
:1042800000F018818346012716F09AFCCDE9027BE5
:104290000BAB049305F12203019395F82030C3F38F
:1042A000801301460746009300220123204614F0A4
:1042B000EDFD384616F0DCFB16F048FC002840F017
:1042C00017819048214616F0DDFA002E40F0F98063
:1042D000626892F82C3043F0010382F82C3094F895
:1042E000283043F0800384F8283005F013F91722B2
:1042F00002714FF6FF72C28095F820E006463B46F9
:10430000CEF3401E00F1200207F1200C1D68586812
:104310009968DF68D760103363451560506091601D
:1043200002F11002F2D11B68136096F82030B460DD
:104330006EF3451386F8203016F0BCFFB8F1000F7D
:1043400030610B9B736108BF4FF0FF0A86F819A01C
:1043500094F8343013F0400303D0B9F1000318BFD0
:104360000123B27E63F30002B27605F0D3F8314642
:10437000F060306805F0FCF8F8E594F828009DF846
:104380002810C0F3C00012F04DFC9DF82980824631
:104390001DE7BAF1FF0F8DF82CA0C2F3801B12D0DD
:1043A00094F8352052453FF42AAF7CE600DE05E65E
:1043B0009DF82A0012F05AFC9DF82980824606E7F3
:1043C00095F8213081E605F122010BAA58460791A4
:1043D00012F0A0FC079900283FF461AE94F8343045
:1043E000C3F340135B457FF45AAE062204F1080084
:1043F0001CF024F800287FF452AE95F8203003F02A
:104400000F03FCE6962016F061FE584616F06AFD92
:10441000CDE9007B334641465246204614F0A8FBC6
:1044200000287FF49DAD16F0CBFB064603223378BF
:1044300062F30303337095F820303278C3F38013AE
:1044400063F3C7120C2332705046737012F0C6FB30
:1044500094F8342057063AD5C8B33178324641F043
:10446000400102F8021B0168C6F80210838893809D
:10447000D5F82230B360EB8CB381304616F0F8FAF1
:1044800016F064FBB0BB16F071FF94F8283043F0CF
:10449000010384F8283095F82030190705D194F8E5
:1044A000343043F0080384F834301748214616F0BE
:1044B000E9F95BE594F8287004F1360BC7F380172F
:1044C000E2E616F095FD079B83F8A60000E794F856
:1044D00028303278C3F3801363F38612334603F82F
:1044E000022BD4F83620C6F80220628F9A80BFE7EC
:1044F00000DEE6E600DEC6E700CA9A3B00000000E8
:104500008D49FD1AC18901003989010000000000B0
:104510002DE9F047C46882B007460DF1020120463C
:104520000BF05AFE90F92830002BC0F2D880436877
:104530000546002B40F0C8802379854A6FF3861327
:1045400023710023138016F0C9F995F9440016F081
:10455000F3F96079012100F0070016F0D7F96279CC
:1045600092000820FF2102F01C0216F04BFA0120F5
:1045700004F0B4FF002800F0B980203016F072FA81
:10458000744B019301A816F029FA734940F25B605D
:1045900016F0FCFA207900F03F0012F04BFF2146A4
:1045A0006E4816F06FF9962016F090FD627902F0D1
:1045B000070201231046002116F0A8FC12F006FCA9
:1045C000002859D195F8283013F0180F73D1D4F87A
:1045D00000903E68484612F019FF06EB00087A6822
:1045E00008F11801002016F07DFD06466079D4F828
:1045F00008A000F00700012116F04CFA064460798B
:1046000000F007000228564434D004280CBF4FF4B1
:10461000BC73282301211E4416F03EFA304416F0E4
:104620005DFE16F0A3FE16F0D9FC20460BF0CAFD85
:10463000C11D4246C9B2484612F0EAFE06460028AD
:104640005AD16B686BB13B68AB617A68444BEA61E5
:104650006D620122183502219D6002F041F90028A7
:1046600048D1204612F084FE002841D1002002B03B
:10467000BDE8F0871823CDE795F82800C0F3C00007
:1046800011F090FF06460DF1030012F0C1FA7178A7
:104690008046B21C307816F0C5FC62799DF80300A4
:1046A000C2F30202920042F00202414602F01E02F0
:1046B00016F0F6FE8BE7012011F074FF4178821CA2
:1046C000007816F0AFFC82E7436893F82C30DA07E5
:1046D00005D4436893F82C309B077FF52DAF214814
:1046E000214616F0CFF816F0EBF9BFE700DE44E7FD
:1046F00000DEBBE700DEB4E71B4A1C491C4840F261
:1047000051231AF052FC1B4B0721A6FB030301FBAC
:1047100006310DA3D3E90023FBF7F2FC164902464C
:1047200016481AF042FC002585F31188BFF36F8FFD
:104730000323184602DF1248214616F0A3F816F0AC
:10474000BFF96FF08B0092E700CA9A3B00000000AF
:104750004E800020D6BE898E555555000D9801001B
:104760005C02002075930100800C0200880B02009F
:10477000C00902008D49FD1A180D02008C0B0200C1
:10478000D98F0100000000002DE9F04F8FB00546E1
:104790000E46174616F0E4F910F0FF0015D1FF237E
:1047A0008DF831008DF82F008DF832308DF83030D3
:1047B00012F086FE002E5CD07E48314616F062F87C
:1047C00016F07EF90FB0BDE8F08F16F0EBF9044655
:1047D00016F05CFC8DF82F0016F062FC8DF83000AE
:1047E00016F0D0FE8DF8310016F0AEFE8DF83200D6
:1047F00016F00EFCC3B2079316F0E6FBE4B2069087
:1048000012F05EFE9CB3032004F068FE044670B311
:1048100090F8203003F00F03072B00F1200A26D177
:1048200090F821301BB30DF1320301930DF13103E8
:1048300000930DF12F020CAB5146284614F09CFF5B
:104840009DF82F208346002A40F0A6819DF83190E4
:10485000B9F1000F40F0C6814FF0FF08BBF1000F27
:1048600028D043464946284614F058FA10BB002E7B
:10487000A2D195F83430D90640F1898104F04AFE7E
:104880000146002800F0C3820A230B718D60EB6A99
:104890000868CB6004F06CFE95F83430DA0640F11D
:1048A00076816FF30413444885F83430294615F0B7
:1048B000E9FF85E76B6800228DF833202BB16B6828
:1048C00093F82C1011F002017CD06B68002B00F0E3
:1048D00075816B68002BCAD1002E00F0AA81337954
:1048E0001B0612D4EB6A1BB193F90430002B0CDBCE
:1048F0000DF1330300220193CDF800805346114699
:10490000284614F053FA0028B1D0A6603379A27E6D
:10491000C3F3801363F30412A276337943F0800368
:1049200033710023EB6204F0F5FD16F0C3FC206147
:1049300016F024FD06998346384616F0ADF8A37E9E
:10494000069A62F38203A376079BABEB00006061DB
:10495000002B40F02F817F20A37E9DF8332020760E
:10496000B9F1000F03F0F70308BF4FF0FF0862F33F
:10497000410384F81980A376002E00F03B81069A4B
:104980000E4B00963946504614F054FEA37E092281
:1049900060F3C713A37620682271214604F0E8FD76
:1049A00094F91A30002BFFF60DAF054A1388013336
:1049B000138001E7D98F0100E98C0100B593010054
:1049C0004E80002094F822305B067FF57EAFCDE963
:1049D000008153460122284614F0E8F900283FF4EC
:1049E00074AF002E00F00682042004F077FD00284A
:1049F0003FF4E2AEB34616F0C1FC2B6C824643B9DD
:104A0000AB8F40F2712202FB03F3B0FBF3F203FB26
:104A1000120A2B68A0485B680721A3FB000201FB78
:104A200003219BA3D3E90023FBF76AFB0346780726
:104A300000F1EF8107F0030202F12B01C7F3400000
:104A4000C9001732D200C1405B1AC2406FF48161C5
:104A50000B449B1A1F3B62EB0202534572F10002AA
:104A6000FFF405AF404612F0B9F895F834300990DC
:104A70005A0640F1D881002800F0D58108904FF007
:104A8000010A16F09DF8089B0DAACDE902A3049235
:104A900004F12402019294F82020069BC2F38012B4
:104AA00001468246009228463A4614F0EFF95046F5
:104AB00015F0DEFF16F04AF8002840F0EC8116F001
:104AC00055FC962016F002FB384616F00BFA734898
:104AD000594615F0D7FE079B002B40F0C3816A684A
:104AE00092F82C3043F0010382F82C3095F82830EE
:104AF00043F0800385F8283004F00CFD1722027182
:104B00004FF6FF72C2800446534600F120020AF1BC
:104B1000200E1F6858689968D3F80CC0C2F80CC002
:104B20001033734517605060916002F11002F0D1AC
:104B30001B68136094F82030A56043F0200384F8CC
:104B4000203016F0B7FBB9F1000F0D9B206108BFB4
:104B50004FF0FF0884F81980636195F8343013F042
:104B6000400303D0099B003B18BF0123A27E63F3DF
:104B70000002A27604F0CEFCE060CBF80C40002EE0
:104B80007FF420AE464A1388013313801AE6E96A9F
:104B9000444815F077FE13E695F828009DF830108C
:104BA0000892C0F3C00012F03DF89DF83190089AC9
:104BB000804653E616F01CFAC0B2CDE695F82830D0
:104BC0009B067FF586AE002E70D03379580600F133
:104BD000058194F822207F2A75D86A68002A3FF45C
:104BE0007FAEE9E59DF83200089212F03FF8089A8E
:104BF000804633E6069A2C4B00953946504614F011
:104C000019FDA37E092260F3C713A37620682271E1
:104C1000214604F0ADFC94F91A30002B80F20B8190
:104C200095F8343043F0100385F834300FB0BDE808
:104C3000F08FEB6A1BB193F90430002B16DB0DF1FA
:104C4000330300220193CDF80080534611462846D5
:104C500014F0ACF800283FF40CAEEB6A33B995F8C9
:104C60003430D8063FF50AAE002191E7A560EB6A23
:104C7000E3601B79A27EC3F3801363F30412A27670
:104C8000EA6A137943F0800313714CE6AFF30080B6
:104C900000CA9A3B000000008D49FD1A4D910100A9
:104CA0004E800020D98F0100B5930100EA6A002AE6
:104CB00000F0B480137959063FF50BAE94F822301A
:104CC0007F2B7FF606AE0DF1330300220193CDF862
:104CD000008053461146284614F068F800283FF437
:104CE000F8AD042004F0FAFB00283FF4C0AD962094
:104CF00016F0ECF9384616F0F5F815F061FF037878
:104D0000032262F30303037094F820300278C3F3A4
:104D1000801363F3C7120C2302704370824640462F
:104D200011F05CFF95F834305A0640F18980002874
:104D300000F086809AF80020534642F0400203F8C3
:104D4000022B0268CAF8022082889A80636ACAF835
:104D50000830238DAAF80C30504615F089FE15F066
:104D6000F5FE002840F0958016F000FB04F0D2FB21
:104D700009232371002E7FD04848A660314615F0E4
:104D800081FD337943F04003337116F093FA2061CB
:104D900016F0F4FA06990546384615F07DFE079B95
:104DA0002D1A6561002B63D17F21A27E9DF83330DF
:104DB000217602F065025B00B9F1000F42F00802B3
:104DC00023F07D0308BF4FF0FF081343206884F8E9
:104DD0001980A376214604F0CBFBF3E4EA6A002AAB
:104DE0007FF468AF6A68002A7FF4E6AC1B067FF5A3
:104DF0007FAD8AE5D5F82CB0BBF1000F3FF42FAFA3
:104E0000042004F06BFB00287FF4F5AD31E500DEF3
:104E10003AE5A3F535634FF4CA6217E66B68002BD9
:104E20003FF40DAF25E595F828A005F13603CAF348
:104E3000801A089325E61A4A1388013313802BE55C
:104E400095F828309AF80020C3F3801363F3861294
:104E5000534603F8022BD5F83620CAF802206A8F91
:104E60009A8073E716F0C4F86B6883F8A60036E6FC
:104E700016F0BEF8C1B298E7A560EB6AE360094896
:104E8000214615F0FFFCEA6A137943F040031371E1
:104E90007BE700DE68E700DE11E600BF2591010038
:104EA0004E800020FD9001002DE9F043C468A28AE5
:104EB0004FF6FF739A4283B000F00281064614F069
:104EC00029FD3389628B208CA3831A4492B210444B
:104ED00094F82730E28380B2411C21845D064FF0B4
:104EE0000001618304F1220100F1AA8003F03F0078
:104EF0000B4694F82810009004F1290010F034FEBD
:104F00000546D4E90C31A26BA08BA36303FB0022FE
:104F1000E36B8A4294BF9B185B188B4228BF0B46F9
:104F2000626C216CE3630A4494F8493062640022A5
:104F300094F82C10226494F86220C3F3020363F304
:104F4000061112F0040284F82C1000F08A8015F08B
:104F5000C5FC94F9A70015F0EFFC201D15F03EFDEF
:104F60002389A17A40F25B6043EA014115F00EFE0D
:104F7000284612F05FFA2146594815F083FCA089B3
:104F800016F0A4F894F8482094F84900C2F3C0033E
:104F9000002102F0070200F0070015F0B7FF2046DD
:104FA00014F078FDD4F800803768404612F02EFAED
:104FB0000744726807F11801002016F093F8814643
:104FC00016F0A8F9002016F0BFF9E36B94F8490039
:104FD00003F12F02636C00F00700012103EB42058F
:104FE00015F058FD4D44054494F8490000F00700C1
:104FF000022834D004280CBF4FF4BC7328230121AD
:105000001D4415F049FD284416F068F915F0E6FF37
:10501000A18A08313A46C9B2404612F0F9F905466C
:10502000B0B1B37A13F0020629D000252D482146ED
:1050300015F028FC15F044FD284603B0BDE8F083C8
:105040000A4603F03F03218D10F0DAFD054658E7CC
:10505000204612F08DF9002839D10025ECE71823FD
:10506000CDE7D4E9130101F0CFFB00287FF46FAF47
:1050700094F8623043F0040384F8623067E71A4A18
:105080001A491B4840F2591319F08FFF194807219C
:10509000A5FB000301FB05310FA3D3E90023FBF7B8
:1050A0002FF815490246154819F07FFF86F311883D
:1050B000BFF36F8F0323184602DF6FF08B05B5E750
:1050C0000F48214615F0DEFB15F0FAFCC5E700DEBF
:1050D000C3E700BFAFF3008000CA9A3B00000000A6
:1050E000E59C010041750100240D0200880B0200BF
:1050F000C00902008D49FD1A780D02008C0B0200D8
:105100008975010000000000F0B5C468A28A4FF65E
:10511000FF739A4285B000F0AF80054614F0FAFBA9
:105120002B89628B208CA3831A4492B2104494F88A
:105130002730E28380B2411C21845E064FF00001DB
:10514000618304F1220168D403F03F000B4694F818
:105150002810009004F1290010F006FD06462046B4
:1051600003A914F057FD039B94F862101A7861F3B9
:10517000C3021A70039A94F862301178C3F34003A3
:1051800063F38201117015F0A9FB94F9A70015F0E3
:10519000D3FB201D15F022FC2389A17A40F25B602D
:1051A00043EA014115F0F2FC304612F043F903994D
:1051B000204614F005FD2146374815F063FBE089D1
:1051C00015F084FF94F8490000F0070015F08AFEFE
:1051D00027682E68384612F019F9064406F11801BE
:1051E0006A68012015F07EFF16F0C0F8A18A083128
:1051F0003246C9B2384612F00BF90646A8B1AB7A6E
:1052000013F0020517D000252448214615F03AFB7B
:1052100015F056FC284605B0F0BD0A4603F03F03E2
:10522000218D10F0EDFC064699E7204612F0A0F81B
:1052300048BB0025EEE71A4A1A491B484FF4807311
:1052400019F0B3FE19480721A6FB000301FB063144
:105250000FA3D3E90023FAF753FF15490246154877
:1052600019F0A3FE85F31188BFF36F8F032318464F
:1052700002DF6FF08B05C7E70F48214615F002FBF0
:1052800015F01EFCD5E700DED3E700BFAFF30080CA
:1052900000CA9A3B00000000F99A01004175010024
:1052A000840D0200880B0200C00902008D49FD1A1E
:1052B000D40D02008C0B020089750100034883683D
:1052C000DB6903B118476FF05700704718060200FA
:1052D000024883689B6903B11847704718060200AB
:1052E00010B4034606480A4681680C691CB1194689
:1052F000234610BC18476FF0570010BC704700BF22
:105300001806020010B50F4C20461AF008FCA8B190
:10531000A3685B6A0BB120469847FFF7D9FFA368E3
:105320002BB11B6C1BB10849064800229847A368A3
:105330001B6A0BB103489847002010BD6FF01500A1
:10534000FBE700BF180602004D5300002DE9F04FA7
:10535000804E814FB3688FB00393039BDB6B002BB0
:1053600040F0EA80B468A36B002B40F0ED80E36A64
:1053700023B13046984708B9FFF7A0FFFFF79EFF1B
:1053800050B13B68B3B975480022002318F0E0F92A
:10539000386078B9FFF79CFFB368DB6A13BBDFF8AE
:1053A000C081704D98F80030032BD6D8DFE803F0A9
:1053B0001F3395B63B68D9681A8AB368DB6873B146
:1053C00030469847014638680C3019F0CDFF3868F0
:1053D000048A002CE0D101F089F83C60DCE76FF032
:1053E0005701F0E7304698470028B6D0D7E75E4C23
:1053F00001212046FFF774FF0028AED02078431E1D
:10540000012B01D90528CDD119F04BFC01232860CF
:1054100088F80030C6E7DFF850A1DFF850919AF81D
:10542000000019F03EFC2968401A4844FFF758FF75
:105430002B681B1A04462B60002B6BD19AF80000D6
:10544000421E042A16D8DFE802F0041715031300E1
:105450000220CDE900330022002301F0C7F8DFF875
:1054600010B10346CBF8000040B988F8000074E79B
:105470001020EEE70020ECE70420EAE79AF80000AD
:10548000022823D005281CD0012822D199F8022017
:105490002A6019F006FC3549024603F10C0019F0A8
:1054A00052FFDBF800000C3019F076FF2B689842B1
:1054B00011D2DBF8000001F019F8032388F800305E
:1054C00028E0B9F80220C2F30D02E1E7B9F80220A2
:1054D000DEE70022DCE70223F0E7DFF8949029689A
:1054E000D9F800301A8AD8681044FFF7F9FED9F8C5
:1054F00000100B8A03440B822B68A3EB00090446BF
:10550000C5F80090B9F1000F04D11A481AF014FC44
:1055100088F80090002C7FF445AF1EE72968212908
:1055200028BF212105A8FFF7DBFE2B681B1A0446C4
:105530002B60002BEED1C1E73046984700287FF45E
:1055400011AF0FB0BDE8F08F3046984700287FF4C8
:105550000EAFF6E71806020098200020480300204E
:105560005B800020942000205A800020568000207C
:10557000902000203003002038B5094D4FF0FF3255
:105580004FF0FF33284618F0E3F8044601F066F8C0
:1055900010B1204600F0AAFF18F014FDEEE700BF9E
:1055A0003003002070B5184888B001F063F800227D
:1055B0000023CDE9062300236FF00802CDE9032381
:1055C000CDE9013300931149114B12484FF4806229
:1055D00018F04EFB10490F480B4D104E104C1AF0AE
:1055E0007AFC4FF0FF324FF0FF33284618F0B0F846
:1055F000014630461AF0A0FBA3685B69002BF0D08F
:1056000020469847EDE700BF18030020C080002027
:1056100079550000E8030020C01002004803002074
:1056200018060200014B1B68184700BF100000203D
:1056300030B585B004460D461022002168461AF0A8
:10564000F5FE02238DF802302A46044B01932146D1
:10565000684619F0C9F805B030BD00BF25560000F6
:1056600080B505460E461746984618F04FFD03468E
:105670001AF058FFDFF81890044649F80030424607
:1056800030463946A84754F8090000F0C5FB00BF72
:10569000080000002DE9F047058B044628079046D6
:1056A00011D4022905F0070540F0CC80204619F0FE
:1056B000A4FC78B10138218B042811D8DFE800F070
:1056C000C2106D85950001290CBF45F0100545F00D
:1056D0002005258388F31188BFF36F8FBDE8F0871D
:1056E00001F0070AAA4500F0A5800027B9463E460A
:1056F000A368002B00F0BC8041F00801218388F3EF
:105700001188BFF36F8FA168002900F0BA800D687F
:10571000002900F0B680D1F8048033465246204676
:10572000C047002D76D02B6829461D46F0E701F0D2
:1057300007035A1F012A1BD8002221F00701062B5C
:10574000276889B2C4E9002209D13B4603E0628B95
:10575000013262831B68002BF9D141F002012183E1
:10576000204619F04AFC00287AD041F0200176E06A
:10577000042B0AD121F0070189B22183204619F0B8
:105780003CFC10B141F020012183218B01F0070A7C
:10579000AA454FD00027B946AAE7236921F007019F
:1057A00041F00601062DD3F8009021832DD1B9F1E7
:1057B000000F3FD041F00801218388F31188BFF327
:1057C0006F8F3A492046C84729E021F00701236935
:1057D00041F0040189B2042DD3F804902183E6D06E
:1057E00000273E464FF0040A82E721F007012369B3
:1057F00041F0050189B2052DD3F808902183D6D058
:1058000000273E464FF0050A72E700273E464FF05C
:10581000060A6DE72B4687E7B9F1000FD1D1EFF308
:105820001188202383F31288BFF36F8F238B23F01B
:1058300008032383258BEA062ED525F01003238346
:1058400005F007056669218B002EBFF670AF0023B7
:105850002768C4E9003321F0070141F001012183E9
:10586000218B01F0070AAA454FF000097FF440AFF1
:10587000002F9CD041F00801218388F31188BFF3E9
:105880006F8F002FC8D03D683946334652462046B8
:1058900019F0DFFB2F46F4E7AB067FF51BAF25F0D1
:1058A0002003238305F0070500E700BF7FF0010018
:1058B000014B0360002070479808020008B50348B8
:1058C000034A0021121A19F0BEFC08BDE8030020AB
:1058D000A08000200748084A084908B5121A19F0A4
:1058E000B4FC0748074A0849BDE80840121A19F0F5
:1058F000ACBC00BF00000020E40300201016020032
:1059000000000020000000201016020038B50546F7
:105910000C4699B1D1E901230F48096819F038FB09
:10592000D4E90423E1680D4819F032FBE1690C4821
:1059300019F02EFBA1690B4819F02AFB012D05D1A6
:10594000EFF305810848103919F022FB214628465B
:10595000BDE8384017F0BCBDCC100200FC100200BE
:105960002C1102003C1102006B11020030BFFFF746
:10597000FDBF00BF2DE9F0410B4EDFF8308006EB94
:105980000807CC1B05463246094920461AF026FD79
:10599000A01942460021083C1AF048FD6C6707F147
:1059A0000800BDE8F08100BF000000000400000016
:1059B00070080200054B5A699B689A421FBF044A4F
:1059C000536843F080535360704700BF1880002035
:1059D00000ED00E02DE9F843324D8046324889461B
:1059E000174619F0D5FAAB6ADE0622D52F4819F012
:1059F000CFFA1124AB6A1D0703D52D4819F0C8FA58
:105A00001224284DAB6A980715D52A4819F0C0FA18
:105A10006E6BAB6A190642D52748314619F0B8FAC1
:105A2000B9F1000F03D0AB6A23F08003AB621324FB
:105A300003E01024DEE76FF015061A4DAB6ADA07B3
:105A400003D51E4819F0A4FA1424AB6A9B0603D5AB
:105A50001B4819F09DFA1524124B9A6AD50602D4F8
:105A60009A6A90070AD55B68190507D54146304602
:105A700000F0B8FA10B180F309880224094B9A6A41
:105A8000920642BF5A6A22F400525A629A6A42F05F
:105A9000FF029A6200233B702046BDE8F8836FF056
:105AA0001506C4E700ED00E07F1102009611020028
:105AB000CA110200DE110200F71102000E120200EC
:105AC0002E12020010B51D4C1D4819F061FAA36A90
:105AD000990130D51B4819F05BFA1E20A36ADA0140
