:1000000040960020E15D0000F7F60100CD5D0000A4
:10001000CD5D0000CD5D0000CD5D00000000000062
:10002000000000000000000000000000A55E0000CD
:10003000CD5D000000000000455E0000CD5D0000C9
:1000400071600000196E01007160000071600000B5
:10005000716000007160000071600000716000005C
:10006000716000007160000071600000716000004C
:10007000716000007160000071600000716000003C
:10008000716000007160000071600000716000002C
:10009000716000007160000071600000716000001C
:1000A000716000007160000071600000716000000C
:1000B00071600000716000007160000071600000FC
:1000C00071600000716000007160000071600000EC
:1000D00071600000716000007160000071600000DC
:1000E00071600000716000007160000071600000CC
:1000F00071600000716000007160000071600000BC
:1001000053B94AB9002908BF00281CBF4FF0FF317E
:100110004FF0FF3000F00CB8ADF1080C6DE904CEE3
:1001200000F008F8DDF804E0DDE9022304B07047D0
:10013000704700BF2DE9F04786468C460846089E6A
:10014000154674461946002B40F0C2808542B2FA2B
:1001500082F245D94AB1C2F1200300FA02FC2EFA1C
:1001600003F3954043EA0C0C94404FEA154EA8B2B5
:10017000BCFBFEF8230C0EFB18CC08FB00F943EA8D
:100180000C43994528D9EB1808F1FF3704D299455B
:1001900002D9A8F102072B44A3EB0903A4B2B3FBD5
:1001A000FEFC0EFB1C330CFB00F044EA0344A042AF
:1001B00014D92C190CF1FF3304D2A04202D9ACF1AE
:1001C00002032C44241A43EA07401EB1D440002302
:1001D00034607360BDE8F0874746DDE76346F1E7CA
:1001E00092BB431B01214FEA154EAFB2B3FBFEFC9D
:1001F000200C0EFB1C330CFB07F840EA0343984528
:1002000062D9EB180CF1FF3004D2984502D9ACF159
:1002100002002B44A3EB0803A4B2B3FBFEFC0EFBCD
:100220001C330CFB07F744EA0344A7424ED92C19B0
:100230000CF1FF3304D2A74202D9ACF102032C44E3
:10024000E41B43EA0040C0E7C2F1200320FA03F1B7
:10025000954090402EFA03F303434FEA154EAFB298
:10026000B1FBFEFC0EFB1C10190C0CFB07F841EA5D
:100270000041884504FA02F422D969180CF1FF30D4
:1002800004D2884502D9ACF102002944A1EB08014F
:100290009BB2B1FBFEFC0EFB1C110CFB07F743EA03
:1002A00001439F420ED9EB180CF1FF3104D29F425B
:1002B00002D9ACF102012B44DB1B41EA004192E779
:1002C0006046E3E76146F7E76046A3E76346B7E7C2
:1002D000834206D916B9002108467BE7C6E900E04B
:1002E000F9E7B3FA83F78FB9834201D3724508D88F
:1002F000BEEB020460EB030301209C461EB9002103
:1003000068E73846FAE7C6E9004CF8E7C7F1200C81
:10031000BB4022FA0CF41C432EFA0CF120FA0CF329
:10032000B84001434FEA14490EFA07F5B3FBF9F858
:100330001FFA84FE09FB18300B0C08FB0EFA43EA87
:1003400000439A4502FA07F240D9E31808F1FF305A
:1003500004D29A4502D9A8F102002344A3EB0A0370
:1003600089B2B3FBF9F809FB183308FB0EFE41EA2A
:1003700003418E452CD9611808F1FF3304D28E4514
:1003800002D9A8F10203214443EA0040A0FB0298ED
:10039000A1EB0E014145CE46434602D306D14D4561
:1003A00004D2B9EB020E68EB04030138002EA6D08C
:1003B000B5EB0E0261EB030101FA0CFC22FA07F324
:1003C0004CEA0303F940C6E9003198E74046C5E727
:1003D0004346D9E7000000002DE9F843D0E907388B
:1003E000856903EB08042F34A5420F46164619D839
:1003F000DFF86C80A3FB080117A3D3E90023FFF704
:100400007FFE0346601BA0FB080123F07F4412A37C
:10041000D3E90023FFF774FE20F07F403C6030609A
:10042000BDE8F883DFF838900BA3D3E90023A5FBE0
:100430000901FFF765FE20F07F440A480A2106A360
:10044000D3E90023E8FB0901FFF75AFE20F07F40C3
:100450003C603060BDE8F8838D49FD1A070000005C
:1004600000CA9A3B00166BF12DE9F04F8DB09A4609
:10047000179C9DF85870A36B05460E464BB1B4F817
:1004800078301BB1B4F87610994276D2E06F00282C
:1004900076D14FF6FF739A4521D023780133DBB232
:1004A0002370002B77D058498B7AA1F808A067F306
:1004B00000038B72554BC1E9005204F11000002279
:1004C000C86099600120114606F020FA002864D126
:1004D000A36BC4F8905013B120460EF07DFB257E2F
:1004E00015F0010549D14A4A4A4B11781B788B42D5
:1004F00055D04FF6FF739A45D4F87C80B4F87690C7
:1005000015BF0AF101074FF0000ABFB25746B8F114
:10051000000F2FD0B9F1000F2CD0A26E0AF1010A02
:1005200040F271211FFA8AF301FB02FA3A4A4FF0B6
:10053000070BA6FB02010AFB03F309930BFB061151
:100540002FA3D3E90023FFF7DBFD099B324A1E18D6
:10055000A5FB02010BFB051129A3D3E90023FFF73B
:10056000CFFD50443044804586BFA8EB0606E667C1
:10057000C4F87CA04F44A4F876700DB0BDE8F08FAD
:10058000A16E40F27123A1FB0313814273F10003BA
:10059000FFF47FAFF1E700DE85E700DE98E7013387
:1005A00004210BA8137016F0A3FE0B9B1B490095AA
:1005B000A1FB03211A4A0694CDE90355CDE9015563
:1005C00028465D1A01EB5501A21A164D9208A5FBAB
:1005D0000252090A920840F2471505FB1133023214
:1005E000114905910133D2B201210B9307F068FE46
:1005F00010F0FD0F01D10B9D7BE700DEFBE700BF94
:1006000000CA9A3B00000000E4540020C40000200F
:1006100058800020578000208D49FD1A21F1D49088
:100620001055002015F9AC1BA1D3000000000000FC
:10063000002900F0B6812DE9F04F8FB0002840F07E
:10064000B2818C4C164694F8802012F001071D46AA
:1006500040F0B181607EFF2300F00300E37616F0E6
:1006600015F894F88000430700F1F48094F82920ED
:10067000637F04EB820204EB8303D76AD3F8208004
:10068000002F00F0CF80394640460DF0E9FC0028ED
:1006900040F0848198F8003013F00E0F40F0F080A5
:1006A0006369002B40F0798108F0D6FD814600286F
:1006B00000F0AC8108F0DCFD0A90002800F0A38176
:1006C0000FF04EFF8346002800F09A81C06E4FF66F
:1006D000FF720BF11003ABF824200B93002800F0FD
:1006E00011820BF160020BF15C0106F08BF89BF8B4
:1006F000722022F007028BF872200022CBF86C20C7
:10070000ABF8702098F8002002F00F02072A00F0E2
:10071000EB819BF8582022F0770242F011028BF80F
:100720005820012211465448D0F801C0CBF881C1AD
:10073000D200CBF887C110F801CB42EA01219BF827
:1007400080210CF0010C6CF386126CF3C7128BF84D
:1007500080218288ABF88521ABF88B21BBF858202B
:1007600022F4E16211439BF83720ABF8581002F0F5
:100770003F0262F07F028BF837209BF83C2040F666
:100780007F014FF0000A22F00F02ABF8B6104FF4D1
:10079000C0218BF83C20CBF872115846CBE912AA45
:1007A0008BF839A0ABF82AA0CBF82EA0CBF850A03C
:1007B000ABF840A1ABF878A1ABF86EA112F098F8B5
:1007C0008BF844A1CBF8489110F02EFA9BF88011D9
:1007D00060F302018BF8801110F02CFA9BF8801165
:1007E00060F3C5018BF880119BF842116AF3410157
:1007F0008BF842110BF1C40011F084FE0A9B636672
:100800000BF11003C4F860906361CBE902AA8BF886
:1008100000A0CBF810B016F0EFFFB0B30CF062FE02
:100820000320BBE098F8003003F00F03072B00F023
:10083000B480124817F048F9C0B2002840F0E680B2
:1008400094F8293004EB8303DF6A04233B7006230A
:100850007B7018E7C0F3C0003A4604F1810116F03E
:10086000ADF8FF28E0763FF401AF384615F054FFAD
:10087000FCE600BF10550020161602003855002077
:1008800003F00F03072B00F04281B14B1B78022BC2
:1008900000F043810023636300252E46637E227EA1
:1008A000E667C3F38206A37EA4F87850C2F342023F
:1008B000012100250DF133008DF8332003EA0109F1
:1008C000A4F8765006F03AF90246002861D0334683
:1008D0003946CDF8009040460CF052FC9D499E4BA5
:1008E0002570A0FB0101C01841F1070196A3D3E9CF
:1008F0000023C4E90255FFF703FCB4F868606060A8
:1009000007F024FE00F1180746B998F8005005F0EA
:100910000F05A5F10105B5FA85F56D09237E65F38F
:1009200000032376DB07656800F12081D4F8388066
:10093000B8F1000F6CD1894B8948049505F2471531
:100940000694CDF8088091211D600993A6FB000351
:1009500001FB0631834B0793834B05934FF6FF73DF
:1009600002260DAD039378A3D3E900230D960895D5
:10097000FFF7C6FB032101903B463246CDF80080CD
:10098000404607F03DFC294608F0F4FC002800F042
:100990009B8063690BB10CF0A5FD0C200FB0BDE886
:1009A000F08F0CF0C9BD6A4B1B78022BF5D00020EC
:1009B0000FB0BDE8F08F664B1B78022BF7D194F88F
:1009C0002920637F04EB820204EB8303D16A186A57
:1009D0000DF046FB0028E1D1636B002BDDD01A79C6
:1009E00002F0FF0142B942F2107206FB02F2A4F8D3
:1009F0007610A4F87850E2671B79002BD7D0CCE7AB
:100A00000A9808F03BFC484608F02CFC0720C5E794
:100A1000D8F80080AB1C3B440DA940460D9300F074
:100A20006BF9A36E94F8742040F271218146A3FB08
:100A30000131002A40F0D18042F6DC32981841F1B1
:100A4000000140F2E2420023FFF75AFB80B2A8F80F
:100A500034004A460D99404600F08EF98146002840
:100A600097D10DAB089302903C4B3D48049505F29D
:100A70004715069491211D600993A6FB000301FB15
:100A80000631384B0793384B05934FF6FF73022519
:100A900003932DA3D3E900230D95FFF731FB032129
:100AA00001903B462A46CDF80090484607F0A8FB47
:100AB0000DA908F05FFC00287FF46BAF98F8463072
:100AC00043F0010388F8463094F88030002043F06A
:100AD000010384F880300FF05FFA00287FF467AFDD
:100AE000012015F0B5FD62E7617E9BF858204909A9
:100AF00061F3020261F306128BF85820A27E02F025
:100B0000010210E60BF16400CBF86C00E9E598F8FF
:100B1000023059067FF5B9AEC2E508F09DFB81466B
:100B2000002867D008F0A4FB00286AD00023C0F892
:100B300000900371237E6063DA073FF5ADAE42F2A9
:100B4000107303FB06F6A9E68D49FD1A07000000A5
:100B50005680002000CA9A3B8C49FD1A045500209B
:100B6000002AE7841187000069040000284B0993DC
:100B700000200DAA18600226049501950892254DC3
:100B8000254A05920321CDE9020006943B460090D8
:100B9000079532460D9607F033FB0DA908F0EAFBE6
:100BA00000287FF4F6AE0DAA1C4908924AF2D8320A
:100BB00000920591CDE903000321CDE901000795DD
:100BC0003B46069401220D9607F0E6FA0DA908F0BF
:100BD000D1FB00283FF478AFDBE602FB01110132C4
:100BE000A2FB0303194440F2E2420023FFF788FA14
:100BF00080B22CE76369002B3FF408AF0CF072FC65
:100C000004E76369002B3FF4FEAE0CF06BFCFAE6E0
:100C100004550020118700006904000045D200003F
:100C20002DE9F041037E477E90F81A808AB00D4688
:100C3000C3F34203044601210DF1230016468DF84B
:100C4000233005F07BFFC7F3820708F00108024656
:100C50003B4631462846CDF800800CF091FA2049F9
:100C6000204AA0FB0131981841F107011AA3D3E9EA
:100C70000023FFF745FA63689842054623D21B1A02
:100C800000220192184A02930221184B0991A21ADC
:100C9000CA40A3FB0232CA4000230A4409AE1449E9
:100CA0000591CDE903330321D2B20696009318468D
:100CB00007F006FB314608F05DFB40B96560002097
:100CC0000AB0BDE8F081FAD9C21A0023D9E70C2096
:100CD0000AB0BDE8F08100BF8D49FD1A0700000091
:100CE00000CA9A3B8C49FD1A1055002015F9AC1B1F
:100CF00011870000000000002DE9F04182B0044699
:100D00001B4E1C4F88460DF043FB072533462946F2
:100D1000E0FB0731184614A3D3E90023FFF7F0F9ED
:100D200094F8253020F07F4004EB83036060996ADB
:100D3000FF231A4620460DF0C9FA2946E0FB076159
:100D400009A3D3E900233046FFF7DAF901A920F01F
:100D50007F4014F0C3FE18B9019B0233C8F800307D
:100D6000002002B0BDE8F0818D49FD1A07000000A7
:100D70008C49FD1A00CA9A3B2DE9F04700268CB039
:100D80008846C0E902662049067017464822044694
:100D900005F018FD0546A08E1C4940F2E24202FB18
:100DA00000F002230B93A0FB010115A3D3E900235C
:100DB000FFF7A6F90DF12C0ACDF820A006941946EC
:100DC00063681F44124B0793124B0593814600231F
:100DD00010464FF47A72CDE90367FFF791F90335B6
:100DE000EDB2CDE9019043462A46009630460321F4
:100DF00007F0D2F9514608F0BDFA0CB0BDE8F08713
:100E00008D49FD1A07000000E855002000CA9A3BF2
:100E100011870000CDE3000070B590F803C01CF00E
:100E2000010F14BF00F10A04041D1B481CF0020F3F
:100E300015461E464FF00702A1FB000318BF0634FB
:100E400002FB01311CF0080F11A3D3E9002318BFE6
:100E50000234FFF755F9AD1B10492844A1FB0031BE
:100E60000D09490C04D00E4BA3FB003001214509AC
:100E7000A2782078657022F01F02C5F3042361F385
:100E8000C71013432070A370204670BDAFF30080DD
:100E900000CA9A3B000000008D49FD1A89888888A5
:100EA000B5814E1B000000002DE9F04F93B0D0F843
:100EB00038B00A9000241094DBF80030944909936C
:100EC0004822184605F07EFC0A9BCDF82CB0D3F8DA
:100ED00090A0CDF83CA0FF22C51C8DF83720012240
:100EE000EDB20A9252460E94AA460DF144090DF154
:100EF00040080EAF02269B4615460BE0119B4BBBEC
:100F00000F9BAB422AD19DF83730FF2B31D09A4549
:100F100034D00F9D7F4BCDF81890CDE90443CDE937
:100F20000244CDE900780FAB0DF137020221002019
:100F3000119607F0A7FA0228E0D1119B022BDDD110
:100F40000221002007F0EAFA119B022BF8D0119B36
:100F5000002BD5D000DE0F9BAB42D4D00A9A531E93
:100F6000DBB2002A00F0C6800A939DF83730FF2BD1
:100F7000CDD100DE9DF837309A45CAD1109C664924
:100F80000E9DA4F57422A2F510728A425B46DDF82C
:100F90002CB007D904F1E874013D04F5D4340E9562
:100FA00004F5A5745D4ACBF80C50A2FB0424A40CF4
:100FB000CBF81040197F587F10948142CAB204D0F8
:100FC0000132D2B2022A08BF002203EB8202597E0C
:100FD000D2F82080BBF8087098F80120C1F3820194
:100FE00003297BD9997ED30001F0010252002B33F3
:100FF0000132934003F5BC731FFA83FA484E4FF059
:101000000709A5FB06013EA3D3E9002309FB05114F
:10101000FFF776F8434A04EB000CA2FB0C120AF52A
:10102000967A22F00F011FFA8AF3A1EB1212B3EBAA
:10103000420F1FD9099B3C489B8E40F2E24202FBC3
:1010400003C4A4FB000130A3D3E90023FFF758F841
:1010500020F07F45A5FB060129A3D3E90023CBF8A7
:101060000C5009FB0511FFF74BF80137241ACBF898
:101070001040BFB22246294600234046FFF7CCFE6F
:10108000DBF80C300999099D0133CBF80C3091F84D
:10109000452091F84430934202EB420305EB4303B1
:1010A00018BF81F8442093F83D30062101FB02521D
:1010B0000446E98E383203F03F03384614F0B6FD9B
:1010C000237860F30503237007F040FA0F9907F0C7
:1010D0003FFA2C280AD813B0BDE8F08F8B180933DB
:1010E000DB004910CB401FFA83FA87E700DE13B01C
:1010F000BDE8F08F00DEFF230A9304E7AFF3008022
:1011000000CA9A3B000000008D49FD1A070000004C
:10111000E8550020C9E30000BFBDF07F83DE1B431C
:101120008D49FD1A8988888800CA9A3B0000000012
:101130002DE9F04FA5B00D461E4640F201232E9931
:101140000F92AB432F9A0C9104460D9200F0F78159
:10115000637F04EB830305F4007BD3F820A09AF8A7
:10116000007007F00F07072F10D0BBF1000F04D15C
:101170000C27384625B0BDE8F08FD6F8012031782D
:10118000204625B0BDE8F04F0CF0C6BF9AF80230FB
:1011900013F03F0218BF9AF803208DF880200AF15F
:1011A00004020A92BBF1000F02D07F2B00F27D8176
:1011B0000C9904F11C0016F023FD9AF80020037826
:1011C00002F00F0223F03F03134302464FF00008E2
:1011D00002F8023B9AF80230139282788DF87C80F4
:1011E0009B0963F387128270A26B814604F11000A1
:1011F000002A00F0D882537D02EB830399691368BB
:101200001493CB780B910231129103F001018DF808
:10121000883011910D99099302F1140016F0F0FC39
:1012200099F8001002780B9B01F00F0122F03F02A9
:101230000A4302701A780178C2F3801262F38611B1
:1012400001701A78C9B2D20962F3C711017099F816
:1012500002208178920962F3871181709DF88020C5
:10126000012115EA010380460E938DF88410099B35
:1012700002EA010040F00781002800F048819AF856
:10128000000098F800C00E99C0F3801060F3861C2F
:1012900088F800C099F8000061F3861089F8000012
:1012A0000AF10A010A911198002840F044810B9834
:1012B0000430099003F0020190071D9140F105816F
:1012C0000A9906310A919DF8841041F002018DF8C7
:1012D00084109AF8001098F800C0C909404661F3DC
:1012E000C71C00F810CB99F800106FF3C71189F8EC
:1012F000001003F0020111B109990631099112F0B1
:101300000801189102D00A9902310A919DF87C10C7
:1013100041F008018DF87C10811C0E9115F0080138
:1013200000F0D18002213170D6F801101791C6F873
:10133000010005369DF8841041F008018DF88410F5
:1013400013F00801199102D009990231099112F0A4
:1013500010011A9102D00A9903310A919DF87C106C
:1013600041F010018DF87C1009F10901109103F092
:1013700010011B91E90640F19A80811CC6F801100A
:101380009DF8841041F010018DF884100321317014
:10139000053603F01001002900F09180002116911C
:1013A0000999033109919DF88410C90644BF411D74
:1013B0000E91520611D50A9A01320A92627E02F00B
:1013C0001C02102A00F00E829DF87C2042F04002A0
:1013D0008DF87C2009F10A0210925B0608D5099B62
:1013E000013309939DF8843043F040038DF8843035
:1013F0009DF88430159313F040031C9302D00E9B8C
:1014000001330E93109B139A981AC0B2022803D886
:1014100009F1030310930120099B129A9B1ADBB276
:10142000022B03D80B9B0333099301230B9A5278A9
:101430009A42C0F0AA800E9908F1020CA1EB0C0CA4
:101440005FFA8CFCBCF1020F04D808F103010E9185
:101450004FF0010CBBF1000F73D096F800B0D6F836
:101460000110D51AEDB2099B3570C6F8013005366A
:10147000BBF1000F40F09580002940F08081099970
:101480005A465B4668E016F801EB98F800C06EF328
:10149000861C88F800C099F800C06FF3861C89F894
:1014A00000C000283FF4FFAEFAE6122761E60F996C
:1014B000C9063FF56EAF03F0100100297FD103F09C
:1014C000100116916FE7179134E70E9908F10A00A1
:1014D00000297FF408AF03F00201002967D09DF8CE
:1014E00084000B9940F002008DF88400087898F889
:1014F00000C00E99C00960F3C71C404600F810CB2D
:1015000099F800C061F3C71C89F800C0F4E611988F
:1015100000283AD00B9998F800C008780E99C0F3CB
:10152000801060F3861C88F800C099F8000061F311
:10153000861089F800000B990A310991BAE600DE9D
:1015400006E66D0523D40F99890500F11881D31A99
:101550000999DDB25A465B4605EB020EBEF1FB0F60
:101560003FF707AE0CEB05071744FF2F30DD0CF1FA
:1015700001035B442B44CA45337000F0A1810B9BEF
:10158000984500F098814527F3E51F27F1E596F887
:1015900000B00999D51AEDB2D6F801305A46053691
:1015A000DAE75D464FF0000B5A465B46D4E799F800
:1015B00000C00E9961F3C71C89F800C09FE69DF832
:1015C000841041F010018DF8841009991691E7E616
:1015D00099F8022089F80100013860F3050289F8C2
:1015E000022098F802200E9E0C930CF1FF3060F35D
:1015F000050288F802200BEB0502624488F80120FE
:1016000030462A461EF093FF0C9B23B15A461946DA
:1016100070191EF07EFF98F802309A0600F0AD8037
:101620009DF87C305B0640F1F4800A9A109912F81C
:10163000013C01F8013C531E0A934B1E10931A9B68
:1016400013B10A9B033B0A93109E637E16F8032C8A
:101650006FF3050206F8032C5D0916F03BF93228FA
:101660008CBF0020012095FAA5F3002DB3FA83F377
:1016700008BF4FF0FF335B0106F8013C16F8033C4E
:1016800060F386136FF3C71306F8033C002306F8D4
:10169000023C1B9B13B1099B033B0993159BDF067F
:1016A00002D50E9B033B0E93169B23B10E9803228B
:1016B00019461EF03CFF189B13B10A9B023B0A938C
:1016C000199B13B1099B023B0993179B002B00F058
:1016D000E580179A537812781B0203F470631A435B
:1016E0001098D1B200F8051C94F87230C3F30303CC
:1016F0001B0103EB122300F8043C0E9800F8021CB7
:1017000094F87230C3F303031B0103EB122300F8B8
:10171000013C159B9E076CD40238159BDD0709D54B
:10172000119B002B00F0D080099B991F06380622E0
:101730001EF0FDFE99F802300B9899061CBF9DF82B
:101740007C3089F8033098F802309A061CBF9DF867
:10175000843088F80330A57E637E169A05F0010573
:101760004FF496745B094146009501940DF048FAD8
:10177000149B93F84630DB075AD40027F9E499F814
:10178000023089F80100013860F3050389F802305E
:1017900098F8023088F801C00CF1FF3C6CF30503A7
:1017A00088F8023037E70DF0ADF91490002800F00A
:1017B0009780DDF850C0CDF844809CF825300CEBC4
:1017C00083030122996A0B91084610F8023B12909C
:1017D00003F03F034A700B7081F803800CF1100294
:1017E000434617E59DF8842042F040028DF884209E
:1017F000F3E51D9B002B6AD0099B063B09930E99CC
:101800001A6841F8082C9B8821F8043CA1F10800D3
:1018100083E71C9B002B3FF412AF099A0E9912F834
:10182000013C01F8013C531E09934B1E0E9306E741
:10183000149C20460CF0ACFD2F4A304B0721E0FBF6
:10184000023118462AA3D3E90023FEF759FC656844
:1018500020F07F44AC423ED22E1B0025149F284925
:10186000022348223846239304F0ACFF0023254985
:101870000195C21C23AD0591CDE9033303210296E6
:10188000D2B200931846069506F01AFD294607F0D5
:1018900071FD00287FF46CAC7C606EE794F87230C8
:1018A000194903F00F0331F81320501C21F81300DD
:1018B000C2F30B0214E70D9AA36B12785A7562E615
:1018C0000C9B1B7863775AE60A9B991F2EE70A9BAD
:1018D000063B0A9393E77FF650AF651B0026BDE7F2
:1018E000CA457FF446AC00DE43E400BFAFF300809E
:1018F0008D49FD1A0700000000CA9A3B8C49FD1A69
:10190000E855002011870000C455002000000000A9
:1019100070B5294C9DF810E094F8625015F002055E
:1019200042D110F0080F4FEA500605D094F8C6C017
:101930001CF0020F38D1643471B3A4F84C104FEA94
:10194000401C94F838101D484FEACE0E0EF0180EC9
:101950000CF0200C4CEA0E0C21F038014CEA010C82
:1019600094F8441084F838C066F3020184F84410F7
:1019700094F8621063F3830184F86210A2FB000301
:10198000912101FB02310AA3D3E90023FEF7B8FB42
:101990002065A065284670BD94F8443061F30203C9
:1019A00084F84430284670BD0C25284670BD00BF21
:1019B0008D49FD1A0700000070560020002AE784B8
:1019C00010B504469DF80800A2874FEA411CC000EC
:1019D00094F8281000F018000CF0200C4CEA000CD1
:1019E0000B4821F038014CEA010CA3FB00029121C5
:1019F00084F828C001FB032103A3D3E90023FEF7E9
:101A00007FFB206410BD00BF8D49FD1A0700000058
:101A1000002AE784000000002DE9F04F90F86230C2
:101A200090F83820DFF83092DFF830826FF300034F
:101A3000044600F14601C3F3800060F386128DB0C6
:101A400084F8623084F8382006F026FE94F83820B6
:101A5000B4F84C308248246102F07902002684F800
:101A600038209121A3FB000201FB0321C4E9026697
:101A700077A3D3E900232670FEF742FB794AA36DD2
:101A80002365A4EB0905A2FB05251833C5F347150B
:101A9000984205EB450296BF0346636060600746C7
:101AA00048F8223098BF26654FEA450A002D5AD1E2
:101AB00099F8A83003F00703032B72D84FF0000BFE
:101AC00006F044FD636900F11806002B00F08380E6
:101AD0000DF12C09AA4408EB8A030993CDF8209054
:101AE0000694B4F84C305E484FF00008A3FB0002A7
:101AF000CDF80C80912101FB0321636804935A4BBC
:101B000007935A4B05934FF0020A51A3D3E90023E0
:101B1000CDF82CA0FEF7F4FA104619464FF47A726D
:101B20000023FEF7EDFA05355E44EDB2CDE9017014
:101B3000032133462A46CDF80080404606F060FB7C
:101B4000494607F017FC002841D194F8623043EA77
:101B50000A0384F862300CF061F9002856D00020A6
:101B60000DB0BDE8F08F012DA8D199F84430DB0706
:101B7000A4D5266D002EA1D0B9F84C30384891215B
:101B8000A3FB000201FB032131A3D3E90023FEF7ED
:101B9000B7FA87424FF0000B47D00023C8F80C304B
:101BA0008EE7266D002E89D0B9F8B0302C489121EF
:101BB000A3FB000201FB032125A3D3E90023FEF7C9
:101BC0009FFA874226D00023C8F8003076E70C2021
:101BD0000DB0BDE8F08F0DF12C09CDE90A33616835
:101BE0004B460AAA032001F043FD00287FF472AFA0
:101BF0000B991F4816A3D3E90023A1FB0001FEF7B0
:101C00007FFA0A9B20F07F461E4463E7504614F09B
:101C10001FFDA4E7D9F8B43033449F42D3D3023335
:101C20009F429CBF193E6660CDE7D9F850303344DF
:101C30009F42B2D302339F42AFD8193E6660D9F8B3
:101C40005030C4F850B0C9F850B003F1020BA4E70B
:101C50008D49FD1A070000007056002058560020DC
:101C6000002AE7841F85EB51118700004DF9000021
:101C700000CA9A3B000000002DE9F04F0B79082BB9
:101C800093B00C46074609D0092B00F07981062B4A
:101C900000F0CC8100DE13B0BDE8F08FD1F80890E1
:101CA000D9F82C30002B40F03B82D9F80080404618
:101CB0000EF03EF90530C3B20B930420A37E2760DB
:101CC000002666F38613A37694F82130E660002B95
:101CD00000F04C8104F1220A3546B64694F82220E1
:101CE000910600F03F8194F823C01CF0010F14BF4F
:101CF00004F12A0104F124011CF0020F18BF06317F
:101D00001CF0040F18BF01311CF0080F18BF02317E
:101D10001CF0100B1CBF8B4603311CF0200F18BFAA
:101D200012311CF0400F18BF0131C2F30502A1EBC4
:101D30000A010132D2B2C9B28A4238BF0A469A4277
:101D40003ABF9A1A5FFA82FA4FF0000ABBF1000F0D
:101D500000F08E819BF802109BF801C00A0202F489
:101D6000F85252EA0C0200F08381BEF1000F40F0FD
:101D7000A9815F294FEA511C00F2D6819BF800101F
:101D80000C9101F03F0EBEF1240F00F2CD810C99B1
:101D900011F0800F14BF4FF496711E210D9101FBBD
:101DA00002F2410740F1D781D800A37EC3F380033C
:101DB0005B002B30013300FA03F303F5BC730D997C
:101DC00003F5967E50187045C0F08F810C99B64887
:101DD00049064CBF32214FF4FA7102FB01F1A0FB1E
:101DE0000101890C0C910121CDE90E3201FA0CF3AD
:101DF000D8B2109315F06AFB61690F9A0E9B11908F
:101E00002F390A44D31A0C9A1B1AA8489B1AA3FB11
:101E10000001A3A3D3E90023FEF772F920F07F436A
:101E20000E9394F91A30002B80F25481002D00F0AB
:101E30009E81AB8D53449BB21E2BAB8504D994F984
:101E40001A30002B80F2D380AB6A002B00F0A58102
:101E5000DC60AB8DAC62A3839BF80010109BB28852
:101E600001F03F0141EA032122F4E76240F23F73AF
:101E700022F007020B401343B38094F91A30002B71
:101E8000C0F28D81B8F1000F00F0978198F86230B0
:101E900013F0010340F02F81D9F82C20B24208BF83
:101EA000C9F82C30737903F00703032B00F25C812F
:101EB00003F10902D2005B10DA40119B7B4803F268
:101EC000053313447A4A0721E3FB0021104674A32B
:101ED000D3E90023FEF714F90C9B0D9A2F3302EB84
:101EE000430320F07F4068600022B360022101209C
:101EF00004F0D8FC0B9AFF2A0DD023690E9900201C
:101F0000453B0B44CDE90000012106F0F1F910F04A
:101F1000FD0F40F0698167493022284604F052FCE9
:101F200065492369CDE907156449CDE90515696857
:101F300002460020CDE9030107320E990091CDE958
:101F40000100453BD2B2012106F026F910F0FD0F49
:101F500040F0488101220221104613B0BDE8F04F45
:101F600004F0A0BC013BDBB2002D3BD1A383214692
:101F7000384607F089F913B0BDE8F04F07F090B983
:101F80008E684C4B35689D4260D1D5F82090B9F1F0
:101F9000000F00F0D08047493022084604F012FCC0
:101FA0000730C3B20B93D9F800000DF0DBFF804679
:101FB000707900F0070002286ED004286AD001284A
:101FC0007FF468AE062394F81AE02371002273466A
:101FD00062F38613A37694F821302760E260002B29
:101FE00040F0FB80AA8D13449BB2AB85A383B8F16C
:101FF000000F7ED098F86230AA6ADB077BD4D460E9
:102000002B6AAC62002B7AD02B6A002B79D02B780C
:1020100003F0FF0233B3012A7ED1AB68002B7DD1E0
:10202000274BC5E9023513B0BDE8F08FD1F8089011
:10203000D9F82C30002B75D1D9F8008040460DF02E
:1020400077FF0530C3B20B93012037E6CB68002B36
:102050007CD01D682A6A964272D1B1461E46FF2383
:102060000B93A0E7284613B0BDE8F04F0EF01CB864
:10207000002D48D0AB8D53449BB2AB85A383BEF1FA
:10208000000FB4D0AB6A002B43D0DC60AC6213B05D
:10209000BDE8F08F082396E7072394E7AFF30080AD
:1020A0008D49FD1A0700000083DE1B4300CA9A3BDE
:1020B0008C49FD1A645700200901010061000100EC
:1020C000F9000100002D38D0AB8D53449BB2AB8595
:1020D000A383D7E706F03AFA23690E9A383B99189A
:1020E00006F036FA02023FF5A1AE002D7FF47FAF75
:1020F0003DE700DE7EE7AB6AA342C6D1CBE500DE5A
:1021000082E700DE83E7A4F81CA0BEF1000F3FF4D5
:102110002EAF00DEAB6AB8E700DE7EE700DE7FE7C9
:1021200000DEC2E500DE87E795B1AB8D53449BB27C
:10213000AB85A3835BE700DE2DE7A4F81CA0E8E7EE
:1021400000DEB1461E46FF230B932CE700DE80E73E
:10215000A4F81CA00BE700F0030E73440933DB0066
:10216000C0F34000C3402AE64FF43472A5E61F488E
:1021700004F0FAFA054610B30023027D0370C0E9AB
:10218000023363F3C712A0F82CA00061027543620A
:102190008362C0F8209000F110066C6259E6D9F80D
:1021A0002C30B3B9C9F82C60A37E43F04003A3766A
:1021B00033796FF3861333716DE500DE66E694F9CB
:1021C0001A30002BBFF6D3AEA37E43F04003A376B4
:1021D000CDE6B342E6D000DEE4E7CEF3C00E04F174
:1021E000220A7BE500DEB5E600DE94E660570020BB
:1021F0002DE9F04F05468BB08B4601200221994610
:10220000144619F07BFA002202218246012004F0D4
:1022100049FB33494FF4C872284604F0D3FA00F161
:102220000806304B0093F6B201954B463246012129
:10223000002006F0E3F810F0FD0F48D12A4BA4FB74
:102240000348204624A3D3E900234146FDF758FF65
:10225000264B20F07F47A7FB03310722E01A02FB41
:10226000071168EB01014FF47A720023FDF748FF74
:10227000CDE90170CDF800B008950695696895F92B
:1022800037401B4804911B4931EA240128BF01460D
:102290000591194C07944FF6FE7103914B46324657
:1022A0000121002005F078FF10F0FD0F0DD1BAF1EB
:1022B000000F02D10BB0BDE8F08F012202211046C1
:1022C0000BB0BDE8F04F04F0EDBA00DEEFE700DE42
:1022D000B4E700BFAFF300808D49FD1A070000008E
:1022E000D80400203504010000CA9A3B8D49FD1A2C
:1022F0000D550100815601001D0401000000000081
:102300002DE9F0418468A28C4FF6FF739A428CB09D
:1023100044D00546204610F0B9FD2B7D012B00F07E
:102320003181022B00F02481002B00F0038194F80E
:102330004461002E40F01F812B8AE78D94F93720ED
:10234000CDE90A666BB3002AC0F27B810023A4F8B2
:102350007431AB7CA28D03F00303551C012BADB28D
:102360003AD0B4F87831002B00F01581AB4240F23E
:102370007B815B1B9BB20022062BA4F87831E2859F
:1023800040F2068194F937309342C0F27281002303
:1023900025E09DF8271020460EF066FD0CB0BDE844
:1023A000F081002AB8BF84F8B960AB7CA28D03F03D
:1023B0000303551C012BADB20ED0B4F87431002BC1
:1023C000CFD0AB4240F25F815B1BA4F87431B4F80C
:1023D0007831002BCAD102E00023A4F8783194F8B8
:1023E0003C2063F3820284F83C2029460DF1270249
:1023F000204610F0B9FA7430CBD0B4F872312BB15A
:10240000AB4240F20F815B1BA4F87231B4F86E311D
:102410002BB1AB4240F2FD805B1BA4F86E31E58D21
:1024200016B9AF4200F0EC800135ADB294F8B5308A
:1024300013F0010723D1DDE90A130A46002B40F00F
:10244000EF80002900F0DE801F461846A28C246928
:102450000694CDE903560832AB4D0290CDE9001742
:10246000D2B201210020059505F02AFF10F0FD0FE2
:1024700094D006F0A9FF844290D000DE8EE794F954
:1024800037206FF30003002A84F8B530C0F29E8035
:1024900094F85800C0F3C00100F0070015F014F8DC
:1024A00094F8583003F00703032B00F29D8003F1EA
:1024B0002801C9005B10D94094F85930B1F5A07FCC
:1024C00003F0070338BF4FF4A071032B00F295808F
:1024D00003F12802D2005B10DA40B2F5A07F38BFCA
:1024E0004FF4A072E38B03F2093303440B4413440B
:1024F0008648874A0721E3FB0021104680A3D3E9E1
:102500000023FDF7FDFDDDE90A1320F07F4260683E
:102510006260904235BF171A801A002000270A46D1
:10252000002B93D151EA070C90D100286AD01946AC
:102530001F468BE794F8723003F01803182B7FF4D2
:10254000F6AE218DB4F870218B1D9A42C4BF931F43
:102550005B1AB4F86C11CCBF9BB21346994200F0E1
:10256000AE80A4F86C31A4F86E31A4F87221DEE6D6
:102570003D2684F84461314620460CB0BDE8F04168
:102580000EF072BC0023A4F87231A4F86E31CEE6CE
:102590000126334623E7E28C052A97BF013240F239
:1025A000E2434FF4FA7392B203FB02F2B4F87631CD
:1025B00042F2107101FB0323013BB3FBF2F39BB228
:1025C000A4F87831002B7FF4D1AE08E794F85900D5
:1025D000012100F0070014F079FF94F8583003F05F
:1025E0000703032B7FF663AF94F8593003F007031A
:1025F000032B4FF429617FF66BAF4FF4296271E72B
:10260000354613E7002D43D00027114638463B4698
:102610001CE70023A4F86E31204610F037FAFEE6DE
:10262000384613E706F072FE0146A0B30023A4F873
:102630007231A38CC3801B230371006806F036FE41
:10264000E4E694F8B9306BB3013B84F8B93004F197
:10265000C40840460FF098FFB8B340460FF094FF0F
:10266000B8B30023E38571E6082120460EF0FCFB99
:1026700094E6A7B9D4F8BC305A0813F0010336D158
:10268000C4F8BC2083E63E2120460EF0EDFB85E633
:10269000002EB9D182E60123A4F87231B6E61346C2
:1026A00001269CE60AAA0BA92846FDF795FEDDE95E
:1026B0000A231343CBD0237884F8B930C7E7B4F8A2
:1026C000721100297FF433AE4DE7FF200EF064FB5A
:1026D000C3E70246D4E9170104F0ACF80028C0D1E2
:1026E00094F83C301B0744BF238DE3852EE642F06F
:1026F00000421E46C4F8BC203B4670E6AFF30080A3
:102700008D49FD1A070000007504010000CA9A3BBC
:102710008C49FD1A000000002DE9F04F87B0B0F899
:102720004071BDF84C900091CDE90432B0F804310D
:10273000BDF840A01F44BFB20446A7EB090390F8C0
:102740005800D4F8FC809EB2BDF844300193C0F329
:10275000C001BDF84830039600F00700029314F062
:10276000B3FEE58C052D40F21D8115FB06F5ADB2DB
:1027700040F2E24BBAF1050F40F2088194F858207C
:102780004FF0961302F00702E361032A4FF096031D
:10279000238440F2D98094F8592002F00702032ADA
:1027A0004FF4296300F2E18002F12801C9005210C0
:1027B00021FA02F2B2F5A47F38BF4FF4A472134499
:1027C00000F29F300344844A84480721E3FB002140
:1027D00010467FA3D3E90023FDF792FC564620F074
:1027E0007F4040F2E2430BFB05F203FB06F6531E6B
:1027F0003344B3FBF6F31FFA83FB606006FB0BF078
:1028000082425D4680F0B4807449801AA0FB0101C9
:102810006FA3D3E90023FDF773FC20F07F408044D1
:10282000B4F80421B4F84031A9EB07094D44ADB226
:1028300013442B44A4F84031638D13441D4494F891
:1028400037306585DB0900F0B580216CA36C634FE0
:1028500001FB0233039A01FB1233A3640023C4F883
:10286000C03015F037F8054694F8B800C0F34200C0
:1028700015F032F8054406FB05F5594B564805F5A9
:10288000742505F23F25A3FB0535AD0CA36C25642B
:102890000BFB05FB72085B44963A934228BF134634
:1028A000C4E91123059B40F2E24909FB03F3072128
:1028B0002365EBFB070146A3D3E90023FDF720FCCA
:1028C000049BA8EB00084748A0FB0330800A09FBE3
:1028D00000F0A0FB07013EA3D3E90023FDF710FCA5
:1028E000751B20F07F47019B2385029BA4F876315E
:1028F00031462046A4F826A010F062F83A4B218D0C
:102900003344881DB3FBF6F39AB29042A4F87021C9
:1029100004D2C1F57F41FA310A4492B2009BA4F877
:102920006C2113B10023A4F8783143462A46394676
:102930002046FFF75DFC94F8423143F0010384F830
:10294000423107B0BDE8F08F02F12803DB005210DE
:10295000D34094F85920B3F5A47F02F0070238BFA2
:102960004FF4A473032A7FF61FAF4FF4296226E7C2
:10297000121A1A48A2FB000115A3D3E90023FDF7A0
:10298000BFFB20F07F40A8EB000849E74FF096130B
:102990000AF10106E36196232384B6B219204FF4AD
:1029A000FA7320E7039B013515FB03F5ADB24FF435
:1029B000FA7BDFE6049B0948A3FB000104A3D3E9EB
:1029C0000023FDF79DFB20F07F47354601378AE75E
:1029D0008D49FD1A070000008C49FD1A00CA9A3B78
:1029E00083DE1B435917B7D17FC3C9010000000024
:1029F0002DE9F04F04460B6890F820701668D3F864
:102A000000A0E38CD0F8220095B015464A7CADF8C2
:102A10004C30FF2AC7F3801388460C9212908DF831
:102A20003F3040F0208299461A4612AB93E80300EB
:102A30000DF1400B1090ADF84410FF090AF1870129
:102A4000D4F800C00A915B463846CDF82CC00EF091
:102A5000F7F80A99002840F0EE8196F880310A9044
:102A600069F3C71367F3861386F880311098BBF8B3
:102A70000430C6F88701A6F88B31DAF88730C6F83B
:102A800081318B88A6F88531638E94F83410A97251
:102A90002B81D4F82E306B60D4F83E30C5F822304C
:102AA00005F1220094F842300371052104F046F844
:102AB00095F8273000F03F0060F3050385F82730D4
:102AC00094F84330C3F3040185F82810218FE9827C
:102AD000012803F01F0389B240F2AD811B3303F0DC
:102AE0001F030B2B00F2A781063989B240F67A4307
:102AF00099420A9A00F29F81D8F800305A60638F99
:102B00002B83E98ADAF8382040F2E24303FB01F72D
:102B1000E18E0A91002A00F013829AF8191040F60B
:102B2000C41240F6A6637F2988BF1A460D92002181
:102B300030460FF059FF94F8433096F8B8205B09FF
:102B400063F3430286F8B82014F0C4FE814696F879
:102B5000B800C0F3420014F0BFFE09EB000307FB0E
:102B600003F3D34A03F5742303F23F23A2FB0323A9
:102B70009B0C2B637B08963B6B6394F8353040F2DB
:102B8000E24202FB03F36B64A38FA6F87631394669
:102B900030460FF015FFC74BC74AC6F87C213B44AF
:102BA000B3FBF7F39AB2A6F87021298B881D8242F5
:102BB00004DDC1F57F41FA310A4492B2A6F86C21D6
:102BC0006B68C6F8BC30DAF83830002B00F0B381FF
:102BD0004FF00109E20700F1BB814FF480732384B9
:102BE0009AF81B0014F002F804F12F03002800F0FB
:102BF0005581A26AC4F82F20A28D9A800C9BFF2BCE
:102C000000F0A081BDF84C301298A4F82D30C4F823
:102C10002900BBF80430A4F8273010989DF83F3005
:102C2000C4F8230084F82230EB8AE3862B8B2387B9
:102C3000B6F87631638796F8B830C3F3420384F868
:102C40003C3030460DF098FC0823A882E08085F8DF
:102C5000A730D8F804B00B98214606F015FBAB8AD4
:102C6000ABF806301C23DBF800408BF80430B9F1D8
:102C7000000F40F02F818BF820900AF051FD0028C2
:102C800040F03B815946204606F010FB95F848304D
:102C900003F00703032B00F2FE8003F1280B4FEA39
:102CA000CB0B5B102BFA03FBBBF5A47F38BF4FF4B3
:102CB000A47B95F8490000F00700032800F2E880A3
:102CC00000F12804E4004310DC40B4F5A47F38BFD1
:102CD0004FF4A474012114F0F9FB8146774A784837
:102CE0005C4409F29F3323440721E3FB02014FF0C8
:102CF0009613C5E903336CA3D3E90023FDF700FA6B
:102D000020F07F407060D8F80C300A982A6B40F2AF
:102D1000E24101FB00342F3C0D9BA41ABD1A022195
:102D2000002201201C4403F0BDFDDAF83830A4EB8A
:102D30000904A3B11F6838460BF094FEC21C614B16
:102D40000097D2B20121002005F016FB012800F007
:102D5000088197F846306FF3000387F846305046F5
:102D60000BF040F8074655484FA3D3E90023A4FBD6
:102D70000001FDF7C5F9CDF804A0D8F80830514995
:102D8000009120F07F4BBA1C453BD2B25B4401213D
:102D9000002005F033FB012800F0DC809AF81830A1
:102DA000DB0700F1A28030460DF0E6FB434BA5FBAC
:102DB000035904463CA3D3E9002328464946FDF7BE
:102DC0009FF9D8F80830404A0792A3F145083F4BD5
:102DD000069620F07F47A7FB0331E81A3C4B05938A
:102DE0004FF4F873089373684FF0000ACDE903A31A
:102DF0004FF0070303FB071169EB01014FF47A72EF
:102E00000023FDF77DF90834E4B2CDE90170CDF877
:102E100000B0434622460121504605F0BDF910F0AE
:102E2000FD0F40F0A58001220221104603F03AFD7B
:102E300015B0BDE8F08F0022CAF8082095F82C30B4
:102E40000B9862F3000385F82C30E56801262146D3
:102E5000267106F019FA28682E71294606F026FA1E
:102E600015B0BDE8F08F0DF1400B10460DF13F019C
:102E70005A4613F0DFF89DF83F9094F8207009F15E
:102E800002095FFA89F98DF83F9009F00102D4E553
:102E90004FF429641EE74FF4296B0AE7C4F82F00AA
:102EA0009880ABE6AFF300808D49FD1A0700000063
:102EB00083DE1B437FC3C901404B4C0000CA9A3BD1
:102EC0008C49FD1A95550100E55401008D49FD1A04
:102ED0000D55010095F8273043F0400385F8273061
:102EE000281D12F09FFE2885C5E6002301220093CD
:102EF0001846114605F040FA55E75946204606F0B7
:102F0000C3F9DAF834B05046DBF800400AF06AFF43
:102F100010F0FF000DD100231222ABF806008BF851
:102F200008308BF80420AA8AABF80A208BF8093005
:102F3000A8E600DEEFE794F82030C3F3401949E635
:102F40000D93F4E50022C4F82920A4F82D2060E6B2
:102F500000DE42E606F038FA82453FF41FAF00DE9D
:102F60001CE706F031FA87423FF4F3AE00DEF0E6EC
:102F700000DE58E7000000002DE9F04F8DB09B46C1
:102F8000BDF864300893CDE90601BDF868309DF8BE
:102F90005C80BDF860A09DF86C90039200200593C2
:102FA0000DF012F8002800F09C8008F0010705469B
:102FB000384605F061FB04902FB1062103F016FCA2
:102FC000002800F09880169B04995A4638460DF068
:102FD00037FE002840F0818001200CF0F5FF064606
:102FE00000287ED019F0040F7FD04369002B00F039
:102FF000848006F1100494F8343069F3020384F8F5
:1030000034306368002B00F08D80D4F804900BF00E
:103010000103D9F80050089399F84800C0F3C001A3
:1030200000F0070014F050FA94F8342002F0070280
:10303000032A68D802F12801C900521021FA02F2CD
:10304000B2F5A47F38BF4FF4A4725200B9F80E1045
:1030500000F209330B441344B348B44A0721E3FB9D
:1030600000211046AEA3D3E90023FDF749F820F074
:103070007F406860039D284613F02AFBA38E03F06F
:10308000BF0363F0FF03A386002D3FD0A8F1020326
:10309000012B40F22D8196F86210089868F38301A5
:1030A00086F8621094F8341060F3451184F83410F7
:1030B00016990968A16016998988A1810599A1824C
:1030C00003990091DDE9062320460021FEF778FCF4
:1030D000B06500200DB0BDE8F08F0B200DB0BDE84D
:1030E000F08F0C200DB0BDE8F08F6B6943B105F196
:1030F00010042E467FE71220F0E76B69436178E702
:1031000043696B61F3E74FF4A9529FE713F074FE34
:103110000028BBD0039A1699584613F04FFC84F848
:103120003500B3E706F098F80990002800F0F28027
:103130000DF016FA0546002800F0E980143003F07F
:1031400011FD05F11009002840F0E680032105F18A
:10315000180014F0A7F8E86E089B2B854FF6FF7255
:10316000A5F826A0AA84002800F0CD8005F15C0116
:1031700005F1600203F046FBB5F8582022F4EF6237
:1031800022F0070242F48C7242F00102A5F85820A6
:1031900095F8722022F00702002385F8722040F68D
:1031A0007F02EB66A5F870306B85C5F82E30A5F868
:1031B000B62005F1320012F0DFFC95F8372060F3FD
:1031C000050285F8372001210DF12F0014F06AF86F
:1031D000059A9DF82F10A5F87621554AA2FB010209
:1031E000D20802EB4202A1EB820195F8372002F0EF
:1031F0003F0285F8372095F83C20053122F0070280
:1032000040F2E24085F8381085F83C20298D494A83
:1032100000FB0AFA06205244A5F8740101F1060CDD
:10322000B2FBFAF290B20023604585F83930A5F878
:103230004031A5F87831A5F87231A5F86E31A5F8BE
:10324000700102DD0638401A80B2A5F86C012846EC
:103250000FF04EFB514628460FF0B2FB4FF0000A2C
:10326000099BC5F8483185F844A10DF0DDFC95F8BF
:10327000802160F3020285F880210DF0DBFC95F8D7
:10328000802160F3C50285F8802195F842216AF318
:10329000410285F8422105F1C4000FF033F995F899
:1032A00080210BF0010363F3C71285F880214FF0F2
:1032B0009612C5E907220893169B1A68C5F887215C
:1032C00095F880219988049BA5F88B1168F38612E4
:1032D00085F880211A68C5F881219A88A5F885218A
:1032E000C4F80490C5E902AA85F800A02D6193E610
:1032F000002013F011FA94F8343043F04003B8463C
:1033000084F83430C7E605F16400E8662EE70998D2
:1033100005F0A8FF0720E1E600DE17E7AFF3008025
:103320008D49FD1A0700000000CA9A3B8C49FD1A1E
:10333000ABAAAAAA7FC3C9012DE9F04F04468DB0FC
:1033400090F82070A38D806AADF82C30E3070E460C
:103350001546C7F3C0110A90C7F3401700F11C814E
:1033600000232384B37C707C13F001031CBFD4F8CA
:103370002230C4F82F3004F12F0214BFE38CC4F8BC
:103380002F30FF28938004F1290804F1230200F074
:10339000E18004F1220112F04DFE94F82230BDF8D4
:1033A0002C200A98C4F82900023384F82230A8F8A7
:1033B00004203368D3F800A0EB8AE3862B8B2387A5
:1033C000BAF82430638714F083FA84F83C00D5F807
:1033D000009048460DF0D0F80021A882E0804846D1
:1033E0000FF002FB082385F8A730D6F80480206888
:1033F000214605F049FFAB8AA8F806301C23D8F80F
:10340000004088F80430002F40F0B38088F8207026
:103410004146204605F04AFF95F84800B5F816B039
:10342000F46840F2E243C0F3C00100F0070003FB80
:103430000BFB14F049F80022A4EB00080221012044
:1034400003F030FA50460CF073FD594CA8FB0448C9
:1034500055A3D3E90023054641462046FCF750FE1C
:10346000CDF804A0B3685349009120F07F476A1D4E
:10347000453BD2B23B440121002004F0BFFF10F0D5
:10348000FD0F40F08D8001200CF086FD054678B1DF
:1034900082457AD028460CF04BFD421D464B0095E4
:1034A000D2B20121002004F067FF10F0FD0F75D1AA
:1034B0004FF0000A534604220121CDF800A05046E7
:1034C00004F05AFF48460DF057F80546384836A331
:1034D000D3E90023ABFB0001FCF712FE1946374B82
:1034E000B6680893364B069340F27233CDF81C90C1
:1034F0000993D9F804308346CDE904A3104600238C
:103500004FF47A72FCF7FCFD2E4B0722A7FB033128
:10351000CDE902B002FB0711E01A68EB01014FF49C
:103520007A720023FCF7ECFD0835453EEDB2CDE99B
:10353000007033462A460121504604F049FE10F03F
:10354000FD0F2FD10122022110460DB0BDE8F04F32
:1035500003F0A8B90023BDF82CC00A98C4F829309C
:10356000A8F8043084F82210C4F82300A2F804C09C
:103570001FE795F8273043F0400385F82730281DD2
:1035800012F050FB0127288540E700200CF004FDD5
:10359000054600288CD07DE700DEE1E600DE87E707
:1035A00000DE70E700DECDE78D49FD1A0700000060
:1035B00000CA9A3B4D560100595601005156010070
:1035C000815601008D49FD1A032838B50D4610D0EB
:1035D0000838C3B20F2B11D880B20CF0D5FF0446C7
:1035E00060B190F93730002B0BDA40682860204634
:1035F00038BD00200BF0DEFA0446D8B9002420467E
:1036000038BD90F85800C0F3C00100F0070013F077
:103610005BFF154A00F5C55314481F330721E3FB30
:10362000002110460EA3D3E90023FCF769FD20F02A
:103630007F40DBE7FF2211460BF0C4FA0B4A0A4B2E
:103640000721E0FB0231184605A3D3E90023FCF76C
:1036500057FD20F07F402860204638BDAFF3008042
:103660008D49FD1A070000008C49FD1A00CA9A3BDB
:1036700070B588B01E46134606AA029207AA0192A8
:1036800005AA00920024224A079412F095F9FF2817
:1036900034D0069B1F480721A3FB000201FB032136
:1036A00019A3D3E90023FCF72BFD044600B13E34F7
:1036B000079D1949059BA5F57422A2F510728A424F
:1036C00014D814480721A3FB000201FB03210EA319
:1036D000D3E90023FCF714FD104BA3FB053504EBE5
:1036E000954404443460002008B070BD05F1E875CD
:1036F00005F5D435013B05F5A575E2E76FF0090046
:10370000F2E700BFAFF3008000CA9A3B0000000060
:10371000AD5901008D49FD1ABFBDF07F83DE1B430B
:103720002DE9F043C668476873683D491A68D0F8C8
:103730000090A7F57423A3F510738B4283B08046E5
:1037400007D907F1E87707F5D43709F1FF3907F50D
:10375000A57773685168DD8ACDF8049006F11003EF
:1037600001AA0220FFF784FF00284ED10199A1EBA6
:1037700009031B0237D40846494604F0E9FE034614
:1037800028480721A3FB000201FB032122A3D3E960
:103790000023FCF7B5FC34690444002C346109DBD8
:1037A00040F2E24305FB03F3A3422FD2E41AA34203
:1037B000FCD33461D8F800301A48A3EB0903A3FB0B
:1037C0000002072101FB032113A3D3E90023FCF727
:1037D00097FC154BA3FB0737A0EB974020443061C3
:1037E00003B0BDE8F083484604F0B2FE03460D483E
:1037F0000721A3FB000201FB032107A3D3E9002358
:10380000FCF77EFC3469241AC7E73469002CD1D157
:1038100003B0BDE8F08300BF00CA9A3B000000007F
:10382000BFBDF07F8D49FD1A83DE1B430000000001
:10383000F0B5C468636883B00546002B5CD117F00F
:1038400055F894F92C0017F0BBF8A17A607A01F0D2
:103850000101C0F3820017F061F8627A252102F0BD
:103860001C02082017F012F9414B019301A817F030
:10387000F9F8404940F25B6017F0C0F9237AC3F3CE
:10388000420262F306132372204614F02DFA13F05D
:10389000B3FA58BB637A9B071FD127682E68384656
:1038A00013F0CAFD06446A6806F11801012017F0FA
:1038B00051FC17F093FD20460AF0A2FA811C324613
:1038C000C9B2384613F0BAFD054610BB204613F0C6
:1038D00065FDE0B9002003B0F0BD012012F078FED4
:1038E0004178821C007817F0D5FBD6E7607A10F09B
:1038F000030018BF0120F1E793F82C309A079ED0FF
:103900001D48214616F0C6FF17F01EF9E2E700DE5B
:10391000E0E71A4A1A491B4840F211431BF095FD93
:10392000194B0721A5FB030301FB05310EA3D3E9C6
:103930000023FCF7E5FB1549024615481BF085FD01
:10394000002585F31188BFF36F8F0323184602DF2C
:103950001048214616F09EFF17F0F6F86FF08B0026
:10396000B9E700BFAFF3008000CA9A3B0000000037
:10397000D6BE898E55555500B57501007C0C0200E8
:10398000C80C0200000B02008D49FD1AF80C020061
:10399000CC0C0200E57801002DE9F047C46884B042
:1039A000002307460DF1070104F1140066688DF845
:1039B000073014F05BF90546002800F0DD80337B0A
:1039C00006EB8303D3F8108098F8003003F00F0360
:1039D000072B40F0C78003A9404614F01DFC0028C7
:1039E00040F0C880039A002A00F09F8093785178B5
:1039F0001B0203F4F8530B4300F09780238992F8DD
:103A000000A00133238116F071FF96F92C0016F007
:103A1000D7FF96F80990B17A4FEA591901F00101E0
:103A2000484616F07BFF4FEA8902FF21082017F075
:103A30002DF86B4B029302A817F014F80AF03F0A16
:103A4000684940F25B6017F0D9F8504613F008FD62
:103A500098F802303F2B36D8AB789A0602D0EB7834
:103A6000DB0669D4002360482362214616F012FF6A
:103A700017F0D4FA284617F03FF826683D6830461C
:103A800013F0DAFC054405F118017A68012017F0FB
:103A900061FB17F0A3FC20460AF0EEFFC11C2A468A
:103AA000C9B2304613F0CAFC054600286AD1204648
:103AB00014F0C4FC204613F071FC00285ED10020F5
:103AC00004B0BDE8F0870DF1070106F1180014F00D
:103AD000CDF88046002853D02146444816F0DAFE3F
:103AE000962017F02BFB484617F034FA9DF8073064
:103AF000A3B913F081F958B9737A9907BAD00120A4
:103B000012F066FD4178821C007817F0C3FAB1E725
:103B1000707A10F0030018BF0120F1E76B68C8F855
:103B200004302B89A8F80830E3E73148214616F025
:103B3000B1FE17F009F8C2E720462946256214F0C5
:103B400053FC21462B4816F0A5FE4FF4967017F053
:103B5000F5FAB37A03F0010319464A46484617F0CE
:103B600023FA87E700DE03A9404614F055FB00283E
:103B70003FF438AF00DE35E700DE20E700DE9EE7E9
:103B800000DEA9E71C4A1D491D484FF4A4731BF031
:103B90005CFC1C4B0721A5FB030301FB05310EA3B5
:103BA000D3E90023FCF7ACFA1749024617481BF08B
:103BB0004CFC002585F31188BFF36F8F0323184653
:103BC00002DF0948214616F065FE16F0BDFF6FF0D2
:103BD0008B0075E7AFF3008000CA9A3B000000003D
:103BE000D6BE898E55555500558201007D82010053
:103BF0009983010059840100040D0200C80C0200E1
:103C0000000B02008D49FD1A540D0200CC0C02007D
:103C10002DE9F041C46894F92830002B8CB0C0F233
:103C2000E680636805460E46002B40F0D58094F888
:103C300028306FF3000384F8283016F057FE94F90B
:103C4000440016F0BDFE94F83400012100F0070096
:103C500016F064FE94F8342092000820252102F02A
:103C60001C0216F013FF94F8343023F018030120DF
:103C700084F8343005F048FC002800F0BF80203084
:103C800016F034FF764B0B930BA816F0EBFE75493C
:103C900040F25B6016F0B2FF94F82800C0F34100D8
:103CA000253013F0DDFB7048214616F0F3FD94F843
:103CB00028309B0603D46368002B00F08A8096208E
:103CC00017F03CFA00231A461946184617F056F921
:103CD00013F092F8002840D194F8283013F0180F10
:103CE00057D1D4F800802F68404613F0A5FB074455
:103CF0006A6807F11801002017F02CFA17F06EFB24
:103D000017F0A4F920460CF01FF9411DC9B2404636
:103D10003A4613F093FB8046002875D116B9236C00
:103D2000002B3FD163687BB12A68504BA2616A685F
:103D3000E26104F11801996064620122022100200D
:103D400002F0E4FD00285DD1204613F027FB002897
:103D500056D100200CB0BDE8F08194F82800C0F3E3
:103D6000C00012F035FC07460DF12B0012F066FF83
:103D700079788046BA1C387817F08CF994F834209A
:103D80009DF82B009200414602F01C0217F0BCFB8C
:103D9000A7E7012012F01CFC4178821C007817F084
:103DA00079F99EE7324A0792324A059240F2F312BD
:103DB00000930892CDE90366CDE9016606943B467F
:103DC0003146042204F0E8F910F0FD0FAAD000DE1D
:103DD000A8E717F023F97BE7636893F82C30D9073D
:103DE00005D4636893F82C309A077FF520AF2248FA
:103DF000214616F04FFD16F0A7FEAAE700DE3EE7CB
:103E000000DEA6E700DE9FE71C4A1D491D4840F280
:103E1000E5131BF01AFB1C4B0721A8FB030301FB56
:103E200008310DA3D3E90023FCF76AF917490246CC
:103E300017481BF00AFB002585F31188BFF36F8F2D
:103E40000323184602DF1348214616F023FD16F01F
:103E50007BFE6FF08B007DE700CA9A3B00000000FC
:103E6000D6BE898E55555500393F00003C020020D2
:103E7000E587010065880100B5750100600D02004D
:103E8000C80C0200000B02008D49FD1AAC0D0200A7
:103E9000CC0C02002589010038B5044614F0F6FC6C
:103EA00094F8283094F82820C3F34103013303F039
:103EB0000303032B08BF002363F3420214BF03F183
:103EC0002500252084F8282013F0CAFA63680BB176
:103ED00023694BB904F03AFBC11C002017F09CF990
:103EE000BDE8384017F07ABA17F01CFA054604F01E
:103EF0002DFBC11C002017F08FF917F06FFA17F097
:103F000011FA294604F024FB094A03460721A0FBC5
:103F1000020201FB032104A3D3E90023FCF7F0F81C
:103F200023691B1A236138BD00CA9A3B00000000B8
:103F30008D49FD1A000000002DE9F04F8DB00446B8
:103F400016F046FE10F0FF0013D1FF238DF8290074
:103F50008DF827008DF82A308DF8283013F0D0FA2C
:103F6000A348214616F096FC16F0EEFD0DB0BDE814
:103F7000F08F16F04FFE054617F0C0F88DF82700B9
:103F800017F0C6F88DF8280017F030FB8DF82900DF
:103F900017F00EFB8DF82A0017F072F8064617F09E
:103FA0004BF8EDB2074613F0ABFA002DD8D0012044
:103FB00005F0AAFA0546002800F0F88195F82030AF
:103FC00003F00F03072B05F1200900F0E5809DF8B1
:103FD0002730002B3FD19DF82980B8F1000F40F029
:103FE000FD8042464FF0FF0A41465346204614F0FA
:103FF000ABFE0028B4D09DF8298095F82020616898
:1040000000238DF82B30F6B202F00F0300294AD0BE
:10401000616891F82C10880745D4072B40F0EA809E
:1040200094F834305A079BD094F8282012F00102FB
:1040300096D10DF12B010191CDF800A04B46012145
:10404000204614F0C9FE002840F0A18095F82030E9
:1040500003F00F0379E094F828009DF82810C0F3CE
:10406000C00012F0F5FD9DF829809DF827208246BA
:10407000BAE7012B46D195F821200C2AE6D195F814
:104080002020CDF800A0194600230193D20905F1A4
:104090002803204614F02CFD002840F0B88095F845
:1040A000203003F00F036BBB95F821309A1F1F2AB5
:1040B00044D894F8282002F02102202A08D1D4F80C
:1040C00004B0BBF1000F00F09D81063B1F2B35D8DB
:1040D000636833B195F8203003F00F03072B7FF4AA
:1040E0003FAF9DF82B50009733465246414620463D
:1040F000019514F053FD00283FF432AF10307FF4E7
:104100002FAF33E7062BCFD04521D94011F0010165
:1041100040F05681012B11D195F821300C2B95D10F
:1041200095F82020CDF800A00DF12B030193D209C2
:1041300005F12803204614F0DBFC40BB95F8203045
:1041400003F00F03072B3FF46BAF042B7FF408AF92
:1041500095F82130063B1F2B3FF602AF94F828302C
:10416000DB077FF5FDAE16F063FD95F82030027891
:10417000C3F38013B3EBD21F7FF4F2AE08300622F4
:1041800005F122011CF0F5F900287FF4E9AE95F85D
:104190002130002B9CD1E3E60DF12A0301930DF1B0
:1041A000290300930DF127020AAB4946204615F07A
:1041B000F9FA9DF827308346002B40F0DE809DF809
:1041C0002980B8F1000F40F0F3804FF0FF0ABBF1F7
:1041D000000F3FF412AF9DF8272005E79DF82A0055
:1041E00012F05AFD9DF829809DF827208246FBE6B3
:1041F0005189010094F82810090740F1CA80002B6A
:104200007FF437AF95F82130063B1F2B96D804205A
:1042100005F07AF900283FF4A3AE17F0E7F8236C15
:10422000074643B9A38F40F2712202FB03F3B0FBB0
:10423000F3F203FB120723685A68B14B0721A2FB74
:10424000030301FB0231ACA3D3E90023FBF758FFC2
:10425000A0F2D3431F3B62EB0202BB4272F10002A9
:10426000FFF47EAE16F0DAFE63680793504612F054
:10427000CBFC94F834305B06814640F11B8100286A
:1042800000F018818346012716F0D2FCCDE9027BAD
:104290000BAB049305F12203019395F82030C3F38F
:1042A000801301460746009300220123204614F0A4
:1042B00003FE384616F020FC16F080FC002840F083
:1042C00017819048214616F0E5FA002E40F0F9805B
:1042D000626892F82C3043F0010382F82C3094F895
:1042E000283043F0800384F8283005F029F917229C
:1042F00002714FF6FF72C28095F820E006463B46F9
:10430000CEF3401E00F1200207F1200C1D68586812
:104310009968DF68D760103363451560506091601D
:1043200002F11002F2D11B68136096F82030B460DD
:104330006EF3451386F8203016F0F4FFB8F1000F45
:1043400030610B9B736108BF4FF0FF0A86F819A01C
:1043500094F8343013F0400303D0B9F1000318BFD0
:104360000123B27E63F30002B27605F0E9F831462C
:10437000F060306805F012F9F8E594F828009DF82F
:104380002810C0F3C00012F063FC9DF8298082461B
:104390001DE7BAF1FF0F8DF82CA0C2F3801B12D0DD
:1043A00094F8352052453FF42AAF7CE600DE05E65E
:1043B0009DF82A0012F070FC9DF82980824606E7DD
:1043C00095F8213081E605F122010BAA58460791A4
:1043D00012F0B6FC079900283FF461AE94F834302F
:1043E000C3F340135B457FF45AAE062204F1080084
:1043F0001CF0BFF800287FF452AE95F8203003F08F
:104400000F03FCE6962016F099FE584616F0A2FD22
:10441000CDE9007B334641465246204614F0BEFBB0
:1044200000287FF49DAD16F003FC06460322337886
:1044300062F30303337095F820303278C3F38013AE
:1044400063F3C7120C2332705046737012F0DCFB1A
:1044500094F8342057063AD5C8B33178324641F043
:10446000400102F8021B0168C6F80210838893809D
:10447000D5F82230B360EB8CB381304616F03CFBAC
:1044800016F09CFBB0BB16F0A9FF94F8283043F05F
:10449000010384F8283095F82030190705D194F8E5
:1044A000343043F0080384F834301748214616F0BE
:1044B000F1F95BE594F8287004F1360BC7F3801727
:1044C000E2E616F0CDFD079B83F8A60000E794F81E
:1044D00028303278C3F3801363F38612334603F82F
:1044E000022BD4F83620C6F80220628F9A80BFE7EC
:1044F00000DEE6E600DEC6E700CA9A3B00000000E8
:104500008D49FD1AED890100658901000000000058
:104510002DE9F047C46882B007460DF1020120463C
:104520000BF070FE90F92830002BC0F2D880436861
:104530000546002B40F0C8802379854A6FF3861327
:1045400023710023138016F0D1F995F9440016F079
:1045500037FA6079012100F0070016F0DFF962797F
:1045600092000820FF2102F01C0216F08FFA0120B1
:1045700004F0CAFF002800F0B980203016F0B6FA27
:10458000744B019301A816F06DFA734940F25B6019
:1045900016F034FB207900F03F0012F061FF214655
:1045A0006E4816F077F9962016F0C8FD627902F091
:1045B000070201231046002116F0E0FC12F01CFC5B
:1045C000002859D195F8283013F0180F73D1D4F87A
:1045D00000903E68484612F02FFF06EB00087A680C
:1045E00008F11801002016F0B5FD06466079D4F8F0
:1045F00008A000F00700012116F090FA0644607947
:1046000000F007000228564434D004280CBF4FF4B1
:10461000BC73282301211E4416F082FA304416F0A0
:1046200095FE16F0DBFE16F011FD20460BF0E0FDC6
:10463000C11D4246C9B2484612F000FF0646002896
:104640005AD16B686BB13B68AB617A68444BEA61E5
:104650006D620122183502219D6002F057F9002891
:1046600048D1204612F09AFE002841D1002002B025
:10467000BDE8F0871823CDE795F82800C0F3C00007
:1046800011F0A6FF06460DF1030012F0D7FA71787B
:104690008046B21C307816F0FDFC62799DF803006C
:1046A000C2F30202920042F00202414602F01E02F0
:1046B00016F02AFF8BE7012011F08AFF4178821C57
:1046C000007816F0E7FC82E7436893F82C30DA07AD
:1046D00005D4436893F82C309B077FF52DAF214814
:1046E000214616F0D7F816F02FFABFE700DE44E7B0
:1046F00000DEBBE700DEB4E71B4A1C491C4840F261
:1047000051231AF0A2FE1B4B0721A6FB030301FB5A
:1047100006310DA3D3E90023FBF7F2FC164902464C
:1047200016481AF092FE002585F31188BFF36F8FAB
:104730000323184602DF1248214616F0ABF816F0A4
:1047400003FA6FF08B0092E700CA9A3B000000006A
:1047500046800020D6BE898E5555550039980100F7
:104760005C020020A1930100C00D0200C80C0200F1
:10477000000B02008D49FD1A580E0200CC0C0200FD
:1047800005900100000000002DE9F04F8FB00546B4
:104790000E46174616F01CFA10F0FF0015D1FF2345
:1047A0008DF831008DF82F008DF832308DF83030D3
:1047B00012F09CFE002E5CD07E48314616F06AF85E
:1047C00016F0C2F90FB0BDE8F08F16F023FA0446D8
:1047D00016F094FC8DF82F0016F09AFC8DF830003E
:1047E00016F004FF8DF8310016F0E2FE8DF832006D
:1047F00016F046FCC3B2079316F01EFCE4B2069016
:1048000012F074FE9CB3032004F07EFE044670B3E5
:1048100090F8203003F00F03072B00F1200A26D177
:1048200090F821301BB30DF1320301930DF13103E8
:1048300000930DF12F020CAB5146284614F0B2FF45
:104840009DF82F208346002A40F0A6819DF83190E4
:10485000B9F1000F40F0C6814FF0FF08BBF1000F27
:1048600028D043464946284614F06EFA10BB002E65
:10487000A2D195F83430D90640F1898104F060FE68
:104880000146002800F0C3820A230B718D60EB6A99
:104890000868CB6004F082FE95F83430DA0640F107
:1048A00076816FF30413444885F83430294615F0B7
:1048B000F1FF85E76B6800228DF833202BB16B6820
:1048C00093F82C1011F002017CD06B68002B00F0E3
:1048D00075816B68002BCAD1002E00F0AA81337954
:1048E0001B0612D4EB6A1BB193F90430002B0CDBCE
:1048F0000DF1330300220193CDF800805346114699
:10490000284614F069FA0028B1D0A6603379A27E57
:10491000C3F3801363F30412A276337943F0800368
:1049200033710023EB6204F00BFE16F0FBFC2061F8
:1049300016F05CFD06998346384616F0F1F8A37E22
:10494000069A62F38203A376079BABEB00006061DB
:10495000002B40F02F817F20A37E9DF8332020760E
:10496000B9F1000F03F0F70308BF4FF0FF0862F33F
:10497000410384F81980A376002E00F03B81069A4B
:104980000E4B00963946504614F06AFEA37E09226B
:1049900060F3C713A37620682271214604F0FEFD60
:1049A00094F91A30002BFFF60DAF054A1388013336
:1049B000138001E705900100158D0100E1930100CE
:1049C0004680002094F822305B067FF57EAFCDE96B
:1049D000008153460122284614F0FEF900283FF4D6
:1049E00074AF002E00F00682042004F08DFD002834
:1049F0003FF4E2AEB34616F0F9FC2B6C824643B9A5
:104A0000AB8F40F2712202FB03F3B0FBF3F203FB26
:104A1000120A2B68A0485B680721A3FB000201FB78
:104A200003219BA3D3E90023FBF76AFB0346780726
:104A300000F1EF8107F0030202F12B01C7F3400000
:104A4000C9001732D200C1405B1AC2406FF48161C5
:104A50000B449B1A1F3B62EB0202534572F10002AA
:104A6000FFF405AF404612F0CFF895F834300990C6
:104A70005A0640F1D881002800F0D58108904FF007
:104A8000010A16F0D5F8089B0DAACDE902A30492FD
:104A900004F12402019294F82020069BC2F38012B4
:104AA00001468246009228463A4614F005FA5046DE
:104AB00016F022F816F082F8002840F0EC8116F08B
:104AC0008DFC962016F03AFB384616F043FA7348F0
:104AD000594615F0DFFE079B002B40F0C3816A6842
:104AE00092F82C3043F0010382F82C3095F82830EE
:104AF00043F0800385F8283004F022FD172202716C
:104B00004FF6FF72C2800446534600F120020AF1BC
:104B1000200E1F6858689968D3F80CC0C2F80CC002
:104B20001033734517605060916002F11002F0D1AC
:104B30001B68136094F82030A56043F0200384F8CC
:104B4000203016F0EFFBB9F1000F0D9B206108BF7C
:104B50004FF0FF0884F81980636195F8343013F042
:104B6000400303D0099B003B18BF0123A27E63F3DF
:104B70000002A27604F0E4FCE060CBF80C40002ECA
:104B80007FF420AE464A1388013313801AE6E96A9F
:104B9000444815F07FFE13E695F828009DF8301084
:104BA0000892C0F3C00012F053F89DF83190089AB3
:104BB000804653E616F054FAC0B2CDE695F8283098
:104BC0009B067FF586AE002E70D03379580600F133
:104BD000058194F822207F2A75D86A68002A3FF45C
:104BE0007FAEE9E59DF83200089212F055F8089A78
:104BF000804633E6069A2C4B00953946504614F011
:104C00002FFDA37E092260F3C713A37620682271CB
:104C1000214604F0C3FC94F91A30002B80F20B817A
:104C200095F8343043F0100385F834300FB0BDE808
:104C3000F08FEB6A1BB193F90430002B16DB0DF1FA
:104C4000330300220193CDF80080534611462846D5
:104C500014F0C2F800283FF40CAEEB6A33B995F8B3
:104C60003430D8063FF50AAE002191E7A560EB6A23
:104C7000E3601B79A27EC3F3801363F30412A27670
:104C8000EA6A137943F0800313714CE6AFF30080B6
:104C900000CA9A3B000000008D49FD1A799101007D
:104CA0004680002005900100E1930100EA6A002A95
:104CB00000F0B480137959063FF50BAE94F822301A
:104CC0007F2B7FF606AE0DF1330300220193CDF862
:104CD000008053461146284614F07EF800283FF421
:104CE000F8AD042004F010FC00283FF4C0AD96207D
:104CF00016F024FA384616F02DF915F099FF0378CE
:104D0000032262F30303037094F820300278C3F3A4
:104D1000801363F3C7120C2302704370824640462F
:104D200011F072FF95F834305A0640F1898000285E
:104D300000F086809AF80020534642F0400203F8C3
:104D4000022B0268CAF8022082889A80636ACAF835
:104D50000830238DAAF80C30504615F0CDFE15F022
:104D60002DFF002840F0958016F038FB04F0E8FB9A
:104D700009232371002E7FD04848A660314615F0E4
:104D800089FD337943F04003337116F0CBFA20618B
:104D900016F02CFB06990546384615F0C1FE079B18
:104DA0002D1A6561002B63D17F21A27E9DF83330DF
:104DB000217602F065025B00B9F1000F42F00802B3
:104DC00023F07D0308BF4FF0FF081343206884F8E9
:104DD0001980A376214604F0E1FBF3E4EA6A002A95
:104DE0007FF468AF6A68002A7FF4E6AC1B067FF5A3
:104DF0007FAD8AE5D5F82CB0BBF1000F3FF42FAFA3
:104E0000042004F081FB00287FF4F5AD31E500DEDD
:104E10003AE5A3F535634FF4CA6217E66B68002BD9
:104E20003FF40DAF25E595F828A005F13603CAF348
:104E3000801A089325E61A4A1388013313802BE55C
:104E400095F828309AF80020C3F3801363F3861294
:104E5000534603F8022BD5F83620CAF802206A8F91
:104E60009A8073E716F0FCF86B6883F8A60036E6C4
:104E700016F0F6F8C1B298E7A560EB6AE36009485E
:104E8000214615F007FDEA6A137943F040031371D8
:104E90007BE700DE68E700DE11E600BF519101000C
:104EA00046800020299101002DE9F043C468A28AC0
:104EB0004FF6FF739A4283B000F00281064614F069
:104EC0003FFD3389628B208CA3831A4492B2104435
:104ED00094F82730E28380B2411C21845D064FF0B4
:104EE0000001618304F1220100F1AA8003F03F0078
:104EF0000B4694F82810009004F1290010F04AFEA7
:104F00000546D4E90C31A26BA08BA36303FB0022FE
:104F1000E36B8A4294BF9B185B188B4228BF0B46F9
:104F2000626C216CE3630A4494F8493062640022A5
:104F300094F82C10226494F86220C3F3020363F304
:104F4000061112F0040284F82C1000F08A8015F08B
:104F5000CDFC94F9A70015F033FD201D15F082FD5E
:104F60002389A17A40F25B6043EA014115F046FED5
:104F7000284612F075FA2146594815F08BFCA08995
:104F800016F0DCF894F8482094F84900C2F3C00306
:104F9000002102F0070200F0070015F0EFFF2046A5
:104FA00014F08EFDD4F800803768404612F044FAC1
:104FB0000744726807F11801002016F0CBF881460B
:104FC00016F0E0F9002016F0F7F9E36B94F84900C9
:104FD00003F12F02636C00F00700012103EB42058F
:104FE00015F09CFD4D44054494F8490000F007007D
:104FF000022834D004280CBF4FF4BC7328230121AD
:105000001D4415F08DFD284416F0A0F916F01EF889
:10501000A18A08313A46C9B2404612F00FFA054655
:10502000B0B1B37A13F0020629D000252D482146ED
:1050300015F030FC15F088FD284603B0BDE8F0837C
:105040000A4603F03F03218D10F0F0FD054658E7B6
:10505000204612F0A3F9002839D10025ECE71823E7
:10506000CDE7D4E9130101F0E5FB00287FF46FAF31
:1050700094F8623043F0040384F8623067E71A4A18
:105080001A491B4840F259131AF0DFF91948072151
:10509000A5FB000301FB05310FA3D3E90023FBF7B8
:1050A0002FF81549024615481AF0CFF986F31188F2
:1050B000BFF36F8F0323184602DF6FF08B05B5E750
:1050C0000F48214615F0E6FB15F03EFDC5E700DE72
:1050D000C3E700BFAFF3008000CA9A3B00000000A6
:1050E000119D01006D750100640E0200C80C0200E4
:1050F000000B02008D49FD1AB80E0200CC0C020014
:10510000B575010000000000F0B5C468A28A4FF632
:10511000FF739A4285B000F0AF80054614F010FC92
:105120002B89628B208CA3831A4492B2104494F88A
:105130002730E28380B2411C21845E064FF00001DB
:10514000618304F1220168D403F03F000B4694F818
:105150002810009004F1290010F01CFD064620469E
:1051600003A914F06DFD039B94F862101A7861F3A3
:10517000C3021A70039A94F862301178C3F34003A3
:1051800063F38201117015F0B1FB94F9A70015F0DB
:1051900017FC201D15F066FC2389A17A40F25B60A4
:1051A00043EA014115F02AFD304612F059F90399FE
:1051B000204614F01BFD2146374815F06BFBE089B3
:1051C00015F0BCFF94F8490000F0070015F0C2FE8E
:1051D00027682E68384612F02FF9064406F11801A8
:1051E0006A68012015F0B6FF16F0F8F8A18A0831B8
:1051F0003246C9B2384612F021F90646A8B1AB7A58
:1052000013F0020517D000252448214615F042FB73
:1052100015F09AFC284605B0F0BD0A4603F03F039E
:10522000218D10F003FD064699E7204612F0B6F8EE
:1052300048BB0025EEE71A4A1A491B484FF4807311
:105240001AF003F919480721A6FB000301FB0631F8
:105250000FA3D3E90023FAF753FF15490246154877
:105260001AF0F3F885F31188BFF36F8F0323184604
:1052700002DF6FF08B05C7E70F48214615F00AFBE8
:1052800015F062FCD5E700DED3E700BFAFF3008086
:1052900000CA9A3B00000000259B01006D750100CB
:1052A000C40E0200C80C0200000B02008D49FD1A5A
:1052B000140F0200CC0C0200B5750100034883688E
:1052C000DB6903B118476FF0570070474C070200C5
:1052D000024883689B6903B1184770474C07020076
:1052E00010B4034606480A4681680C691CB1194689
:1052F000234610BC18476FF0570010BC704700BF22
:105300004C07020010B50F4C20461AF0A3FCA8B1C0
:10531000A3685B6A0BB120469847FFF7D9FFA368E3
:105320002BB11B6C1BB10849064800229847A368A3
:105330001B6A0BB103489847002010BD6FF01500A1
:10534000FBE700BF4C0702004D5300002DE9F04F72
:10535000804E814FB3688FB00393039BDB6B002BB0
:1053600040F0EA80B468A36B002B40F0ED80E36A64
:1053700023B13046984708B9FFF7A0FFFFF79EFF1B
:1053800050B13B68B3B975480022002318F030FCD7
:10539000386078B9FFF79CFFB368DB6A13BBDFF8AE
:1053A000C081704D98F80030032BD6D8DFE803F0A9
:1053B0001F3395B63B68D9681A8AB368DB6873B146
:1053C00030469847014638680C301AF01DFA3868A4
:1053D000048A002CE0D101F089F83C60DCE76FF032
:1053E0005701F0E7304698470028B6D0D7E75E4C23
:1053F00001212046FFF774FF0028AED02078431E1D
:10540000012B01D90528CDD119F09BFE012328607D
:1054100088F80030C6E7DFF850A1DFF850919AF81D
:10542000000019F08EFE2968401A4844FFF758FF23
:105430002B681B1A04462B60002B6BD19AF80000D6
:10544000421E042A16D8DFE802F0041715031300E1
:105450000220CDE900330022002301F0DDF8DFF85F
:1054600010B10346CBF8000040B988F8000074E79B
:105470001020EEE70020ECE70420EAE79AF80000AD
:10548000022823D005281CD0012822D199F8022017
:105490002A6019F056FE3549024603F10C001AF055
:1054A000A2F9DBF800000C301AF0C6F92B6898421C
:1054B00011D2DBF8000001F019F8032388F800305E
:1054C00028E0B9F80220C2F30D02E1E7B9F80220A2
:1054D000DEE70022DCE70223F0E7DFF8949029689A
:1054E000D9F800301A8AD8681044FFF7F9FED9F8C5
:1054F00000100B8A03440B822B68A3EB00090446BF
:10550000C5F80090B9F1000F04D11A481AF0AFFCA9
:1055100088F80090002C7FF445AF1EE72968212908
:1055200028BF212105A8FFF7DBFE2B681B1A0446C4
:105530002B60002BEED1C1E73046984700287FF45E
:1055400011AF0FB0BDE8F08F3046984700287FF4C8
:105550000EAFF6E74C070200782000202803002059
:105560005380002074200020528000204E800020B4
:10557000702000201003002038B5094D4FF0FF3295
:105580004FF0FF33284618F033FB044601F07CF857
:1055900010B1204600F0AAFF18F064FFEEE700BF4C
:1055A0001003002070B5184888B001F079F8002287
:1055B0000023CDE9062300236FF00802CDE9032381
:1055C000CDE9013300931149114B12484FF4806229
:1055D00018F09EFD10490F480B4D104E104C1AF05C
:1055E00015FD4FF0FF324FF0FF33284618F000FB57
:1055F000014630461AF03BFCA3685B69002BF0D0F3
:1056000020469847EDE700BFF80200208080002088
:1056100079550000C8030020E8110200280300208B
:105620004C070200014B1B68184700BF1000002008
:1056300030B585B004460D461022002168461AF0A8
:1056400090FF02238DF802302A46044B0193214635
:10565000684619F019FB05B030BD00BF25560000A3
:1056600080B505460E461746984618F09FFF03463C
:105670001AF0F2FFDFF81890044649F8003042466D
:1056800030463946A84754F8090000F0C5FB00BF72
:10569000080000002DE9F047058B044628079046D6
:1056A00011D4022905F0070540F0CC80204619F0FE
:1056B000F4FE78B10138218B042811D8DFE800F01E
:1056C000C2106D85950001290CBF45F0100545F00D
:1056D0002005258388F31188BFF36F8FBDE8F0871D
:1056E00001F0070AAA4500F0A5800027B9463E460A
:1056F000A368002B00F0BC8041F00801218388F3EF
:105700001188BFF36F8FA168002900F0BA800D687F
:10571000002900F0B680D1F8048033465246204676
:10572000C047002D76D02B6829461D46F0E701F0D2
:1057300007035A1F012A1BD8002221F00701062B5C
:10574000276889B2C4E9002209D13B4603E0628B95
:10575000013262831B68002BF9D141F002012183E1
:10576000204619F09AFE00287AD041F0200176E018
:10577000042B0AD121F0070189B22183204619F0B8
:105780008CFE10B141F020012183218B01F0070A2A
:10579000AA454FD00027B946AAE7236921F007019F
:1057A00041F00601062DD3F8009021832DD1B9F1E7
:1057B000000F3FD041F00801218388F31188BFF327
:1057C0006F8F3A492046C84729E021F00701236935
:1057D00041F0040189B2042DD3F804902183E6D06E
:1057E00000273E464FF0040A82E721F007012369B3
:1057F00041F0050189B2052DD3F808902183D6D058
:1058000000273E464FF0050A72E700273E464FF05C
:10581000060A6DE72B4687E7B9F1000FD1D1EFF308
:105820001188202383F31288BFF36F8F238B23F01B
:1058300008032383258BEA062ED525F01003238346
:1058400005F007056669218B002EBFF670AF0023B7
:105850002768C4E9003321F0070141F001012183E9
:10586000218B01F0070AAA454FF000097FF440AFF1
:10587000002F9CD041F00801218388F31188BFF3E9
:105880006F8F002FC8D03D683946334652462046B8
:1058900019F02FFE2F46F4E7AB067FF51BAF25F07E
:1058A0002003238305F0070500E700BF1FF5010073
:1058B000014B036000207047D809020008B5034877
:1058C000034A0021121A19F00EFF08BDC803002078
:1058D000788000200748084A084908B5121A19F0CC
:1058E00004FF0748074A0849BDE80840121A19F0A2
:1058F000FCBE00BF00000020C403002048170200C7
:1059000000000020000000204817020038B50546BE
:105910000C4699B1D1E901230F48096819F088FDB7
:10592000D4E90423E1680D4819F082FDE1690C48CF
:1059300019F07EFDA1690B4819F07AFD012D05D102
:10594000EFF305810848103919F072FD2146284609
:10595000BDE8384018F00CB8F4110200241202001F
:1059600054120200641202009312020030BFFFF7CB
:10597000FDBF00BF2DE9F0410B4EDFF8308006EB94
:105980000807CC1B05463246094920461AF0C1FDDE
:10599000A01942460021083C1AF0E3FD6C6707F1AC
:1059A0000800BDE8F08100BF000000000400000016
:1059B000A4090200054B5A699B689A421FBF044A1A
:1059C000536843F080535360704700BF108000203D
:1059D00000ED00E02DE9F843324D8046324889461B
:1059E000174619F025FDAB6ADE0622D52F4819F0BF
:1059F0001FFD1124AB6A1D0703D52D4819F018FDB2
:105A00001224284DAB6A980715D52A4819F010FDC5
:105A10006E6BAB6A190642D52748314619F008FD6E
:105A2000B9F1000F03D0AB6A23F08003AB621324FB
:105A300003E01024DEE76FF015061A4DAB6ADA07B3
:105A400003D51E4819F0F4FC1424AB6A9B0603D559
:105A50001B4819F0EDFC1524124B9A6AD50602D4A6
:105A60009A6A90070AD55B68190507D54146304602
:105A700000F0B8FA10B180F309880224094B9A6A41
:105A8000920642BF5A6A22F400525A629A6A42F05F
:105A9000FF029A6200233B702046BDE8F8836FF056
:105AA0001506C4E700ED00E0A7120200BE120200D6
:105AB000F2120200061302001F1302003613020046
:105AC0005613020010B51D4C1D4819F0B1FCA36A15
:105AD000990130D51B4819F0ABFC1E20A36ADA01EE
